:020000040000FA
:100000001055001049A8000051A8000053A8000096
:1000100055A8000057A8000059A8000000000000E3
:100020000000000000000000000000005BA80000CD
:100030005DA80000000000005FA80000915E0000C5
:1000400063A80000A1090000BF090000D109000059
:10005000E30900000DC1000063A8000063A80000D0
:1000600075C2000063A8000063A8000063A8000038
:1000700063A8000063A8000063A8000063A8000054
:1000800063A80000B5E8000063A8000063A80000B2
:1000900063A8000063A8000063A8000063A8000034
:1000A000B9DD000063A8000063A8000063A8000099
:1000B00063A8000063A8000063A8000063A8000014
:1000C00063A8000063A8000063A8000063A8000004
:1000D00063A8000063A80000A905000063A8000051
:1000E00063A8000000F002F800F0B0F80AA090E861
:1000F000000C82448344AAF10107DA4501D100F0E3
:10010000A5F8AFF2090EBAE80F0013F0010F18BFFF
:10011000FB1A43F0010318476CA507008CA50700E4
:100120000A444FF0000C10F8013B13F0070408BF1D
:1001300010F8014B1D1108BF10F8015B641E05D0BB
:1001400010F8016B641E01F8016BF9D113F0080F70
:100150001EBF10F8014BAD1C0C1B09D16D1E58BF02
:1001600001F801CBFAD505E014F8016B01F8016B39
:100170006D1EF9D59142D6D37047000000230024AC
:1001800000250026103A28BF78C1FBD8520728BFA7
:1001900030C148BF0B6070476E290EF0348770295C
:1001A0000FF07180662911F00287652911F0FF8632
:1001B000672911F0FC866129AFF3008003681B0AF0
:1001C00028BF41F0800169290EF0708464290EF087
:1001D0006D8475290EF06A846F290EF0FE877829E8
:1001E0000FF03D80E9290EF09987E4290EF09687FB
:1001F000F5290EF09387EF290EF0FB87F8290FF011
:100200003C800368DB0928BF41F0800163290FF0BF
:10021000A78273290FF0AC82E3290FF0B782F3298C
:100220000FF0BC82002070471FB50FF00DFB0400DB
:100230000020002110F050FD401C606000200021D3
:1002400010F034FDE0601FBD10B510BD0FF0CEFA08
:100250001146FFF7E9FF00F0D4F90FF0ABFB03B450
:10026000FFF7F2FF03BC0FF0AFFB000070B50546CF
:100270000C46A4F120000B4A02EB00111022284684
:100280000EF044FD70BDA1F1200202EB4202064BCC
:1002900003EB8202136803605368436092688260D4
:1002A00070470000EC5A0100DC6001000D4843F685
:1002B000C46102E000220270401C0A1EA1F1010389
:1002C00099B2F7D1084843F6482102E0FF220270B4
:1002D000401C0A1EA1F1010399B2F7D1014B83F82A
:1002E0007C247047BC0A0010380F0010704770471C
:1002F00070470A6802F8010B0A607047FFFFFFFFB2
:1003000040F20120974908609749C1F88401954956
:1003100008310860091D0860091D0860091D086092
:10032000091D0860091D0860091D0860091D086095
:10033000091D0860091D0860091D0860091D086085
:10034000091D0860091D0860091D0860091D086075
:10035000091D0860091D0860091D0860091D086065
:10036000091D0860091D0860091D0860091D086055
:10037000091D0860091D0860091D0860091D086045
:10038000091D0860091D0860091D0860091D086035
:10039000091D0860091D0860091D0860091D086025
:1003A000091D0860091D0860091D0860091D086015
:1003B000091D0860091D0860091D0860091D086005
:1003C000091D0860091D0860091D0860091D0860F5
:1003D000091D0860091D0860091D0860091D0860E5
:1003E000091D0860091D08605E49E43108605D4927
:1003F00040390860091D0860091D086059493039F5
:100400000860584920390860564910390860091DAC
:100410000860091D08605449C1F87C0170472DE946
:10042000F04100BF00BF5148006840F400604F49F0
:10043000C439C1F8C40041F61F704D49086001205D
:100440004C49086000208860FFF75AFF4A4800685E
:100450004A49B0FBF1F74548C438D0F8000100B173
:100460007F084FF47A70B0FBF7F404F11300B0FB8F
:10047000F4F0404908630F2048630020886301209E
:10048000C86304F11300B0FBF4F0801C0864012081
:10049000486404F13E00B0FBF4F0886404F13E00CF
:1004A000B0FBF4F0C8640F20086504F13E00B0FB17
:1004B000F4F0486501208865886240F203303049D5
:1004C00008604FF48D402B49C1F800012C49091FE9
:1004D00008606421002000F0E5F940F2831025490E
:1004E0000862C821002000F0DDF940F20310214924
:1004F000086202204862002600E0761C802EFCD3B1
:1005000041F68465A5F1100085B22D1105FB07F0B9
:100510004FF47A71B0FBF1F085B216484562832042
:10052000144908621748D0F8008000200862144877
:10053000001F006840F40020C1F8000101210020E4
:1005400000F0B0F90121002000F0ACF90848006883
:1005500020F01F0848F011000449C439C1F8DC013B
:10056000BDE8F08180C1024000C00240C4C00F401D
:10057000DCC10F4000C00920B000001040420F0055
:1005800004C10920004006A010B5002807DACA06F9
:10059000140EB44A00F00F031B1FD45403E0CA0624
:1005A000130EB14A135410BD10B5012213210020BF
:1005B0000AF0DEFB20B3262000F01F02012191404B
:1005C000AA4A430942F8231000BF6FF07F4400E0BD
:1005D000641E002CFCD1A648006830B10020A4495C
:1005E00008600F20A349086005E00120A0490860C9
:1005F0000220A04908604FF4002100200AF0E3FB2C
:1006000010BD1FB500200AF058FD0646002098498D
:1006100008604FF47A70B6FBF0F0451EB5F1807FAC
:1006200000D311E025F07F40401E4FF0E0214861EB
:100630001F214FF0FF30FFF7A7FF00204FF0E02110
:1006400088610720086100BF0122D10400200AF060
:1006500071FB01212620FFF797FF262000F01F02E3
:10066000012191404209920002F1E022C2F80011FA
:1006700000BF642005F0BDFC0CF0E6F805F0A6FD17
:100680000EF02AF905F0F4FC05F01CFD05F053FC12
:100690000BF08EFC002076490860FFF7C0FE0020BA
:1006A00000F08AFA74494869002100F0BEFA01207E
:1006B00000F082FAFFF7FAFD002005F060FD05F07A
:1006C000C5FA06F0B3F80F206A49086050E005F05B
:1006D00015FE0446FF2C03D100206849086004E0A1
:1006E00066480068401C6549086064480068022844
:1006F00014D10020614908604FF0501000F09AFBBF
:1007000022465FA101A80EF093F900206FF07F430D
:1007100001AA28210090782000F0C9FC5548006803
:100720000A2817D006DC02280BD005280FD006288F
:100730001CD109E00C2810D00F2811D0102815D199
:1007400011E006F003F912E006F0F2FB0FE007F00B
:1007500087FA0CE009F087FD09E009F02AF806E0C5
:1007600008F0FAFF03E008F091FF00E000BF00BFCF
:10077000ADE770B5012143A00CF0E8FE0546002D61
:100780000EDD00BF4FF47A624148016828460CF044
:10079000BDFF0446002CF5D128460DF0B8F900E065
:1007A00070BD00BFFCE72DE9F041012135A00CF040
:1007B000CDFE0746002F25DD4FF47A6234480168EC
:1007C00038460CF0A3FF022132A00CF0BFFE044615
:1007D000002C11DD002500BF4FF47A622C4801681F
:1007E00020460DF0FDF8064635442D488542F3D3EA
:1007F00020460DF08CF901E0BDE8F08138460DF09F
:1008000086F900E0F8E700BFF6E770B501211DA00A
:100810000CF09CFE0646002E20DD02211DA00CF0EF
:1008200095FE0446002C14DD00BF4FF47A62184890
:10083000016830460CF06AFF05462A4614480168F4
:1008400020460DF0CDF8002DEFD120460DF05FF9D8
:1008500000E070BD30460DF05AF900E0F9E700BF46
:10086000F7E7000018ED00E000E400E080E100E0C0
:1008700090000010A00000101C0000106C00001080
:10088000253264004D53524541442E5458540000C3
:10089000380100104A4B32353230422E5458540041
:1008A00080969800F8B902224FF040235A60002247
:1008B000DA60B74A12684FF47A73B2FBF3F2521E51
:1008C0004A434FF040239A61FF221A6004225A6182
:1008D00001225A6000BF4FF04022526802F001022C
:1008E000002AF8D15BE001281CD10222A94B5A60F2
:1008F0000022DA60A64A12684FF47A73B2FBF3F270
:10090000521E4A43A34B9A61FF221A6004225A6185
:1009100001225A6000BF9F4A526802F00102002A79
:10092000F9D13CE002281CD102229B4B5A600022E4
:10093000DA60974A12684FF47A73B2FBF3F2521EF0
:100940004A43954B9A61FF221A6004225A610122A0
:100950005A6000BF904A526802F00102002AF9D1A1
:100960001DE003281BD102228C4B5A600022DA6062
:10097000874A12684FF47A73B2FBF3F2521E4A436D
:10098000864B9A61FF221A6004225A6101225A6042
:1009900000BF824A526802F00102002AF9D1704772
:1009A00001204FF0402108607D480068401C7C49D0
:1009B00008607C480068401C7A4908607047012044
:1009C0007449086078480068401C7749086070479F
:1009D00001207149086075480068401C734908602F
:1009E000704701206D49086071480068401C7049DB
:1009F0000860704720B901214FF04022516010E09B
:100A0000012803D10121634A51600AE0022803D181
:100A10000121614A516004E0032802D101215F4AAB
:100A20005160704720B900214FF04022516010E022
:100A3000012803D10021574A51600AE0022803D15E
:100A40000021554A516004E0032802D10021524A96
:100A500051607047014631B94FF04022506840F074
:100A60000200506016E0012905D14A4A506840F062
:100A7000020050600EE0022905D1474A506840F05C
:100A80000200506006E0032904D1444A506840F057
:100A900002005060704770B505460C46F5B900205D
:100AA0003F4908604348006840F002004149C439AA
:100AB000C1F8C4004FF04020406840F002004FF001
:100AC000402148604EF65F20C860084684610320DC
:100AD0004861012000F050F8012070BD012D1CD1AB
:100AE0000020314908603348006840F00400314973
:100AF000C439C1F8C4002748406840F004002549C3
:100B000048604EF65F20C860084684610320486153
:100B1000022000F031F80120DFE7022D13D1002080
:100B2000224908602348006840F480002149C43904
:100B3000C1F8C4001848846103201749486100F0D7
:100B40001BF80120C9E7032D14D1002018490860C3
:100B50001848006840F400001649C439C1F8C400C0
:100B60000E48846103200D494861042000F004F818
:100B70000120B2E70020B0E700F01F020121914000
:100B80004209920002F1E022C2F800117047000011
:100B9000B4000010008000400000094000400940FF
:100BA00000000010100000100400001008000010E9
:100BB0000C000010C4C00F4008B5B0B1FC498969F1
:100BC00041F00101FA4A916142F21071009108E08E
:100BD000F749896941F40061F54A91610099491E1C
:100BE000009100990029F3D115E0F149896921F4B8
:100BF0000061EF4A916142F21071009102E00099A8
:100C0000491E009100990029F9D1E949896921F02B
:100C10000101E74A916108BDE64A002102E008C8E7
:100C200008C2491C8029FAD370472DE970438146D8
:100C30000D46DFF8848300BF2720E0490861486142
:100C4000DF490860DD49C1F87402DE490860091D0A
:100C50000860091D0860091D0860D8498861C861DD
:100C6000D84948390860091D0860091D0860091D38
:100C70000860091D0860091D0860D04908624862C3
:100C8000D04918310860091D0860CE493039086024
:100C9000091D0860091D0860091D0860C94910394F
:100CA0000860C849091F0860C6490C390860091D59
:100CB0000860C249C1F80001C348006C40F002005E
:100CC000C14908640846806D40F00A008865BF4845
:100CD000D0F8C40040F00100BC49C1F8C400BC48D1
:100CE000006820F00100BA4908600020B04988611E
:100CF0000846806920F00E0088610846806940F04F
:100D00000A0088610846806940F020008861084632
:100D1000806920F0800088610846806920F4807036
:100D200088610846806920F40070886108468069FF
:100D300020F4806088610846806920F40060886142
:100D4000A4480068A449B0FBF1F0A049C1F8B8017B
:100D50009748806840F080609549886008468068C0
:100D600020F0200088600846806840F400608860B9
:100D70000846806840F4805088600846806820F407
:100D8000005088600846806820F4804088600846EB
:100D90008068924908408649886008468068904982
:100DA000084383498860002008600846006840F0D6
:100DB0001C5008600846006840F48020086008461F
:100DC000006840F4807008600846006840F07400D5
:100DD0000860002048600846406840F000604860B5
:100DE0000846406840F4002048600846406840F4E7
:100DF000806048600846406840F20F1108436C4923
:100E0000486040460861486115B12846FFF704FF75
:100E1000694E002403E04FF47F0001C6641CB4F562
:100E2000FF3FF8D342F2107400E0641E002CFCD1A6
:100E3000BDE87083604A002101E001C2491CB1F5A0
:100E4000FF3FFAD370472DE9F0411C46069FC1F5DC
:100E5000887CACF1010CCCEB0C1CDFF85C8108EB5E
:100E6000CC18C0F5F07CACF1010C08EB8C0300262B
:100E70000FE0002502E043F804796D1CA2EB000CA2
:100E8000AC45F8D8A2EB000CCCF5F07CA3EB8C03BE
:100E9000761CA4EB010CB445EBD8BDE8F08170B52D
:100EA000454BB0F5F07F02DAB1F5887F00DB70BD0D
:100EB000C0F5F0756D1EC1F58876761EC6EB061678
:100EC00005EB461403EB84031A6000BFEFE72DE93E
:100ED000F04F04460D4691469A46DDF824B04C4545
:100EE00003DD0FFA89F7A146BCB2554503DD0FFAC1
:100EF0008AF7AA46BDB2A9EB04000FFA80F8AAEB64
:100F0000050006B2B8F1000F0BD100BF5A462946C2
:100F10002046FFF7C4FF681C85B2AA45F6DABDE893
:100F2000F08F56B900BF5A4629462046FFF7B7FF53
:100F3000601C84B2A145F6DAF1E7B04521DDC8EBCB
:100F4000460007B215E05A4629462046FFF7A7FF9C
:100F5000601C84B2002F08DD681C85B2700002217D
:100F600001FB1800384407B203E0022000FB0670C2
:100F700007B24C45E7D15A4629462046FFF78FFF76
:100F80003BE0C6EB480007B230E05A46294620460F
:100F9000FFF785FF681C85B2002F23DD601C84B23B
:100FA0007000022101FB1800384407B21EE0000067
:100FB0000080082000820820000001A000C002403C
:100FC00070C2024018C102400080092000C00F40DA
:100FD000008C0820B40000109C997400FFFF00FCF6
:100FE0000000DF01022000FB067007B25545CCD19E
:100FF0005A4629462046FFF752FF00BF8FE72DE9EA
:10100000FF5F06460F4690469946DDF838B04146E8
:101010006846FFF72BF900241DE01DF804A0002509
:1010200016E0C5F107004AFA00F000F0010038B1FF
:101030003A1991B2721990B24A46FFF730FF06E0B2
:101040003A1991B2721990B25A46FFF728FF6D1CF7
:10105000082DE6D3641C102CDFD3BDE8FF9F2DE9DB
:10106000FE4F06460F4690469946DDF830B04146A1
:101070006846FFF708F9002415E01DF804A00025D4
:101080000EE0C5F107004AFA00F000F0010030B1AF
:101090003A1991B2721990B24A46FFF700FF6D1CDF
:1010A000082DEED3641C0C2CE7D3BDE8FE8F2DE990
:1010B000F84305460E4614469846DDF8209000BFDA
:1010C00014F8017B43463A4631462846CDF8009055
:1010D000FFF795FFB5F5EC7F03DA05F1080085B25F
:1010E00008E0FF2E04DC002506F1100086B201E0C6
:1010F0000025002620780028E2D1BDE8F8832DE9FC
:10110000FF4F074688469B463C464546BA464646FC
:101110004FF0000915E0A4F1140188B22946029AA3
:10112000FFF7BDFE601C84B2A6F1140081B25046E8
:10113000029AFFF7B4FE701C86B209F101001FFA93
:1011400080F9B9F1280FE6DB3C464546BA464646EB
:101150004FF000092BE0A5F1140291B2A4F11402A2
:1011600090B25A46FFF79BFE05F1140291B2A4F12A
:10117000140290B25A46FFF792FE601C84B2A6F1A8
:10118000140291B2AAF1140290B25A46FFF787FEF8
:10119000A6F1140291B20AF1140290B25A46FFF776
:1011A0007EFE701C86B209F101001FFA80F9B9F1C8
:1011B0000A0FD0DB3C464546BA4646464FF000098A
:1011C0002BE0A5F1140291B204F10A0290B25A4642
:1011D000FFF765FE05F1140291B204F10A0290B224
:1011E0005A46FFF75CFE601C84B206F10A0291B217
:1011F000AAF1140290B25A46FFF751FE06F10A0214
:1012000091B20AF1140290B25A46FFF748FE701CE0
:1012100086B209F101001FFA80F9B9F10A0FD0DB9B
:10122000BDE8FF8F10B50246002112E001EB8110EE
:10123000F74B185C1378984209D1507801EB811371
:10124000F34C23445B78984201D1084610BD481CFA
:1012500081B27729EAD30020F8E710B502460021D1
:1012600014E001EB0110EB4B13F8100013789842D7
:101270000AD1507801EB0113E64C04EB43035B7891
:10128000984201D1084610BD481C81B2A929E8D373
:101290000020F8E72DE9F04F04460F461546984622
:1012A000A3464FF0000900262DE0099810F806909B
:1012B0004FF0000A21E009F0800030B1D6483946ED
:1012C00002682046FFF7EBFD05E0D3483946426847
:1012D0002046FFF7E4FD4FEA49604FEA1069601CC1
:1012E00084B2A4EB0B00A84203D15C46781C87B201
:1012F00006E00AF1010000F0FF0ABAF1080FDADB9C
:1013000000BF701C86B205FB08F0C11700EB5171DD
:10131000B6EBE10FC9DBBDE8F08F2DE9F04F0546D4
:10132000894692469B46A8460026BBF1000F32D163
:1013300000242DE00AEB0A10B64901EB4000801CA6
:10134000065D00271FE006F0800030B1B248494634
:1013500002682846FFF7A3FD05E0AF48494642680A
:101360002846FFF79CFD7006060E681C85B2A5EBAB
:101370000800102805D1454609F101001FFA80F93F
:1013800003E0781CC7B2082FDDDB00BF601CC4B2CD
:10139000202CCFDB31E000242DE00AEB0A109D4920
:1013A00001EB4000801C065D00271FE006F0800076
:1013B00030B19948494642682846FFF770FD05E07C
:1013C0009548494602682846FFF769FD7006060EF3
:1013D000681C85B2A5EB0800102805D1454609F127
:1013E00001001FFA80F903E0781CC7B2082FDDDB8B
:1013F00000BF601CC4B2202CCFDBBDE8F08F2DE90C
:10140000F04F0546894692469B46A8460026BBF10A
:10141000000F31D100242CE00AEB8A107C490844EB
:10142000801C065D00271FE006F0800030B17A487E
:10143000494602682846FFF732FD05E076484946EE
:1014400042682846FFF72BFD7006060E681C85B221
:10145000A5EB0800182805D1454609F101001FFA3F
:1014600080F903E0781CC7B2082FDDDB00BF601CE9
:10147000C4B23F2CD0DB30E000242CE00AEB8A1011
:1014800063490844801C065D00271FE006F08000C9
:1014900030B16148494642682846FFF700FD05E043
:1014A0005D48494602682846FFF7F9FC7006060EBB
:1014B000681C85B2A5EB0800182805D1454609F13E
:1014C00001001FFA80F903E0781CC7B2082FDDDBAA
:1014D00000BF601CC4B23F2CD0DBBDE8F08FF0B57C
:1014E00004460D4616461F463B46224631462846D0
:1014F000FFF785FF1820F0BDF0B504460D461646EF
:101500001F463B46224631462846FFF706FF12207B
:10151000F0BD2DE9F84306460D4614461F464FF030
:101520000008C14652E0207800B950E006EB0900FF
:1015300086B2207880281ADD06F11800B0F5F07F19
:1015400007DD002605F1160085B2B5F5887F00DDC0
:1015500000252046FFF766FE1FFA80F83B462A4624
:1015600031464046FFF7BBFF8146A41C2DE02078A2
:101570000D280AD105F1160085B2B5F5887F00DD8A
:101580000025641C4FF0000920E020780A2804D1CF
:101590000026641C4FF0000918E006F10C00B0F5BD
:1015A000F07F07DD002605F10C0085B2B5F5887FD8
:1015B00000DD002518484068009017482278294629
:1015C00003683046FFF71BFD641C00BFABE700BF9C
:1015D000BDE8F8832DE9F8470546884614464FF0E4
:1015E000000A00263AE0207800B938E02078302858
:1015F00007DB2078392804DC207830381FFA80F99E
:1016000014E020782E2809D14FF00A090EE00000DE
:10161000A2200100D93E01001400001020782D28DE
:1016200002D14FF00B0901E04FF00C094FEA4917C6
:10163000F81707EB5070C01000EBC001C1EB801031
:10164000B6490844A919009088B2372320224146A0
:10165000FFF720FE641C06F1200086B2C3E700BF3E
:10166000BDE8F8872DE9F84306460D4614461F46A7
:101670004FF00008C14654E0207800B952E006EB74
:10168000090086B2207880281ADD06F11000B0F536
:10169000F07F07DD002605F1100085B2B5F5887FE3
:1016A00000DD00252046FFF7D8FD1FFA80F83B46F5
:1016B0002A4631464046FFF71FFF8146A41C2FE013
:1016C00020780D280AD105F1100085B2B5F5887F84
:1016D00000DD0025641C4FF0000922E020780A2874
:1016E00004D10026641C4FF000091AE006F108003E
:1016F000B0F5F07F07DD002605F1080085B2B5F5ED
:10170000887F00DD00258648406800908448227864
:10171000294603683046FFF772FC641C4FF00A0943
:1017200000BFA9E700BFBDE8F8832DE9F8430646EE
:101730000D4614461F464FF00008C14654E020787D
:1017400000B952E006EB090086B2207880281ADD45
:1017500006F11000B0F5F07F07DD002605F110005E
:1017600085B2B5F5887F00DD00252046FFF775FDC1
:101770001FFA80F83B462A4631464046FFF7BCFE3A
:101780008146A41C2FE020780D280AD105F1100015
:1017900085B2B5F5887F00DD0025641C4FF0000997
:1017A00022E020780A2804D10026641C4FF00009AA
:1017B0001AE006F10800B0F5F07F07DD002605F11C
:1017C000080085B2B5F5887F00DD002554484068E3
:1017D000009053482278294603683046FFF73FFCC3
:1017E000641C4FF0080900BFA9E700BFBDE8F883FB
:1017F000F0B504461D46062A00DD0A2202B9012280
:10180000052900DD0521914200DD1146002004E09C
:101810002026444F3E54461CF0B20C28F8D3104604
:101820000FE00A26B4FBF6F706FB17463036471ED4
:10183000DFF8F0C00CF807600A26B4FBF6F4461E89
:10184000F0B20028EDDC89B11346084605E05E1EC3
:10185000344FBE5DFE545E1EF3B2061EA0F10107BA
:10186000F8B2F4D12E262F4FFE5402E020262D4F41
:10187000BE54A5B900200EE02A4E365C302E07D1AA
:10188000284F461CBE5D2E2E02D020263E5400E07E
:1018900004E0461CF0B2561E8642EDDC00BF561C2A
:1018A000F2B2104604E000261E4F3E54461CF0B231
:1018B0000C28F8D3F0BD30B51B4A00210CE00478A9
:1018C0002404457844EA0524857844EA050308C2DF
:1018D000401C401C401C491CB1F5FF3FEFD330BDFC
:1018E00070B51149002214E000230CE005782D04A6
:1018F000467845EA0625867845EA060410C1401C6C
:10190000401C401C5B1CB3F5B57FEFD301F5EC71B7
:10191000521CB2F5887FE7D370BD00008C670100D0
:1019200014000010F04D0010000001A038B5002494
:1019300074E0FE48A10004EB440303EB041301EB45
:101940008301009088B204EB84014C2303EB011166
:101950008AB240F20F13E421FFF775FAF44804EB62
:1019600084014C2303EB01118AB204EB84010901C9
:10197000491C009088B2E3231946FFF7A8FAEC4807
:1019800004EB84014C2303EB01118AB204EB8401C4
:1019900003EB0111009088B240F20F13E321FFF72F
:1019A00096FA002004EB84014C2303EB0111491C3F
:1019B0008AB204EB840103EB0111491C009088B248
:1019C00040F20F13E321FFF782FA002004EB8401B9
:1019D0004C2303EB0111891C8AB204EB840103EB55
:1019E0000111891C009088B240F20F13E321FFF728
:1019F0006EFA002004EB84014C2303EB0111C91C97
:101A00008AB204EB840103EB0111C91C009088B277
:101A100040F20F13E321FFF75AFA641C062C88D317
:101A200038BD10B5FFF782FFC048C24948606FF06B
:101A30007F4008600023C0A2F1215420FFF712FE6E
:101A40000023BFA2F121A420FFF70CFE10BD70B54A
:101A50000546FFF76BFFB548B64948606FF07F4019
:101A60000860A5B900240FE004EB4401B64B03EB7A
:101A7000410204EB8401542303EB01100023F12104
:101A8000FFF7F0FD601CC4B2052CEDDB14E0002470
:101A900010E0611D01EB4101AB4B03EB410204EB94
:101AA0008401542303EB01100023F121FFF7DAFD39
:101AB000601CC4B2052CECDB70BD10B5FFF736FF1F
:101AC0009A489C4948606FF07F40086000239FA2BD
:101AD000F1215420FFF7C6FD10BD10B5FFF726FF1A
:101AE0009248944948606FF07F400860002399A2B3
:101AF000F1215420FFF7B6FD10BD10B50446FFF7E5
:101B000015FF002C38D16FF07F408A490860874864
:101B10004860002390A2E7215420FFF7A3FD002393
:101B20008FA2FB215420FFF79DFD00238AA2E7210D
:101B3000A420FFF797FD00238BA2FB21A420FFF731
:101B400091FD00238AA2E721F420FFF78BFD0023FB
:101B500085A2FB21F420FFF785FD002384A2E72165
:101B60004FF4A270FFF77EFD002383A2FB214FF408
:101B7000A270FFF777FD40E0012C2CD16FF07F4081
:101B80006C4908606948486000237DA2E721542021
:101B9000FFF768FD00237CA2FB215420FFF762FDC4
:101BA00000237BA2E721A420FFF75CFD00237AA29B
:101BB000FB21A420FFF756FD002379A2E7214FF473
:101BC000CA70FFF74FFD002377A2FB214FF4CA70C4
:101BD000FFF748FD11E06FF07F4056490860534819
:101BE0004860002372A2F2215320FFF73BFD00233F
:101BF00071A2F221A320FFF735FD10BD10B5FFF74C
:101C000095FE6FF07F404B490860484848600023CC
:101C10006BA2E7215420FFF725FD00236AA2FB21D8
:101C20005420FFF71FFD002369A2F1214FF4A27099
:101C3000FFF718FD002368A2F1214FF4CA70FFF7E7
:101C400011FD10BD10B50446FFF770FE0CB1012C5C
:101C500032D16FF07F403749086034484860002334
:101C60005FA2F1215420FFF7FDFC00235EA2E721D3
:101C7000A420FFF7F7FC00235DA2FB21A420FFF7BF
:101C8000F1FC00235CA2E721F420FFF7EBFC00232A
:101C900057A2FB21F420FFF7E5FC00234CA2F12121
:101CA0004FF4A270FFF7DEFC00234BA2F1214FF4AA
:101CB000CA70FFF7D7FC25E06FF07F401D49086030
:101CC0001A484860002346A2F1215420FFF7CAFCBD
:101CD000002347A2E721A420FFF7C4FC002348A269
:101CE000FB21A420FFF7BEFC002339A2F1214FF411
:101CF000A270FFF7B7FC002337A2F1214FF4CA709E
:101D0000FFF7B0FC10BD10B50446FFF70FFE002C26
:101D10007AD16FF07F40074908600448486000238B
:101D20000DA2E7215420FFF79DFC6EE03800310042
:101D30006843690014000010206DA6B82020000040
:101D400020A6B8200000000009A6010020C8B7C8DE
:101D5000CF2000002A310000B2E2C1BF0000000025
:101D6000CFD4CABE00000000C9E8D6C300000000FE
:101D7000CFB5CDB300000000D0C5CFA20000000059
:101D8000CEC4BCFE00000000B9DCC0ED00000000C5
:101D9000B1A3B4E600000000CAFDBEDD00000000F3
:101DA000B8FCB6E00000000020322F320000000036
:101DB0002020C8A1CFFB20002020C8B7C8CF20001A
:101DC000C7E5B3FD00000000B1EDB8F10000000070
:101DD000C9CFD2BBD2B30000CFC2D2BBD2B30000B6
:101DE000C9BEB3FDD0D00000CFDFD0D400000000CA
:101DF000D7D4B6AF00000000B6D4CAFD0000000082
:101E0000B8B4D6C60000000033E00023AFF2B00241
:101E1000FB215420FFF726FC0023AFF2C402E72188
:101E2000A420FFF71FFC0023AFF2C402FB21A42073
:101E3000FFF718FC0023AFF2C802E721F420FFF7F8
:101E400011FC0023AFF2E002FB21F420FFF70AFCB3
:101E50000023AFF2E402E7214FF4A270FFF702FC87
:101E60000023AFF2EC02FB214FF4A270FFF7FAFB64
:101E700039E0012C37D16FF07F40FE490860FE4801
:101E800048600023AFF20812E7215420FFF7EAFB75
:101E90000023AFF20C12FB215420FFF7E3FB0023D9
:101EA000AFF23412E721A420FFF7DCFB0023AFF2EE
:101EB0004812FB21A420FFF7D5FB0023EFA2F1215C
:101EC000F420FFF7CFFB0023AFF22C12E7214FF4F1
:101ED000CA70FFF7C7FB0023AFF23412FB214FF4A7
:101EE000CA70FFF7BFFB10BD10B56FF07F40E1492E
:101EF0000860E14848600023AFF2A412E7215420B3
:101F0000FFF7B0FB0023AFF2A812FB215420FFF72C
:101F1000A9FB0023AFF2C012E721A420FFF7A2FB28
:101F20000023AFF2BC12FB21A420FFF79BFB002390
:101F3000AFF2C412E721F420FFF794FB0023AFF2C5
:101F4000D812FB21F420FFF78DFB0023AFF2E01243
:101F5000E7214FF4A270FFF785FB0023AFF2E812F0
:101F6000FB214FF4A270FFF77DFB10BD08B5C548FB
:101F70001623F022002100900846FEF764FF08BDFA
:101F800008B5C148CA2340F2DF125C21009000204E
:101F9000FEF759FF08BD10B5FFF7E8FFFFF7C6FCD5
:101FA000FFF7EEFF10BD10B5FFF7F5FF6FF07F40B4
:101FB000B0490860B34848600023B44A0421184679
:101FC000FFF750FB6FF07F40AA4908604FF05010B8
:101FD0004860002426E0032C11D204EB8400AC4BB3
:101FE00003EB400204EB440000EBC4001A2303EBB4
:101FF000400081B200231846FFF734FB11E004EBE8
:102000008400A34B03EB4002E01E00EB400303EB14
:10201000C0001A2303EB400081B20023FA20FFF72F
:1020200021FB641C062CD6D30020FFF766FD10BDF3
:1020300008B59548BE2340F2DF12702100900020C1
:10204000FEF701FF08BD10B5FFF790FFFFF76EFC2C
:10205000FFF7EEFF10BD38B504464FF0501085492C
:1020600048608C4800EB84020123C8211420FFF74C
:10207000F9FA894800EB84020123C8214FF48C70DF
:10208000FFF7F0FA80487B494860844837232822CC
:102090007A2100905020FFF7FDF88148372328224D
:1020A0007A2100907820FFF7F5F87E483723282220
:1020B0007A2100908C20FFF7EDF838BD10B5FFF7BE
:1020C000C2FF6FF07F406B4908606E484860002394
:1020D0006E4A163204211846FFF7C4FA6FF07F40AB
:1020E000644908604FF050104860002422E0032C3F
:1020F0000FD26D4800EBC40204EB440000EBC400B7
:102100001A2303EB400081B200231846FFF7AAFA16
:102110000FE0654800EBC402E01E00EB400303EB58
:10212000C0001A2303EB400081B20023FA20FFF71E
:1021300099FA641C072CDAD35C4991F8B803FFF7CD
:102140008AFF0020FFF7D9FC10BD08B54E48A02338
:1021500040F2DF12562100900020FEF774FE4A483C
:10216000E32340F2DF12C12100900020FEF76BFE56
:1021700008BD10B5FFF7FAFEFFF7D8FBFFF7E5FF44
:1021800010BD2DE9F04104460D461646484B1B5D37
:1021900003EB4303474FDA19B1B2A8B20023FFF7AC
:1021A00061FABDE8F08110B5FFF7E3FF6FF07F4003
:1021B00030490860334848600023344A2C320421F7
:1021C0001846FFF74FFA6FF07F402A4908604FF03A
:1021D0005010486000240EE0C4EBC401364BCA180E
:1021E00004EB84014FF6FF7303EA411000231A2128
:1021F000FFF738FA641C032CEED32C48D0F8C00348
:1022000000EB400101EBC0002C49421801231A21C8
:102210003C20FFF727FA254A92F80C110023D2F848
:1022200008010622FFF7E4FA0123254A1A21DC20DF
:10223000FFF718FA1D48D0F8100100EB40002149C3
:10224000421801231A214FF49170FFF70BFA174936
:102250001A22D1F8B8034FF49671FFF792FF0023CA
:1022600019A22E211846FFF760FA002317A22E218B
:1022700078202FE01400001038003100B9A4BEDF30
:1022800000000000F3520300343465002CA101006B
:1022900015920100AD95010009960100917A0100A7
:1022A000D48C0100E78D0100C59D0100BC0A00101F
:1022B0005AA6010072A60100FAA201001C970100B3
:1022C000F04D001045A6010042494E004C4F5720EA
:1022D0005B465D00FFF729FA0023FEA22E21F020C5
:1022E000FFF723FA0023FDA22E214FF4C870FFF759
:1022F0001CFA06243FE0A01F012801D9072802D3B9
:10230000A01F082803D9F748F749486003E04FF0B9
:102310005010F5494860A01FC0EBC001F34800EB26
:10232000C1004068E0B1A21FC2EBC203EF4A02EB5A
:10233000C302117AA21FC2EBC203EC4A02EBC30232
:10234000012350680622FFF753FAA01FC0EB0010CC
:102350003A3081B20123E64A7820FFF7E6F909E036
:10236000A01FC0EB00103A3081B20123E1A2782017
:10237000FFF7DBF9641C0F2CBDD3DA48DA4948605B
:10238000DE48D0F8440378B1DC4A92F848130123C0
:10239000D2F844030622FFF72BFA0123D44AC421C2
:1023A0007820FFF7C2F905E00123D2A2C4217820EA
:1023B000FFF7BBF9102447E0A4F11000012801D970
:1023C000072803D3A4F11000082803D9C548C6493B
:1023D000486003E04FF05010C3494860A4F110007A
:1023E000C0EBC001C14800EBC100006A00B3A4F11A
:1023F0001002C2EBC203BD4A02EBC30292F82410E2
:10240000A4F11002C2EBC203B84A02EBC3020123DB
:10241000106A0622FFF7ECF9A4F11000C0EB0010DF
:102420003A3081B20123B24AFA20FFF77EF90AE07E
:10243000A4F11000C0EB00103A3081B20123ADA22C
:10244000FA20FFF772F9641C192CB5D3A548A649E8
:102450004860AA48D0F8440378B1A84A92F82C13EF
:102460000123D2F828030622FFF7C2F90123A04A6C
:10247000C421FA20FFF759F905E001239DA2C421E8
:10248000FA20FFF752F9012419E0022C05D9082C93
:1024900003D294489449486003E04FF050109249A9
:1024A0004860601E00EBC000954BC218C4EB0410DE
:1024B0002B3081B200230820FFF737F9641C0A2C67
:1024C000E3D388488849486000238EA2C421184677
:1024D000FFF72BF900238CA2D4211846FFF725F92A
:1024E00000238BA2D421F020FFF71FF90020FFF773
:1024F00004FB10BD08B57B48A02340F2DF12602129
:1025000000900020FEF79FFC08BD10B5FFF72EFDE0
:10251000FFF70CFAFFF7EEFF10BD10B5FFF7F5FF60
:102520006FF07F40704908607B48486000237B4A19
:1025300004211846FFF796F86FF07F406A4908605B
:102540004FF050104860002375A21A211846FFF77B
:1025500089F8002374A230212820FFF783F8002394
:1025600074A230218C20FFF77DF8002373A2302164
:10257000F020FFF777F8002372A230214FF4AA7001
:10258000FFF770F8002371A230214FF4DC70FFF7E1
:1025900069F80020FFF7B1FA10BD08B551489A2339
:1025A00040F2DF125A2100900020FEF74CFC08BDDB
:1025B00010B5FFF7DBFCFFF7B9F9FFF7EEFF10BD31
:1025C00010B5FFF7F5FF6FF07F40474908605248AC
:1025D00048600023514A163204211846FFF742F89A
:1025E0006FF07F40404908604FF050104860002471
:1025F0003AE0092C1AD2022C05D9062C03D239480C
:102600003949486003E04FF050103749486004EB07
:1026100084004F4B03EB4002162304FB03F01A30F7
:1026200081B200231846FFF71DF81CE0A4F1090051
:10263000022805D9062803D22A482B49486003E01E
:102640004FF050102849486004EB8400404B03EBE6
:102650004002A4F10900162358431A3081B2002326
:10266000FA20FEF7FFFF641C122CC2D30020FFF7F4
:102670004AFB10BDF8B505464FF050101A494860A6
:102680001E48D0F8B80300EBC000324942180123BD
:102690001A215820FEF7E6FF1848D0F8C00300EBD7
:1026A000400101EBC0002C49421801233021582081
:1026B000FEF7D8FF1148D0F8C40300EB400101EB4E
:1026C000C00026494218012346215820FEF7CAFFC0
:1026D0000A4845E0484947485B465D00434F554E30
:1026E000540000003434650014000010E80B0010A2
:1026F000F04D00102D2D2D2D2D2D0000BC0A0010A9
:10270000C4910100326E64004155583A0000000047
:102710004F55543A00000000F35203006EA101002F
:10272000B7BDCABD203A0000C6B5C2CA5B487A5DD3
:1027300000000000B5E7C6BD5B565D0043705B4618
:102740005D000000445B205D00000000434D500030
:10275000359E0100D59401001C97010043990100AA
:10276000D0F8180400EB400101EBC000FE4942180C
:1027700000231A214FF4A970FEF774FFFB48D0F82C
:10278000200400EB400101EBC000F949421801238D
:1027900046214FF4A970FEF765FFF448D0F81C04F9
:1027A00000EB400101EBC000F24942180123302147
:1027B0004FF4A970FEF756FF2878012800D100E0F9
:1027C000002006461EB1FF20EB49486003E04FF0B1
:1027D0005010E9494860E84840686E234FF4DD72C4
:1027E0005A2100904FF4A970FEF72DFBDF48D0F876
:1027F000280100EB400101EBC000DE494218012333
:102800005C214FF4A970FEF72DFFFFF78FF82878B1
:1028100001281BD16FF07F40D7490860D748486036
:10282000002410E004EB440101EBC401D14BCA18B1
:1028300004EB8401542303EB011188B20023F1213E
:10284000FEF710FF641C022CECD302E00020FFF71F
:1028500054F9F8BDF8B505464FF05010C649486028
:102860002878012800D100E0002006461EB1FF2094
:10287000C149486003E04FF05010BF494860BE486E
:1028800040682A234FF4D7721A2100904FF4BE708B
:10289000FEF7D9FAB548D0F85C0300EB400101EB34
:1028A000C000B449421801231A214FF4BE70FEF74C
:1028B000D9FEFFF73BF8287801281BD16FF07F4045
:1028C000AD490860AD484860002410E004EB4401C5
:1028D00001EBC401A74BCA1804EB8401542303EB9A
:1028E000011188B20023F121FEF7BCFE641C022C0A
:1028F000ECD302E00020FFF700F9F8BD70B5054603
:10290000012466E1022C05DD072C03DA9C489A4974
:10291000486003E04FF0501097494860601E9349AB
:1029200091F87D1401EB810100EB410000EB800187
:10293000944800EB81008068401C40B9332000EBD4
:102940000411002390A2F620FEF7EFFE27E0621E9E
:10295000864B93F87D3403EB830302EB430202EBD7
:102960008203884A02EB8302117B621E7F4B93F83D
:102970007D3403EB830302EB430202EB8203814AC3
:1029800002EB8302012390680522FEF731FF33201A
:1029900000EB041100237E4AF620FEF7C6FE601EFF
:1029A000724991F87D1401EB810100EB410000EBCD
:1029B0008001784800EB81008068401C48B93320D2
:1029C00000EB0411002370A24FF4AD70FEF7ADFED2
:1029D00028E0621E654B93F87D3403EB830302EB22
:1029E000430202EB82036B4A02EB8302117B621EFD
:1029F0005E4B93F87D3403EB830302EB430202EB5F
:102A00008203644A02EB8302012390680522FEF7E9
:102A1000EFFE332000EB041100235D4A4FF4AD704C
:102A2000FEF783FE601E514991F87D1401EB810190
:102A300000EB41015848405CFF2809D1332000EBEE
:102A40000411002355A24FF4DF70FEF76EFE1DE067
:102A5000601E464991F87D1401EB810100EB4101B4
:102A60004D48405C48B1332000EB041100234CA2D8
:102A70004FF4DF70FEF759FE08E0332000EB04113D
:102A8000002348A24FF4DF70FEF74FFE022C05DD55
:102A9000072C03DA3A483849486003E04FF05010F9
:102AA00035494860601E314991F87D1401EB810180
:102AB00000EB41013C48405C1E2808DD332000EB60
:102AC0000411002330A22620FEF72FFE16E0601E20
:102AD000264B93F87D3403EB830300EB430332482A
:102AE000C05C00EB400303EBC000304BC218332046
:102AF00000EB041100232620FEF717FE601E1B4981
:102B000091F87D1401EB810100EB41012648D230A0
:102B1000405C022808DD332000EB041100231AA2D8
:102B20009220FEF702FE17E0601E104B93F87D34F2
:102B300003EB830300EB43031B48D230C05C00EB84
:102B4000400303EBC0001A4BC218332000EB041102
:102B500000239220FEF7E9FD044991F87D1401EB72
:102B6000810104EB410025E08C990100BC0A0010B2
:102B7000099A0100429A0100140000103800310047
:102B800034346500E01000102D2D2D2D00000000C4
:102B9000F04D001048210010B03100102D00000051
:102BA00050000000460000003A0F00101C97010082
:102BB00043990100012303220021FEF719FE33206F
:102BC00000EB04110023FE4A0820FEF7AEFD601C56
:102BD000C4B20B2CFFF696AE70BDF8B5054628784A
:102BE000022802D1FFF70AF805E02878022802DD62
:102BF000A878FFF727F82878012805D1A87818B910
:102C0000FF20F049486003E04FF05010ED49486064
:102C1000EC4840682A235E221A2100903620FEF7F5
:102C200012F9E948D0F8840300EBC000E7494218E4
:102C300000231A213620FEF715FD2878022805D139
:102C4000A87818B9FF20DF49486003E04FF0501022
:102C5000DC494860DB48406842231E223221009054
:102C60000020FEF7F0F80023D9A232211846FEF723
:102C7000F9FC0324D2E12878A04206D1A8780228E2
:102C800003D1FF20CF49486003E04FF05010CD49F9
:102C90004860CC4840680090A01E332202EB001030
:102CA000103083B2A01E02EB001081B24FF4997273
:102CB000FA20FEF7C8F8E01EE97801EB810100EB8D
:102CC000410000EB8001C34800EB81008068401C9C
:102CD00058B9A01E332202EB001081B20023AFF2DC
:102CE0005812FA20FEF721FD25E0E21EEB7803EBF7
:102CF000830302EB430202EB8203B64A02EB830238
:102D0000117BE21EEB7803EB830302EB430202EB41
:102D10008203B04A02EB8302012390680522FEF78A
:102D200067FDA01E332202EB001081B20023A44AEB
:102D3000FA20FEF7FAFC2878A04206D1A8780328EA
:102D400003D1FF209F49486003E04FF050109D4998
:102D500048609C4840680090A01E332202EB00109F
:102D6000103083B2A01E02EB001081B24FF4C1728A
:102D70004FF4A570FEF767F8E01EE97801EB8101DA
:102D800000EB410000EB8001934800EB810080687C
:102D9000401C60B9A01E332202EB001081B2002358
:102DA000AFF21C224FF4A570FEF7BFFC26E0E21E36
:102DB000EB7803EB830302EB430202EB8203864AC8
:102DC00002EB8302117BE21EEB7803EB830302EB41
:102DD000430202EB8203804A02EB830201239068E4
:102DE0000522FEF705FDA01E332202EB001081B282
:102DF0000023734A4FF4A570FEF797FC2878A04291
:102E000006D1A878042803D1FF206E49486003E06A
:102E10004FF050106B4948606A4840680090A01E0F
:102E2000332202EB0010103083B2A01E02EB001020
:102E300081B240F2DF124FF4D270FEF704F8E01EC8
:102E4000E97801EB810100EB41016448405CFF2817
:102E50000CD1A01E332202EB001081B20023AFF28E
:102E6000D8224FF4D270FEF760FC0BE0A01E332294
:102E700002EB001081B20023AFF2DC224FF4D270DB
:102E8000FEF753FC2878A04205D1A87818B9FF2096
:102E90004C49486003E04FF050104A4948604948A7
:102EA00040680090A01E332202EB0010103083B265
:102EB000A01E02EB001081B27E222820FDF7C3FF86
:102EC000E01EE97801EB810100EB41014448405CE0
:102ED00030280BDDA01E332202EB001081B200234C
:102EE000AFF25C322820FEF720FC16E0E01EEB7803
:102EF00003EB830300EB43033948C05C00EB400362
:102F000003EBC000374BC218A01E332303EB0010A5
:102F100081B200232820FEF708FC2878A04206D1C1
:102F2000A878012803D1FF202649486003E04FF02C
:102F3000501024494860234840680090A01E332266
:102F400002EB0010103083B2A01E02EB001081B221
:102F5000C4227E20FDF777FFE01EE97801EB8101B6
:102F600000EB41011E48D230405C02280BDDA01E60
:102F7000332202EB001081B20023AFF2F4327E2044
:102F8000FEF7D3FB17E0E01EEB7803EB830300EBC7
:102F900043031348D230C05C00EB400303EBC00096
:102FA000114BC218A01E332303EB001081B2002383
:102FB0007E20FEF7BAFB4FF050100249486015E042
:102FC000F04D001014000010BC0A0010D594010050
:102FD0004E6F2E00E010001048210010B03100109C
:102FE0003A0F00101C970100439901004860E978EE
:102FF00001EB810104EB4101881E01230322002122
:10300000FEF7F6FBA01E332202EB001081B2002374
:10301000FE4A0820FEF789FB601CC4B20D2CFFF6A7
:103020002AAEF8BDF8B505464FF05010F849486093
:103030002878012800D100E0002006461EB1FF20BC
:10304000F349486003E04FF05010F1494860F04800
:1030500040682A2358221A2100903020FDF7F3FE01
:10306000EC4890F87C0400EB8000EB494218012307
:103070001A213020FEF7F6FA2878022801D1012023
:1030800000E0002006461EB1FF20E149486003E051
:103090004FF05010DE494860DD48406840231E2252
:1030A000302100900820FDF7CEFE0123AFF2E002B0
:1030B00030210820FEF7D6FAFEF738FC28780128E0
:1030C00019D16FF07F40D2490860D448486000248D
:1030D0000EE004EB8401D04BCA1804EB84015423A6
:1030E00003EB011188B20023F121FEF7BBFA641C47
:1030F000022CEED320E0287802281AD16FF07F400E
:10310000C3490860C548486000240FE0C4EBC4010F
:10311000C34BCA18E11C01EB8101542303EB0111DD
:1031200088B20023F121FEF79DFA641C022CEDD336
:1031300002E06878FEF7E1FCF8BDF8B504462078B7
:10314000012800D100E0002005461DB1FF20B04954
:10315000486003E04FF05010AD494860AC4840680B
:103160002C23C022182100905820FDF76CFEAD489A
:103170000078C0EBC000AC49421800231A21582047
:10318000FEF770FA2078022801D1012000E000202B
:1031900005461DB1FF209E49486003E04FF05010E6
:1031A0009B4948609F4A92F868100023506E0422A1
:1031B000FEF71EFB0023954A30215820FEF752FAF5
:1031C0009848C06E30B1002398A230218A20FEF7C3
:1031D00049FA05E0002396A230218A20FEF742FA40
:1031E0002078032801D1012000E0002005461DB110
:1031F000FF208749486003E04FF050108449486041
:10320000884A117B002390680422FEF7F1FA00231C
:103210007E4A46215820FEF725FA8248006930B1DF
:10322000002382A246218A20FEF71CFA05E0002333
:103230007FA246218A20FEF715FA2078042801D1C2
:10324000012000E0002005461DB1FF2070494860C4
:1032500003E04FF050106E4948606D4840682C23E1
:103260004FF4DD72182100904FF4A970FDF7EBFDCB
:103270006C4890F8400000EB400101EBC0006D4944
:10328000421800231A214FF4A970FEF7EBF92078B9
:10329000052801D1012000E0002005461DB1FF20D6
:1032A0005B49486003E04FF05010594948605D4A5F
:1032B00092F8A0100023D2F89C000422FEF798FA9E
:1032C0000023524A30214FF4A970FEF7CBF90023B6
:1032D00059A230214FF4C170FEF7C4F920780628B6
:1032E00001D1012000E0002005461DB1FF20484922
:1032F000486003E04FF0501045494860494A92F851
:103300002C100023906A0422FEF772FA00233F4A31
:1033100046214FF4A970FEF7A5F9002346A24621E5
:103320004FF4C170FEF79EF9FEF700FB207810B154
:1033300001281ED103E00020FEF7DFFB1AE06FF04A
:103340007F40334908603548486000260EE0C6EBF0
:10335000C601354BCA1806EB8601542303EB011155
:1033600088B20023F121FEF77DF9761C022EEED300
:1033700000E000BF00BFF8BDF8B505462878012879
:1033800000D100E0002006461EB1FF202049486021
:1033900003E04FF050101E4948601D4840682C2340
:1033A000C022182100905820FDF74DFD1D480078DF
:1033B000C0EBC0001C49421800231A215820FEF718
:1033C00051F92878022801D1012000E000200646AA
:1033D0001EB1FF200E49486003E04FF050100C4929
:1033E00048600B4840684223C0222E21009058209C
:1033F000FDF729FD0B484078C0EBC0000F4942188B
:10340000002330215820FEF72DF919E0F04D00106F
:1034100014000010BC0A0010589A01003800310056
:10342000629A0100BC0900105192010020A6B80068
:103430006DA6B8008C990100205600005F92010033
:103440002878032801D1012000E0002006461EB1A3
:10345000FF20FE49486003E04FF05010FB494860F0
:10346000FA4840686E23C022442100905820FDF79E
:10347000EAFCF74890F8B500C0EBC000F5494218E7
:10348000002346215820FEF7EDF82878042801D1C2
:10349000012000E0002006461EB1FF20EB494860F5
:1034A00002E0ED48E9494860E84840686E23C022E0
:1034B0005A2100905820FDF7C6FCE5488078C0EB03
:1034C000C000E649421800235C215820FEF7CAF8E4
:1034D0002878052801D1012000E0002006461EB111
:1034E000FF20DA49486002E0DB48D8494860D84A02
:1034F000117B002390680422FEF77AF9D3484068D4
:103500008423C022702100905820FDF79CFC0023EA
:10351000D34A72215820FEF7A5F8CD48006938B18A
:103520000023AFF2F80272218A20FEF79BF806E032
:103530000023AFF2041272218A20FEF793F8287854
:10354000062801D1012000E0002006461EB1FF2020
:10355000BE49486003E04FF05010BC494860BB488A
:103560004068B023C0229C2100905820FDF76BFCDE
:10357000B74890F82000C0EBC000B84942180023BB
:103580009E215820FEF76EF82878072801D10120E7
:1035900000E0002006461EB1FF20AC49486003E071
:1035A0004FF05010A9494860A94A92F82C10002306
:1035B000906A0422FEF71CF9A4484068C623C02282
:1035C000B22100905820FDF73EFC0023A44AB4210C
:1035D0005820FEF747F80023AFF2A412B421882048
:1035E000FEF740F82878082801D1012000E00020EB
:1035F00006461EB1FF209549486003E04FF0501089
:1036000092494860914840682C234FF4DD7218219C
:1036100000904FF4A970FDF716FC8D4890F840001B
:1036200000EB400101EBC0008E49421800231A2133
:103630004FF4A970FEF716F82878092801D1012067
:1036400000E0002006461EB1FF208049486003E0EC
:103650004FF050107D4948607C48406842234FF449
:10366000DD722E2100904FF4A970FDF7ECFB784835
:1036700090F84100C0EBC0007B4942180023302184
:103680004FF4A970FDF7EEFF28780A2801D1012038
:1036900000E0002006461EB1FF206C49486002E0B1
:1036A0006D486A4948606A4A92F84C100023906C51
:1036B0000422FEF79DF8654840686E234FF4DD72E2
:1036C0005A2100904FF4A970FDF7BDFB0023644A16
:1036D0005C214FF4A970FDF7C5FF5D48006D40B156
:1036E0000023AFF2B8225C214FF4C270FDF7BAFF9D
:1036F00007E00023AFF2C8225C214FF4C270FDF74F
:10370000B1FF28780B2801D1012000E000200646F7
:103710001EB1FF204D49486002E04F484B494860C8
:103720004B4A92F868100023506E0422FEF760F8AE
:103730004648406884234FF4DD72702100904FF4B6
:10374000A970FDF780FB0023454A72214FF4A97050
:10375000FDF788FF3E48C06E40B10023AFF234321F
:1037600072214FF4C270FDF77DFF07E00023AFF236
:10377000403272214FF4C270FDF774FF28780C2894
:1037800001D1012000E0002006461EB1FF202F4994
:10379000486003E04FF050102C4948602C4A92F8E2
:1037A00084100023D2F880000422FEF721F8274875
:1037B0004068B0234FF4DD729C2100904FF4A97053
:1037C000FDF741FB0023264A9E214FF4A970FDF727
:1037D00049FF0023AFF2A0329E214FF4C170FDF7E4
:1037E00041FF28780D2801D1012000E00020064685
:1037F0001EB1FF201549486003E04FF050101349F7
:103800004860134A92F8A0100023D2F89C000422CA
:10381000FDF7EEFF0D484068C6234FF4DD72B2217C
:1038200000904FF4A970FDF70EFB00230C4AB42161
:103830004FF4A970FDF716FF0023AFF20442B42144
:103840004FF4C170FDF70EFF10E0000014000010EF
:10385000BC0900107B920100343465006D920100B8
:10386000F04D00108C990100DF980100FEF75EF822
:1038700028780E2874D2DFE800F0070B253F597432
:10388000758F90ACD9DADBDC0020FEF73CFAD2E091
:103890006FF07F40FE490860FE48486000240EE05B
:1038A000C4EBC401FC4BCA1804EB8401542303EBA2
:1038B000011188B20023F121FDF7D4FE641C022C13
:1038C000EED3B8E06FF07F40F1490860F1484860FE
:1038D00000240EE0C4EBC401F04BCA1804EB8401D1
:1038E000542303EB011188B20023F121FDF7BAFE46
:1038F000641C022CEED39EE06FF07F40E449086028
:10390000E448486000240EE0C4EBC401E44BCA184C
:1039100004EB8401542303EB011188B20023F1214D
:10392000FDF7A0FE641C032CEED384E06FF07F4013
:10393000D7490860D748486000240EE0C4EBC401B2
:10394000D84BCA1804EB8401542303EB011188B24D
:103950000023F121FDF786FE641C022CEED36AE001
:1039600068E068E06FF07F40C9490860C948486076
:1039700000240EE0C4EBC401CA4BCA1804EB840156
:10398000542303EB011188B20023F121FDF76AFEF5
:10399000641C022CEED34EE04DE06FF07F40BC493A
:1039A0000860BC484860002410E004EB440101EBCF
:1039B000C401BD4BCA1804EB8401542303EB01116D
:1039C00088B20023F121FDF74DFE641C052CECD3D9
:1039D00031E06FF07F40AE490860AE484860002497
:1039E00021E0B24890F8B40001280ED1C4EBC40124
:1039F000AF4BCA1804EB8401542303EB011188B2C6
:103A00000023F121FDF72EFE0CE0AA4901EBC402D0
:103A100004EB8401542303EB011188B20023F1214C
:103A2000FDF720FE641C042CDBD304E003E002E07D
:103A300001E000E000BF00BFF8BD2DE9F041044601
:103A40000D46164604EB44039B4FDA19B1B2A8B2F7
:103A50000123FDF76AFEBDE8F081F8B505464FF099
:103A600050108B4948609548D0F8200178B99349A7
:103A70004122D1F8B8034FF4B471FFF7DEFF8F494C
:103A80004122D1F8B803C821FFF7D7FF0CE000238B
:103A90008BA241214FF4B470FDF747FE002388A2AA
:103AA0004121C820FDF741FE2878012800D100E01F
:103AB000002006461EB1FF207549486003E04FF024
:103AC000501073494860724840682C2370221821B6
:103AD00000904620FDF7B7F97848D0F8B80300EB1E
:103AE000C0007849421801231A214620FDF7BAFD8B
:103AF0002878022801D1012000E0002006461EB1EE
:103B0000FF206349486003E04FF05010604948606F
:103B10006A4A92F80C110023D2F808010522FDF739
:103B200067FE5B4840682A234FF492721A21009086
:103B3000E220FDF788F90123634A1A21E220FDF70C
:103B400091FD5E48D0F8100100EB40005F4942183B
:103B500001231A214FF48E70FDF784FD2878032885
:103B600001D1012000E0002006461EB1FF20484997
:103B7000486003E04FF050104549486044484068B1
:103B80002C234FF4E272182100900801FDF75BF935
:103B90004A48D0F820014E4901EB800201231A2146
:103BA0004FF4C070FDF75EFD2878042801D1012094
:103BB00000E0002006461EB1FF203549486003E0C2
:103BC0004FF050103249486031484068422370221B
:103BD0002E2100904620FDF736F93848D0F8000134
:103BE00000EB80003B494218002330214620FDF7BE
:103BF00039FD2878052801D1012000E00020064683
:103C00001EB1FF202249486003E04FF050102049C8
:103C100048601F48406842234FF4AB722E21009049
:103C2000FA20FDF710F92548D0F8280100EB8000B4
:103C30002849421801233021FA20FDF713FD0624FC
:103C40009EE02878A04203D1FF20114948600CE093
:103C5000A01F022805D9072803D21F480C49486035
:103C600003E04FF050100A4948600948406800904E
:103C7000A01FC0EB00105B3083B2A01FC0EB001090
:103C80004C3081B2DC229820FDF7DDF8A01F25E042
:103C90001400001038003100519201005F920100C1
:103CA0007B9201006D9201008C990100BC0900100B
:103CB000DF980100FB98010072A60100BC0A001009
:103CC00025000000D5940100F04D001045A601002C
:103CD000B3A40100A19A010034346500C0EBC00117
:103CE000FE4800EBC1004068F0B3A21FC2EBC20364
:103CF000FA4A02EBC302117AA21FC2EBC203F74ACF
:103D000002EBC302002350680522FDF771FDA01FDE
:103D1000C0EB00104C3081B20123F1A29820FDF7D6
:103D200004FDA01FC0EB00104C3081B20123ED4A0E
:103D3000A020FDF7FAFCEC48D0F82001F8B9A01F4C
:103D4000C0EBC003E54800EBC300C06800EB4000D7
:103D5000E64BC218A01FC0EB00104C3081B201230B
:103D6000D020FDF7E2FC0AE0FFE7A01FC0EB001047
:103D70004C3081B20123DE4AA020FDF7D6FC641C42
:103D8000102CFFF45EAF10247DE02878A04203D110
:103D9000FF20D84948600DE0A4F11000022805D9A1
:103DA000072803D2D448D349486003E04FF05010AD
:103DB000D0494860CF4840680090A4F11000C0EBA3
:103DC00000105F3083B2A4F11000C0EB00104C3043
:103DD00081B24FF4BE724FF4A070FDF734F8A4F135
:103DE0001000C0EBC001BD4800EBC100006AE0B3A9
:103DF000A4F11002C2EBC203B84A02EBC30292F86C
:103E00002410A4F11002C2EBC203B44A02EBC302B5
:103E10000023106A0522FDF7EBFCA4F11000C0EBB3
:103E200000104C3081B20023AE4A4FF4A070FDF771
:103E30007CFCAD48D0F8200120BBA4F11000C0EB01
:103E4000C003A64800EBC300806A00EB4000A74B0C
:103E5000C218A4F11000C0EB00104C3081B2012355
:103E60004FF4B870FDF761FC0CE0FFE7A4F110001F
:103E7000C0EB00104C3081B201239D4A4FF4A0707A
:103E8000FDF753FC641C1A2CFFF47FAFFDF74EFDC9
:103E90002878062857D2DFE800F003070809223CFB
:103EA0006878FDF730FF64E063E062E06FF07F4028
:103EB000904908609148486000240DE0904901EB6A
:103EC000840204EB8401542303EB011188B2002324
:103ED000F121FDF7C7FB641C022CEFD349E06FF022
:103EE0007F40844908608548486000240EE004EB68
:103EF0008401844BCA1804EB8401542303EB0111A1
:103F000088B20023F121FDF7ADFB641C022CEED337
:103F10002FE06FF07F4077490860784848600024C0
:103F20000EE004EB8401774BCA1804EB84015423A0
:103F300003EB011188B20023F121FDF793FB641C10
:103F4000022CEED315E000236FA2F1215420FDF7DF
:103F500089FB00236E4AE7214FF4CA70FDF782FB0C
:103F600000236B4A0832FB214FF4CA70FDF77AFB3D
:103F700000BF00BFF8BD2DE9F04104460D461646CE
:103F8000207828B32078042811DD28460DF000FEA3
:103F9000074606F012FC20781622504300F11A0161
:103FA0000123504A4FF4A070FDF75CFB10E030464F
:103FB0000DF0EEFD074602F068FD20781622504312
:103FC00000F11A010123474A4FF4A070FDF74AFBA4
:103FD000BDE8F08138B5054600242FE02978601C43
:103FE000814203D1FF204349486003E04FF0501065
:103FF000404948603F4840680090A01C162250434A
:10400000163083B2601C5043183081B2E822A020E1
:10401000FCF719FF3F4A115D3F4A32F824000023A4
:104020000422FDF7E5FB601C162250431A3081B2D2
:1040300001232C4AA020FDF715FB641C062CCDD3D0
:104040004FF050102B49486038BDF8B50546287828
:10405000012800D100E0002006461EB1FF202549BE
:10406000486003E04FF05010224948602148406802
:104070002C23C0221A2100905A20FCF7E4FE264887
:10408000B83890F8D000C0EBC00024494218002393
:104090001C215A20FDF7E6FA2878022801D10120D8
:1040A00000E0002006461EB1FF201249486003E0F0
:1040B0004FF050100F4948600E4840684223C0221C
:1040C000302100905A20FCF7BEFE1348B83890F813
:1040D000D100C0EBC0001249421823E0E80B0010E9
:1040E0002D000000F04D0010BC0A001045A6010094
:1040F000F42600001400001034346500380031004C
:10410000B3A40100A19A0100C7E5B3FDD0D000001F
:10411000C01D000074A70100740A00106D92010018
:10412000D1A50100002332215A20FDF79BFA2878FF
:10413000032801D1012000E0002006461EB1FF2027
:10414000FE49486003E04FF05010FC494860FB48CE
:1041500040685823C022462100905A20FCF773FE85
:10416000F74890F8D200C0EBC000F649421800238F
:1041700048215A20FDF776FA2878042801D1012039
:1041800000E0002006461EB1FF20EC49486003E035
:104190004FF05010E9494860E84840686E23C0225B
:1041A0005C2100905A20FCF74EFEE54890F8D300C1
:1041B000C0EBC000E349421800235E215A20FDF7FE
:1041C00051FA2878052801D1012000E00020064698
:1041D0001EB1FF20D949486003E04FF05010D74985
:1041E0004860D64840688423C022722100905A203B
:1041F000FCF729FED24890F8D400D34901EBC00265
:10420000002374215A20FDF72DFA2878062801D1C1
:10421000012000E0002006461EB1FF20C74948608B
:1042200003E04FF05010C5494860C44840689A23E5
:104230006C22882100905A20FCF705FEC349012317
:104240000222C8690021FDF7D3FA0023C04A8A215F
:104250005A20FDF707FA4FF05010B8494860002384
:10426000AFF284128A216E20FDF7FCF92878072826
:1042700001D1012000E0002006461EB1FF20AF4919
:10428000486003E04FF05010AC494860AB484068CC
:104290009A238A22882100907820FCF7D4FDAB492C
:1042A0000123022288690021FDF7A2FA0023A84A0F
:1042B0008A217820FDF7D6F94FF050109F494860C9
:1042C0000023AFF2E4128A218C20FDF7CBF9287885
:1042D000082801D1012000E0002006461EB1FF2081
:1042E0009649486003E04FF0501094494860934865
:1042F00040689A23AA22882100909820FCF7A3FD09
:10430000924901230222C8680021FDF771FA0020BA
:104310008F49887000230A468A219820FDF7A2F968
:104320002878092801D1012000E0002006461EB1AE
:10433000FF208249486003E04FF050107F494860F9
:104340007E484068B0236C229E2100905A20FCF7E2
:104350007AFD7E490123022288680021FDF748FA90
:1043600000237B4AA0215A20FDF77CF94FF0501022
:1043700072494860002377A2A0216E20FDF772F9F0
:1043800028780A2801D1012000E0002006461EB14D
:10439000FF206A49486003E04FF0501067494860C9
:1043A00066484068B0238A229E2100907820FCF75E
:1043B0004AFD66490123022248680021FDF718FAE8
:1043C0000023634AA0217820FDF74CF94FF05010EC
:1043D0005A49486000235FA2A0218C20FDF742F9D2
:1043E00028780B2801D1012000E0002006461EB1EC
:1043F000FF205249486003E04FF050104F49486099
:104400004E484068B023AA229E2100909820FCF7D5
:104410001AFD4E490123022208680021FDF7E8F940
:1044200000204B49887000230A46A0219820FDF700
:1044300019F928780C2801D1012000E00020064657
:104440001EB1FF203D49486003E04FF050103B494A
:1044500048603A484068C623C022B42100905A20E0
:10446000FCF7F1FC0023364AD532B6215A20FDF77D
:10447000F9F8FDF75BFA6FF07F4030490860364885
:10448000486028780C286BD2DFE800F006091D315F
:10449000456D808182838485FDF726FD8FE00024B1
:1044A0000EE0C4EBC401274BCA1804EB840154236B
:1044B00003EB011188B20023F121FDF7D3F8641C4E
:1044C000022CEED37BE000240EE0C4EBC401234BAE
:1044D000CA1804EB8401542303EB011188B20023B2
:1044E000F121FDF7BFF8641C052CEED367E0002432
:1044F0000EE0C4EBC401134BCA1804EB840154232F
:1045000003EB011188B20023F121FDF7ABF8641C25
:10451000022CEED353E000240EE0C4EBC401094B9F
:10452000CA1804EB8401542303EB011188B2002361
:10453000F121FDF797F8641C022C12E01400001022
:10454000BC0900106D920100C1A50100A04D001032
:10455000F04D00103A00000038003100D1A50100F4
:104560002CE0DAD32BE000240DE0FD4901EBC4027E
:1045700004EB8401542303EB011188B20023F121E1
:10458000FDF770F8641C022CEFD318E000BF00BFE9
:1045900000BF00BF00BF00240DE0F24901EBC402E0
:1045A00004EB8401542303EB011188B20023F121B1
:1045B000FDF758F8641C022CEFD300E000BF00BFE9
:1045C000F8BD10B5FDF7D2FCFDF7B0F910BD10B580
:1045D000FFF7F7FF6FF07F40E3490860E34848606A
:1045E0000023E34A04211846FDF73CF86FF07F40B2
:1045F000DD4908604FF05010486000240EE004EBE5
:10460000840101EBC401DB4BCA1804EB84014905AA
:10461000080C00231A21FDF725F8641C032CEED3A7
:1046200000240FE004EB840000EBC400D24BC2185E
:10463000601C162358431A3081B200231846FDF738
:1046400011F8641C062CEDD310BD08B5CB48B62379
:1046500040F2DF127A2100900020FCF7F4FB08BD45
:1046600010B5FDF783FCFDF761F9FFF7EEFF10BD14
:1046700010B5FFF7F5FF6FF07F40BB490860BB48FE
:1046800048600023BA4A163204211846FCF7EAFFB4
:104690006FF07F40B44908604FF05010486000242C
:1046A0001CE0032C0CD2B64901EBC40204EB8401DC
:1046B000002303EB411188B21A21FCF7D3FF0CE071
:1046C000AF4901EBC402E11E01EB8101002303EBC2
:1046D000411188B23021FCF7C5FF641C062CE0D3E1
:1046E000002417E0032C05D9082C03D2A3489E49C7
:1046F000486003E04FF050109B494860A14800EB30
:104700008402C4EB0410413081B200231846FDF747
:104710000CF8641C0B2CE5D300239BA24121A020A4
:10472000FDF703F8002399A241214FF4A070FCF794
:10473000FCFF98491A22D1F8B8034FF49371FDF7A2
:1047400020FD0020FDF7DFFA10BD08B58B48B62329
:1047500040F2DF127A2100900020FCF774FB08BDC4
:1047600010B5FDF703FCFDF7E1F810BD10B5FFF73C
:10477000F7FF6FF07F407C4908607C484860002369
:104780007B4A2C3204211846FCF76CFF6FF07F4007
:10479000754908604FF05010486000237E4A1A2186
:1047A0001846FCF75FFF01240DE004EBC4017A4BCF
:1047B000CA18611E4D2359431E3188B2002330218F
:1047C000FCF750FF641C072CEFD30020FDF79BFA89
:1047D00010BD38B500241BE06FF07F400090601CD6
:1047E00000EB400202EBC0001A2202EB4000801EE8
:1047F00083B2601C00EB400202EBC0001A2202EB05
:104800004000801E81B2BE225A20FCF760FB641C6F
:10481000072CE1D338BD10B5FDF7A8FBFDF786F8EE
:1048200010BD10B5FFF7F7FF6FF07F404E490860ED
:104830004E48486000234E4A6E3204211846FCF769
:1048400011FF6FF07F40484908604FF050104860FA
:10485000524890F8FF00012814D100240FE0C4EB67
:10486000C40000EB40004E4BC218162304FB03F0BB
:104870001A3081B200231846FCF7F4FE641C042CA5
:10488000EDD313E000240FE0C4EBC40000EB4000C4
:10489000444BC218162304FB03F01A3081B20023E4
:1048A0001846FCF7DFFE641C042CEDD300233B4AC2
:1048B000F5325C215A20FCF7D5FEFDF715FB10BD43
:1048C00010B5FFF7A8FF6FF07F4027490860274821
:1048D00048600023264A423204211846FCF7C2FEF3
:1048E0006FF07F40204908604FF05010486000246E
:1048F0000FE004EB440000EBC4002B4BC21816235E
:1049000004FB03F01A3081B200231846FCF7AAFE1C
:10491000641C082CEDD3FFF75CFFFDF7E5FA10BD32
:104920002DE9F34F83B00C4642F20F716068884264
:1049300006D90A216068B0FBF1F060600420A06035
:10494000A068C0F10400A06060680DF075F98146B0
:10495000E06868BB154948460DF0B6F9814637E076
:10496000C1A50100F999010014000010F3520300E1
:104970009AA1010024A301004BA301003434650077
:1049800083A40100EBA401004C4F5700484947485D
:1049900000000000BC0A001043A50100BC09001083
:1049A0009D9F0100F19F010045A0010000007A4495
:1049B000FFE7E06801280BD148460CF08DFF074661
:1049C0000022FC4B0CF078FC05460CF09BF981466C
:1049D000A0680CF021FC07463A460B460020F64939
:1049E0000BF052FC05460E4648460CF075FF2A4671
:1049F0003346CDE900010CF073FA82460CF082F9DF
:104A0000814648460CF068FF05460022EB4B0CF04F
:104A100051FD09D2DFF8A89340F6B830606002205B
:104A2000A0600120E06071E048460CF055FF0546AB
:104A30000022E44B0CF03EFD0CD8E34948460CF054
:104A4000E5FF05460DF0C0F860600220A06001207F
:104A5000E0605BE048460CF03FFF05460022D54B86
:104A60000CF028FD0CD8D94948460CF0CFFF05467C
:104A70000DF0AAF860600320A0600120E06045E02E
:104A800048460CF029FF05460022D14B0CF012FDE0
:104A90000CD8D04948460CF0B9FF05460DF094F803
:104AA00060600120A0600020E0602FE048460CF02C
:104AB00013FF05460022C84B0CF0FCFC0CD8C7497C
:104AC00048460CF0A3FF05460DF07EF8606002201A
:104AD000A0600020E06019E048460CF0FDFE0546AD
:104AE0000022BF4B0CF0E6FC08D848460DF06CF8ED
:104AF00060600320A0600020E06007E048460DF001
:104B000063F860600320A0600020E06048460DF07C
:104B10005BF8A0611C22214603980AF03CF905B01D
:104B2000BDE8F08F0146888800B270472DE9F0415A
:104B300005460C46E06870BBA068052829D2DFE86E
:104B400000F00314151C220060680CF065FB06469B
:104B500000229F4B0CF0AEFC04D2A2486060002003
:104B6000206101E00120206114E013E04FF47A712C
:104B70006068B0FBF1F060600CE064216068B0FB3D
:104B8000F1F0606006E00A216068B0FBF1F060605F
:104B900000E000BF46E0FFE7A06806283ED2DFE85D
:104BA00000F00310181926328E496068884202D935
:104BB0000846606004E04FF47A71606848436060C2
:104BC0002FE0606820B10A216068B0FBF1F06060FE
:104BD00027E026E042F210716068884201D9084659
:104BE0006060606800EB80004000606019E0606811
:104BF000B0F57A7F02D94FF47A7060606421606802
:104C0000484360600DE06068642801D964206060FA
:104C10004FF47A7160684843606002E072486060F7
:104C200000BF00BF1C22214628460AF0B4F8BDE8A8
:104C3000F0812DE9F34F83B08A4642F20F71DAF822
:104C40000400884209D90A21DAF80400B0FBF1F027
:104C5000CAF804000420CAF808004FF47A71DAF8A0
:104C6000040000FB01FBDAF80810C1F104000CF0AD
:104C7000D3FA02460B46CDE9000100204E490BF065
:104C800003FB04460D4658460CF0C6FA064622467B
:104C90002B460CF025F980460CF07AFA83464EF646
:104CA0006020834500D9834642F21070834508D3C3
:104CB0000220CAF808000A20BBFBF0F0CAF8040082
:104CC00004E00320CAF80800CAF804B0CAF818B013
:104CD0001C22514603980AF05EF805B0BDE8F08F3B
:104CE0002DE9F05F82460C460020E060A0680CF0E1
:104CF000A3FF83460CF0F0FD07463A460B46002022
:104D00002D490BF0C1FA05460CF042FA8146606865
:104D1000B0FBF9F9B9F1640F01D90220A0601C229F
:104D2000214650460AF037F8BDE8F09F08B52F48F5
:104D3000372328225C2100903C20FCF7ABFA2C485A
:104D4000372328225C2100906420FCF7A3FA29482D
:104D500037232822932100903C20FCF79BFA264819
:104D600037232822932100906420FCF793FA08BD92
:104D700008B51E48372328225C2100903C20FCF710
:104D800089FA1B48372328225C2100906420FCF715
:104D900081FA1A4837232822932100903C20FCF7FF
:104DA00079FA154837232822932100906420FCF7D4
:104DB00071FA08BD80842E4100002440389C7C415B
:104DC000C0E1E44BD012634100401C4600007A442D
:104DD000006AF8400000C8420088C340000020413B
:104DE00000408F40A086010040420F005C6501003A
:104DF00074660100A47B0100AE8A0100B77C01004B
:104E000008B5FE48372328225C2100903C20FCF79F
:104E100041FAFB48372328225C2100906420FCF7EC
:104E200039FAF84837232822932100903C20FCF7D8
:104E300031FAF54837232822932100906420FCF7AB
:104E400029FA08BD08B5ED48372328225C210090D7
:104E50003C20FCF71FFAEA48372328225C21009007
:104E60006420FCF717FAE9483723282293210090A1
:104E70003C20FCF70FFAE2483723282293210090C8
:104E80006420FCF707FA08BD08B5DC483723282260
:104E90005C2100903C20FCF7FDF9DD4837232822F7
:104EA0005C2100906420FCF7F5F9D84837232822CC
:104EB000932100903C20FCF7EDF9D54837232822B8
:104EC000932100906420FCF7E5F908BD08B5CB48B4
:104ED000372328225C2100903C20FCF7DBF9CC48EA
:104EE000372328225C2100906420FCF7D3F9C948BD
:104EF00037232822932100903C20FCF7CBF9C248AD
:104F000037232822932100906420FCF7C3F908BDC1
:104F100008B5BA48372328225C2100903C20FCF7D2
:104F2000B9F9BB48372328225C2100906420FCF7A4
:104F3000B1F9B94837232822932100903C20FCF78F
:104F4000A9F9B14837232822932100906420FCF767
:104F5000A1F908BD08B5B148372328225C2100908B
:104F60003C20FCF797F9A648372328225C210090C3
:104F70006420FCF78FF9A84837232822932100905A
:104F80003C20FCF787F9A048372328229321009082
:104F90006420FCF77FF908BD08B5A0483723282214
:104FA0005C2100903C20FCF775F9954837232822B6
:104FB0005C2100906420FCF76DF994483723282287
:104FC000932100903C20FCF765F98D483723282277
:104FD000932100906420FCF75DF908BD08B58F4867
:104FE000372328225C2100903C20FCF753F98448A9
:104FF000372328225C2100906420FCF74BF983487A
:1050000037232822932100903C20FCF743F9844861
:1050100037232822932100906420FCF73BF908BD38
:1050200008B57E48372328225C2100903C20FCF7FD
:1050300031F97348372328225C2100906420FCF763
:1050400029F9744837232822932100903C20FCF74B
:1050500021F96D4837232822932100906420FCF722
:1050600019F908BD08B56D48372328225C21009046
:105070003C20FCF70FF96248372328225C2100907E
:105080006420FCF707F95F4837232822932100901A
:105090003C20FCF7FFF85C4837232822932100903E
:1050A0006420FCF7F7F808BD08B55C4837232822D0
:1050B0005C2100903C20FCF7EDF85548372328226E
:1050C0005C2100906420FCF7E5F852483723282241
:1050D000932100903C20FCF7DDF84B483723282231
:1050E000932100906420FCF7D5F808BD08B54B4823
:1050F000372328225C2100903C20FCF7CBF8444861
:10510000372328225C2100906420FCF7C3F8424832
:1051100037232822932100903C20FCF7BBF83A4823
:1051200037232822932100906420FCF7B3F808BDB0
:1051300008B53A48372328225C2100903C20FCF730
:10514000A9F83348372328225C2100906420FCF71B
:10515000A1F82E4837232822932100903C20FCF709
:1051600099F82B4837232822932100906420FCF7DC
:1051700091F808BD08B52948372328225C21009002
:105180003C20FCF787F82248372328225C21009036
:105190006420FCF77FF81D483723282293210090D4
:1051A0003C20FCF777F81E483723282293210090F3
:1051B0006420FCF76FF808BD08B51A483723282289
:1051C0005C2100903C20FCF765F80F48372328222B
:1051D0005C2100906420FCF75DF8114837232822F9
:1051E000932100903C20FCF755F8074837232822EC
:1051F000932100906420FCF74DF808BD5C65010028
:10520000746601007E790100AE8A01006B780100AE
:1052100032750100A47B0100B77C01001F740100FE
:10522000CA7D01004576010008B5F94837232822D8
:105230005C2100903C20FCF72DF8F648372328220B
:105240005C2100906420FCF725F8F34837232822DE
:10525000932100903C20FCF71DF8EE4837232822CC
:10526000932100906420FCF715F808BD08B5EB48C1
:10527000372328225C2100903C20FCF70BF8E548FE
:10528000372328225C2100906420FCF703F8E448CF
:1052900037232822932100903C20FBF7FBFFDD48B9
:1052A00037232822932100906420FBF7F3FF08BDE9
:1052B00008B5DA48372328225C2100903C20FBF710
:1052C000E9FFD448372328225C2100906420FBF7B3
:1052D000E1FFD14837232822932100903C20FBF79F
:1052E000D9FFCC4837232822932100906420FBF774
:1052F000D1FF08BD08B5CB4890F8B50020B1C9482A
:1053000090F8B500022826D1C748372328225C210F
:1053100000903C20FBF7BEFFC448372328225C21C5
:1053200000904FF4AA70FBF7B5FFC148007848B170
:10533000B848372328225C2100904FF49670FBF781
:10534000A9FF08E0BB48372328225C2100904FF4D6
:105350009670FBF79FFFB34890F8B50020B1B148B5
:1053600090F8B500012810D1B348372328229321A3
:1053700000903C20FBF78EFFAF4837232822932173
:1053800000904FF4AA70FBF785FF08BD08B5AB4845
:1053900037232822932100903C20FBF77BFFA24873
:1053A000372328225C2100903C20FBF773FFA448A0
:1053B000372328225C2100906420FBF76BFF95487F
:1053C00037232822932100906420FBF763FF08BD58
:1053D00008B59548372328225C2100903C20FBF734
:1053E00059FF9848372328225C2100906420FBF75E
:1053F00051FF924837232822932100903C20FBF74D
:1054000049FF844837232822932100906420FBF72A
:1054100041FF08BD08B58C48372328225C21009045
:105420003C20FBF737FF894837232822932100903F
:105430003C20FBF72FFF08BD2DE9F84F83461746A8
:105440001C464FF00109CA460020A07000BF00F0C2
:1054500055FF0646FF2EFAD17D4890F8B803A0709C
:1054600018E1BAF1000F33D04FF0000A6FF07F401F
:105470007849086078484860FCF758FAFF20754979
:105480004860084640682C23C0221821009058200C
:10549000FBF7D9FCA07800EBC0007049421801234B
:1054A0001A215820FCF7DEF86B486A49486000254D
:1054B0000CE007EBC50205EB8501542303EB01105B
:1054C0000023F121FCF7CEF8681CC5B2052DF0DBF6
:1054D00000F014FF0646FF2E02D14FF0000801E055
:1054E00008F10108B8F1030FBAD14FF0010A00F03A
:1054F00029FF0B2E79D00CDC032E77D004DC012E93
:1055000059D0022E73D1B9E0092E0FD00A2EF9D14D
:105510006FE0132E70D004DC112E18D0122EF1D1B2
:10552000B1E0192E2DD01B2EECD19DE0E0784C4936
:10553000085CFF2804D0E078085CA0704FF00009F8
:10554000A0784349C1F8B803FF20A070A1E0E1783A
:105550004348C01D405CFF2806D0E1784048C01D8C
:10556000405CA0704FF00009A0783949C1F8B80339
:10557000E1783B481530405CFF2801D0FF20A07047
:1055800087E0E17836480E30405CFF2806D0E178AD
:1055900033480E30405CA0704FF00009A0782C49D1
:1055A000C1F8B803E1782E481530405CFF2801D0DF
:1055B000FF20A0706DE0E17829481530405CFF289D
:1055C00006D0E17826481530405CA0704FF0000905
:1055D000A0781F49C1F8B803E17821481530405C34
:1055E000FF2801D0FF20A07053E00BE041E04FE026
:1055F00002E04FF000094CE006201A4908604FF025
:10560000000946E00520174908604FF0000940E016
:1056100045760100AE8A0100DD7E01005877010069
:10562000CA7D0100BC0900106B7801008888010068
:10563000830000104F8501000D900100B77C010030
:1056400032750100746601007E790100917A0100D3
:10565000BC0A00101400001038003100D59401007D
:1056600065960100A00000104FF000090020207096
:105670000FE04FF000090A2020700AE04FF0000907
:105680000220207005E04FF000090020207000E0AB
:1056900000BF00BFB9F1000F7FF4E3AEBDE8F88FA3
:1056A00070B504460D46FE4890F8B50020B1FC48A0
:1056B00090F8B50002281ED1FA48007801280DD1D3
:1056C000F74890F8B40048B96FF07F40F649086099
:1056D000F64A5C218420FBF77DFF0CE0012C02D010
:1056E0000CB1042C02D1FF20EF490860EF4A5C2185
:1056F0008420FBF76FFFEA4890F8B50020B1E84836
:1057000090F8B500012850D1E648007820B1E4486F
:1057100090F8B400012809D1022C03D0032C01D049
:10572000042C03D1FF20E049086003E06FF07F40C4
:10573000DD490860284605F040F8DD48807850B122
:10574000DCA293216420FBF745FF00F0D0FB002092
:10575000D949087024E0D648807840B93DB1FF208F
:10576000D149086003240120D349087002E00020D9
:10577000D14908702DB9CFA293216420FBF72AFFED
:1057800004E0CEA293216420FBF724FF002D05DC6A
:1057900015F1C80F02DD00F0AAFB01E000F09BFB51
:1057A000C24A93218420FBF715FF6FF07F40BE496A
:1057B00008604FF0501048600023C1A2D2211E2083
:1057C000FBF750FF70BD30B585B004460D46BEA056
:1057D00003C8CDE90301BEA103C9CDE9010103A8B6
:1057E000005D40F213114843BB4908443723282287
:1057F0005C2100904FF4BE70FBF74CFD01A8405DAA
:1058000040F213114843B4490844372328225C214D
:1058100000904FF4D270FBF73DFD05B030BD30B5C0
:1058200085B004460D46A8A003C8CDE90301A8A190
:1058300003C9CDE9010103A8005D40F213114843FB
:10584000A549084437232822932100904FF4BE70C5
:10585000FBF720FD01A8405D40F2131148439E492B
:10586000084437232822932100904FF4D270FBF78D
:1058700011FD05B030BD3EB50446984A07CA8DE813
:105880000700874890F840008DF80200BF208DF88F
:1058900003006946924806F097F83EBD00B587B010
:1058A000142102A809F0A9FA8C480C300068019074
:1058B00060208DF808008B48D0F8B80300EB40005A
:1058C0008949085C8DF8090070208DF80A00854828
:1058D000D0F8B80300EB4000084440788DF80B0086
:1058E00071208DF80C007F48D0F8B80300EB400021
:1058F000084480788DF80D0080208DF80E007948DE
:1059000090F8C0038DF80F0090208DF810007548B6
:1059100090F8C4038DF81100A0208DF81200714892
:1059200090F820048DF81300B0208DF814006D4815
:1059300090F818048DF81500C0208DF816006948FD
:1059400090F824048DF81700E0208DF818006548C1
:1059500090F8D0038DF80F0080208DF81900BF203B
:105960008DF81A0000208DF81B0001A95C4806F094
:105970002BF807B000BD0EB5584A103207CA8DE8A3
:1059800007006946564806F01FF80EBD3EB50446AE
:10599000524A1C3207CA8DE807002146534806F0D8
:1059A00013F83EBD00B585B0002001900290039031
:1059B00004904A4828300068009010208DF80100BB
:1059C0000D208DF802004A4800788DF8030002206F
:1059D0008DF8040000208DF80400BF208DF80A0027
:1059E00000208DF80B0069463D4805F0EDFF05B03D
:1059F00000BD70B504460D4604EB44003D49421815
:105A00000123C8218020FBF72DFE05EB45003A4914
:105A100042180123C8218820FBF724FE70BD70B511
:105A200004460D4604EB4400324942180023C821C5
:105A30004FF4C270FBF716FE05EB45002E494218E5
:105A40000023C8214FF4C670FBF70CFE70BD00B5F3
:105A50008DB0182229A107A809F09DF918222DA1BF
:105A600001A809F098F94FF050100F494860012340
:105A70002E4AC8213420FBF7F5FD01232B4A0A32B8
:105A8000C8214FF49C70FBF7EDFD164AD2F8B823FD
:105A900007AB995C254A713A92F89D0048E00000F6
:105AA000BC0900105000001014000010F04D001050
:105AB0008300001020000000380000102D000000BE
:105AC000546573742E2E2E000C0F1011160E0D003F
:105AD000121314020B1716000C73010090A701009B
