:020000040000FA
:100000001055001021B6000029B600002BB60000E4
:100010002DB600002FB6000031B600000000000031
:1000200000000000000000000000000033B60000E7
:1000300035B600000000000037B60000E96A000095
:100040003BB60000A1090000BF090000D109000073
:10005000E3090000E5CE00003BB600003BB600001F
:100060004DD000003BB600003BB600003BB60000A0
:100070003BB600003BB600003BB600003BB60000BC
:100080003BB600008DF600003BB600003BB600001A
:100090003BB600003BB600003BB600003BB600009C
:1000A00091EB00003BB600003BB600003BB6000001
:1000B0003BB600003BB600003BB600003BB600007C
:1000C0003BB600003BB600003BB600003BB600006C
:1000D0003BB600003BB60000A90500003BB600009F
:1000E0003BB6000000F002F800F0B0F80AA090E87B
:1000F000000C82448344AAF10107DA4501D100F0E3
:10010000A5F8AFF2090EBAE80F0013F0010F18BFFF
:10011000FB1A43F0010318473CB507005CB5070024
:100120000A444FF0000C10F8013B13F0070408BF1D
:1001300010F8014B1D1108BF10F8015B641E05D0BB
:1001400010F8016B641E01F8016BF9D113F0080F70
:100150001EBF10F8014BAD1C0C1B09D16D1E58BF02
:1001600001F801CBFAD505E014F8016B01F8016B39
:100170006D1EF9D59142D6D37047000000230024AC
:1001800000250026103A28BF78C1FBD8520728BFA7
:1001900030C148BF0B6070476E290FF02086702970
:1001A0000FF05D87662912F0EE85652912F0EB8568
:1001B000672912F0E8856129AFF3008003681B0A04
:1001C00028BF41F0800169290FF05C8364290FF09A
:1001D000598375290FF056836F290FF0EA86782925
:1001E0000FF02987E9290FF08586E4290FF0828630
:1001F000F5290FF07F86EF290FF0E786F8290FF039
:1002000028870368DB0928BF41F08001632910F0CB
:100210009381732910F09881E32910F0A381F329C9
:1002200010F0A881002070471FB510F0F9F9040004
:100230000020002111F03CFC401C606000200021E7
:1002400011F020FCE0601FBD10B510BD10F0BAF930
:100250001146FFF7E9FF00F0D4F910F097FA03B464
:10026000FFF7F2FF03BC10F09BFA000070B50546E3
:100270000C46A4F120000B4A02EB00111022284684
:100280000FF030FC70BDA1F1200202EB4202064BE0
:1002900003EB8202136803605368436092688260D4
:1002A00070470000C4680100B46E01000D4843F6B9
:1002B000C46102E000220270401C0A1EA1F1010389
:1002C00099B2F7D1084843F6482102E0FF220270B4
:1002D000401C0A1EA1F1010399B2F7D1014B83F82A
:1002E0007C247047BC0A0010380F0010704770471C
:1002F00070470A6802F8010B0A607047FFFFFFFFB2
:1003000040F20120974908609749C1F88401954956
:1003100008310860091D0860091D0860091D086092
:10032000091D0860091D0860091D0860091D086095
:10033000091D0860091D0860091D0860091D086085
:10034000091D0860091D0860091D0860091D086075
:10035000091D0860091D0860091D0860091D086065
:10036000091D0860091D0860091D0860091D086055
:10037000091D0860091D0860091D0860091D086045
:10038000091D0860091D0860091D0860091D086035
:10039000091D0860091D0860091D0860091D086025
:1003A000091D0860091D0860091D0860091D086015
:1003B000091D0860091D0860091D0860091D086005
:1003C000091D0860091D0860091D0860091D0860F5
:1003D000091D0860091D0860091D0860091D0860E5
:1003E000091D0860091D08605E49E43108605D4927
:1003F00040390860091D0860091D086059493039F5
:100400000860584920390860564910390860091DAC
:100410000860091D08605449C1F87C0170472DE946
:10042000F04100BF00BF5148006840F400604F49F0
:10043000C439C1F8C40041F61F704D49086001205D
:100440004C49086000208860FFF75AFF4A4800685E
:100450004A49B0FBF1F74548C438D0F8000100B173
:100460007F084FF47A70B0FBF7F404F11300B0FB8F
:10047000F4F0404908630F2048630020886301209E
:10048000C86304F11300B0FBF4F0801C0864012081
:10049000486404F13E00B0FBF4F0886404F13E00CF
:1004A000B0FBF4F0C8640F20086504F13E00B0FB17
:1004B000F4F0486501208865886240F203303049D5
:1004C00008604FF48D402B49C1F800012C49091FE9
:1004D00008606421002000F0E5F940F2831025490E
:1004E0000862C821002000F0DDF940F20310214924
:1004F000086202204862002600E0761C802EFCD3B1
:1005000041F68465A5F1100085B22D1105FB07F0B9
:100510004FF47A71B0FBF1F085B216484562832042
:10052000144908621748D0F8008000200862144877
:10053000001F006840F40020C1F8000101210020E4
:1005400000F0B0F90121002000F0ACF90848006883
:1005500020F01F0848F011000449C439C1F8DC013B
:10056000BDE8F08180C1024000C00240C4C00F401D
:10057000DCC10F4000C00920B000001040420F0055
:1005800004C10920004006A010B5002807DACA06F9
:10059000140EB44A00F00F031B1FD45403E0CA0624
:1005A000130EB14A135410BD10B5012213210020BF
:1005B0000BF0CAFA20B3262000F01F02012191405F
:1005C000AA4A430942F8231000BF6FF07F4400E0BD
:1005D000641E002CFCD1A648006830B10020A4495C
:1005E00008600F20A349086005E00120A0490860C9
:1005F0000220A04908604FF4002100200BF0CFFA40
:1006000010BD1FB500200BF044FC064600209849A1
:1006100008604FF47A70B6FBF0F0451EB5F1807FAC
:1006200000D311E025F07F40401E4FF0E0214861EB
:100630001F214FF0FF30FFF7A7FF00204FF0E02110
:1006400088610720086100BF0122D10400200BF05F
:100650005DFA01212620FFF797FF262000F01F02F8
:10066000012191404209920002F1E022C2F80011FA
:1006700000BF642006F0E9FA0CF0D2FF06F0D2FBCE
:100680000FF016F806F020FB06F048FB06F07FFAA4
:100690000CF07AFB002076490860FFF7C0FE0020CE
:1006A00000F08AFA74494869002100F0BEFA01207E
:1006B00000F082FAFFF7FAFD002006F08CFB06F04E
:1006C000FEF806F010FF0F206A49086050E006F0BF
:1006D00041FC0446FF2C03D100206849086004E077
:1006E00066480068401C6549086064480068022844
:1006F00014D10020614908604FF0501000F09AFBBF
:1007000022465FA101A80FF07FF800206FF07F4321
:1007100001AA28210090782000F0C9FC5548006803
:100720000A2817D006DC02280BD005280FD006288F
:100730001CD109E00C2810D00F2811D0102815D199
:1007400011E006F060FF12E007F061FA0FE008F038
:1007500019F90CE00AF05FFC09E009F0E6FE06E09A
:1007600009F0B6FE03E009F04DFE00E000BF00BF57
:10077000ADE770B5012143A00DF0D4FD0546002D75
:100780000EDD00BF4FF47A624148016828460DF043
:10079000A9FE0446002CF5D128460EF0A4F800E08E
:1007A00070BD00BFFCE72DE9F041012135A00DF03F
:1007B000B9FD0746002F25DD4FF47A623448016801
:1007C00038460DF08FFE022132A00DF0ABFD04463D
:1007D000002C11DD002500BF4FF47A622C4801681F
:1007E00020460DF0E9FF064635442D488542F3D3F7
:1007F00020460EF078F801E0BDE8F08138460EF0B2
:1008000072F800E0F8E700BFF6E770B501211DA01F
:100810000DF088FD0646002E20DD02211DA00DF002
:1008200081FD0446002C14DD00BF4FF47A621848A5
:10083000016830460DF056FE05462A461448016808
:1008400020460DF0B9FF002DEFD120460EF04BF8F9
:1008500000E070BD30460EF046F800E0F9E700BF5A
:10086000F7E7000018ED00E000E400E080E100E0C0
:1008700090000010A00000101C0000106C00001080
:10088000253264004D53524541442E5458540000C3
:10089000380100104A4B32353230422E5458540041
:1008A00080969800F8B902224FF040235A60002247
:1008B000DA60B74A12684FF47A73B2FBF3F2521E51
:1008C0004A434FF040239A61FF221A6004225A6182
:1008D00001225A6000BF4FF04022526802F001022C
:1008E000002AF8D15BE001281CD10222A94B5A60F2
:1008F0000022DA60A64A12684FF47A73B2FBF3F270
:10090000521E4A43A34B9A61FF221A6004225A6185
:1009100001225A6000BF9F4A526802F00102002A79
:10092000F9D13CE002281CD102229B4B5A600022E4
:10093000DA60974A12684FF47A73B2FBF3F2521EF0
:100940004A43954B9A61FF221A6004225A610122A0
:100950005A6000BF904A526802F00102002AF9D1A1
:100960001DE003281BD102228C4B5A600022DA6062
:10097000874A12684FF47A73B2FBF3F2521E4A436D
:10098000864B9A61FF221A6004225A6101225A6042
:1009900000BF824A526802F00102002AF9D1704772
:1009A00001204FF0402108607D480068401C7C49D0
:1009B00008607C480068401C7A4908607047012044
:1009C0007449086078480068401C7749086070479F
:1009D00001207149086075480068401C734908602F
:1009E000704701206D49086071480068401C7049DB
:1009F0000860704720B901214FF04022516010E09B
:100A0000012803D10121634A51600AE0022803D181
:100A10000121614A516004E0032802D101215F4AAB
:100A20005160704720B900214FF04022516010E022
:100A3000012803D10021574A51600AE0022803D15E
:100A40000021554A516004E0032802D10021524A96
:100A500051607047014631B94FF04022506840F074
:100A60000200506016E0012905D14A4A506840F062
:100A7000020050600EE0022905D1474A506840F05C
:100A80000200506006E0032904D1444A506840F057
:100A900002005060704770B505460C46F5B900205D
:100AA0003F4908604348006840F002004149C439AA
:100AB000C1F8C4004FF04020406840F002004FF001
:100AC000402148604EF65F20C860084684610320DC
:100AD0004861012000F050F8012070BD012D1CD1AB
:100AE0000020314908603348006840F00400314973
:100AF000C439C1F8C4002748406840F004002549C3
:100B000048604EF65F20C860084684610320486153
:100B1000022000F031F80120DFE7022D13D1002080
:100B2000224908602348006840F480002149C43904
:100B3000C1F8C4001848846103201749486100F0D7
:100B40001BF80120C9E7032D14D1002018490860C3
:100B50001848006840F400001649C439C1F8C400C0
:100B60000E48846103200D494861042000F004F818
:100B70000120B2E70020B0E700F01F020121914000
:100B80004209920002F1E022C2F800117047000011
:100B9000B4000010008000400000094000400940FF
:100BA00000000010100000100400001008000010E9
:100BB0000C000010C4C00F4008B5B0B1FC498969F1
:100BC00041F00101FA4A916142F21071009108E08E
:100BD000F749896941F40061F54A91610099491E1C
:100BE000009100990029F3D115E0F149896921F4B8
:100BF0000061EF4A916142F21071009102E00099A8
:100C0000491E009100990029F9D1E949896921F02B
:100C10000101E74A916108BDE64A002102E008C8E7
:100C200008C2491C8029FAD370472DE970438146D8
:100C30000D46DFF8848300BF2720E0490861486142
:100C4000DF490860DD49C1F87402DE490860091D0A
:100C50000860091D0860091D0860D8498861C861DD
:100C6000D84948390860091D0860091D0860091D38
:100C70000860091D0860091D0860D04908624862C3
:100C8000D04918310860091D0860CE493039086024
:100C9000091D0860091D0860091D0860C94910394F
:100CA0000860C849091F0860C6490C390860091D59
:100CB0000860C249C1F80001C348006C40F002005E
:100CC000C14908640846806D40F00A008865BF4845
:100CD000D0F8C40040F00100BC49C1F8C400BC48D1
:100CE000006820F00100BA4908600020B04988611E
:100CF0000846806920F00E0088610846806940F04F
:100D00000A0088610846806940F020008861084632
:100D1000806920F0800088610846806920F4807036
:100D200088610846806920F40070886108468069FF
:100D300020F4806088610846806920F40060886142
:100D4000A4480068A449B0FBF1F0A049C1F8B8017B
:100D50009748806840F080609549886008468068C0
:100D600020F0200088600846806840F400608860B9
:100D70000846806840F4805088600846806820F407
:100D8000005088600846806820F4804088600846EB
:100D90008068924908408649886008468068904982
:100DA000084383498860002008600846006840F0D6
:100DB0001C5008600846006840F48020086008461F
:100DC000006840F4807008600846006840F07400D5
:100DD0000860002048600846406840F000604860B5
:100DE0000846406840F4002048600846406840F4E7
:100DF000806048600846406840F20F1108436C4923
:100E0000486040460861486115B12846FFF704FF75
:100E1000694E002403E04FF47F0001C6641CB4F562
:100E2000FF3FF8D342F2107400E0641E002CFCD1A6
:100E3000BDE87083604A002101E001C2491CB1F5A0
:100E4000FF3FFAD370472DE9F0411C46069FC1F5DC
:100E5000887CACF1010CCCEB0C1CDFF85C8108EB5E
:100E6000CC18C0F5F07CACF1010C08EB8C0300262B
:100E70000FE0002502E043F804796D1CA2EB000CA2
:100E8000AC45F8D8A2EB000CCCF5F07CA3EB8C03BE
:100E9000761CA4EB010CB445EBD8BDE8F08170B52D
:100EA000454BB0F5F07F02DAB1F5887F00DB70BD0D
:100EB000C0F5F0756D1EC1F58876761EC6EB061678
:100EC00005EB461403EB84031A6000BFEFE72DE93E
:100ED000F04F04460D4691469A46DDF824B04C4545
:100EE00003DD0FFA89F7A146BCB2554503DD0FFAC1
:100EF0008AF7AA46BDB2A9EB04000FFA80F8AAEB64
:100F0000050006B2B8F1000F0BD100BF5A462946C2
:100F10002046FFF7C4FF681C85B2AA45F6DABDE893
:100F2000F08F56B900BF5A4629462046FFF7B7FF53
:100F3000601C84B2A145F6DAF1E7B04521DDC8EBCB
:100F4000460007B215E05A4629462046FFF7A7FF9C
:100F5000601C84B2002F08DD681C85B2700002217D
:100F600001FB1800384407B203E0022000FB0670C2
:100F700007B24C45E7D15A4629462046FFF78FFF76
:100F80003BE0C6EB480007B230E05A46294620460F
:100F9000FFF785FF681C85B2002F23DD601C84B23B
:100FA0007000022101FB1800384407B21EE0000067
:100FB0000080082000820820000001A000C002403C
:100FC00070C2024018C102400080092000C00F40DA
:100FD000008C0820B40000109C997400FFFF00FCF6
:100FE0000000DF01022000FB067007B25545CCD19E
:100FF0005A4629462046FFF752FF00BF8FE72DE9EA
:10100000FF5F06460F4690469946DDF838B04146E8
:101010006846FFF72BF900241DE01DF804A0002509
:1010200016E0C5F107004AFA00F000F0010038B1FF
:101030003A1991B2721990B24A46FFF730FF06E0B2
:101040003A1991B2721990B25A46FFF728FF6D1CF7
:10105000082DE6D3641C102CDFD3BDE8FF9F2DE9DB
:10106000FE4F06460F4690469946DDF830B04146A1
:101070006846FFF708F9002415E01DF804A00025D4
:101080000EE0C5F107004AFA00F000F0010030B1AF
:101090003A1991B2721990B24A46FFF700FF6D1CDF
:1010A000082DEED3641C0C2CE7D3BDE8FE8F2DE990
:1010B000F84305460E4614469846DDF8209000BFDA
:1010C00014F8017B43463A4631462846CDF8009055
:1010D000FFF795FFB5F5EC7F03DA05F1080085B25F
:1010E00008E0FF2E04DC002506F1100086B201E0C6
:1010F0000025002620780028E2D1BDE8F8832DE9FC
:10110000FF4F074688469B463C464546BA464646FC
:101110004FF0000915E0A4F1140188B22946029AA3
:10112000FFF7BDFE601C84B2A6F1140081B25046E8
:10113000029AFFF7B4FE701C86B209F101001FFA93
:1011400080F9B9F1280FE6DB3C464546BA464646EB
:101150004FF000092BE0A5F1140291B2A4F11402A2
:1011600090B25A46FFF79BFE05F1140291B2A4F12A
:10117000140290B25A46FFF792FE601C84B2A6F1A8
:10118000140291B2AAF1140290B25A46FFF787FEF8
:10119000A6F1140291B20AF1140290B25A46FFF776
:1011A0007EFE701C86B209F101001FFA80F9B9F1C8
:1011B0000A0FD0DB3C464546BA4646464FF000098A
:1011C0002BE0A5F1140291B204F10A0290B25A4642
:1011D000FFF765FE05F1140291B204F10A0290B224
:1011E0005A46FFF75CFE601C84B206F10A0291B217
:1011F000AAF1140290B25A46FFF751FE06F10A0214
:1012000091B20AF1140290B25A46FFF748FE701CE0
:1012100086B209F101001FFA80F9B9F10A0FD0DB9B
:10122000BDE8FF8F10B50246002112E001EB8110EE
:10123000F74B185C1378984209D1507801EB811371
:10124000F34C23445B78984201D1084610BD481CFA
:1012500081B27729EAD30020F8E710B502460021D1
:1012600014E001EB0110EB4B13F8100013789842D7
:101270000AD1507801EB0113E64C04EB43035B7891
:10128000984201D1084610BD481C81B2A929E8D373
:101290000020F8E72DE9F04F04460F461546984622
:1012A000A3464FF0000900262DE0099810F806909B
:1012B0004FF0000A21E009F0800030B1D6483946ED
:1012C00002682046FFF7EBFD05E0D3483946426847
:1012D0002046FFF7E4FD4FEA49604FEA1069601CC1
:1012E00084B2A4EB0B00A84203D15C46781C87B201
:1012F00006E00AF1010000F0FF0ABAF1080FDADB9C
:1013000000BF701C86B205FB08F0C11700EB5171DD
:10131000B6EBE10FC9DBBDE8F08F2DE9F04F0546D4
:10132000894692469B46A8460026BBF1000F32D163
:1013300000242DE00AEB0A10B64901EB4000801CA6
:10134000065D00271FE006F0800030B1B248494634
:1013500002682846FFF7A3FD05E0AF48494642680A
:101360002846FFF79CFD7006060E681C85B2A5EBAB
:101370000800102805D1454609F101001FFA80F93F
:1013800003E0781CC7B2082FDDDB00BF601CC4B2CD
:10139000202CCFDB31E000242DE00AEB0A109D4920
:1013A00001EB4000801C065D00271FE006F0800076
:1013B00030B19948494642682846FFF770FD05E07C
:1013C0009548494602682846FFF769FD7006060EF3
:1013D000681C85B2A5EB0800102805D1454609F127
:1013E00001001FFA80F903E0781CC7B2082FDDDB8B
:1013F00000BF601CC4B2202CCFDBBDE8F08F2DE90C
:10140000F04F0546894692469B46A8460026BBF10A
:10141000000F31D100242CE00AEB8A107C490844EB
:10142000801C065D00271FE006F0800030B17A487E
:10143000494602682846FFF732FD05E076484946EE
:1014400042682846FFF72BFD7006060E681C85B221
:10145000A5EB0800182805D1454609F101001FFA3F
:1014600080F903E0781CC7B2082FDDDB00BF601CE9
:10147000C4B23F2CD0DB30E000242CE00AEB8A1011
:1014800063490844801C065D00271FE006F08000C9
:1014900030B16148494642682846FFF700FD05E043
:1014A0005D48494602682846FFF7F9FC7006060EBB
:1014B000681C85B2A5EB0800182805D1454609F13E
:1014C00001001FFA80F903E0781CC7B2082FDDDBAA
:1014D00000BF601CC4B23F2CD0DBBDE8F08FF0B57C
:1014E00004460D4616461F463B46224631462846D0
:1014F000FFF785FF1820F0BDF0B504460D461646EF
:101500001F463B46224631462846FFF706FF12207B
:10151000F0BD2DE9F84306460D4614461F464FF030
:101520000008C14652E0207800B950E006EB0900FF
:1015300086B2207880281ADD06F11800B0F5F07F19
:1015400007DD002605F1160085B2B5F5887F00DDC0
:1015500000252046FFF766FE1FFA80F83B462A4624
:1015600031464046FFF7BBFF8146A41C2DE02078A2
:101570000D280AD105F1160085B2B5F5887F00DD8A
:101580000025641C4FF0000920E020780A2804D1CF
:101590000026641C4FF0000918E006F10C00B0F5BD
:1015A000F07F07DD002605F10C0085B2B5F5887FD8
:1015B00000DD002518484068009017482278294629
:1015C00003683046FFF71BFD641C00BFABE700BF9C
:1015D000BDE8F8832DE9F8470546884614464FF0E4
:1015E000000A00263AE0207800B938E02078302858
:1015F00007DB2078392804DC207830381FFA80F99E
:1016000014E020782E2809D14FF00A090EE00000DE
:101610007A2E0100B14C01001400001020782D2812
:1016200002D14FF00B0901E04FF00C094FEA4917C6
:10163000F81707EB5070C01000EBC001C1EB801031
:10164000B6490844A919009088B2372320224146A0
:10165000FFF720FE641C06F1200086B2C3E700BF3E
:10166000BDE8F8872DE9F84306460D4614461F46A7
:101670004FF00008C14654E0207800B952E006EB74
:10168000090086B2207880281ADD06F11000B0F536
:10169000F07F07DD002605F1100085B2B5F5887FE3
:1016A00000DD00252046FFF7D8FD1FFA80F83B46F5
:1016B0002A4631464046FFF71FFF8146A41C2FE013
:1016C00020780D280AD105F1100085B2B5F5887F84
:1016D00000DD0025641C4FF0000922E020780A2874
:1016E00004D10026641C4FF000091AE006F108003E
:1016F000B0F5F07F07DD002605F1080085B2B5F5ED
:10170000887F00DD00258648406800908448227864
:10171000294603683046FFF772FC641C4FF00A0943
:1017200000BFA9E700BFBDE8F8832DE9F8430646EE
:101730000D4614461F464FF00008C14654E020787D
:1017400000B952E006EB090086B2207880281ADD45
:1017500006F11000B0F5F07F07DD002605F110005E
:1017600085B2B5F5887F00DD00252046FFF775FDC1
:101770001FFA80F83B462A4631464046FFF7BCFE3A
:101780008146A41C2FE020780D280AD105F1100015
:1017900085B2B5F5887F00DD0025641C4FF0000997
:1017A00022E020780A2804D10026641C4FF00009AA
:1017B0001AE006F10800B0F5F07F07DD002605F11C
:1017C000080085B2B5F5887F00DD002554484068E3
:1017D000009053482278294603683046FFF73FFCC3
:1017E000641C4FF0080900BFA9E700BFBDE8F883FB
:1017F000F0B504461D46062A00DD0A2202B9012280
:10180000052900DD0521914200DD1146002004E09C
:101810002026444F3E54461CF0B20C28F8D3104604
:101820000FE00A26B4FBF6F706FB17463036471ED4
:10183000DFF8F0C00CF807600A26B4FBF6F4461E89
:10184000F0B20028EDDC89B11346084605E05E1EC3
:10185000344FBE5DFE545E1EF3B2061EA0F10107BA
:10186000F8B2F4D12E262F4FFE5402E020262D4F41
:10187000BE54A5B900200EE02A4E365C302E07D1AA
:10188000284F461CBE5D2E2E02D020263E5400E07E
:1018900004E0461CF0B2561E8642EDDC00BF561C2A
:1018A000F2B2104604E000261E4F3E54461CF0B231
:1018B0000C28F8D3F0BD30B51B4A00210CE00478A9
:1018C0002404457844EA0524857844EA050308C2DF
:1018D000401C401C401C491CB1F5FF3FEFD330BDFC
:1018E00070B51149002214E000230CE005782D04A6
:1018F000467845EA0625867845EA060410C1401C6C
:10190000401C401C5B1CB3F5B57FEFD301F5EC71B7
:10191000521CB2F5887FE7D370BD000064750100EA
:1019200014000010F04D0010000001A038B5002494
:1019300074E0FD48A10004EB440303EB041301EB46
:101940008301009088B204EB84014C2303EB011166
:101950008AB240F20F13E421FFF775FAF34804EB63
:1019600084014C2303EB01118AB204EB84010901C9
:10197000491C009088B2E3231946FFF7A8FAEB4808
:1019800004EB84014C2303EB01118AB204EB8401C4
:1019900003EB0111009088B240F20F13E321FFF72F
:1019A00096FA002004EB84014C2303EB0111491C3F
:1019B0008AB204EB840103EB0111491C009088B248
:1019C00040F20F13E321FFF782FA002004EB8401B9
:1019D0004C2303EB0111891C8AB204EB840103EB55
:1019E0000111891C009088B240F20F13E321FFF728
:1019F0006EFA002004EB84014C2303EB0111C91C97
:101A00008AB204EB840103EB0111C91C009088B277
:101A100040F20F13E321FFF75AFA641C062C88D317
:101A200038BD10B5FFF782FFBF48C14948606FF06D
:101A30007F4008600023BFA2F1215420FFF712FE6F
:101A40000023BEA2F121A420FFF70CFE10BD70B54B
:101A50000546FFF76BFFB448B54948606FF07F401B
:101A60000860A5B900240FE004EB4401B54B03EB7B
:101A7000410204EB8401542303EB01100023F12104
:101A8000FFF7F0FD601CC4B2052CEDDB14E0002470
:101A900010E0611D01EB4101AA4B03EB410204EB95
:101AA0008401542303EB01100023F121FFF7DAFD39
:101AB000601CC4B2052CECDB70BD10B5FFF736FF1F
:101AC00099489B4948606FF07F4008609E4890F8B5
:101AD000D40030B100239DA2F1215420FFF7C2FDB4
:101AE00005E000239CA2F1215420FFF7BBFD10BDAF
:101AF00010B5FFF71BFF8C488D4948606FF07F40A1
:101B00000860002396A2F1215420FFF7ABFD10BD21
:101B100010B50446FFF70AFF002C71D16FF07F402B
:101B20008349086080484860874890F8D4000028BE
:101B300032D000238BA2E7215420FFF793FD00232E
:101B40008AA2FB215420FFF78DFD002385A2E72107
:101B5000A420FFF787FD002386A2FB21A420FFF726
:101B600081FD002385A2E721F420FFF77BFD002300
:101B700080A2FB21F420FFF775FD00237FA2E7215F
:101B80004FF4A270FFF76EFD00237DA2FB214FF4FE
:101B9000A270FFF767FDA9E000237BA2E721542094
:101BA000FFF760FD00237AA2FB215420FFF75AFDC6
:101BB000002375A2E721A420FFF754FD002376A29D
:101BC000FB21A420FFF74EFD002375A2E721F4209E
:101BD000FFF748FD002370A2FB21F420FFF742FD30
:101BE00000236FA2E7214FF4A270FFF73BFD002313
:101BF0006DA2FB214FF4A270FFF734FD76E0FFE702
:101C0000012C50D16FF07F40494908604648486038
:101C10004D4890F8D400F8B1002365A2E721542084
:101C2000FFF720FD002364A2FB215420FFF71AFDDB
:101C3000002363A2E721A420FFF714FD002362A282
:101C4000FB21A420FFF70EFD002361A2E7214FF442
:101C5000CA70FFF707FD1EE000235FA2E7215420B2
:101C6000FFF700FD00235EA2FB215420FFF7FAFCE2
:101C700000235DA2E721A420FFF7F4FC00235CA26F
:101C8000FB21A420FFF7EEFC00235BA2E7214FF429
:101C9000CA70FFF7E7FC002359A2FB214FF4CA707A
:101CA000FFF7E0FC22E06FF07F40214908601E480A
:101CB0004860254890F8D40060B1002352A2F22178
:101CC0005320FFF7CFFC002351A2F221A320FFF7FE
:101CD000C9FC0BE0002350A2F2215320FFF7C2FC05
:101CE00000234FA2F221A320FFF7BCFC10BD10B5CA
:101CF000FFF71CFE6FF07F400D4908600A484860FE
:101D0000114890F8D40068B1002347A2E72154207D
:101D1000FFF7A8FC002346A2FB215420FFF7A2FCFA
:101D2000002389E096E00000380031006843690034
:101D300014000010206DA6B82020000020A6B820B6
:101D400000000000D7B50100BC09001020436F6EF1
:101D50006669726D2000000020C8B7C8CF2000005F
:101D60002A3100004D4541530000000044495350C2
:101D700000000000534554555000000053595300D3
:101D8000494E464F00000000B2E2C1BF0000000013
:101D9000CFD4CABE00000000C9E8D6C300000000CE
:101DA000CFB5CDB300000000D0C5CFA20000000029
:101DB00046696C65730000004D616E6167650000E7
:101DC000536176650000000044617461000000000A
:101DD0004D6F726500000000CEC4BCFE0000000024
:101DE000B9DCC0ED00000000B1A3B4E600000000C3
:101DF000CAFDBEDD00000000B8FCB6E00000000037
:101E000020322F320000000043616E63656C0000D9
:101E1000436F6E6669726D002020C8A1CFFB200061
:101E20002020C8B7C8CF200044656C6574650000E9
:101E30005461626C65000000FEA2F1214FF4A270B3
:101E4000FFF710FC0023FDA2F1214FF4CA70FFF749
:101E500009FC19E00023FBA2E7215420FFF702FC54
:101E60000023FAA2FB215420FFF7FCFB0023F9A278
:101E7000F1214FF4A270FFF7F5FB0023F7A2F12147
:101E80004FF4CA70FFF7EEFB10BD10B50446FFF724
:101E90004DFD0CB1012C64D16FF07F40F149086019
:101EA000F1484860F14890F8D40000282CD0002375
:101EB000EFA2F1215420FFF7D5FB0023EFA2E72189
:101EC000A420FFF7CFFB0023EEA2FB21A420FFF705
:101ED000C9FB0023EDA2E721F420FFF7C3FB002399
:101EE000EDA2FB21F420FFF7BDFB0023D1A2F121DD
:101EF0004FF4A270FFF7B6FB0023D0A2F1214FF4FC
:101F0000CA70FFF7AFFB77E00023E5A2F121542070
:101F1000FFF7A8FB0023E4A2E721A420FFF7A2FB20
:101F20000023E3A2FB21A420FFF79CFB0023E2A2F5
:101F3000E721F420FFF796FB0023DDA2FB21F4202C
:101F4000FFF790FB0023C3A2F1214FF4A270FFF72B
:101F500089FB0023C1A2F1214FF4CA70FFF782FB75
:101F60004AE06FF07F40BF490860BF484860BF4803
:101F700090F8D40000B30023BDA2F1215420FFF754
:101F800071FB0023BFA2E721A420FFF76BFB002316
:101F9000CBA2FB21A420FFF765FB0023A5A2F12122
:101FA0004FF4A270FFF75EFB0023A4A2F1214FF4CF
:101FB000CA70FFF757FB1FE00023B9A2F12154209C
:101FC000FFF750FB0023BAA2E721A420FFF74AFB4A
:101FD0000023BDA2FB21A420FFF744FB00239DA208
:101FE000F1214FF4A270FFF73DFB00239BA2F121EA
:101FF0004FF4CA70FFF736FB10BD10B50446FFF76B
:1020000095FC002C7ED16FF07F4096490860964881
:102010004860964890F8D40000283AD00023AFF2E8
:10202000BC22E7215420FFF71DFB0023AFF2C4229E
:10203000FB215420FFF716FB0023AFF2D822E72143
:10204000A420FFF70FFB0023AFF2D822FB21A4202E
:10205000FFF708FB0023AFF2DC22E721F420FFF7B3
:1020600001FB0023AFF2F422FB21F420FFF7FAFA80
:102070000023AFF2F822E7214FF4A270FFF7F2FA43
:102080000023AFF20432FB214FF4A270FFF7EAFA0B
:10209000A4E00023AFF21032E7215420FFF7E2FA68
:1020A0000023AFF21432FB215420FFF7DBFA0023A8
:1020B000AFF22C32E721A420FFF7D4FA0023AFF2CD
:1020C0002832FB21A420FFF7CDFA0023AFF23032F3
:1020D000E721F420FFF7C6FA0023AFF24432FB21D8
:1020E000F420FFF7BFFA0023AFF24C32E7214FF4A0
:1020F000A270FFF7B7FA0023AFF25432FB214FF47E
:10210000A27000E002E0FFF7ADFA67E0012C65D1B4
:102110006FF07F405349086053484860534890F837
:10212000D40048B30023AFF27832E7215420FFF700
:1021300099FA0023AFF28032FB215420FFF792FA84
:102140000023AFF2C832E721A420FFF78BFA002367
:102150005FA2FB21A420FFF785FA00235EA2F121F4
:10216000F420FFF77FFA0023AFF29C32E7214FF40F
:10217000CA70FFF777FA29E00023AFF2A432E72113
:102180005420FFF76FFA0023AFF2AC32FB2154204A
:10219000FFF768FA0023AFF2F832E721A420FFF737
:1021A00061FA0023AFF21042FB21A420FFF75AFA94
:1021B00000234BA2F121F420FFF754FA0023AFF2E1
:1021C000C832E7214FF4CA70FFF74CFA0023AFF290
:1021D000D032FB214FF4CA70FFF744FA10BD10B59E
:1021E0006FF07F401F4908601F4848601F4890F803
:1021F000D40000281DD00023AFF29842E7215420DC
:10220000FFF730FA0023AFF29C42FB215420FFF786
:1022100029FA0023AFF2B442E721A420FFF722FA03
:102220000023AFF2B042FB21A420FFF71BFA0023EA
:102230005AE077E050524556000000004E45585491
:1022400000000000C7E5B3FD00000000B1EDB8F1EB
:1022500000000000C9CFD2BBD2B30000CFC2D2BBB6
:10226000D2B300001400001038003100BC09001087
:1022700044656C2D4C696E65000000004C696E650C
:10228000617200004175746F000000004C6F67615F
:10229000726974686D0000004179746F000000007D
:1022A000C9BEB3FDD0D00000CFDFD0D40000000005
:1022B000D7D4B6AF00000000B6D4CAFD00000000BD
:1022C000436F707900000000B8B4D6C6000000006B
:1022D0005365745570000000546F6F6C73000000FC
:1022E000B9A4BEDF00000000AFF27052E721F42075
:1022F000FFF7B8F90023AFF28452FB21F420FFF777
:10230000B1F90023AFF28C52E7214FF4A270FFF72E
:10231000A9F90023AFF29852FB214FF4A270FFF706
:10232000A1F939E00023AFF2A052E7215420FFF7D2
:1023300099F90023AFF2A852FB215420FFF792F93C
:102340000023AFF2BC52E721A420FFF78BF9002352
:10235000AFF2BC52FB21A420FFF784F90023AFF2B7
:10236000C052E721F420FFF77DF90023AFF2D852E5
:10237000FB21F420FFF776F90023AFF2DC52E721CE
:102380004FF4A270FFF76EF90023AFF2E452FB2185
:102390004FF4A270FFF766F910BD08B5FE4816238A
:1023A000F022002100900846FEF74DFD08BD08B55B
:1023B000FA48CA2340F2DF125C2100900020FEF7A9
:1023C00042FD08BD10B5FFF7E8FFFFF7AFFAFFF7D2
:1023D000EEFF10BD10B5FFF7F5FF6FF07F40F0493D
:1023E0000860ED484860EF4890F8D40030B1002311
:1023F000ED4A04211846FFF735F905E00023EB4AC2
:1024000004211846FFF72EF96FF07F40E449086079
:102410004FF050104860002453E0032C27D2E148CD
:1024200090F8D40088B104EB8400E14B03EB400248
:1024300004EB440000EBC4001A2303EB400081B21C
:1024400000231846FFF70EF93AE004EB8400D94B5D
:1024500003EB400204EB440000EBC4001A2303EB3F
:10246000400081B200231846FFF7FCF828E0CD4871
:1024700090F8D40090B104EB8400CD4B03EB400204
:10248000E01E00EB400303EBC0001A2303EB400007
:1024900081B20023FA20FFF7E5F811E004EB840095
:1024A000C44B03EB4002E01E00EB400303EBC00013
:1024B0001A2303EB400081B20023FA20FFF7D2F881
:1024C000641C062CA9D30020FFF722FB10BD08B521
:1024D000B248BE2340F2DF12702100900020FEF7C8
:1024E000B2FC08BD10B5FFF758FFFFF71FFAFFF762
:1024F000EEFF10BD38B504464FF05010A8494860B3
:10250000AD4800EB84020123C8211420FFF7AAF88C
:10251000AA4800EB84020123C8214FF48C70FFF716
:10252000A1F89E489E494860A548372328227A2171
:1025300000905020FEF7AEFEA248372328227A21D1
:1025400000907820FEF7A6FE9F48372328227A21A4
:1025500000908C20FEF79EFE38BD10B5FFF7C2FF3D
:102560006FF07F408E4908608B4848608D4890F836
:10257000D40038B100238C4A163204211846FFF7E4
:1025800071F806E00023894A163204211846FFF745
:1025900069F86FF07F40824908604FF05010486042
:1025A00000244BE0032C23D27E4890F8D40078B16D
:1025B000864800EBC40204EB440000EBC4001A237D
:1025C00003EB400081B200231846FFF74BF834E0DC
:1025D0007F4800EBC40204EB440000EBC4001A2364
:1025E00003EB400081B200231846FFF73BF824E0DC
:1025F0006C4890F8D40080B1744800EBC402E01E2F
:1026000000EB400303EBC0001A2303EB400081B250
:102610000023FA20FFF726F80FE06D4800EBC40214
:10262000E01E00EB400303EBC0001A2303EB400065
:1026300081B20023FA20FFF715F8641C072CB1D3F0
:10264000644991F8B803FFF755FF0020FFF760FADF
:1026500010BD08B55148A02340F2DF12562100906A
:102660000020FEF7F0FB4D48E32340F2DF12C121CA
:1026700000900020FEF7E7FB08BD10B5FFF78DFEC8
:10268000FFF754F9FFF7E5FF10BD2DE9F0410446CF
:102690000D461646504B1B5D03EB43034F4FDA19B3
:1026A000B1B2A8B20023FEF7DDFFBDE8F08110B59E
:1026B000FFF7E3FF6FF07F40394908603648486014
:1026C000384890F8D40038B10023374A2C3204211E
:1026D0001846FEF7C7FF06E00023344A2C320421D7
:1026E0001846FEF7BFFF6FF07F402D4908604FF09E
:1026F00050104860002421E02A4890F8D40070B1BE
:10270000C4EBC401364BCA1804EB84014FF6FF73C7
:1027100003EA411000231A21FEF7A4FF0DE0C4EBE9
:10272000C401304BCA1804EB84014FF6FF7303EA6F
:10273000411000231A21FEF795FF641C032CDBD304
:102740002448D0F8C00300EB400101EBC00026494B
:10275000421801231A213C20FEF784FF1D4A92F8FB
:102760000C110023D2F808010622FFF741F80123DB
:102770001E4A1A21DC20FEF775FF1648D0F810011A
:1027800000EB40001A49421801231A214FF49170BE
:10279000FEF768FF0F492DE0F35203003434650063
:1027A00014000010BC090010AFB10100BDB0010061
:1027B00029A00100ED9F0100BAA4010016A50100A7
:1027C00069880100AC9A0100BF9B01001DAD0100AA
:1027D000E5AC0100BC0A001028B6010040B60100BB
:1027E000A1B20100B6B2010028A60100F04D001010
:1027F00013B601001A22D1F8B8034FF49671FFF70F
:1028000044FF0023FBA22E211846FEF78EFF002373
:10281000F9A22E217820FEF788FF0023F8A22E21AE
:10282000F020FEF782FF0023F7A22E214FF4C8709C
:10283000FEF77BFF06243FE0A01F012801D90728EF
:1028400002D3A01F082803D9F148F249486003E0E9
:102850004FF05010EF494860A01FC0EBC001EE4898
:1028600000EBC1004068E0B1A21FC2EBC203EA4A1C
:1028700002EBC302117AA21FC2EBC203E64A02EBCB
:10288000C302012350680622FEF7B2FFA01FC0EB6F
:1028900000103A3081B20123E04A7820FEF745FF6C
:1028A00009E0A01FC0EB00103A3081B20123DCA286
:1028B0007820FEF73AFF641C0F2CBDD3D448D549CD
:1028C0004860D948D0F8440378B1D74A92F8481301
:1028D0000123D2F844030622FEF78AFF0123CF4AE0
:1028E000C4217820FEF721FF05E00123CCA2C421FA
:1028F0007820FEF71AFF102447E0A4F11000012809
:1029000001D9072803D3A4F11000082803D9C0482F
:10291000C049486003E04FF05010BE494860A4F140
:102920001000C0EBC001BC4800EBC100006A00B35E
:10293000A4F11002C2EBC203B74A02EBC30292F841
:102940002410A4F11002C2EBC203B34A02EBC3028B
:102950000123106A0622FEF74BFFA4F11000C0EB22
:1029600000103A3081B20123AC4AFA20FEF7DDFEB6
:102970000AE0A4F11000C0EB00103A3081B201234C
:10298000A7A2FA20FEF7D1FE641C192CB5D3A048EB
:10299000A0494860A448D0F8440378B1A24A92F80C
:1029A0002C130123D2F828030622FEF721FF01236E
:1029B0009A4AC421FA20FEF7B8FE05E0012398A246
:1029C000C421FA20FEF7B1FE012419E0022C05D93A
:1029D000082C03D28E488F49486003E04FF0501016
:1029E0008C494860601E00EBC000904BC218C4EBDD
:1029F00004102B3081B200230820FEF796FE641CE1
:102A00000A2CE3D3824883494860002388A2C4216A
:102A10001846FEF78AFE002386A2D4211846FEF748
:102A200084FE002385A2D421F020FEF77EFE002044
:102A3000FFF76EF810BD08B57548A02340F2DF120D
:102A4000602100900020FEF7FEF908BD10B5FFF7E9
:102A5000A4FCFEF76BFFFFF7EEFF10BD10B5FFF70C
:102A6000F5FF6FF07F406B49086076484860764814
:102A700090F8D40030B10023744A04211846FEF7C0
:102A8000F1FD05E00023724A04211846FEF7EAFD35
:102A90006FF07F405F4908604FF0501048606A480F
:102AA00090F8D40090B100236AA21A211846FEF7CC
:102AB000D9FD002369A230212820FEF7D3FD002391
:102AC00069A230218C20FEF7CDFD11E0002368A221
:102AD0001A211846FEF7C6FD002367A230212820E0
:102AE000FEF7C0FD002367A230218C20FEF7BAFD5F
:102AF000002366A23021F020FEF7B4FD002365A27A
:102B000030214FF4AA70FEF7ADFD002363A23021FF
:102B10004FF4DC70FEF7A6FD0020FEF7F9FF10BDB4
:102B200008B53B489A2340F2DF125A21009000205A
:102B3000FEF789F908BD10B5FFF72FFCFEF7F6FE8A
:102B4000FFF7EEFF10BD10B5FFF7F5FF6FF07F4008
:102B5000304908603B4848603B4890F8D40038B1A1
:102B600000233A4A163204211846FEF77BFD06E0A0
:102B70000023374A163204211846FEF773FD6FF022
:102B80007F40244908604FF0501048600024BDE0A9
:102B9000092C2DD2022C05D9062C03D21C481D4924
:102BA000486003E04FF050101A494860264890F8FA
:102BB000D40070B104EB8400394B03EB40021623C0
:102BC00004FB03F01A3081B200231846FEF74AFDD9
:102BD0009BE004EB8400334B03EB4002162304FB21
:102BE00003F01A3081B200231846FEF73BFD8CE05B
:102BF0005AE0000042494E004C4F57205B465D00B2
:102C0000484947485B465D00434F554E540000001D
:102C10003434650014000010E80B0010F04D001073
:102C20002D2D2D2D2D2D0000BC0A00109C9F010084
:102C3000326E64004155583A000000004F55543A36
:102C400000000000F3520300BC090010F1B10100C4
:102C5000FFB001004D6F64653A0000004672657177
:102C60005B487A5D000000004C45565B565D0000F5
:102C7000B7BDCABD203A0000C6B5C2CA5B487A5D7E
:102C800000000000B5E7C6BD5B565D0043705B46C3
:102C90005D000000445B205D00000000434D5000DB
:102CA00009AE010055AD0100A4F10900022805D9C3
:102CB000062803D2FD48FE49486003E04FF050105B
:102CC000FB494860FB4890F8D40078B104EB8400DD
:102CD000F94B03EB4002A4F10900162358431A30C4
:102CE00081B20023FA20FEF7BDFC0EE004EB840065
:102CF000F24B03EB4002A4F10900162358431A30AB
:102D000081B20023FA20FEF7ADFC641C122CFFF404
:102D10003FAF0020FFF771F910BDF8B505464FF041
:102D20005010E3494860E648D0F8B80300EBC00013
:102D3000E449421801231A215820FEF793FCE04889
:102D4000D0F8C00300EB400101EBC000DE4942189F
:102D5000012330215820FEF785FCD948D0F8C40360
:102D600000EB400101EBC000D84942180123462185
:102D70005820FEF777FCCF4890F8D40060B1D048D7
:102D8000D0F8180440B90023AFF608321A214FF4E6
:102D9000A970FEF767FC0EE0C948D0F8180400EBF4
:102DA000400101EBC000CA49421800231A214FF428
:102DB000A970FEF757FCC248D0F8200400EB400190
:102DC00001EBC000C3494218012346214FF4A9700A
:102DD000FEF748FCBA48D0F81C0400EB400101EBB8
:102DE000C000BD494218012330214FF4A970FEF7FD
:102DF00039FC2878012800D100E0002006461EB1E9
:102E0000FF20AB49486003E04FF05010A8494860EC
:102E1000A74840686E234FF4DD725A2100904FF4AA
:102E2000A970FEF710F8A648D0F8280100EB400181
:102E300001EBC000A849421801235C214FF4A9709E
:102E4000FEF710FCFEF772FD287801281BD16FF009
:102E50007F4097490860A1484860002410E004EBD7
:102E6000440101EBC4019C4BCA1804EB84015423B8
:102E700003EB011188B20023F121FEF7F3FB641C80
:102E8000022CECD302E00020FEF742FEF8BDF8B5BC
:102E900005464FF05010864948602878012800D137
:102EA00000E0002006461EB1FF208149486003E093
:102EB0004FF050107E4948607D4840682A234FF407
:102EC000D7721A2100904FF4BE70FDF7BCFF7C480A
:102ED000D0F85C0300EB400101EBC0007E494218D2
:102EE00001231A214FF4BE70FEF7BCFBFEF71EFD56
:102EF000287801281BD16FF07F406D490860774822
:102F00004860002410E004EB440101EBC401724B63
:102F1000CA1804EB8401542303EB011188B2002387
:102F2000F121FEF79FFB641C022CECD302E0002091
:102F3000FEF7EEFDF8BD70B5054601246DE1022CEB
:102F400005DD072C03DA59485949486003E04FF082
:102F5000501057494860601E594991F87D1401EBA3
:102F6000810100EB410000EB80015D4800EB810036
:102F70008068401C40B9332000EB0411002359A2A3
:102F8000F620FEF7D2FB27E0621E4D4B93F87D340E
:102F900003EB830302EB430202EB8203504A02EB92
:102FA0008302117B621E464B93F87D3403EB83034F
:102FB00002EB430202EB8203494A02EB8302012344
:102FC00090680522FEF714FC332000EB0411002367
:102FD000464AF620FEF7A9FB601E394991F87D1498
:102FE00001EB810100EB410000EB8001404800EB68
:102FF00081008068401C48B9332000EB0411002395
:1030000038A24FF4AD70FEF790FB28E0621E2C4B07
:1030100093F87D3403EB830302EB430202EB82035C
:10302000334A02EB8302117B621E254B93F87D34F9
:1030300003EB830302EB430202EB82032C4A02EB15
:103040008302012390680522FEF7D2FB332000EBB8
:1030500004110023254A4FF4AD70FEF766FB601E95
:10306000174991F87D1401EB810100EB41012148E2
:10307000405CFF2809D1332000EB041100231EA27D
:103080004FF4DF70FEF751FB49E0601E0C4991F8E8
:103090007D1401EB810100EB41011648405C78B3DF
:1030A000332000EB0411002314A22AE0343465001D
:1030B00014000010BC09001009AE010055AD01005C
:1030C000BC0A0010E2A3010028A60100AFA801007D
:1030D000F8A8010075A90100AEA90100380031006F
:1030E000E01000102D2D2D2D00000000F04D0010DF
:1030F00048210010B03100102D00000050000000E9
:1031000004E04FF4DF70FEF710FB08E0332000EB23
:1031100004110023FEA24FF4DF70FEF706FB022C21
:1031200005DD072C03DAFB48FB49486003E04FF05C
:103130005010F9494860601EF84991F87D1401EB80
:10314000810100EB4101F648405C1E2809DD332077
:1031500000EB04110023AFF274022620FEF7E5FA1B
:1031600016E0601EED4B93F87D3403EB830300EB18
:103170004303EB48C05C00EB400303EBC000E94BAA
:10318000C218332000EB041100232620FEF7CDFAED
:10319000601EE24991F87D1401EB810100EB4101D1
:1031A000DF48D230405C022809DD332000EB0411F7
:1031B0000023AFF2D0029220FEF7B7FA17E0601EAC
:1031C000D64B93F87D3403EB830300EB4303D448E1
:1031D000D230C05C00EB400303EBC000D24BC218FE
:1031E000332000EB041100239220FEF79EFACB4916
:1031F00091F87D1401EB810104EB410001230322CE
:103200000021FEF7F5FA332000EB04110023C74A32
:103210000820FEF78AFA601CC4B20B2CFFF68FAEB2
:1032200070BDF8B505462878022802D1FEF75FFD8B
:1032300005E02878022802DDA878FEF726FE287827
:10324000012805D1A87818B9FF20B349486003E0E8
:103250004FF05010B0494860AF4840682A235E22C2
:103260001A2100903620FDF7EEFDAC48D0F884031B
:1032700000EBC000AE49421800231A213620FEF7A9
:10328000F1F92878022805D1A87818B9FF20A249B9
:10329000486003E04FF050109F4948609E484068E6
:1032A00042231E22322100900020FDF7CCFD002396
:1032B000A0A232211846FEF7D5F90324D7E12878D9
:1032C000A04206D1A878022803D1FF209249486085
:1032D00003E04FF05010904948608F4840680090DC
:1032E000A01E332202EB0010103083B2A01E02EBAE
:1032F000001081B24FF49972FA20FDF7A4FDE01E90
:10330000E97801EB810100EB410000EB80018A4884
:1033100000EB81008068401C58B9A01E332202EBEC
:10332000001081B20023AFF24422FA20FEF7FDF92B
:1033300025E0E21EEB7803EB830302EB430202EB92
:1033400082037D4A02EB8302117BE21EEB7803EBE2
:10335000830302EB430202EB8203774A02EB830210
:10336000012390680522FEF743FAA01E332202EBE8
:10337000001081B200236D4AFA20FEF7D6F92878B2
:10338000A04206D1A878032803D1FF2062494860F3
:1033900003E04FF05010604948605F48406800907B
:1033A000A01E332202EB0010103083B2A01E02EBED
:1033B000001081B24FF4C1724FF4A570FDF743FDC8
:1033C000E01EE97801EB810100EB410000EB800198
:1033D0005A4800EB81008068401C60B9A01E33226F
:1033E00002EB001081B20023AFF208324FF4A57057
:1033F000FEF79BF926E0E21EEB7803EB830302EB7A
:10340000430202EB82034D4A02EB8302117BE21E70
:10341000EB7803EB830302EB430202EB8203474AA0
:1034200002EB8302012390680522FEF7E1F9A01E5A
:10343000332202EB001081B200233C4A4FF4A57006
:10344000FEF773F92878A04206D1A878042803D1A2
:10345000FF203149486003E04FF050102E4948608A
:103460002D4840680090A01E332202EB001010305F
:1034700083B2A01E02EB001081B240F2DF124FF4C3
:10348000D270FDF7E0FCE01EE97801EB810100EB72
:1034900041012B48405CFF280CD1A01E332202EBD7
:1034A000001081B20023AFF2C4324FF4D270FEF7A5
:1034B0003CF90BE0A01E332202EB001081B2002386
:1034C000AFF2C8324FF4D270FEF72FF92878A0423D
:1034D00005D1A87818B9FF200F49486003E04FF0E4
:1034E00050100D4948600C4840680090A01E3322DF
:1034F00002EB0010103083B2A01E02EB001081B26C
:103500007E222820FDF79FFCE01EE9781AE00000EB
:10351000460000003434650014000010BC0A00109E
:103520003A0F001028A60100AFA80100F04D0010CE
:10353000E2A301004E6F2E00E010001048210010A1
:10354000B031001001EB810100EB4101F748405C14
:1035500030280BDDA01E332202EB001081B20023C5
:10356000AFF280422820FEF7E0F816E0E01EEB788C
:1035700003EB830300EB4303EC48C05C00EB400328
:1035800003EBC000EA4BC218A01E332303EB00106C
:1035900081B200232820FEF7C8F82878A04206D17F
:1035A000A878012803D1FF20E249486003E04FF0EA
:1035B0005010E0494860DF4840680090A01E332268
:1035C00002EB0010103083B2A01E02EB001081B29B
:1035D000C4227E20FDF737FCE01EE97801EB810173
:1035E00000EB4101D148D230405C02280BDDA01E27
:1035F000332202EB001081B20023AFF218527E207A
:10360000FEF793F817E0E01EEB7803EB830300EB83
:103610004303C648D230C05C00EB400303EBC0005C
:10362000C54BC218A01E332303EB001081B2002348
:103630007E20FEF77AF84FF05010BE49486048608F
:10364000E97801EB810104EB4101881E012303228B
:103650000021FEF7CDF8A01E332202EB001081B24C
:103660000023B64A0820FEF760F8601CC4B20D2C97
:10367000FFF625AEF8BDF8B505464FF05010AD4940
:1036800048602878012800D100E0002006461EB1DD
:10369000FF20A849486003E04FF05010A54948605A
:1036A000A44840682A2358221A2100903020FDF7B0
:1036B000CAFBA34890F87C0400EB8000A1494218A3
:1036C00001231A213020FDF7CDFF2878022801D1EF
:1036D000012000E0002006461EB1FF209549486009
:1036E00003E04FF0501093494860924840684023EF
:1036F0001E22302100900820FDF7A5FB0123AFF228
:10370000CC1230210820FDF7ADFFFEF70FF9287825
:10371000012819D16FF07F40864908608A484860C7
:1037200000240EE004EB8401864BCA1804EB8401EC
:10373000542303EB011188B20023F121FDF792FF1E
:10374000641C022CEED334E0287802282ED16FF0CE
:103750007F40784908607C484860002423E07B482B
:1037600090F8D40078B1C4EBC401794BCA18E11CBD
:1037700001EB8101542303EB011188B20023F121F5
:10378000FDF770FF0EE0C4EBC401724BCA18E11CD8
:1037900001EB8101542303EB011188B20023F121D5
:1037A000FDF760FF641C022CD9D302E06878FEF7B5
:1037B000AFF9F8BDF8B504462078012800D100E043
:1037C000002006461EB1FF205A49486003E04FF032
:1037D000501058494860574840682C23C02218218F
:1037E00000905820FDF72FFB584890F8D40058B1AE
:1037F00056480078C0EBC0005749421800231A21F0
:103800005820FDF72FFF0AE050480078C0EBC000B9
:103810005249421800231A215820FDF723FF20782F
:10382000022801D1012000E0002006461EB1FF2041
:103830004049486003E04FF050103E494860434A19
:1038400092F868100023506E0422FDF7D1FF002388
:103850003A4A30215820FDF705FF3C48C06E30B190
:1038600000233FA230218A20FDF7FCFE05E0002363
:103870003CA230218A20FDF7F5FE2078032801D1F3
:10388000012000E0002006461EB1FF2029494860C3
:1038900003E04FF05010274948602C4A117B002369
:1038A00090680422FDF7A4FF0023244A46215820F3
:1038B000FDF7D8FE2548006930B1002328A2462133
:1038C0008A20FDF7CFFE05E0002326A246218A20AC
:1038D000FDF7C8FE2078042801D1012000E0002077
:1038E00006461EB1FF201349486003E04FF0501018
:1038F000104948600F4840682C234FF4DD721821AE
:1039000000904FF4A970FDF79EFA104890F8D4008B
:1039100058B10E4890F8400038B90023124A1A21D5
:103920004FF4A970FDF79EFE2FE01FE03A0F001044
:1039300028A6010014000010AFA80100F04D0010EF
:10394000BC0A0010C4A9010038003100BC090010F5
:10395000DCA90100CEA9010091A0010083A0010013
:1039600020A6B8006DA6B80084220000FE4890F89A
:10397000400000EB400101EBC000FC49421800236D
:103980001A214FF4A970FDF76DFE2078052801D1AA
:10399000012000E0002006461EB1FF20F4494860E7
:1039A00003E04FF05010F2494860EF4A92F8A0103F
:1039B0000023D2F89C000422FDF71AFF0023ED4AF1
:1039C00030214FF4A970FDF74DFE0023EAA230210B
:1039D0004FF4C170FDF746FE2078062801D1012082
:1039E00000E0002006461EB1FF20E149486003E0E8
:1039F0004FF05010DE494860DB4A92F82C1000234B
:103A0000906A0422FDF7F4FE0023DA4A46214FF4BF
:103A1000A970FDF727FE0023D7A246214FF4C170FD
:103A2000FDF720FEFDF782FF207810B1012831D18B
:103A300003E00020FEF76CF82DE06FF07F40CC49EA
:103A40000860CE484860002521E0C74890F8D400BF
:103A500070B1C5EBC501CA4BCA1805EB85015423EB
:103A600003EB011188B20023F121FDF7FBFD0DE00E
:103A7000C5EBC501C34BCA1805EB8501542303EB05
:103A8000011188B20023F121FDF7ECFD6D1C022D20
:103A9000DBD300E000BF00BFF8BDF8B505462878CD
:103AA000012800D100E0002006461EB1FF20B049E9
:103AB000486003E04FF05010AD494860AC484068A2
:103AC0002C23C022182100905820FDF7BCF9A648ED
:103AD00090F8D40058B1A4480078C0EBC000A849C1
:103AE000421800231A215820FDF7BCFD0AE09E4829
:103AF0000078C0EBC000A349421800231A215820C7
:103B0000FDF7B0FD2878022801D1012000E0002057
:103B100006461EB1FF209649486003E04FF0501062
:103B200093494860924840684223C0222E21009069
:103B30005820FDF788F98C4890F8D40058B18A488D
:103B40004078C0EBC0009049421800233021582033
:103B5000FDF788FD0AE084484078C0EBC0008B493F
:103B60004218002330215820FDF77CFD28780328D7
:103B700001D1012000E0002006461EB1FF207C4953
:103B8000486003E04FF05010794948607848406839
:103B90006E23C022442100905820FDF754F972484A
:103BA00090F8D40060B1704890F8B500C0EBC00048
:103BB00077494218002346215820FDF753FD0BE0BA
:103BC000694890F8B500C0EBC00072494218002364
:103BD00046215820FDF746FD2878042801D1012010
:103BE00000E0002006461EB1FF206149486002E067
:103BF00069485F4948605E4840686E23C0225A2188
:103C000000905820FDF71FF9574890F8D40058B19C
:103C100055488078C0EBC0006049421800235C2101
:103C20005820FDF71FFD0AE04F488078C0EBC00028
:103C30005B49421800235C215820FDF713FD2878CA
:103C4000052801D1012000E0002006461EB1FF201A
:103C50004749486002E0504845494860424A117B64
:103C6000002390680422FDF7C3FD41484068842387
:103C7000C022702100905820FDF7E5F800233D4A4E
:103C800072215820FDF7EEFC3748006938B1002357
:103C9000AFF2343272218A20FDF7E4FC06E0002303
:103CA000AFF2403272218A20FDF7DCFC287806282A
:103CB00001D1012000E0002006461EB1FF202C4962
:103CC000486003E04FF05010294948602848406898
:103CD000B023C0229C2100905820FDF7B4F8224860
:103CE00090F8D40060B1204890F82000C0EBC000EC
:103CF0002A49421800239E215820FDF7B3FC0BE00F
:103D0000194890F82000C0EBC00025494218002354
:103D10009E215820FDF7A6FC2878072801D1012014
:103D200000E0002006461EB1FF201149486003E074
:103D30004FF050100E4948600B4A92F82C100023A7
:103D4000906A0422FDF754FD09484068C623C0224A
:103D5000B22100905820FDF776F80023054AB421DF
:103D60005820FDF77FFC1DE0BC090010F8A80100F9
:103D700014000010F04D00102056000038003100F3
:103D800091A0010083A00100ADA001009FA001004F
:103D9000ECA00100D7A0010034346500C9A00100E7
:103DA000BBA001000023AFF23002B4218820FDF750
:103DB00059FC2878082801D1012000E0002006469F
:103DC0001EB1FF20F749486003E04FF05010F5495D
:103DD0004860F44840682C234FF4DD7218210090AD
:103DE0004FF4A970FDF72FF8EF4890F8D40058B1C0
:103DF000ED4890F8400038B90023EC4A1A214FF4FE
:103E0000A970FDF72FFC0EE0E74890F8400000EBAA
:103E1000400101EBC000E649421800231A214FF48B
:103E2000A970FDF71FFC2878092801D1012000E0C6
:103E3000002006461EB1FF20DA49486003E04FF03B
:103E40005010D8494860D748406842234FF4DD728B
:103E50002E2100904FF4A970FCF7F5FFD24890F89E
:103E6000D40070B1D04890F8410000EB4000D14937
:103E700001EB8002002330214FF4A970FDF7F2FB23
:103E80000CE0C94890F84100C0EBC000CA49421894
:103E9000002330214FF4A970FDF7E4FB28780A28AD
:103EA00001D1012000E0002006461EB1FF20BD49DF
:103EB000486002E0C148BB494860BB4A92F84C10D8
:103EC0000023906C0422FDF793FCB64840686E23F3
:103ED0004FF4DD725A2100904FF4A970FCF7B3FF44
:103EE0000023B74A5C214FF4A970FDF7BBFBAE4835
:103EF000006D40B10023AFF298525C214FF4C270C4
:103F0000FDF7B0FB07E00023AFF2A8525C214FF4AD
:103F1000C270FDF7A7FB28780B2801D1012000E033
:103F2000002006461EB1FF209E49486002E0A348DB
:103F30009C4948609C4A92F868100023506E042205
:103F4000FDF756FC9748406884234FF4DD727021DA
:103F500000904FF4A970FCF776FF0023984A722175
:103F60004FF4A970FDF77EFB8F48C06E40B100236F
:103F7000AFF2146272214FF4C270FDF773FB07E0D9
:103F80000023AFF2206272214FF4C270FDF76AFB8A
:103F900028780C2801D1012000E0002006461EB13F
:103FA000FF208049486003E04FF050107D49486091
:103FB0007D4A92F884100023D2F880000422FDF795
:103FC00017FC78484068B0234FF4DD729C210090C4
:103FD0004FF4A970FCF737FF0023794A9E214FF474
:103FE000A970FDF73FFB0023AFF274229E214FF42E
:103FF000C170FDF737FB28780D2801D1012000E0C2
:10400000002006461EB1FF206649486003E04FF0DD
:10401000501064494860644A92F8A0100023D2F816
:104020009C000422FDF7E4FB5E484068C6234FF481
:10403000DD72B22100904FF4A970FCF704FF002359
:104040005F4AB4214FF4A970FDF70CFB0023AFF2D7
:10405000D822B4214FF4C170FDF704FBFDF766FCD4
:1040600028780E287ED2DFE800F0070B386594E050
:10407000E1EFEEEDECEBEAE90020FDF7BEFF91E1A8
:104080006FF07F40474908604E484860002421E0B7
:10409000454890F8D40070B1C4EBC4014A4BCA182B
:1040A00004EB8401542303EB011188B20023F121B6
:1040B000FDF7D8FA0DE0C4EBC401444BCA1804EB79
:1040C0008401542303EB011188B20023F121FDF791
:1040D000C9FA641C022CDBD364E16FF07F403149E4
:1040E000086038484860002421E02F4890F8D40048
:1040F00070B1C4EBC401364BCA1804EB84015423DD
:1041000003EB011188B20023F121FDF7ABFA0DE0BA
:10411000C4EBC4012F4BCA1804EB8401542303EBF6
:10412000011188B20023F121FDF79CFA641C022CD6
:10413000DBD337E16FF07F401A49086021484860BF
:10414000002423E0184890F8D40080B1C4EBC401E7
:10415000214BCA1804EB8401542303EB011188B2EC
:10416000002300E01DE1F121FDF77CFA0DE0C4EB36
:10417000C4011A4BCA1804EB8401542303EB011148
:1041800088B20023F121FDF76DFA641C032CD9D30A
:1041900008E16FF07F40034908600A484860002446
:1041A00040E0000014000010BC0900108422000050
:1041B000F8A8010007A80100EBA70100343465004E
:1041C000F04D00103800310091A0010083A00100E3
:1041D000ADA001009FA00100ECA00100D7A001004C
:1041E000F74890F8D40070B1C4EBC401F54BCA187D
:1041F00004EB8401542303EB011188B20023F12165
:10420000FDF730FA0DE0C4EBC401EF4BCA1804EB24
:104210008401542303EB011188B20023F121FDF73F
:1042200021FA641C022CDBD3BCE0BBE06FF07F40C2
:10423000E6490860E6484860002428E0B0E0AEE0C7
:10424000ACE0AAE054E026E024E0DD4890F8D40099
:1042500070B1C4EBC401DB4BCA1804EB84015423D6
:1042600003EB011188B20023F121FDF7FBF90DE00A
:10427000C4EBC401D44BCA1804EB8401542303EBF0
:10428000011188B20023F121FDF7ECF9641C022C26
:10429000DBD387E086E06FF07F40CC490860CC48F4
:1042A0004860002421E0C64890F8D40060B15CB9B1
:1042B00004EB8401542202EB011188B20023C54AA9
:1042C000F121FDF7CFF90FE004EB440101EBC4014C
:1042D000C14BCA1804EB8401542303EB011188B2CB
:1042E0000023F121FDF7BEF9641C052CDBD359E056
:1042F0006FF07F40B5490860B5484860002449E048
:10430000AF4890F8B400012822D1AD4890F8D4000D
:1043100078B104EB4401B14B03EB810204EB84015F
:10432000542303EB011188B20023F121FDF79AF920
:104330002FE0C4EBC401AA4BCA1804EB8401542338
:1043400003EB011188B20023F121FDF78BF920E086
:104350009B4890F8D40078B104EB4401A14B03EBE7
:10436000810204EB8401542303EB011188B2002382
:10437000F121FDF777F90CE09B4901EBC40204EB56
:104380008401542303EB011188B20023F121FDF7CE
:1043900069F9641C042CB3D304E003E002E001E0FB
:1043A00000E000BF00BFF8BD2DE9F04104460D4616
:1043B000164604EB44038D4FDA19B1B2A8B20123BB
:1043C000FDF7B3F9BDE8F081F8B505464FF05010A0
:1043D0007E4948608648D0F8200178B98449412256
:1043E000D1F8B8034FF4B471FFF7DEFF80494122E2
:1043F000D1F8B803C821FFF7D7FF0CE000237DA256
:1044000041214FF4B470FDF790F9002379A24121C6
:10441000C820FDF78AF92878012800D100E00020A3
:1044200006461EB1FF206949486003E04FF0501076
:1044300066494860654840682C2370221821009026
:104440004620FCF700FD6A48D0F8B80300EBC00036
:104450006949421801231A214620FDF703F92878FB
:10446000022801D1012000E0002006461EB1FF20F5
:104470005649486003E04FF05010544948605C4A88
:1044800092F80C110023D2F808010522FDF7B0F9CB
:104490004E4840682A234FF492721A210090E2207D
:1044A000FCF7D1FC0123554A1A21E220FDF7DAF886
:1044B0004F48D0F8100100EB400051494218012349
:1044C0001A214FF48E70FDF7CDF82878032801D11A
:1044D000012000E0002006461EB1FF203B49486055
:1044E00003E04FF0501039494860384840682C23A9
:1044F0004FF4E272182100900801FCF7A4FC3C483C
:10450000D0F820013F4901EB800201231A214FF42A
:10451000C070FDF7A7F82878042801D1012000E039
:10452000002006461EB1FF202849486003E04FF0F6
:1045300050102649486025484068422370222E21A9
:1045400000904620FCF77FFC2948D0F8000100EBE2
:1045500080002D494218002330214620FDF782F8C3
:104560002878052801D1012000E0002006461EB170
:10457000FF201649486003E04FF05010134948608F
:104580001248406842234FF4AB722E210090FA206B
:10459000FCF759FC1648D0F8280100EB80001A49B6
:1045A000421801233021FA20FDF75CF806249FE031
:1045B0002878A0422AD1FF200449486033E0000057
:1045C000BC090010C9A00100BBA00100140000102C
:1045D0003800310084220000F8A8010007A801007B
:1045E000EBA7010057A8010037A8010040B6010061
:1045F000BC0A001025000000E2A30100F04D0010ED
:1046000013B6010081B401001BAA0100A01F0228FB
:1046100005D9072803D2F648F649486003E04FF071
:104620005010F4494860F34840680090A01FC0EB68
:1046300000105B3083B2A01FC0EB00104C3081B281
:10464000DC229820FCF7FFFBA01FC0EBC001EA486A
:1046500000EBC1004068E0B3A21FC2EBC203E64A10
:1046600002EBC302117AA21FC2EBC203E24A02EBC1
:10467000C302002350680522FDF7BAF8A01FC0EB63
:1046800000104C3081B20123DCA29820FDF74DF8D8
:10469000A01FC0EB00104C3081B20123D84AA020EB
:1046A000FDF743F8D748D0F8200100BBA01FC0EBAE
:1046B000C003D14800EBC300C06800EB4000D24B00
:1046C000C218A01FC0EB00104C3081B20123D020D3
:1046D00000E002E0FDF729F809E0A01FC0EB0010A0
:1046E0004C3081B20123C94AA020FDF71EF8641C9A
:1046F000102CFFF45DAF10247DE02878A04203D198
:10470000FF20BC4948600DE0A4F11000022805D943
:10471000072803D2B648B749486003E04FF050106D
:10472000B4494860B34840680090A4F11000C0EB61
:1047300000105F3083B2A4F11000C0EB00104C30C9
:1047400081B24FF4BE724FF4A070FCF77CFBA4F171
:104750001000C0EBC001A84800EBC100006AE0B344
:10476000A4F11002C2EBC203A34A02EBC30292F807
:104770002410A4F11002C2EBC2039F4A02EBC30251
:104780000023106A0522FDF733F8A4F11000C0EBF6
:1047900000104C3081B20023994A4FF4A070FCF70E
:1047A000C4FF9848D0F8200120BBA4F11000C0EB52
:1047B000C003914800EBC300806A00EB4000924BBD
:1047C000C218A4F11000C0EB00104C3081B20123DC
:1047D0004FF4B870FCF7A9FF0CE0FFE7A4F110005C
:1047E000C0EB00104C3081B20123884A4FF4A07016
:1047F000FCF79BFF641C1A2CFFF47FAFFDF796F8C3
:104800002878062857D2DFE800F003070809223C81
:104810006878FDF7F2FB7EE07DE07CE06FF07F40A2
:10482000744908607A48486000240DE0794901EB3A
:10483000840204EB8401542303EB011188B20023AA
:10484000F121FCF70FFF641C022CEFD363E06FF043
:104850007F40684908606E48486000240EE004EB21
:1048600084016D4BCA1804EB8401542303EB01113E
:1048700088B20023F121FCF7F5FE641C022CEED374
:1048800049E06FF07F405B49086061484860002460
:104890000EE004EB8401604BCA1804EB840154233E
:1048A00003EB011188B20023F121FCF7DBFE641C4D
:1048B000022CEED32FE0594890F8D400A0B1002389
:1048C000574AF1215420FCF7CDFE002355A2E721E1
:1048D0004FF4CA70FCF7C6FE0023534AFB214FF485
:1048E000CA70FCF7BFFE15E0002350A2F12154204E
:1048F000FCF7B8FE00234A4A2C3AE7214FF4CA706D
:10490000FCF7B0FE0023464A243AFB214FF4CA705C
:10491000FCF7A8FE00BF00BFF8BD2DE9F04104463A
:104920000D461646207828B32078042811DD284645
:104930000EF01AF8074606F02BFE20781622504398
:1049400000F11A0101232E4A4FF4A070FCF78AFEF1
:1049500010E030460EF008F8074602F0F3FE20782B
:104960001622504300F11A010123254A4FF4A0708A
:10497000FCF778FEBDE8F08138B50546002430E04C
:104980002978601C814203D1FF201A49486003E066
:104990004FF0501017494860164840680090A01C1E
:1049A00016225043163083B2601C5043183081B237
:1049B000E822A020FCF747FA1E4A115D174AB832D8
:1049C00032F8240000230422FCF712FF601C162298
:1049D00050431A3081B20123094AA020FCF742FE5D
:1049E000641C062CCCD34FF050100249486038BDEF
:1049F0003434650014000010E80B00102D00000096
:104A0000F04D0010BC0A001013B60100202C00006D
:104A10003800310081B401001BAA0100BC0900105C
:104A20007022000044656C00301E0000C7E5B3FD35
:104A3000D0D0000044B70100F8B505462878012819
:104A400000D100E0002006461EB1FF20FD4948606D
:104A500003E04FF05010FB494860FA4840682C23AF
:104A6000C0221A2100905A20FCF7EDF9F64890F880
:104A7000D40060B1F44890F8D000C0EBC000F34916
:104A8000421800231C215A20FCF7ECFD0BE0EE48F5
:104A900090F8D000C0EBC000ED49421800231C2163
:104AA0005A20FCF7DFFD2878022801D1012000E020
:104AB000002006461EB1FF20E249486003E04FF0A7
:104AC0005010E0494860DF4840684223C02230214E
:104AD00000905A20FCF7B7F9DB4890F8D100C0EB02
:104AE000C000DC494218002332215A20FCF7BAFDED
:104AF0002878032801D1012000E0002006461EB1DD
:104B0000FF20D049486003E04FF05010CD49486085
:104B1000CC4840685823C022462100905A20FCF718
:104B200092F9C94890F8D40060B1C74890F8D20013
:104B3000C0EBC000C5494218002348215A20FCF7A9
:104B400091FD0BE0C04890F8D200C0EBC000C04916
:104B50004218002348215A20FCF784FD28780428B5
:104B600001D1012000E0002006461EB1FF20B5491A
:104B7000486003E04FF05010B2494860B1484068C7
:104B80006E23C0225C2100905A20FCF75CF9AE48ED
:104B900090F8D40060B1AC4890F8D300C0EBC000EE
:104BA000AA49421800235E215A20FCF75BFD0BE066
:104BB000A54890F8D300C0EBC000A54942180023D7
:104BC0005E215A20FCF74EFD2878052801D10120EE
:104BD00000E0002006461EB1FF209A49486003E02D
:104BE0004FF0501097494860964840688423C0228F
:104BF000722100905A20FCF726F9934890F8D400CF
:104C0000954901EBC002002374215A20FCF72AFDCC
:104C10002878062801D1012000E0002006461EB1B8
:104C2000FF208849486003E04FF0501085494860F4
:104C3000844840689A236C22882100905A20FCF70F
:104C400002F9864901230222C8690021FCF7D0FD40
:104C50000023834A8A215A20FCF704FD4FF05010AC
:104C6000784948600023AFF26C228A216E20FCF75D
:104C7000F9FC2878072801D1012000E00020064631
:104C80001EB1FF206F49486003E04FF050106D499E
:104C900048606C4840689A238A22882100907820D6
:104CA000FCF7D1F86D490123022288690021FCF745
:104CB0009FFD00236A4A8A217820FCF7D3FC4FF03D
:104CC0005010604948600023AFF2D0228A218C2026
:104CD000FCF7C8FC2878082801D1012000E000205A
:104CE00006461EB1FF205749486003E04FF05010C0
:104CF00054494860534840689A23AA22882100906A
:104D00009820FCF7A0F8554901230222C868002129
:104D1000FCF76EFD00205249887000230A468A2164
:104D20009820FCF79FFC2878092801D1012000E099
:104D3000002006461EB1FF204249486003E04FF0C4
:104D40005010404948603F484068B0236C229E2183
:104D500000905A20FCF777F8404901230222886826
:104D60000021FCF745FD00233D4AA0215A20FCF715
:104D700079FC4FF0501033494860002339A2A0213C
:104D80006E20FCF76FFC28780A2801D1012000E092
:104D9000002006461EB1FF202A49486003E04FF07C
:104DA00050102849486027484068B0238A229E2135
:104DB00000907820FCF747F8284901230222486830
:104DC0000021FCF715FD0023254AA0217820FCF7DF
:104DD00049FC4FF050101B494860002321A2A0213C
:104DE0008C20FCF73FFC28780B2801D1012000E043
:104DF000002006461EB1FF201249486003E04FF034
:104E00005010104948600F484068B023AA229E21E4
:104E100000909820FCF717F8104901230222086837
:104E20000021FCF7E5FC00200D49887000230A46AC
:104E3000A0219820FCF716FC28780C2814D101201A
:104E400013E0000014000010BC090010C9A001000C
:104E5000BBA001009FB501008FB50100A04D00105F
:104E6000F04D00103A000000002006461EB1FF2061
:104E7000FE49486003E04FF05010FC494860FB4891
:104E80004068C623C022B42100905A20FBF7DBFF04
:104E90000023F74AB6215A20FCF7E4FBFCF746FD55
:104EA0006FF07F40F1490860F248486028780C288C
:104EB00070D2DFE800F0060931456D96A9AAABACC7
:104EC000ADAEFDF78CF9B8E0002422E0E848D53813
:104ED00090F8D40070B1C4EBC401E74BCA1804EBDE
:104EE0008401542303EB011188B20023F121FCF764
:104EF000B9FB0DE0C4EBC401E04BCA1804EB84011C
:104F0000542303EB011188B20023F121FCF7AAFB23
:104F1000641C022CDAD390E000240EE0C4EBC40140
:104F2000D74BCA1804EB8401542303EB011188B258
:104F30000023F121FCF796FB641C052CEED37CE0EA
:104F4000002422E0CA48D53890F8D40070B1C4EBF0
:104F5000C401C94BCA1804EB8401542303EB0111AB
:104F600088B20023F121FCF77DFB0DE0C4EBC40106
:104F7000C24BCA1804EB8401542303EB011188B21D
:104F80000023F121FCF76EFB641C022CDAD354E001
:104F9000002423E050E0B648D53890F8D40070B132
:104FA000C4EBC401B44BCA1804EB8401542303EBD3
:104FB000011188B20023F121FCF754FB0DE0C4EB92
:104FC000C401AE4BCA1804EB8401542303EB011156
:104FD00088B20023F121FCF745FB641C022CDAD3D4
:104FE0002BE000240DE0A74901EBC40204EB84018F
:104FF000542303EB011188B20023F121FCF732FBAB
:10500000641C022CEFD318E000BF00BF00BF00BF3C
:1050100000BF00240DE09C4901EBC40204EB8401B5
:10502000542303EB011188B20023F121FCF71AFB92
:10503000641C022CEFD300E000BF00BFF8BD10B528
:10504000FDF7ABF9FCF772FC10BD10B5FFF7F7FFE9
:105050006FF07F40854908608C4848608448D538A7
:1050600090F8D40030B10023894A04211846FCF797
:10507000F9FA05E00023874A04211846FCF7F2FA02
:105080006FF07F40794908604FF05010486000246D
:1050900022E07748D53890F8D40070B104EB840151
:1050A00001EBC4017C4BCA1804EB84014905080CD0
:1050B00000231A21FCF7D6FA0DE004EB840101EB82
:1050C000C401764BCA1804EB84014905080C00237F
:1050D0001A21FCF7C7FA641C032CDAD300240FE072
:1050E00004EB840000EBC4006D4BC218601C162357
:1050F00058431A3081B200231846FCF7B3FA641CF7
:10510000062CEDD310BD08B56648B62340F2DF1279
:105110007A2100900020FBF796FE08BD10B5FDF740
:105120003CF9FCF703FCFFF7EEFF10BD10B5FFF7ED
:10513000F5FF6FF07F404D490860544848604C4887
:10514000D53890F8D40038B10023514A16320421E2
:105150001846FCF787FA06E000234E4A163204216F
:105160001846FCF77FFA6FF07F40404908604FF027
:1051700050104860002441E0032C1ED23C48D53832
:1051800090F8D40060B1484901EBC40204EB8401FB
:10519000002303EB411188B21A21FCF763FA2CE0DB
:1051A000424901EBC40204EB8401002303EB4111EB
:1051B00088B21A21FCF756FA1FE02D48D53890F82E
:1051C000D40068B1394901EBC402E11E01EB810151
:1051D000002303EB411188B23021FCF743FA0CE0C5
:1051E000314901EBC402E11E01EB8101002303EB15
:1051F000411188B23021FCF735FA641C062CBBD370
:10520000002417E0032C05D9082C03D225481749A0
:10521000486003E04FF0501014494860244800EB08
:105220008402C4EB0410413081B200231846FCF71D
:105230007CFA641C0B2CE5D300231EA24121A02084
:10524000FCF773FA00231CA241214FF4A070FCF775
:105250006CFA1B491A22D1F8B8034FF49371FDF789
:1052600014FA0020FCF7C9FE10BD00001400001065
:10527000910A001038003100C9A00100BBA0010054
:105280009FB501008FB5010065A90100F35203002D
:105290001DB201002BB10100F2B20100CBB201003E
:1052A00019B301003434650089B4010051B4010020
:1052B000B9B401004C4F570048494748000000006E
:1052C000BC0A001008B5FB48B62340F2DF127A2171
:1052D00000900020FBF7B7FD08BD10B5FDF75DF8A5
:1052E000FCF724FB10BD10B5FFF7F7FF6FF07F4010
:1052F000F1490860F1484860F14890F8D40030B1B5
:105300000023F04A04211846FCF7ACF905E000231D
:10531000ED4A04211846FCF7A5F96FF07F40E649F5
:1053200008604FF0501048600023E84A1A211846E0
:10533000FCF798F901241FE0E14890F8D40068B127
:1053400004EBC401E24BCA18611E4D2359431E31C0
:1053500088B200233021FCF785F90CE004EBC4018E
:10536000DA4BCA18611E4D2359431E3188B20023FF
:105370003021FCF777F9641C072CDDD30020FCF703
:105380003CFE10BD38B500241BE06FF07F4000905C
:10539000601C00EB400202EBC0001A2202EB40004E
:1053A000801E83B2601C00EB400202EBC0001A2298
:1053B00002EB4000801E81B2BE225A20FBF787FD1F
:1053C000641C072CE1D338BD10B5FCF7E6FFFCF7F1
:1053D000ADFA10BD10B5FFF7F7FF6FF07F40B6498B
:1053E0000860B6484860B64890F8D40038B1002349
:1053F000B44A423204211846FCF734F906E000238F
:10540000B14A423204211846FCF72CF96FF07F4074
:10541000A94908604FF050104860A94890F8FF0073
:10542000012828D1002423E0A54890F8D40078B1C1
:10543000C4EBC40000EB4000A64BC218162304FBCB
:1054400003F01A3081B200231846FCF70BF90EE086
:10545000C4EBC40000EB40009F4BC218162304FBB2
:1054600003F01A3081B200231846FCF7FBF8641CE5
:10547000042CD9D327E0002423E0914890F8D400ED
:1054800078B1C4EBC40000EB4000944BC218162363
:1054900004FB03F01A3081B200231846FCF7E2F84F
:1054A0000EE0C4EBC40000EB40008D4BC218162385
:1054B00004FB03F01A3081B200231846FCF7D2F83F
:1054C000641C042CD9D300237D4AF5325C215A2078
:1054D000FCF7C8F8FCF783FE10BD10B5FFF774FFAA
:1054E0006FF07F407449086074484860744890F8D1
:1054F000D40038B10023734A163204211846FCF751
:10550000B1F806E00023704A163204211846FCF771
:10551000A9F86FF07F40684908604FF0501048606C
:10552000002423E0664890F8D40078B104EB4400EE
:1055300000EBC4006B4BC218162304FB03F01A30B7
:1055400081B200231846FCF78DF80EE004EB44000E
:1055500000EBC400644BC218162304FB03F01A309E
:1055600081B200231846FCF77DF8641C082CD9D3BF
:10557000FFF708FFFCF733FE10BD2DE9F34F83B0B2
:105580000C4642F20F716068884206D90A216068B1
:10559000B0FBF1F060600420A060A068C0F10400DE
:1055A000A06060680DF034FA8146E06828B94F4980
:1055B00048460DF075FA81460EE0E06801280BD1EF
:1055C00048460DF075F807460022494B0CF060FD87
:1055D00005460CF083FA8146A0680CF009FD0746E9
:1055E0003A460B46002043490BF03AFD05460E466D
:1055F00048460DF05DF82A463346CDE900010CF02F
:105600005BFB82460CF06AFA814648460DF050F882
:1056100005460022384B0CF039FE09D2DFF8DC9049
:1056200040F6B83060600220A0600120E0609FE09A
:1056300048460DF03DF805460022314B0CF026FEA1
:105640000CD8304948460DF0CDF805460DF0A8F9C4
:1056500060600220A0600120E06089E048460DF013
:1056600027F805460022224B0CF010FE0CD81F49EB
:1056700048460DF0B7F805460DF092F9606003203A
:10568000A0600120E06073E048460DF011F8054687
:1056900000221D4B0CF0FAFD3AD81C4948460DF08B
:1056A000A1F805460DF07CF960600120A0600020A3
:1056B000E0605DE03434650014000010F352030034
:1056C000BC09001049B2010057B1010011B5010039
:1056D00050B5010011AF0100BDAE0100B9AF01002E
:1056E00065AF010065B001000DB0010000007A4413
:1056F00080842E4100002440389C7C41C0E1E44B72
:10570000D012634100401C46006AF8400000C842C5
:1057100048460CF0CDFF05460022FE4B0CF0B6FDCE
:105720000CD8FD4948460DF05DF805460DF038F9F6
:1057300060600220A0600020E06019E048460CF0A4
:10574000B7FF05460022F54B0CF0A0FD08D84846EF
:105750000DF026F960600320A0600020E06007E003
:1057600048460DF01DF960600320A0600020E06055
:1057700048460DF015F9A0611C22214603980AF055
:10578000F6F905B0BDE8F08F0146888800B2704791
:105790002DE9F04105460C46E06870BBA06805287D
:1057A00029D2DFE800F00314151C220060680CF019
:1057B0001FFC06460022DA4B0CF068FD04D2D948E3
:1057C00060600020206101E00120206114E013E00E
:1057D0004FF47A716068B0FBF1F060600CE0642116
:1057E0006068B0FBF1F0606006E00A216068B0FB21
:1057F000F1F0606000E000BF46E0FFE7A068062827
:105800003ED2DFE800F0031018192632C54960685F
:10581000884202D90846606004E04FF47A716068FB
:10582000484360602FE0606820B10A216068B0FBE7
:10583000F1F0606027E026E042F210716068884273
:1058400001D908466060606800EB8000400060603D
:1058500019E06068B0F57A7F02D94FF47A70606021
:1058600064216068484360600DE06068642801D985
:10587000642060604FF47A7160684843606002E0C1
:10588000A948606000BF00BF1C22214628460AF0DC
:105890006EF9BDE8F0812DE9F34F83B08A4642F2FC
:1058A0000F71DAF80400884209D90A21DAF80400F5
:1058B000B0FBF1F0CAF804000420CAF808004FF465
:1058C0007A71DAF8040000FB01FBDAF80810C1F184
:1058D00004000CF08DFB02460B46CDE900010020D0
:1058E00092490BF0BDFB04460D4658460CF080FB78
:1058F000064622462B460CF0DFF980460CF034FBBE
:1059000083464EF66020834500D9834642F21070EC
:10591000834508D30220CAF808000A20BBFBF0F038
:10592000CAF8040004E00320CAF80800CAF804B06A
:10593000CAF818B01C22514603980AF018F905B0AD
:10594000BDE8F08F2DE9F05F82460C460020E06054
:10595000A0680DF05DF883460CF0AAFE07463A46B3
:105960000B46002071490BF07BFB05460CF0FCFA5E
:1059700081466068B0FBF9F9B9F1640F01D90220E2
:10598000A0601C22214650460AF0F1F8BDE8F09FC5
:1059900008B56748372328225C2100903C20FBF79C
:1059A00079FC6448372328225C2100906420FBF7AF
:1059B00071FC614837232822932100903C20FBF79B
:1059C00069FC5E4837232822932100906420FBF76E
:1059D00061FC08BD08B55648372328225C21009099
:1059E0003C20FBF757FC5348372328225C210090CA
:1059F0006420FBF74FFC5248372328229321009064
:105A00003C20FBF747FC4D48372328229321009088
:105A10006420FBF73FFC08BD08B545483723282222
:105A20005C2100903C20FBF735FC424837232822BC
:105A30005C2100906420FBF72DFC4248372328228C
:105A4000932100903C20FBF725FC3C48372328227B
:105A5000932100906420FBF71DFC08BD08B5344875
:105A6000372328225C2100903C20FBF713FC3148AF
:105A7000372328225C2100906420FBF70BFC32487E
:105A800037232822932100903C20FBF703FC294870
:105A900037232822932100906420FBF7FBFB08BDED
:105AA00008B52348372328225C2100903C20FBF7CF
:105AB000F1FB2648372328225C2100906420FBF765
:105AC000E9FB214837232822932100903C20FBF753
:105AD000E1FB1E4837232822932100906420FBF726
