:020000040000FA
:10000000304D001091A5000099A500009BA50000AF
:100010009DA500009FA50000A1A500000000000014
:10002000000000000000000000000000A3A5000088
:10003000A5A5000000000000A7A50000595D000074
:10004000ABA50000A1090000B5090000C709000028
:10005000D909000055BE0000ABA50000ABA500000B
:10006000BDBF0000ABA50000ABA50000ABA5000024
:10007000ABA50000ABA50000ABA50000ABA5000040
:10008000ABA50000B1E50000ABA50000ABA50000EA
:10009000ABA50000ABA50000ABA50000ABA5000020
:1000A000B5DA0000ABA50000ABA50000ABA50000D1
:1000B000ABA50000ABA50000ABA50000ABA5000000
:1000C000ABA50000ABA50000ABA50000ABA50000F0
:1000D000ABA50000ABA50000A9050000ABA5000082
:1000E000ABA5000000F002F800F0B0F80AA090E81C
:1000F000000C82448344AAF10107DA4501D100F0E3
:10010000A5F8AFF2090EBAE80F0013F0010F18BFFF
:10011000FB1A43F001031847B4A10700D4A107005C
:100120000A444FF0000C10F8013B13F0070408BF1D
:1001300010F8014B1D1108BF10F8015B641E05D0BB
:1001400010F8016B641E01F8016BF9D113F0080F70
:100150001EBF10F8014BAD1C0C1B09D16D1E58BF02
:1001600001F801CBFAD505E014F8016B01F8016B39
:100170006D1EF9D59142D6D37047000000230024AC
:1001800000250026103A28BF78C1FBD8520728BFA7
:1001900030C148BF0B6070476E290EF0B2857029E0
:1001A0000EF0EF86662911F08085652911F07D85B6
:1001B000672911F07A856129AFF3008003681B0A73
:1001C00028BF41F0800169290EF0EE8264290EF00B
:1001D000EB8275290EF0E8826F290EF07C86782973
:1001E0000EF0BB86E9290EF01786E4290EF014867E
:1001F000F5290EF01186EF290EF07986F8290EF018
:10020000BA860368DB0928BF41F0800163290FF03B
:10021000258173290FF02A81E3290FF03581F32915
:100220000FF03A81002070471FB50FF08BF90400E2
:100230000020002110F0CEFB401C60600020002157
:1002400010F0B2FBE0601FBD10B510BD0FF04CF90F
:100250001146FFF7E9FF00F0D4F90FF029FA03B4D3
:10026000FFF7F2FF03BC0FF02DFA000070B5054652
:100270000C46A4F120000B4A02EB00111022284684
:100280000EF0C2FB70BDA1F1200202EB4202064B50
:1002900003EB8202136803605368436092688260D4
:1002A00070470000A4570100945D01000D4843F61B
:1002B000C46102E000220270401C0A1EA1F1010389
:1002C00099B2F7D1084843F6482102E0FF220270B4
:1002D000401C0A1EA1F1010399B2F7D1014B83F82A
:1002E0007C247047D80200105407001070477047F4
:1002F00070470A6802F8010B0A607047FFFFFFFFB2
:1003000040F20120974908609749C1F88401954956
:1003100008310860091D0860091D0860091D086092
:10032000091D0860091D0860091D0860091D086095
:10033000091D0860091D0860091D0860091D086085
:10034000091D0860091D0860091D0860091D086075
:10035000091D0860091D0860091D0860091D086065
:10036000091D0860091D0860091D0860091D086055
:10037000091D0860091D0860091D0860091D086045
:10038000091D0860091D0860091D0860091D086035
:10039000091D0860091D0860091D0860091D086025
:1003A000091D0860091D0860091D0860091D086015
:1003B000091D0860091D0860091D0860091D086005
:1003C000091D0860091D0860091D0860091D0860F5
:1003D000091D0860091D0860091D0860091D0860E5
:1003E000091D0860091D08605E49E43108605D4927
:1003F00040390860091D0860091D086059493039F5
:100400000860584920390860564910390860091DAC
:100410000860091D08605449C1F87C0170472DE946
:10042000F04100BF00BF5148006840F400604F49F0
:10043000C439C1F8C40041F61F704D49086001205D
:100440004C49086000208860FFF75AFF4A4800685E
:100450004A49B0FBF1F74548C438D0F8000100B173
:100460007F084FF47A70B0FBF7F404F11300B0FB8F
:10047000F4F0404908630F2048630020886301209E
:10048000C86304F11300B0FBF4F0801C0864012081
:10049000486404F13E00B0FBF4F0886404F13E00CF
:1004A000B0FBF4F0C8640F20086504F13E00B0FB17
:1004B000F4F0486501208865886240F203303049D5
:1004C00008604FF48D402B49C1F800012C49091FE9
:1004D00008606421002000F0E5F940F2831025490E
:1004E0000862C821002000F0DDF940F20310214924
:1004F000086202204862002600E0761C802EFCD3B1
:1005000041F68465A5F1100085B22D1105FB07F0B9
:100510004FF47A71B0FBF1F085B216484562832042
:10052000144908621748D0F8008000200862144877
:10053000001F006840F40020C1F8000101210020E4
:1005400000F0B0F90121002000F0ACF90848006883
:1005500020F01F0848F011000449C439C1F8DC013B
:10056000BDE8F08180C1024000C00240C4C00F401D
:10057000DCC10F4000C009209C00001040420F0069
:1005800004C10920004006A010B5002807DACA06F9
:10059000140EB44A00F00F031B1FD45403E0CA0624
:1005A000130EB14A135410BD10B5012213210020BF
:1005B0000AF082FA20B3262000F01F0201219140A8
:1005C000AA4A430942F8231000BF6FF07F4400E0BD
:1005D000641E002CFCD1A648006830B10020A4495C
:1005E00008600F20A349086005E00120A0490860C9
:1005F0000220A04908604FF4002100200AF087FA89
:1006000010BD1FB500200AF0FCFB064600209849EB
:1006100008604FF47A70B6FBF0F0451EB5F1807FAC
:1006200000D311E025F07F40401E4FF0E0214861EB
:100630001F214FF0FF30FFF7A7FF00204FF0E02110
:1006400088610720086100BF0122D10400200AF060
:1006500015FA01212620FFF797FF262000F01F0240
:10066000012191404209920002F1E022C2F80011FA
:1006700000BF642005F021FC0BF064FF05F00AFDCB
:100680000DF0A8FF05F058FC05F080FC05F0B7FB65
:100690000BF032FB002076490860FFF7C0FE002017
:1006A00000F082FA74494869002100F0B6FA01208E
:1006B00000F07AFAFFF7FAFD002005F0C4FC05F01F
:1006C00035FA06F017F80F206A49086050E005F087
:1006D00079FD0446FF2C03D100206849086004E03E
:1006E00066480068401C6549086064480068022844
:1006F00014D10020614908604FF0501000F092FBC7
:1007000022465FA101A80EF011F800206FF07F4390
:1007100001AA28210090782000F0C1FC554800680B
:100720000A2817D006DC02280BD005280FD006288F
:100730001CD109E00C2810D00F2811D0102815D199
:1007400011E006F05CF812E006F03CFB0FE007F069
:100750006DF90CE009F038FC09E008F0E5FE06E070
:1007600008F0B5FE03E008F045FE00E000BF00BF62
:10077000ADE770B5012143A00CF066FD0546002DE4
:100780000EDD00BF4FF47A624148016828460CF044
:100790003BFE0446002CF5D128460DF036F800E06B
:1007A00070BD00BFFCE72DE9F041012135A00CF040
:1007B0004BFD0746002F25DD4FF47A62344801686F
:1007C00038460CF021FE022132A00CF03DFD04461B
:1007D000002C11DD002500BF4FF47A622C4801681F
:1007E00020460CF07BFF064635442D488542F3D366
:1007F00020460DF00AF801E0BDE8F08138460DF022
:1008000004F800E0F8E700BFF6E770B501211DA08D
:100810000CF01AFD0646002E20DD02211DA00CF072
:1008200013FD0446002C14DD00BF4FF47A62184813
:10083000016830460CF0E8FD05462A461448016878
:1008400020460CF04BFF002DEFD120460CF0DDFFD1
:1008500000E070BD30460CF0D8FF00E0F9E700BFC3
:10086000F7E7000018ED00E000E400E080E100E0C0
:100870007C0000108C000010180000105C000010BC
:10088000253264004D53524541442E5458540000C3
:10089000240100104A4B32353230422E5458540055
:1008A00080969800F8B902224FF040235A60002247
:1008B000DA60B44A12684FF47A73B2FBF3F2521E54
:1008C0004A434FF040239A61FF221A6004225A6182
:1008D00001225A6000BF4FF04022526802F001022C
:1008E000002AF8D15BE001281CD10222A64B5A60F5
:1008F0000022DA60A34A12684FF47A73B2FBF3F273
:10090000521E4A43A04B9A61FF221A6004225A6188
:1009100001225A6000BF9C4A526802F00102002A7C
:10092000F9D13CE002281CD10222984B5A600022E7
:10093000DA60944A12684FF47A73B2FBF3F2521EF3
:100940004A43924B9A61FF221A6004225A610122A3
:100950005A6000BF8D4A526802F00102002AF9D1A4
:100960001DE003281BD10222894B5A600022DA6065
:10097000844A12684FF47A73B2FBF3F2521E4A4370
:10098000834B9A61FF221A6004225A6101225A6045
:1009900000BF7F4A526802F00102002AF9D1704775
:1009A00001204FF0402108607A480068401C7949D6
:1009B0000860704701207449086077480068401C4F
:1009C00075490860704701207049086073480068E5
:1009D000401C72490860704701206D4908607048EA
:1009E0000068401C6E490860704720B901214FF033
:1009F0004022516010E0012803D10121624A516078
:100A00000AE0022803D10121604A516004E0032872
:100A100002D101215E4A5160704720B900214FF098
:100A20004022516010E0012803D10021564A516054
:100A30000AE0022803D10021544A516004E003284F
:100A400002D10021514A51607047014631B94FF03F
:100A50004022506840F00200506016E0012905D1A4
:100A6000494A506840F0020050600EE0022905D16A
:100A7000464A506840F00200506006E0032904D165
:100A8000434A506840F002005060704770B5054618
:100A90000C46F5B900203F4908604248006840F024
:100AA00002004049C439C1F8C4004FF040204068FA
:100AB00040F002004FF0402148604EF65F20C860D1
:100AC0000846846103204861012000F050F80120AD
:100AD00070BD012D1CD100202F49086031480068ED
:100AE00040F004002F49C439C1F8C40026484068CA
:100AF00040F00400244948604EF65F20C860084674
:100B0000846103204861022000F031F80120DFE712
:100B1000022D13D10020214908602248006840F4CA
:100B200080002049C439C1F8C400184884610320FA
:100B30001649486100F01BF80120C9E7032D14D1C4
:100B40000020174908601748006840F40000154964
:100B5000C439C1F8C4000E48846103200C494861BF
:100B6000042000F004F80120B2E70020B0E700F014
:100B70001F02012191404209920002F1E022C2F8D5
:100B800000117047A00000100080004000000940E4
:100B90000040094000000010040000100800001090
:100BA0000C000010C4C00F4008B5B0B1FC49896901
:100BB00041F00101FA4A916142F21071009108E09E
:100BC000F749896941F40061F54A91610099491E2C
:100BD000009100990029F3D115E0F149896921F4C8
:100BE0000061EF4A916142F21071009102E00099B8
:100BF000491E009100990029F9D1E949896921F03C
:100C00000101E74A916108BDE64A002102E008C8F7
:100C100008C2491C8029FAD370472DE970438146E8
:100C20000D46DFF8848300BF2720E0490861486152
:100C3000DF490860DD49C1F87402DE490860091D1A
:100C40000860091D0860091D0860D8498861C861ED
:100C5000D84948390860091D0860091D0860091D48
:100C60000860091D0860091D0860D04908624862D3
:100C7000D04918310860091D0860CE493039086034
:100C8000091D0860091D0860091D0860C94910395F
:100C90000860C849091F0860C6490C390860091D69
:100CA0000860C249C1F80001C348006C40F002006E
:100CB000C14908640846806D40F00A008865BF4855
:100CC000D0F8C40040F00100BC49C1F8C400BC48E1
:100CD000006820F00100BA4908600020B04988612E
:100CE0000846806920F00E0088610846806940F05F
:100CF0000A0088610846806940F020008861084643
:100D0000806920F0800088610846806920F4807046
:100D100088610846806920F400708861084680690F
:100D200020F4806088610846806920F40060886152
:100D3000A4480068A449B0FBF1F0A049C1F8B8018B
:100D40009748806840F080609549886008468068D0
:100D500020F0200088600846806840F400608860C9
:100D60000846806840F4805088600846806820F417
:100D7000005088600846806820F4804088600846FB
:100D80008068924908408649886008468068904992
:100D9000084383498860002008600846006840F0E6
:100DA0001C5008600846006840F48020086008462F
:100DB000006840F4807008600846006840F07400E5
:100DC0000860002048600846406840F000604860C5
:100DD0000846406840F4002048600846406840F4F7
:100DE000806048600846406840F20F1108436C4933
:100DF000486040460861486115B12846FFF704FF86
:100E0000694E002403E04FF47F0001C6641CB4F572
:100E1000FF3FF8D342F2107400E0641E002CFCD1B6
:100E2000BDE87083604A002101E001C2491CB1F5B0
:100E3000FF3FFAD370472DE9F0411C46069FC1F5EC
:100E4000887CACF1010CCCEB0C1CDFF85C8108EB6E
:100E5000CC18C0F5F07CACF1010C08EB8C0300263B
:100E60000FE0002502E043F804796D1CA2EB000CB2
:100E7000AC45F8D8A2EB000CCCF5F07CA3EB8C03CE
:100E8000761CA4EB010CB445EBD8BDE8F08170B53D
:100E9000454BB0F5F07F02DAB1F5887F00DB70BD1D
:100EA000C0F5F0756D1EC1F58876761EC6EB061688
:100EB00005EB461403EB84031A6000BFEFE72DE94E
:100EC000F04F04460D4691469A46DDF824B04C4555
:100ED00003DD0FFA89F7A146BCB2554503DD0FFAD1
:100EE0008AF7AA46BDB2A9EB04000FFA80F8AAEB74
:100EF000050006B2B8F1000F0BD100BF5A462946D3
:100F00002046FFF7C4FF681C85B2AA45F6DABDE8A3
:100F1000F08F56B900BF5A4629462046FFF7B7FF63
:100F2000601C84B2A145F6DAF1E7B04521DDC8EBDB
:100F3000460007B215E05A4629462046FFF7A7FFAC
:100F4000601C84B2002F08DD681C85B2700002218D
:100F500001FB1800384407B203E0022000FB0670D2
:100F600007B24C45E7D15A4629462046FFF78FFF86
:100F70003BE0C6EB480007B230E05A46294620461F
:100F8000FFF785FF681C85B2002F23DD601C84B24B
:100F90007000022101FB1800384407B21EE0000077
:100FA0000080082000820820000001A000C002404C
:100FB00070C2024018C102400080092000C00F40EA
:100FC000008C0820A00000109C997400FFFF00FC1A
:100FD0000000DF01022000FB067007B25545CCD1AE
:100FE0005A4629462046FFF752FF00BF8FE72DE9FA
:100FF000FF5F06460F4690469946DDF838B04146F9
:101000006846FFF733F900241DE01DF804A0002511
:1010100016E0C5F107004AFA00F000F0010038B10F
:101020003A1991B2721990B24A46FFF730FF06E0C2
:101030003A1991B2721990B25A46FFF728FF6D1C07
:10104000082DE6D3641C102CDFD3BDE8FF9F2DE9EB
:10105000FE4F06460F4690469946DDF830B04146B1
:101060006846FFF710F9002415E01DF804A00025DC
:101070000EE0C5F107004AFA00F000F0010030B1BF
:101080003A1991B2721990B24A46FFF700FF6D1CEF
:10109000082DEED3641C0C2CE7D3BDE8FE8F2DE9A0
:1010A000F84305460E4614469846DDF8209000BFEA
:1010B00014F8017B43463A4631462846CDF8009065
:1010C000FFF795FFB5F5EC7F03DA05F1080085B26F
:1010D00008E0FF2E04DC002506F1100086B201E0D6
:1010E0000025002620780028E2D1BDE8F8832DE90C
:1010F000FF4F074688469B463C464546BA4646460D
:101100004FF0000915E0A4F1140188B22946029AB3
:10111000FFF7BDFE601C84B2A6F1140081B25046F8
:10112000029AFFF7B4FE701C86B209F101001FFAA3
:1011300080F9B9F1280FE6DB3C464546BA464646FB
:101140004FF000092BE0A5F1140291B2A4F11402B2
:1011500090B25A46FFF79BFE05F1140291B2A4F13A
:10116000140290B25A46FFF792FE601C84B2A6F1B8
:10117000140291B2AAF1140290B25A46FFF787FE08
:10118000A6F1140291B20AF1140290B25A46FFF786
:101190007EFE701C86B209F101001FFA80F9B9F1D8
:1011A0000A0FD0DB3C464546BA4646464FF000099A
:1011B0002BE0A5F1140291B204F10A0290B25A4652
:1011C000FFF765FE05F1140291B204F10A0290B234
:1011D0005A46FFF75CFE601C84B206F10A0291B227
:1011E000AAF1140290B25A46FFF751FE06F10A0224
:1011F00091B20AF1140290B25A46FFF748FE701CF1
:1012000086B209F101001FFA80F9B9F10A0FD0DBAB
:10121000BDE8FF8F10B50246002112E001EB8110FE
:10122000F74B185C1378984209D1507801EB811381
:10123000F34C23445B78984201D1084610BD481C0A
:1012400081B27729EAD30020F8E710B502460021E1
:1012500014E001EB0110EB4B13F8100013789842E7
:101260000AD1507801EB0113E64C04EB43035B78A1
:10127000984201D1084610BD481C81B2A729E8D385
:101280000020F8E72DE9F04F04460F461546984632
:10129000A3464FF0000900262DE0099810F80690AB
:1012A0004FF0000A21E009F0800030B1D6483946FD
:1012B00002682046FFF7EBFD05E0D3483946426857
:1012C0002046FFF7E4FD4FEA49604FEA1069601CD1
:1012D00084B2A4EB0B00A84203D15C46781C87B211
:1012E00006E00AF1010000F0FF0ABAF1080FDADBAC
:1012F00000BF701C86B205FB08F0C11700EB5171EE
:10130000B6EBE10FC9DBBDE8F08F2DE9F04F0546E4
:10131000894692469B46A8460026BBF1000F32D173
:1013200000242DE00AEB0A10B64901EB4000801CB6
:10133000065D00271FE006F0800030B1B248494644
:1013400002682846FFF7A3FD05E0AF48494642681A
:101350002846FFF79CFD7006060E681C85B2A5EBBB
:101360000800102805D1454609F101001FFA80F94F
:1013700003E0781CC7B2082FDDDB00BF601CC4B2DD
:10138000202CCFDB31E000242DE00AEB0A109D4930
:1013900001EB4000801C065D00271FE006F0800086
:1013A00030B19948494642682846FFF770FD05E08C
:1013B0009548494602682846FFF769FD7006060E03
:1013C000681C85B2A5EB0800102805D1454609F137
:1013D00001001FFA80F903E0781CC7B2082FDDDB9B
:1013E00000BF601CC4B2202CCFDBBDE8F08F2DE91C
:1013F000F04F0546894692469B46A8460026BBF11B
:10140000000F31D100242CE00AEB8A107C490844FB
:10141000801C065D00271FE006F0800030B17A488E
:10142000494602682846FFF732FD05E076484946FE
:1014300042682846FFF72BFD7006060E681C85B231
:10144000A5EB0800182805D1454609F101001FFA4F
:1014500080F903E0781CC7B2082FDDDB00BF601CF9
:10146000C4B23F2CD0DB30E000242CE00AEB8A1021
:1014700063490844801C065D00271FE006F08000D9
:1014800030B16148494642682846FFF700FD05E053
:101490005D48494602682846FFF7F9FC7006060ECB
:1014A000681C85B2A5EB0800182805D1454609F14E
:1014B00001001FFA80F903E0781CC7B2082FDDDBBA
:1014C00000BF601CC4B23F2CD0DBBDE8F08FF0B58C
:1014D00004460D4616461F463B46224631462846E0
:1014E000FFF785FF1820F0BDF0B504460D461646FF
:1014F0001F463B46224631462846FFF706FF12208C
:10150000F0BD2DE9F84306460D4614461F464FF040
:101510000008C14652E0207800B950E006EB09000F
:1015200086B2207880281ADD06F11800B0F5F07F29
:1015300007DD002605F1160085B2B5F5887F00DDD0
:1015400000252046FFF766FE1FFA80F83B462A4634
:1015500031464046FFF7BBFF8146A41C2DE02078B2
:101560000D280AD105F1160085B2B5F5887F00DD9A
:101570000025641C4FF0000920E020780A2804D1DF
:101580000026641C4FF0000918E006F10C00B0F5CD
:10159000F07F07DD002605F10C0085B2B5F5887FE8
:1015A00000DD002518484068009017482278294639
:1015B00003683046FFF71BFD641C00BFABE700BFAC
:1015C000BDE8F8832DE9F8470546884614464FF0F4
:1015D000000A00263AE0207800B938E02078302868
:1015E00007DB2078392804DC207830381FFA80F9AE
:1015F00014E020782E2809D14FF00A090EE00000EF
:101600009E1D0100D53B01001000001020782D2800
:1016100002D14FF00B0901E04FF00C094FEA4917D6
:10162000F81707EB5070C01000EBC001C1EB801041
:10163000B6490844A919009088B2372320224146B0
:10164000FFF720FE641C06F1200086B2C3E700BF4E
:10165000BDE8F8872DE9F84306460D4614461F46B7
:101660004FF00008C14654E0207800B952E006EB84
:10167000090086B2207880281ADD06F11000B0F546
:10168000F07F07DD002605F1100085B2B5F5887FF3
:1016900000DD00252046FFF7D8FD1FFA80F83B4605
:1016A0002A4631464046FFF71FFF8146A41C2FE023
:1016B00020780D280AD105F1100085B2B5F5887F94
:1016C00000DD0025641C4FF0000922E020780A2884
:1016D00004D10026641C4FF000091AE006F108004E
:1016E000B0F5F07F07DD002605F1080085B2B5F5FD
:1016F000887F00DD00258648406800908448227875
:10170000294603683046FFF772FC641C4FF00A0953
:1017100000BFA9E700BFBDE8F8832DE9F8430646FE
:101720000D4614461F464FF00008C14654E020788D
:1017300000B952E006EB090086B2207880281ADD55
:1017400006F11000B0F5F07F07DD002605F110006E
:1017500085B2B5F5887F00DD00252046FFF775FDD1
:101760001FFA80F83B462A4631464046FFF7BCFE4A
:101770008146A41C2FE020780D280AD105F1100025
:1017800085B2B5F5887F00DD0025641C4FF00009A7
:1017900022E020780A2804D10026641C4FF00009BA
:1017A0001AE006F10800B0F5F07F07DD002605F12C
:1017B000080085B2B5F5887F00DD002554484068F3
:1017C000009053482278294603683046FFF73FFCD3
:1017D000641C4FF0080900BFA9E700BFBDE8F8830B
:1017E000F0B504461D46062A00DD0A2202B9012290
:1017F000052900DD0521914200DD1146002004E0AD
:101800002026444F3E54461CF0B20C28F8D3104614
:101810000FE00A26B4FBF6F706FB17463036471EE4
:10182000DFF8F0C00CF807600A26B4FBF6F4461E99
:10183000F0B20028EDDC89B11346084605E05E1ED3
:10184000344FBE5DFE545E1EF3B2061EA0F10107CA
:10185000F8B2F4D12E262F4FFE5402E020262D4F51
:10186000BE54A5B900200EE02A4E365C302E07D1BA
:10187000284F461CBE5D2E2E02D020263E5400E08E
:1018800004E0461CF0B2561E8642EDDC00BF561C3A
:10189000F2B2104604E000261E4F3E54461CF0B241
:1018A0000C28F8D3F0BD30B51B4A00210CE00478B9
:1018B0002404457844EA0524857844EA050308C2EF
:1018C000401C401C401C491CB1F5FF3FEFD330BD0C
:1018D00070B51149002214E000230CE005782D04B6
:1018E000467845EA0625867845EA060410C1401C7C
:1018F000401C401C5B1CB3F5B57FEFD301F5EC71C8
:10190000521CB2F5887FE7D370BD0000446401002B
:10191000100000100C460010000001A038B5002493
:1019200074E0FE48A10004EB440303EB041301EB55
:101930008301009088B204EB84014C2303EB011176
:101940008AB240F20F13E421FFF775FAF44804EB72
:1019500084014C2303EB01118AB204EB84010901D9
:10196000491C009088B2E3231946FFF7A8FAEC4817
:1019700004EB84014C2303EB01118AB204EB8401D4
:1019800003EB0111009088B240F20F13E321FFF73F
:1019900096FA002004EB84014C2303EB0111491C4F
:1019A0008AB204EB840103EB0111491C009088B258
:1019B00040F20F13E321FFF782FA002004EB8401C9
:1019C0004C2303EB0111891C8AB204EB840103EB65
:1019D0000111891C009088B240F20F13E321FFF738
:1019E0006EFA002004EB84014C2303EB0111C91CA7
:1019F0008AB204EB840103EB0111C91C009088B288
:101A000040F20F13E321FFF75AFA641C062C88D327
:101A100038BD10B5FFF782FFC048C24948606FF07B
:101A20007F4008600023C0A2F1215420FFF712FE7E
:101A30000023BFA2F121A420FFF70CFE10BD70B55A
:101A40000546FFF76BFFB548B64948606FF07F4029
:101A50000860A5B900240FE004EB4401B64B03EB8A
:101A6000410204EB8401542303EB01100023F12114
:101A7000FFF7F0FD601CC4B2052CEDDB14E0002480
:101A800010E0611D01EB4101AB4B03EB410204EBA4
:101A90008401542303EB01100023F121FFF7DAFD49
:101AA000601CC4B2052CECDB70BD10B5FFF736FF2F
:101AB0009A489C4948606FF07F40086000239FA2CD
:101AC000F1215420FFF7C6FD10BD10B5FFF726FF2A
:101AD0009248944948606FF07F400860002399A2C3
:101AE000F1215420FFF7B6FD10BD10B50446FFF7F5
:101AF00015FF002C38D16FF07F408A490860874875
:101B00004860002390A2E7215420FFF7A3FD0023A3
:101B10008FA2FB215420FFF79DFD00238AA2E7211D
:101B2000A420FFF797FD00238BA2FB21A420FFF741
:101B300091FD00238AA2E721F420FFF78BFD00230B
:101B400085A2FB21F420FFF785FD002384A2E72175
:101B50004FF4A270FFF77EFD002383A2FB214FF418
:101B6000A270FFF777FD40E0012C2CD16FF07F4091
:101B70006C4908606948486000237DA2E721542031
:101B8000FFF768FD00237CA2FB215420FFF762FDD4
:101B900000237BA2E721A420FFF75CFD00237AA2AB
:101BA000FB21A420FFF756FD002379A2E7214FF483
:101BB000CA70FFF74FFD002377A2FB214FF4CA70D4
:101BC000FFF748FD11E06FF07F4056490860534829
:101BD0004860002372A2F2215320FFF73BFD00234F
:101BE00071A2F221A320FFF735FD10BD10B5FFF75C
:101BF00095FE6FF07F404B490860484848600023DD
:101C00006BA2E7215420FFF725FD00236AA2FB21E8
:101C10005420FFF71FFD002369A2F1214FF4A270A9
:101C2000FFF718FD002368A2F1214FF4CA70FFF7F7
:101C300011FD10BD10B50446FFF770FE0CB1012C6C
:101C400032D16FF07F403749086034484860002344
:101C50005FA2F1215420FFF7FDFC00235EA2E721E3
:101C6000A420FFF7F7FC00235DA2FB21A420FFF7CF
:101C7000F1FC00235CA2E721F420FFF7EBFC00233A
:101C800057A2FB21F420FFF7E5FC00234CA2F12131
:101C90004FF4A270FFF7DEFC00234BA2F1214FF4BA
:101CA000CA70FFF7D7FC25E06FF07F401D49086040
:101CB0001A484860002346A2F1215420FFF7CAFCCD
:101CC000002347A2E721A420FFF7C4FC002348A279
:101CD000FB21A420FFF7BEFC002339A2F1214FF421
:101CE000A270FFF7B7FC002337A2F1214FF4CA70AE
:101CF000FFF7B0FC10BD10B50446FFF70FFE002C37
:101D00007AD16FF07F40074908600448486000239B
:101D10000DA2E7215420FFF79DFC6EE03800310052
:101D20006843690010000010206DA6B82020000054
:101D300020A6B8200000000055A2010020C8B7C8A6
:101D4000CF2000002A310000B2E2C1BF0000000035
:101D5000CFD4CABE00000000C9E8D6C3000000000E
:101D6000CFB5CDB300000000D0C5CFA20000000069
:101D7000CEC4BCFE00000000B9DCC0ED00000000D5
:101D8000B1A3B4E600000000CAFDBEDD0000000003
:101D9000B8FCB6E00000000020322F320000000046
:101DA0002020C8A1CFFB20002020C8B7C8CF20002A
:101DB000C7E5B3FD00000000B1EDB8F10000000080
:101DC000C9CFD2BBD2B30000CFC2D2BBD2B30000C6
:101DD000C9BEB3FDD0D00000CFDFD0D400000000DA
:101DE000D7D4B6AF00000000B6D4CAFD0000000092
:101DF000B8B4D6C60000000033E00023AFF2B00252
:101E0000FB215420FFF726FC0023AFF2C402E72198
:101E1000A420FFF71FFC0023AFF2C402FB21A42083
:101E2000FFF718FC0023AFF2C802E721F420FFF708
:101E300011FC0023AFF2E002FB21F420FFF70AFCC3
:101E40000023AFF2E402E7214FF4A270FFF702FC97
:101E50000023AFF2EC02FB214FF4A270FFF7FAFB74
:101E600039E0012C37D16FF07F40FE490860FE4811
:101E700048600023AFF20812E7215420FFF7EAFB85
:101E80000023AFF20C12FB215420FFF7E3FB0023E9
:101E9000AFF23412E721A420FFF7DCFB0023AFF2FE
:101EA0004812FB21A420FFF7D5FB0023EFA2F1216C
:101EB000F420FFF7CFFB0023AFF22C12E7214FF401
:101EC000CA70FFF7C7FB0023AFF23412FB214FF4B7
:101ED000CA70FFF7BFFB10BD10B56FF07F40E1493E
:101EE0000860E14848600023AFF2A412E7215420C3
:101EF000FFF7B0FB0023AFF2A812FB215420FFF73D
:101F0000A9FB0023AFF2C012E721A420FFF7A2FB38
:101F10000023AFF2BC12FB21A420FFF79BFB0023A0
:101F2000AFF2C412E721F420FFF794FB0023AFF2D5
:101F3000D812FB21F420FFF78DFB0023AFF2E01253
:101F4000E7214FF4A270FFF785FB0023AFF2E81200
:101F5000FB214FF4A270FFF77DFB10BD08B5C5480B
:101F60001623F022002100900846FEF764FF08BD0A
:101F700008B5C148CA2340F2DF125C21009000205E
:101F8000FEF759FF08BD10B5FFF7E8FFFFF7C6FCE5
:101F9000FFF7EEFF10BD10B5FFF7F5FF6FF07F40C4
:101FA000B0490860B34848600023B44A0421184689
:101FB000FFF750FB6FF07F40AA4908604FF05010C8
:101FC0004860002426E0032C11D204EB8400AC4BC3
:101FD00003EB400204EB440000EBC4001A2303EBC4
:101FE000400081B200231846FFF734FB11E004EBF8
:101FF0008400A34B03EB4002E01E00EB400303EB25
:10200000C0001A2303EB400081B20023FA20FFF73F
:1020100021FB641C062CD6D30020FFF766FD10BD03
:1020200008B59548BE2340F2DF12702100900020D1
:10203000FEF701FF08BD10B5FFF790FFFFF76EFC3C
:10204000FFF7EEFF10BD38B504464FF0501085493C
:1020500048608C4800EB84020123C8211420FFF75C
:10206000F9FA894800EB84020123C8214FF48C70EF
:10207000FFF7F0FA80487B494860844837232822DC
:102080007A2100905020FFF7FDF88148372328225D
:102090007A2100907820FFF7F5F87E483723282230
:1020A0007A2100908C20FFF7EDF838BD10B5FFF7CE
:1020B000C2FF6FF07F406B4908606E4848600023A4
:1020C0006E4A163204211846FFF7C4FA6FF07F40BB
:1020D000644908604FF050104860002422E0032C4F
:1020E0000FD26D4800EBC40204EB440000EBC400C7
:1020F0001A2303EB400081B200231846FFF7AAFA27
:102100000FE0654800EBC402E01E00EB400303EB68
:10211000C0001A2303EB400081B20023FA20FFF72E
:1021200099FA641C072CDAD35C4991F8B803FFF7DD
:102130008AFF0020FFF7D9FC10BD08B54E48A02348
:1021400040F2DF12562100900020FEF774FE4A484C
:10215000E32340F2DF12C12100900020FEF76BFE66
:1021600008BD10B5FFF7FAFEFFF7D8FBFFF7E5FF54
:1021700010BD2DE9F04104460D461646484B1B5D47
:1021800003EB4303474FDA19B1B2A8B20023FFF7BC
:1021900061FABDE8F08110B5FFF7E3FF6FF07F4013
:1021A00030490860334848600023344A2C32042107
:1021B0001846FFF74FFA6FF07F402A4908604FF04A
:1021C0005010486000240EE0C4EBC401364BCA181E
:1021D00004EB84014FF6FF7303EA411000231A2138
:1021E000FFF738FA641C032CEED32C48D0F8C00358
:1021F00000EB400101EBC0002C49421801231A21D9
:102200003C20FFF727FA254A92F80C110023D2F858
:1022100008010622FFF7E4FA0123254A1A21DC20EF
:10222000FFF718FA1D48D0F8100100EB40002149D3
:10223000421801231A214FF49170FFF70BFA174946
:102240001A22D1F8B8034FF49671FFF792FF0023DA
:1022500019A22E211846FFF760FA002317A22E219B
:1022600078202FE01000001038003100B9A4BEDF44
:1022700000000000F352030034346500789D010033
:10228000CD8E010050920100AC920100497701000F
:102290008C8901009F8A0100659A0100D802001014
:1022A000A6A20100BEA20100469F0100BC9301004E
:1022B0000C46001091A2010042494E004C4F57209D
:1022C0005B465D00FFF729FA0023FEA22E21F020D5
:1022D000FFF723FA0023FDA22E214FF4C870FFF769
:1022E0001CFA06243FE0A01F012801D9072802D3C9
:1022F000A01F082803D9F748F749486003E04FF0CA
:102300005010F5494860A01FC0EBC001F34800EB36
:10231000C1004068E0B1A21FC2EBC203EF4A02EB6A
:10232000C302117AA21FC2EBC203EC4A02EBC30242
:10233000012350680622FFF753FAA01FC0EB0010DC
:102340003A3081B20123E64A7820FFF7E6F909E046
:10235000A01FC0EB00103A3081B20123E1A2782027
:10236000FFF7DBF9641C0F2CBDD3DA48DA4948606B
:10237000DE48D0F8440378B1DC4A92F848130123D0
:10238000D2F844030622FFF72BFA0123D44AC421D2
:102390007820FFF7C2F905E00123D2A2C4217820FA
:1023A000FFF7BBF9102447E0A4F11000012801D980
:1023B000072803D3A4F11000082803D9C548C6494B
:1023C000486003E04FF05010C3494860A4F110008A
:1023D000C0EBC001C14800EBC100006A00B3A4F12A
:1023E0001002C2EBC203BD4A02EBC30292F82410F2
:1023F000A4F11002C2EBC203B84A02EBC3020123EC
:10240000106A0622FFF7ECF9A4F11000C0EB0010EF
:102410003A3081B20123B24AFA20FFF77EF90AE08E
:10242000A4F11000C0EB00103A3081B20123ADA23C
:10243000FA20FFF772F9641C192CB5D3A548A649F8
:102440004860AA48D0F8440378B1A84A92F82C13FF
:102450000123D2F828030622FFF7C2F90123A04A7C
:10246000C421FA20FFF759F905E001239DA2C421F8
:10247000FA20FFF752F9012419E0022C05D9082CA3
:1024800003D294489449486003E04FF050109249B9
:102490004860601E00EBC000954BC218C4EB0410EE
:1024A0002B3081B200230820FFF737F9641C0A2C77
:1024B000E3D388488849486000238EA2C421184687
:1024C000FFF72BF900238CA2D4211846FFF725F93A
:1024D00000238BA2D421F020FFF71FF90020FFF783
:1024E00004FB10BD08B57B48A02340F2DF12602139
:1024F00000900020FEF79FFC08BD10B5FFF72EFDF1
:10250000FFF70CFAFFF7EEFF10BD10B5FFF7F5FF70
:102510006FF07F40704908607B48486000237B4A29
:1025200004211846FFF796F86FF07F406A4908606B
:102530004FF050104860002375A21A211846FFF78B
:1025400089F8002374A230212820FFF783F80023A4
:1025500074A230218C20FFF77DF8002373A2302174
:10256000F020FFF777F8002372A230214FF4AA7011
:10257000FFF770F8002371A230214FF4DC70FFF7F1
:1025800069F80020FFF7B1FA10BD08B551489A2349
:1025900040F2DF125A2100900020FEF74CFC08BDEB
:1025A00010B5FFF7DBFCFFF7B9F9FFF7EEFF10BD41
:1025B00010B5FFF7F5FF6FF07F40474908605248BC
:1025C00048600023514A163204211846FFF742F8AA
:1025D0006FF07F40404908604FF050104860002481
:1025E0003AE0092C1AD2022C05D9062C03D239481C
:1025F0003949486003E04FF050103749486004EB18
:1026000084004F4B03EB4002162304FB03F01A3007
:1026100081B200231846FFF71DF81CE0A4F1090061
:10262000022805D9062803D22A482B49486003E02E
:102630004FF050102849486004EB8400404B03EBF6
:102640004002A4F10900162358431A3081B2002336
:10265000FA20FEF7FFFF641C122CC2D30020FFF704
:102660004AFB10BDF8B505464FF050101A494860B6
:102670001E48D0F8B80300EBC000324942180123CD
:102680001A215820FEF7E6FF1848D0F8C00300EBE7
:10269000400101EBC0002C49421801233021582091
:1026A000FEF7D8FF1148D0F8C40300EB400101EB5E
:1026B000C00026494218012346215820FEF7CAFFD0
:1026C0000A4845E0484947485B465D00434F554E40
:1026D00054000000343465001000001004040010A1
:1026E0000C4600102D2D2D2D2D2D0000D802001090
:1026F0007C8E0100326E64004155583A00000000A3
:102700004F55543A00000000F3520300BA9D0100F7
:10271000B7BDCABD203A0000C6B5C2CA5B487A5DE3
:1027200000000000B5E7C6BD5B565D0043705B4628
:102730005D000000445B205D00000000434D500040
:10274000D59A010078910100BC930100E395010046
:10275000D0F8180400EB400101EBC000FE4942181C
:1027600000231A214FF4A970FEF774FFFB48D0F83C
:10277000200400EB400101EBC000F949421801239D
:1027800046214FF4A970FEF765FFF448D0F81C0409
:1027900000EB400101EBC000F24942180123302157
:1027A0004FF4A970FEF756FF2878012800D100E009
:1027B000002006461EB1FF20EB49486003E04FF0C1
:1027C0005010E9494860E84840686E234FF4DD72D4
:1027D0005A2100904FF4A970FEF72DFBDF48D0F886
:1027E000280100EB400101EBC000DE494218012343
:1027F0005C214FF4A970FEF72DFFFFF78FF82878C2
:1028000001281BD16FF07F40D7490860D748486046
:10281000002410E004EB440101EBC401D14BCA18C1
:1028200004EB8401542303EB011188B20023F1214E
:10283000FEF710FF641C022CECD302E00020FFF72F
:1028400054F9F8BDF8B505464FF05010C649486038
:102850002878012800D100E0002006461EB1FF20A4
:10286000C149486003E04FF05010BF494860BE487E
:1028700040682A234FF4D7721A2100904FF4BE709B
:10288000FEF7D9FAB548D0F85C0300EB400101EB44
:10289000C000B449421801231A214FF4BE70FEF75C
:1028A000D9FEFFF73BF8287801281BD16FF07F4055
:1028B000AD490860AD484860002410E004EB4401D5
:1028C00001EBC401A74BCA1804EB8401542303EBAA
:1028D000011188B20023F121FEF7BCFE641C022C1A
:1028E000ECD302E00020FFF700F9F8BD70B5054613
:1028F000012466E1022C05DD072C03DA9C489A4985
:10290000486003E04FF0501097494860601E9349BB
:1029100091F87D1401EB810100EB410000EB800197
:10292000944800EB81008068401C40B9332000EBE4
:102930000411002390A2F620FEF7EFFE27E0621EAE
:10294000864B93F87D3403EB830302EB430202EBE7
:102950008203884A02EB8302117B621E7F4B93F84D
:102960007D3403EB830302EB430202EB8203814AD3
:1029700002EB8302012390680522FEF731FF33202A
:1029800000EB041100237E4AF620FEF7C6FE601E0F
:10299000724991F87D1401EB810100EB410000EBDD
:1029A0008001784800EB81008068401C48B93320E2
:1029B00000EB0411002370A24FF4AD70FEF7ADFEE2
:1029C00028E0621E654B93F87D3403EB830302EB32
:1029D000430202EB82036B4A02EB8302117B621E0D
:1029E0005E4B93F87D3403EB830302EB430202EB6F
:1029F0008203644A02EB8302012390680522FEF7FA
:102A0000EFFE332000EB041100235D4A4FF4AD705C
:102A1000FEF783FE601E514991F87D1401EB8101A0
:102A200000EB41015848405CFF2809D1332000EBFE
:102A30000411002355A24FF4DF70FEF76EFE1DE077
:102A4000601E464991F87D1401EB810100EB4101C4
:102A50004D48405C48B1332000EB041100234CA2E8
:102A60004FF4DF70FEF759FE08E0332000EB04114D
:102A7000002348A24FF4DF70FEF74FFE022C05DD65
:102A8000072C03DA3A483849486003E04FF0501009
:102A900035494860601E314991F87D1401EB810190
:102AA00000EB41013C48405C1E2808DD332000EB70
:102AB0000411002330A22620FEF72FFE16E0601E30
:102AC000264B93F87D3403EB830300EB430332483A
:102AD000C05C00EB400303EBC000304BC218332056
:102AE00000EB041100232620FEF717FE601E1B4991
:102AF00091F87D1401EB810100EB41012648D230B1
:102B0000405C022808DD332000EB041100231AA2E8
:102B10009220FEF702FE17E0601E104B93F87D3402
:102B200003EB830300EB43031B48D230C05C00EB94
:102B3000400303EBC0001A4BC218332000EB041112
:102B400000239220FEF7E9FD044991F87D1401EB82
:102B5000810104EB410025E02C960100D802001011
:102B6000A9960100E2960100100000103800310023
:102B700034346500FC0800102D2D2D2D00000000C0
:102B80000C46001064190010CC2900102D00000024
:102B9000500000004600000056070010BC930100E2
:102BA000E3950100012303220021FEF719FE3320E3
:102BB00000EB04110023FE4A0820FEF7AEFD601C66
:102BC000C4B20B2CFFF696AE70BDF8B5054628785A
:102BD000022802D1FFF70AF805E02878022802DD72
:102BE000A878FFF727F82878012805D1A87818B920
:102BF000FF20F049486003E04FF05010ED49486075
:102C0000EC4840682A235E221A2100903620FEF705
:102C100012F9E948D0F8840300EBC000E7494218F4
:102C200000231A213620FEF715FD2878022805D149
:102C3000A87818B9FF20DF49486003E04FF0501032
:102C4000DC494860DB48406842231E223221009064
:102C50000020FEF7F0F80023D9A232211846FEF733
:102C6000F9FC0324D2E12878A04206D1A8780228F2
:102C700003D1FF20CF49486003E04FF05010CD4909
:102C80004860CC4840680090A01E332202EB001040
:102C9000103083B2A01E02EB001081B24FF4997283
:102CA000FA20FEF7C8F8E01EE97801EB810100EB9D
:102CB000410000EB8001C34800EB81008068401CAC
:102CC00058B9A01E332202EB001081B20023AFF2EC
:102CD0005812FA20FEF721FD25E0E21EEB7803EB07
:102CE000830302EB430202EB8203B64A02EB830248
:102CF000117BE21EEB7803EB830302EB430202EB52
:102D00008203B04A02EB8302012390680522FEF79A
:102D100067FDA01E332202EB001081B20023A44AFB
:102D2000FA20FEF7FAFC2878A04206D1A8780328FA
:102D300003D1FF209F49486003E04FF050109D49A8
:102D400048609C4840680090A01E332202EB0010AF
:102D5000103083B2A01E02EB001081B24FF4C1729A
:102D60004FF4A570FEF767F8E01EE97801EB8101EA
:102D700000EB410000EB8001934800EB810080688C
:102D8000401C60B9A01E332202EB001081B2002368
:102D9000AFF21C224FF4A570FEF7BFFC26E0E21E46
:102DA000EB7803EB830302EB430202EB8203864AD8
:102DB00002EB8302117BE21EEB7803EB830302EB51
:102DC000430202EB8203804A02EB830201239068F4
:102DD0000522FEF705FDA01E332202EB001081B292
:102DE0000023734A4FF4A570FEF797FC2878A042A1
:102DF00006D1A878042803D1FF206E49486003E07B
:102E00004FF050106B4948606A4840680090A01E1F
:102E1000332202EB0010103083B2A01E02EB001030
:102E200081B240F2DF124FF4D270FEF704F8E01ED8
:102E3000E97801EB810100EB41016448405CFF2827
:102E40000CD1A01E332202EB001081B20023AFF29E
:102E5000D8224FF4D270FEF760FC0BE0A01E3322A4
:102E600002EB001081B20023AFF2DC224FF4D270EB
:102E7000FEF753FC2878A04205D1A87818B9FF20A6
:102E80004C49486003E04FF050104A4948604948B7
:102E900040680090A01E332202EB0010103083B275
:102EA000A01E02EB001081B27E222820FDF7C3FF96
:102EB000E01EE97801EB810100EB41014448405CF0
:102EC00030280BDDA01E332202EB001081B200235C
:102ED000AFF25C322820FEF720FC16E0E01EEB7813
:102EE00003EB830300EB43033948C05C00EB400372
:102EF00003EBC000374BC218A01E332303EB0010B6
:102F000081B200232820FEF708FC2878A04206D1D1
:102F1000A878012803D1FF202649486003E04FF03C
:102F2000501024494860234840680090A01E332276
:102F300002EB0010103083B2A01E02EB001081B231
:102F4000C4227E20FDF777FFE01EE97801EB8101C6
:102F500000EB41011E48D230405C02280BDDA01E70
:102F6000332202EB001081B20023AFF2F4327E2054
:102F7000FEF7D3FB17E0E01EEB7803EB830300EBD7
:102F800043031348D230C05C00EB400303EBC000A6
:102F9000114BC218A01E332303EB001081B2002393
:102FA0007E20FEF7BAFB4FF050100249486015E052
:102FB0000C46001010000010D8020010789101009B
:102FC0004E6F2E00FC08001064190010CC29001070
:102FD00056070010BC930100E39501004860E978B2
:102FE00001EB810104EB4101881E01230322002132
:102FF000FEF7F6FBA01E332202EB001081B2002385
:10300000FE4A0820FEF789FB601CC4B20D2CFFF6B7
:103010002AAEF8BDF8B505464FF05010F8494860A3
:103020002878012800D100E0002006461EB1FF20CC
:10303000F349486003E04FF05010F1494860F04810
:1030400040682A2358221A2100903020FDF7F3FE11
:10305000EC4890F87C0400EB8000EB494218012317
:103060001A213020FEF7F6FA2878022801D1012033
:1030700000E0002006461EB1FF20E149486003E061
:103080004FF05010DE494860DD48406840231E2262
:10309000302100900820FDF7CEFE0123AFF2E002C0
:1030A00030210820FEF7D6FAFEF738FC28780128F0
:1030B00019D16FF07F40D2490860D448486000249D
:1030C0000EE004EB8401D04BCA1804EB84015423B6
:1030D00003EB011188B20023F121FEF7BBFA641C57
:1030E000022CEED320E0287802281AD16FF07F401E
:1030F000C3490860C548486000240FE0C4EBC40120
:10310000C34BCA18E11C01EB8101542303EB0111ED
:1031100088B20023F121FEF79DFA641C022CEDD346
:1031200002E06878FEF7E1FCF8BDF8B504462078C7
:10313000012800D100E0002005461DB1FF20B04964
:10314000486003E04FF05010AD494860AC4840681B
:103150002C23C022182100905820FDF76CFEAD48AA
:103160000078C0EBC000AC49421800231A21582057
:10317000FEF770FA2078022801D1012000E000203B
:1031800005461DB1FF209E49486003E04FF05010F6
:103190009B4948609F4A92F868100023506E0422B1
:1031A000FEF71EFB0023954A30215820FEF752FA05
:1031B0009848C06E30B1002398A230218A20FEF7D3
:1031C00049FA05E0002396A230218A20FEF742FA50
:1031D0002078032801D1012000E0002005461DB120
:1031E000FF208749486003E04FF050108449486051
:1031F000884A117B002390680422FEF7F1FA00232D
:103200007E4A46215820FEF725FA8248006930B1EF
:10321000002382A246218A20FEF71CFA05E0002343
:103220007FA246218A20FEF715FA2078042801D1D2
:10323000012000E0002005461DB1FF2070494860D4
:1032400003E04FF050106E4948606D4840682C23F1
:103250004FF4DD72182100904FF4A970FDF7EBFDDB
:103260006C4890F8400000EB400101EBC0006D4954
:10327000421800231A214FF4A970FEF7EBF92078C9
:10328000052801D1012000E0002005461DB1FF20E6
:103290005B49486003E04FF05010594948605D4A6F
:1032A00092F8A0100023D2F89C000422FEF798FAAE
:1032B0000023524A30214FF4A970FEF7CBF90023C6
:1032C00059A230214FF4C170FEF7C4F920780628C6
:1032D00001D1012000E0002005461DB1FF20484932
:1032E000486003E04FF0501045494860494A92F861
:1032F0002C100023906A0422FEF772FA00233F4A42
:1033000046214FF4A970FEF7A5F9002346A24621F5
:103310004FF4C170FEF79EF9FEF700FB207810B164
:1033200001281ED103E00020FEF7DFFB1AE06FF05A
:103330007F40334908603548486000260EE0C6EB00
:10334000C601354BCA1806EB8601542303EB011165
:1033500088B20023F121FEF77DF9761C022EEED310
:1033600000E000BF00BFF8BDF8B505462878012889
:1033700000D100E0002006461EB1FF202049486031
:1033800003E04FF050101E4948601D4840682C2350
:10339000C022182100905820FDF74DFD1D480078EF
:1033A000C0EBC0001C49421800231A215820FEF728
:1033B00051F92878022801D1012000E000200646BA
:1033C0001EB1FF200E49486003E04FF050100C4939
:1033D00048600B4840684223C0222E2100905820AC
:1033E000FDF729FD0B484078C0EBC0000F4942189B
:1033F000002330215820FEF72DF919E00C4600106B
:1034000010000010D8020010F896010038003100BA
:1034100002970100D8010010098F010020A6B80012
:103420006DA6B8002C96010020560000178F0100F1
:103430002878032801D1012000E0002006461EB1B3
:10344000FF20F849486002E0F748F6494860F5482F
:1034500040686E23C0225A2100905820FDF7EBFCF3
:10346000F2488078C0EBC000F149421800235C218B
:103470005820FEF7EFF82878042801D1012000E059
:10348000002006461EB1FF20E649486002E0E648FB
:10349000E4494860E54A117B002390680422FEF766
:1034A0009FF9E04840688423C02270210090582092
:1034B000FDF7C1FC0023DF4A72215820FEF7CAF84D
:1034C000DA48006938B10023AFF2B00272218A20D5
:1034D000FEF7C0F806E00023AFF2BC0272218A209A
:1034E000FEF7B8F82878052801D1012000E0002077
:1034F00006461EB1FF20CB49486003E04FF0501054
:10350000C8494860C7484068B023C0229C21009049
:103510005820FDF790FCC54890F82000C0EBC00093
:10352000C349421800239E215820FEF793F82878BB
:10353000062801D1012000E0002006461EB1FF2030
:10354000B849486003E04FF05010B6494860B74AA8
:1035500092F82C100023906A0422FEF741F9B1483A
:103560004068C623C022B22100905820FDF763FCBA
:103570000023B04AB4215820FEF76CF80023AFF2C4
:103580005812B4218820FEF765F82878072801D161
:10359000012000E0002006461EB1FF20A14948603E
:1035A00003E04FF050109F4948609E4840682C232C
:1035B0004FF4DD72182100904FF4A970FDF73BFC29
:1035C0009A4890F8400000EB400101EBC0009A4996
:1035D000421800231A214FF4A970FEF73BF828780F
:1035E000082801D1012000E0002006461EB1FF207E
:1035F0008C49486003E04FF050108A494860894880
:10360000406842234FF4DD722E2100904FF4A970E0
:10361000FDF711FC854890F84100C0EBC0008749D8
:103620004218002330214FF4A970FEF713F82878D0
:10363000092801D1012000E0002006461EB1FF202C
:103640007849486002E0784876494860774A92F8BD
:103650004C100023906C0422FEF7C2F871484068B9
:103660006E234FF4DD725A2100904FF4A970FDF7DC
:10367000E2FB00236F4A5C214FF4A970FDF7EAFFDB
:103680006A48006D40B10023AFF270225C214FF414
:10369000C270FDF7DFFF07E00023AFF27C225C2160
:1036A0004FF4C270FDF7D6FF28780A2801D1012017
:1036B00000E0002006461EB1FF205A49486002E0A3
:1036C000594858494860594A92F868100023506E8A
:1036D0000422FEF785F85348406884234FF4DD72D6
:1036E000702100904FF4A970FDF7A5FB0023514A0B
:1036F00072214FF4A970FDF7ADFF4C48C06E40B188
:103700000023AFF2E82272214FF4C270FDF7A2FF4E
:1037100007E00023AFF2F82272214FF4C270FDF7E8
:1037200099FF28780B2801D1012000E000200646EF
:103730001EB1FF203B49486003E04FF0501039496B
:1037400048603A4A92F884100023D2F8800004229C
:10375000FEF746F833484068B0234FF4DD729C21F1
:1037600000904FF4A970FDF766FB0023314A9E21BB
:103770004FF4A970FDF76EFF0023AFF254329E2183
:103780004FF4C170FDF766FF28780C2801D10120A5
:1037900000E0002006461EB1FF202249486003E0F9
:1037A0004FF050101F494860204A92F8A0100023A3
:1037B000D2F89C000422FEF713F81A484068C6238A
:1037C0004FF4DD72B22100904FF4A970FDF733FB86
:1037D0000023184AB4214FF4A970FDF73BFF0023E2
:1037E000AFF2BC32B4214FF4C170FDF733FFFEF7E6
:1037F00095F828780D2874D2DFE800F0070B3650D2
:103800006A6B8687A3D0D1D2D3000020FEF773FA6B
:10381000C9E06FF07F400349086009484860002410
:103820001FE000001000001034346500D8010010C3
:10383000258F01000C4600102C9601007F95010099
:1038400038003100C4EBC401FE4BCA1804EB8401FC
:10385000542303EB011188B20023F121FDF7FAFE96
:10386000641C022CEED39EE06FF07F40F6490860A6
:10387000F648486000240EE0C4EBC401F44BCA18BB
:1038800004EB8401542303EB011188B20023F121DE
:10389000FDF7E0FE641C022CEED384E06FF07F4065
:1038A000E9490860E948486000240EE0C4EBC4011F
:1038B000E84BCA1804EB8401542303EB011188B2CE
:1038C0000023F121FDF7C6FE641C022CEED36AE052
:1038D00069E06FF07F40DC490860DC484860002404
:1038E0000FE05FE0C4EBC401DA4BCA1804EB8401BB
:1038F000542303EB011188B20023F121FDF7AAFE46
:10390000641C022CEED34EE04DE06FF07F40CE49B8
:103910000860CE484860002410E004EB440101EB4D
:10392000C401CD4BCA1804EB8401542303EB0111ED
:1039300088B20023F121FDF78DFE641C052CECD329
:1039400031E06FF07F40C0490860C0484860002403
:1039500021E0C24890F8B40001280ED1C4EBC401A4
:10396000BF4BCA1804EB8401542303EB011188B246
:103970000023F121FDF76EFE0CE0BA4901EBC40211
:1039800004EB8401542303EB011188B20023F121DD
:10399000FDF760FE641C042CDBD304E003E002E0CE
:1039A00001E000E000BF00BFF8BD2DE9F041044692
:1039B0000D46164604EB4403AB4FDA19B1B2A8B278
:1039C0000123FDF7AAFEBDE8F081F8B505464FF0EA
:1039D00050109D494860A548D0F8200178B9A34906
:1039E0004122D1F8B8034FF4B471FFF7DEFF9F49CD
:1039F0004122D1F8B803C821FFF7D7FF0CE000231C
:103A00009BA241214FF4B470FDF787FE002398A2DA
:103A10004121C820FDF781FE2878012800D100E06F
:103A2000002006461EB1FF208749486003E04FF0A2
:103A3000501085494860844840682C237022182122
:103A400000904620FDF7F7F98848D0F8B80300EB5E
:103A5000C0008849421801231A214620FDF7FAFDCB
:103A60002878022801D1012000E0002006461EB17E
:103A7000FF207549486003E04FF0501072494860DC
:103A80007A4A92F80C110023D2F808010522FDF7BA
:103A9000A7FE6D4840682A234FF492721A210090C5
:103AA000E220FDF7C8F90123734A1A21E220FDF74D
:103AB000D1FD6E48D0F8100100EB40006F4942186C
:103AC00001231A214FF48E70FDF7C4FD28780328D6
:103AD00001D1012000E0002006461EB1FF205A4916
:103AE000486003E04FF0501057494860564840681E
:103AF0002C234FF4E272182100900801FDF79BF986
:103B00005A48D0F820015E4901EB800201231A21B6
:103B10004FF4C070FDF79EFD2878042801D10120E4
:103B200000E0002006461EB1FF204749486003E040
:103B30004FF0501044494860434840684223702287
:103B40002E2100904620FDF776F94848D0F8000174
:103B500000EB80004B494218002330214620FDF73E
:103B600079FD2878052801D1012000E000200646D3
:103B70001EB1FF203449486003E04FF05010324935
:103B800048603148406842234FF4AB722E210090C8
:103B9000FA20FDF750F93548D0F8280100EB8000F5
:103BA0003849421801233021FA20FDF753FD06243D
:103BB000A1E02878A04203D1FF20234948600CE00F
:103BC000A01F022805D9072803D22F481E494860A4
:103BD00003E04FF050101C4948601B4840680090BB
:103BE000A01FC0EB00105B3083B2A01FC0EB001021
:103BF0004C3081B2DC229820FDF71DF9A01FC0EBEC
:103C0000C001224800EBC1004068C8B1A21FC2EB4E
:103C1000C2031E4A02EBC302117AA21FC2EBC20307
:103C20001A4A02EBC302002350680522FDF7D8FDB3
:103C3000A01FC0EB00104C3081B2012314A229E078
:103C40004EE00000098F0100100000103800310024
:103C5000178F0100258F01002C960100D80100105C
:103C60007F9501009B950100BEA20100D8020010C3
:103C700025000000789101000C46001091A201007F
:103C8000FFA00100419701003434650004040010D6
:103C90002D0000009820FDF740FDA01FC0EB001094
:103CA0004C3081B20123FE4AA020FDF736FDFD48CD
:103CB000D0F82001F0B9A01FC0EBC003FA4800EB18
:103CC000C300C06800EB4000F84BC218A01FC0EB57
:103CD00000104C3081B20123D020FDF71EFD09E019
:103CE000A01FC0EB00104C3081B20123F04AA0208D
:103CF000FDF713FD641C102CFFF45BAF10247DE076
:103D00002878A04203D1FF20EA4948600DE0A4F1E1
:103D10001000022805D9072803D2E748E549486082
:103D200003E04FF05010E3494860E24840680090DB
:103D3000A4F11000C0EB00105F3083B2A4F11000BA
:103D4000C0EB00104C3081B24FF4BE724FF4A07043
:103D5000FDF771F8A4F11000C0EBC001D24800EBF0
:103D6000C100006AE0B3A4F11002C2EBC203CE4A64
:103D700002EBC30292F82410A4F11002C2EBC203BA
:103D8000C94A02EBC3020023106A0522FDF728FD91
:103D9000A4F11000C0EB00104C3081B20023C04AE7
:103DA0004FF4A070FDF7B9FCBE48D0F8200120BB4D
:103DB000A4F11000C0EBC003BB4800EBC300806A55
:103DC00000EB4000B94BC218A4F11000C0EB00108A
:103DD0004C3081B201234FF4B870FDF79EFC0CE02B
:103DE000FFE7A4F11000C0EB00104C3081B20123BA
:103DF000AF4A4FF4A070FDF790FC641C1A2CFFF43E
:103E00007FAFFDF78BFD2878062857D2DFE800F05A
:103E100003070809223C6878FDF76DFF64E063E062
:103E200062E06FF07F40A3490860A4484860002426
:103E30000DE0A34901EB840204EB8401542303EB5E
:103E4000011188B20023F121FDF704FC641C022C4F
:103E5000EFD349E06FF07F4096490860974848608B
:103E600000240EE004EB8401964BCA1804EB840195
:103E7000542303EB011188B20023F121FDF7EAFB83
:103E8000641C022CEED32FE06FF07F40894908605C
:103E90008A48486000240EE004EB8401894BCA186C
:103EA00004EB8401542303EB011188B20023F121B8
:103EB000FDF7D0FB641C022CEED315E0002382A298
:103EC000F1215420FDF7C6FB0023814AE7214FF47E
:103ED000CA70FDF7BFFB00237D4A0832FB214FF477
:103EE000CA70FDF7B7FB00BF00BFF8BD2DE9F04178
:103EF00004460D461646207828B32078042811DDA4
:103F000028460DF0C3FC074606F0F3FA2078162287
:103F1000504300F11A010123614A4FF4A070FDF7EC
:103F200099FB10E030460DF0B1FC074602F000FDB1
:103F300020781622504300F11A010123584A4FF409
:103F4000A070FDF787FBBDE8F08138B50546002479
:103F50002FE02978601C814203D1FF205549486039
:103F600003E04FF0501053494860524840680090B9
:103F7000A01C16225043163083B2601C50431830E8
:103F800081B2E822A020FCF756FF524A115D524A46
:103F900032F8240000230422FDF722FC601C1622C4
:103FA00050431A3081B201233D4AA020FDF752FB55
:103FB000641C062CCDD34FF050103E49486038BDEC
:103FC000F8B505462878012800D100E00020064613
:103FD0001EB1FF203749486003E04FF050103549CB
:103FE0004860344840682C23C0221A2100905A208F
:103FF000FCF721FF3848B83890F8D000C0EBC0007B
:104000003649421800231C215A20FDF723FB28784B
:10401000022801D1012000E0002006461EB1FF2049
:104020002449486003E04FF050102249486021487D
:1040300040684223C022302100905A20FCF7FBFE4A
:104040002548B83890F8D100C0EBC0002449421888
:10405000002332215A20FDF7FDFA2878032801D1E8
:10406000012000E0002006461EB1FF2011494860F3
:1040700003E04FF050100F4948600E484068582345
:10408000C022462100905A20FCF7D5FE1248B838CD
:1040900090F8D200C0EBC00010494218002321E084
:1040A0000C460010D80200100404001091A2010078
:1040B000E4260000100000103434650038003100A0
:1040C000FFA0010041970100C7E5B3FDD0D000007B
:1040D000B01D0000C0A3010090020010258F010058
:1040E0001DA2010048215A20FDF7B4FA28780428BF
:1040F00001D1012000E0002006461EB1FF20F64954
:10410000486003E04FF05010F3494860F2484068BF
:104110006E23C0225C2100905A20FCF78CFEEF48F1
:1041200090F8D300C0EBC000ED49421800235E2197
:104130005A20FDF78FFA2878052801D1012000E0E8
:10414000002006461EB1FF20E349486003E04FF01F
:104150005010E1494860E04840688423C022722141
:1041600000905A20FCF767FEDC4890F8D400DD4947
:1041700001EBC002002374215A20FDF76BFA287866
:10418000062801D1012000E0002006461EB1FF20D4
:10419000D149486003E04FF05010CF494860CE4805
:1041A00040689A236C22882100905A20FCF743FE35
:1041B000CD4901230222C8690021FDF711FB00232C
:1041C000CA4A8A215A20FDF745FA4FF05010C249D9
:1041D00048600023AFF248528A216E20FDF73AFA78
:1041E0002878072801D1012000E0002006461EB1F2
:1041F000FF20B949486003E04FF05010B6494860CD
:10420000B54840689A238A22882100907820FCF7DC
:1042100012FEB5490123022288690021FDF7E0FA68
:104220000023B24A8A217820FDF714FA4FF050108B
:10423000A94948600023AFF2A8528A218C20FDF7DB
:1042400009FA2878082801D1012000E0002006465C
:104250001EB1FF20A049486003E04FF050109E4976
:1042600048609D4840689A23AA228821009098209F
:10427000FCF7E1FD9C4901230222C8680021FDF7FB
:10428000AFFA00209949887000230A468A219820B5
:10429000FDF7E0F92878092801D1012000E000208D
:1042A00006461EB1FF208C49486003E04FF05010D5
:1042B0008949486088484068B0236C229E2100905C
:1042C0005A20FCF7B8FD88490123022288680021A2
:1042D000FDF786FA0023854AA0215A20FDF7BAF996
:1042E0004FF050107C494860002381A2A0216E202D
:1042F000FDF7B0F928780A2801D1012000E000205C
:1043000006461EB1FF207449486003E04FF050108C
:104310007149486070484068B0238A229E2100900D
:104320007820FCF788FD70490123022248680021AB
:10433000FDF756FA00236D4AA0217820FDF78AF98F
:104340004FF0501064494860002369A2A0218C20DE
:10435000FDF780F928780B2801D1012000E000202A
:1043600006461EB1FF205C49486003E04FF0501044
:104370005949486058484068B023AA229E210090BD
:104380009820FCF758FD58490123022208680021B3
:10439000FDF726FA00205549887000230A46A0211F
:1043A0009820FDF757F928780C2801D1012000E06A
:1043B000002006461EB1FF204749486003E04FF049
:1043C00050104549486044484068C623C022B42183
:1043D00000905A20FCF72FFD0023404AD532B62129
:1043E0005A20FDF737F9FDF799FA6FF07F403A4907
:1043F00008604048486028780C287FD2DFE800F049
:1044000006091D3145597F8081828384FDF764FD53
:104410008EE000240EE0C4EBC401314BCA1804EB5B
:104420008401542303EB011188B20023F121FDF72D
:1044300011F9641C022CEED37AE000240EE0C4EBE8
:10444000C4012D4BCA1804EB8401542303EB011162
:1044500088B20023F121FDF7FDF8641C052CEED392
:1044600066E000240EE0C4EBC4011D4BCA1804EB47
:104470008401542303EB011188B20023F121FDF7DD
:10448000E9F8641C022CEED352E000240EE0C4EBE9
:10449000C401134BCA1804EB8401542303EB01112C
:1044A00088B20023F121FDF7D5F8641C022CEED36D
:1044B0003EE000240DE00B4901EBC40204EB840153
:1044C000542303EB011188B20023F121FDF7C2F858
:1044D000641C022CEFD32BE010000010D801001058
:1044E000258F01000DA20100BC4500100C460010F4
:1044F0003A000000380031001DA2010017E000BFA3
:1045000000BF00BF00BF00BF00240DE0FE4901EB6B
:10451000C40204EB8401542303EB011188B200238D
:10452000F121FDF797F8641C022CEFD300E000BFE7
:1045300000BFF8BD10B5FDF711FDFDF7EFF910BD97
:1045400010B5FFF7F7FF6FF07F40F0490860F048C3
:1045500048600023EF4A04211846FDF77BF86FF00E
:104560007F40EA4908604FF05010486000240EE098
:1045700004EB840101EBC401E74BCA1804EB84018E
:104580004905080C00231A21FDF764F8641C032C6C
:10459000EED300240FE004EB840000EBC400DF4BFB
:1045A000C218601C162358431A3081B200231846E3
:1045B000FDF750F8641C062CEDD310BD08B5D848A3
:1045C000B62340F2DF127A2100900020FCF733FC82
:1045D00008BD10B5FDF7C2FCFDF7A0F9FFF7EEFF2F
:1045E00010BD10B5FFF7F5FF6FF07F40C7490860B9
:1045F000C74848600023C74A163204211846FDF711
:1046000029F86FF07F40C14908604FF050104860B2
:1046100000241CE0032C0CD2C24901EBC40204EBC1
:104620008401002303EB411188B21A21FDF712F82F
:104630000CE0BC4901EBC402E11E01EB8101002347
:1046400003EB411188B23021FDF704F8641C062CFD
:10465000E0D3002417E0032C05D9082C03D2B0487E
:10466000AA49486003E04FF05010A8494860AE489E
:1046700000EB8402C4EB0410413081B200231846E1
:10468000FDF74BF8641C0B2CE5D30023A7A24121B6
:10469000A020FDF742F80023A5A241214FF4A0700D
:1046A000FDF73BF8A4491A22D1F8B8034FF49371EF
:1046B000FDF75FFD0020FDF71EFB10BD08B5984813
:1046C000B62340F2DF127A2100900020FCF7B3FB02
:1046D00008BD10B5FDF742FCFDF720F910BD10B57F
:1046E000FFF7F7FF6FF07F4088490860884848600F
:1046F0000023884A2C3204211846FCF7ABFF6FF0E8
:104700007F40824908604FF05010486000238B4A78
:104710001A211846FCF79EFF01240DE004EBC401AA
:10472000864BCA18611E4D2359431E3188B200239F
:104730003021FCF78FFF641C072CEFD30020FDF71E
:10474000DAFA10BD38B500241BE06FF07F4000900E
:10475000601C00EB400202EBC0001A2202EB40009A
:10476000801E83B2601C00EB400202EBC0001A22E4
:1047700002EB4000801E81B2BE225A20FCF79FFB54
:10478000641C072CE1D338BD10B5FDF7E7FBFDF73E
:10479000C5F810BD10B5FFF7F7FF6FF07F405B491C
:1047A00008605B48486000235A4A6E32042118466C
:1047B000FCF750FF6FF07F40544908604FF05010F5
:1047C000486000240FE0C4EBC40000EB40005C4BE9
:1047D000C218162304FB03F01A3081B200231846D6
:1047E000FCF738FF641C042CEDD30023554A5C21F0
:1047F0005A20FCF72FFFFDF76FFB10BD10B5FFF738
:10480000C3FF6FF07F404149086041484860002382
:10481000404A423204211846FCF71CFF6FF07F40EB
:104820003A4908604FF05010486000240FE004EB54
:10483000440000EBC400444BC218162304FB03F0F1
:104840001A3081B200231846FCF704FF641C082CC0
:10485000EDD3FFF777FFFDF73FFB10BD2DE9F34FD9
:1048600083B00C4642F20F716068884206D90A2173
:104870006068B0FBF1F060600420A060A068C0F147
:104880000400A06060680DF055F88146E06828B922
:104890002E4948460DF096F881460EE0E068012862
:1048A0000BD148460CF096FE07460022284B0CF030
:1048B00081FB05460CF0A4F88146A0680CF02AFBA9
:1048C00007463A460B46002022490BF05BFB0546A3
:1048D0000E4648460CF07EFE2A463346CDE90001DE
:1048E0000CF07CF982460CF08BF8814648460CF0BF
:1048F00071FE05460022184B0CF05AFC36D2DFF848
:104900005C9040F6B8302BE0999601001000001042
:10491000F3520300E69D0100709F0100979F010084
:1049200034346500CFA0010037A101004C4F57007F
:104930004849474800000000D80200108FA101003C
:104940003D9C0100CD020010919C010000007A44C2
:1049500080842E4100002440389C7C41C0E1E44B1F
:1049600060600220A0600120E06071E048460CF029
:1049700031FE05460022FE4B0CF01AFC0CD8FD4916
:1049800048460CF0C1FE05460CF09CFF606002201A
:10499000A0600120E0605BE048460CF01BFE05468D
:1049A0000022F54B0CF004FC0CD8F44948460CF0FE
:1049B000ABFE05460CF086FF60600320A06001207E
:1049C000E06045E048460CF005FE05460022EC4B51
:1049D0000CF0EEFB0CD8EB4948460CF095FE054672
:1049E0000CF070FF60600120A0600020E0602FE00C
:1049F00048460CF0EFFD05460022E34B0CF0D8FBD7
:104A00000CD8E24948460CF07FFE05460CF05AFFF0
:104A100060600220A0600020E06019E048460CF0D1
:104A2000D9FD05460022DA4B0CF0C2FB08D84846F7
:104A30000CF048FF60600320A0600020E06007E009
:104A400048460CF03FFF60600320A0600020E0605B
:104A500048460CF037FFA0611C22214603980AF05B
:104A600018F805B0BDE8F08F0146888800B270479D
:104A70002DE9F04105460C46E06870BBA0680528AA
:104A800029D2DFE800F00314151C220060680CF046
:104A900041FA06460022BA4B0CF08AFB04D2BD480C
:104AA00060600020206101E00120206114E013E03B
:104AB0004FF47A716068B0FBF1F060600CE0642143
:104AC0006068B0FBF1F0606006E00A216068B0FB4E
:104AD000F1F0606000E000BF46E0FFE7A068062854
:104AE0003ED2DFE800F0031018192632A9496068A9
:104AF000884202D90846606004E04FF47A71606829
:104B0000484360602FE0606820B10A216068B0FB14
:104B1000F1F0606027E026E042F2107160688842A0
:104B200001D908466060606800EB8000400060606A
:104B300019E06068B0F57A7F02D94FF47A7060604E
:104B400064216068484360600DE06068642801D9B2
:104B5000642060604FF47A7160684843606002E0EE
:104B60008D48606000BF00BF1C222146284609F026
:104B700090FFBDE8F0812DE9F34F83B08A4642F201
:104B80000F71DAF80400884209D90A21DAF8040022
:104B9000B0FBF1F0CAF804000420CAF808004FF492
:104BA0007A71DAF8040000FB01FBDAF80810C1F1B1
:104BB00004000CF0AFF902460B46CDE900010020DD
:104BC00076490BF0DFF904460D4658460CF0A2F981
:104BD000064622462B460CF001F880460CF056F9AA
:104BE00083464EF66020834500D9834642F210701A
:104BF000834508D30220CAF808000A20BBFBF0F066
:104C0000CAF8040004E00320CAF80800CAF804B097
:104C1000CAF818B01C225146039809F03AFF05B0B3
:104C2000BDE8F08F2DE9F05F82460C460020E06081
:104C3000A0680CF07FFE83460CF0CCFC07463A4699
:104C40000B46002055490BF09DF905460CF01EF966
:104C500081466068B0FBF9F9B9F1640F01D902200F
:104C6000A0601C222146504609F013FFBDE8F09FCA
:104C700008B54B48372328225C2100903C20FCF7E4
:104C800001FB4848372328225C2100906420FCF770
:104C9000F9FA454837232822932100903C20FCF75D
:104CA000F1FA424837232822932100906420FCF730
:104CB000E9FA08BD08B53A48372328225C2100905C
:104CC0003C20FCF7DFFA3748372328225C2100908C
:104CD0006420FCF7D7FA3648372328229321009026
:104CE0003C20FCF7CFFA314837232822932100904B
:104CF0006420FCF7C7FA08BD08B5294837232822E5
:104D00005C2100903C20FCF7BDFA2648372328227E
:104D10005C2100906420FCF7B5FA2648372328224E
:104D2000932100903C20FCF7ADFA2048372328223D
:104D3000932100906420FCF7A5FA08BD08B5184837
:104D4000372328225C2100903C20FCF79BFA154871
:104D5000372328225C2100906420FCF793FA164840
:104D600037232822932100903C20FCF78BFA25E082
:104D7000D012634100401C4680842E4100007A44DA
:104D8000006AF8400000C8420088C340000020418B
:104D900000408F40A086010040420F0000002440E8
:104DA000146201002C6301005C7801006687010039
:104DB0006F7901003676010023750100FE48372324
:104DC0002822932100906420FCF75CFA08BD08B506
:104DD000FA48372328225C2100903C20FCF752FA45
:104DE000F748372328225C2100906420FCF74AFA18
:104DF000F44837232822932100903C20FCF742FA04
:104E0000EF4837232822932100906420FCF73AFAD8
:104E100008BD08B5E948372328225C2100903C20D2
:104E2000FCF730FAE648372328225C210090642002
:104E3000FCF728FAE44837232822932100903C20ED
:104E4000FCF720FAE14837232822932100906420C0
:104E5000FCF718FA08BD08B5D848372328225C218A
:104E600000903C20FCF70EFAD548372328225C211D
:104E700000906420FCF706FAD548372328229321B6
:104E800000903C20FCF7FEF9D048372328229321DC
:104E900000906420FCF7F6F908BD08B5CD4837232B
:104EA00028225C2100903C20FCF7ECF9C248372313
:104EB00028225C2100906420FCF7E4F9C4483723E1
:104EC0002822932100903C20FCF7DCF9BF483723CF
:104ED0002822932100906420FCF7D4F908BD08B57E
:104EE000BC48372328225C2100903C20FCF7CAF9FB
:104EF000B148372328225C2100906420FCF7C2F9D6
:104F0000B04837232822932100903C20FCF7BAF9BF
:104F1000A94837232822932100906420FCF7B2F996
:104F200008BD08B5AB48372328225C2100903C20FF
:104F3000FCF7A8F9A048372328225C2100906420C0
:104F4000FCF7A0F99F4837232822932100903C20AA
:104F5000FCF798F9A0483723282293210090642079
:104F6000FCF790F908BD08B59A48372328225C2140
:104F700000903C20FCF786F98F48372328225C21DB
:104F800000906420FCF77EF98F4837232822932174
:104F900000903C20FCF776F98C4837232822932197
:104FA00000906420FCF76EF908BD08B589483723E6
:104FB00028225C2100903C20FCF764F97E483723CE
:104FC00028225C2100906420FCF75CF98348372399
:104FD0002822932100903C20FCF754F97B4837238A
:104FE0002822932100906420FCF74CF908BD08B5F5
:104FF0007848372328225C2100903C20FCF742F9B6
:105000006F48372328225C2100906420FCF73AF98E
:105010006D4837232822932100903C20FCF732F979
:105020006A4837232822932100906420FCF72AF94C
:1050300008BD08B56748372328225C2100903C2032
:10504000FCF720F95E48372328225C210090642079
:10505000FCF718F95E4837232822932100903C2062
:10506000FCF710F959483723282293210090642037
:10507000FCF708F908BD08B55648372328225C21FB
:1050800000903C20FCF7FEF84D48372328225C2195
:1050900000906420FCF7F6F84A4837232822932131
:1050A00000903C20FCF7EEF8454837232822932156
:1050B00000906420FCF7E6F808BD08B545483723A2
:1050C00028225C2100903C20FCF7DCF83C48372388
:1050D00028225C2100906420FCF7D4F8394837235B
:1050E0002822932100903C20FCF7CCF83A48372343
:1050F0002822932100906420FCF7C4F808BD08B56D
:105100003748372328225C2100903C20FCF7BAF86E
:105110002E48372328225C2100906420FCF7B2F847
:105120002D4837232822932100903C20FCF7AAF831
:10513000264837232822932100906420FCF7A2F808
:1051400008BD08B52648372328225C2100903C2062
:10515000FCF798F81D48372328225C210090642032
:10516000FCF790F81F4837232822932100903C2019
:10517000FCF788F8154837232822932100906420F3
:10518000FCF780F808BD08B51748372328225C21B2
:1051900000903C20FCF776F80C48372328225C214D
:1051A00000906420FCF76EF80B48372328229321E7
:1051B00000903C201AE000002C6301001462010002
:1051C000EA710100237501005C7801006687010027
:1051D0006F790100D7700100827A010036760100F4
:1051E000FD720100957B010010740100FCF74AF884
:1051F000F74837232822932100906420FCF742F8D7
:1052000008BD08B5F348372328225C2100903C20D4
:10521000FCF738F8EE48372328225C210090642000
:10522000FCF730F8EC4837232822932100903C20EB
:10523000FCF728F8E64837232822932100906420C1
:10524000FCF720F808BD08B5E448372328225C2184
:1052500000903C20FCF716F8E148372328225C2117
:1052600000904FF4AA70FCF70DF8DE48372328228F
:10527000932100903C20FCF705F8DA4837232822D8
:10528000932100904FF4AA70FBF7FCFFD6480078FA
:1052900048B1CF48372328225C2100904FF4967004
:1052A000FBF7F0FF08E0D148372328225C2100906B
:1052B0004FF49670FBF7E6FF08BD08B5CC483723DE
:1052C0002822932100903C20FBF7DCFFC3483723C2
:1052D00028225C2100903C20FBF7D4FFC5483723EF
:1052E00028225C2100906420FBF7CCFFB8483723CC
:1052F0002822932100906420FBF7C4FF08BD08B565
:10530000B648372328225C2100903C20FBF7BAFFE7
:10531000B948372328225C2100906420FBF7B2FFB4
:10532000B34837232822932100903C20FBF7AAFFA3
:10533000A74837232822932100906420FBF7A2FF7F
:1053400008BD08B5AD48372328225C2100903C20D9
:10535000FBF798FFAA4837232822932100903C208E
:10536000FBF790FF08BD2DE9F84F834617461C4612
:105370004FF00109CA460020A07000BF00F022FFD4
:105380000646FF2EFAD19F4890F8B803A070ECE0D3
:10539000BAF1000F33D04FF0000A6FF07F409A4906
:1053A00008609A484860FCF7B9FAFF2096494860BF
:1053B000084640682C23C022182100905820FBF793
:1053C0003AFDA07800EBC0009149421801231A2150
:1053D0005820FCF73FF98D488B49486000250CE0C8
:1053E00007EBC50205EB8501542303EB01100023F5
:1053F000F121FCF72FF9681CC5B2052DF0DB00F098
:10540000E1FE0646FF2E02D14FF0000801E008F150
:105410000108B8F1030FBAD14FF0010A00F0F6FE0F
:105420000B2E79D00CDC032E77D004DC012E59D062
:10543000022E73D18DE0092E0FD00A2EF9D16FE024
:10544000132E70D004DC112E18D0122EF1D185E06D
:10545000192E2DD01B2EECD171E0E0786D49085C3F
:10546000FF2804D0E078085CA0704FF00009A07815
:105470006449C1F8B803FF20A07075E0E178654881
:10548000C01D405CFF2806D0E1786248C01D405C2A
:10549000A0704FF00009A0785A49C1F8B803E1782C
:1054A0005C481530405CFF2801D0FF20A0705BE015
:1054B000E17858480E30405CFF2806D0E178554826
:1054C0000E30405CA0704FF00009A0784D49C1F843
:1054D000B803E1784F481530405CFF2801D0FF2029
:1054E000A07041E0E1784B481530405CFF2806D0C1
:1054F000E17848481530405CA0704FF00009A07872
:105500004049C1F8B803E17842481530405CFF28B3
:1055100001D0FF20A07027E00BE015E023E002E0BF
:105520004FF0000920E006203B4908604FF00009D9
:105530001AE00520384908604FF0000914E04FF0E8
:105540000009002020700FE04FF000090A202070B1
:105550000AE04FF000090220207005E04FF000093A
:105560000020207000E000BF00BFB9F1000F7FF401
:105570000FAFBDE8F88F70B504460D462748007898
:1055800001280DD1264890F8B40048B96FF07F404B
:105590001D490860234A5C218420FCF713F847E08A
:1055A000012C02D00CB1042C02D1FF201649086056
:1055B0001C4A5C218420FCF705F8022C03D0032C44
:1055C00001D0042C30D1FF200F49086030E00000EA
:1055D0006687010010740100957B010023750100AE
:1055E00040850100C58C01006F000010078201009A
:1055F0006F790100EA7101002C6301003676010029
:1056000049770100D8020010100000103800310066
:1056100078910100089301008C00001040000010F8
:10562000D80100100C4600106FF07F40F749086069
:10563000284604F05EFFF648807838B1F5A2932141
:105640006420FBF7BFFF00F0B6FB15E02DB9F1A217
:1056500093216420FBF7B6FF04E0EFA293216420BE
:10566000FBF7B0FF002D05DC15F1C80F02DD00F0DF
:10567000A2FB01E000F093FBE84A93218420FBF7B2
:10568000A1FF6FF07F40E14908604FF05010486083
:105690000023E3A2D2211E20FBF7DCFF70BD30B552
:1056A00085B004460D46E0A003C8CDE90301E0A1A2
:1056B00003C9CDE9010103A8005D40F2131148437D
:1056C000DD490844372328225C2100904FF4BE7046
:1056D000FBF7D8FD01A8405D40F213114843D649BD
:1056E0000844372328225C2100904FF4D270FBF746
:1056F000C9FD05B030BD30B585B004460D46CAA021
:1057000003C8CDE90301CAA103C9CDE9010103A87A
:10571000005D40F213114843C7490844372328224B
:10572000932100904FF4BE70FBF7ACFD01A8405DE3
:1057300040F213114843C0490844372328229321DB
:1057400000904FF4D270FBF79DFD05B030BD3EB523
:105750000446BA4A07CA8DE80700B94890F84000E5
:105760008DF80200BF208DF803006946B54805F0AA
:10577000CFFF3EBD00B587B0142102A809F0BBF9E8
:10578000AE480C300068019060208DF80800AE48EB
:10579000D0F8B80300EB4000AC49085C8DF8090074
:1057A00070208DF80A00A848D0F8B80300EB40003C
:1057B000084440788DF80B0071208DF80C00A24849
:1057C000D0F8B80300EB4000084480788DF80D0055
:1057D00080208DF80E009C4890F8C0038DF80F00D3
:1057E00090208DF81000984890F8C4038DF81100AF
:1057F000A0208DF81200944890F820048DF8130032
:10580000B0208DF81400904890F818048DF8150019
:10581000C0208DF816008C4890F824048DF81700ED
:10582000E0208DF81800884890F8D0038DF80F001C
:1058300080208DF81900BF208DF81A0000208DF807
:105840001B0001A97F4805F063FF07B000BD0EB53E
:105850007A4A103207CA8DE807006946794805F090
:1058600057FF0EBD3EB50446744A1C3207CA8DE888
:1058700007002146764805F04BFF3EBD00B585B0D8
:10588000002001900290039004906C48283000683A
:10589000009010208DF801000D208DF802006D4859
:1058A00000788DF8030002208DF8040000208DF8A8
:1058B0000400BF208DF80A0000208DF80B00694617
:1058C000604805F025FF05B000BD70B504460D46E3
:1058D00004EB4400604942180123C8218020FBF7F3
:1058E000B9FE05EB45005D4942180123C821882017
:1058F000FBF7B0FE70BD70B504460D4604EB4400E6
:10590000554942180023C8214FF4C270FBF7A2FE8C
:1059100005EB4500514942180023C8214FF4C670D9
:10592000FBF798FE70BD00B58DB018224CA107A8FA
:1059300009F0AFF8182250A101A809F0AAF84FF019
:105940005010324948600123514AC8213420FBF7E6
:1059500081FE01234E4A0A32C8214FF49C70FBF7A6
:1059600079FE394AD2F8B82307AB995C484A713AB4
:1059700092F89D00FFF7A9FF334AD2F8B82301AB94
:10598000995C434A713A92F89E00FFF7B4FF0DB05C
:1059900000BD10B5002421E0012C01DD072C01DB46
:1059A000082C03DD3B481949486003E04FF05010D4
:1059B00016494860384951F8240000230622194648
:1059C000FBF70EFFC4EB041000F13A010123134A68
:1059D0004FF4C370FBF7A1FE601CC4B20B2CDBDBE1
:1059E00010BD70B504460D46A9B2A0B201232BA28A
:1059F000FBF730FE70BD70B504460D46A9B2A0B2EB
:105A0000012327A2FBF726FE70BD00001000001046
:105A10006F000010200000002D0000000C46001058
:105A2000546573742E2E2E000C0F1011160E0D00DF
:105A3000121314020B171600C46F0100DCA301003F
:105A4000D801001000C00040D80200105C9E070082
:105A500000C009405C00001091A20100BEA201003C
:105A6000000000000000000101010101010101022C
:105A700002030302020200000606030206060206F3
:105A800002020606060202050405040206060000DC
:105A9000B144001034346500DC45001056000000AD
:105AA0006D41000038B5A34890F8B803A2490870CA
:105AB000A04890F8C00348709E4890F8C4038870CE
:105AC0009C4890F8C803C8709A4890F8D0030871B1
:105AD000984890F818044871964890F82004C871C6
