:020000040000FA
:10000000284D001075A400007DA400007FA400000E
:1000100081A4000083A4000085A40000000000006B
:1000200000000000000000000000000087A40000A5
:1000300089A40000000000008BA40000E15C000027
:100040008FA40000A1090000B5090000C709000045
:10005000D909000039BD00008FA400008FA4000062
:10006000A1BE00008FA400008FA400008FA4000098
:100070008FA400008FA400008FA400008FA40000B4
:100080008FA4000095E400008FA400008FA400005E
:100090008FA400008FA400008FA400008FA4000094
:1000A00099D900008FA400008FA400008FA4000045
:1000B0008FA400008FA400008FA400008FA4000074
:1000C0008FA400008FA400008FA400008FA4000064
:1000D0008FA400008FA40000A90500008FA40000D9
:1000E0008FA4000000F002F800F0B0F80AA090E839
:1000F000000C82448344AAF10107DA4501D100F0E3
:10010000A5F8AFF2090EBAE80F0013F0010F18BFFF
:10011000FB1A43F00103184774A0070094A00700DE
:100120000A444FF0000C10F8013B13F0070408BF1D
:1001300010F8014B1D1108BF10F8015B641E05D0BB
:1001400010F8016B641E01F8016BF9D113F0080F70
:100150001EBF10F8014BAD1C0C1B09D16D1E58BF02
:1001600001F801CBFAD505E014F8016B01F8016B39
:100170006D1EF9D59142D6D37047000000230024AC
:1001800000250026103A28BF78C1FBD8520728BFA7
:1001900030C148BF0B6070476E290EF0248570296E
:1001A0000EF06186662911F0F284652911F0EF8462
:1001B000672911F0EC846129AFF3008003681B0A02
:1001C00028BF41F0800169290EF0608264290EF099
:1001D0005D8275290EF05A826F290EF0EE8578291E
:1001E0000EF02D86E9290EF08985E4290EF086852A
:1001F000F5290EF08385EF290EF0EB85F8290EF036
:100200002C860368DB0928BF41F0800163290FF0C9
:10021000978073290FF09C80E3290FF0A780F329C2
:100220000FF0AC80002070471FB50FF0FDF8040000
:100230000020002110F040FB401C606000200021E5
:1002400010F024FBE0601FBD10B510BD0FF0BEF82C
:100250001146FFF7E9FF00F0D4F90FF09BF903B462
:10026000FFF7F2FF03BC0FF09FF9000070B50546E1
:100270000C46A4F120000B4A02EB00111022284684
:100280000EF034FB70BDA1F1200202EB4202064BDE
:1002900003EB8202136803605368436092688260D4
:1002A0007047000088560100785C01000D4843F655
:1002B000C46102E000220270401C0A1EA1F1010389
:1002C00099B2F7D1084843F6482102E0FF220270B4
:1002D000401C0A1EA1F1010399B2F7D1014B83F82A
:1002E0007C247047D00200104C0700107047704704
:1002F00070470A6802F8010B0A607047FFFFFFFFB2
:1003000040F20120974908609749C1F88401954956
:1003100008310860091D0860091D0860091D086092
:10032000091D0860091D0860091D0860091D086095
:10033000091D0860091D0860091D0860091D086085
:10034000091D0860091D0860091D0860091D086075
:10035000091D0860091D0860091D0860091D086065
:10036000091D0860091D0860091D0860091D086055
:10037000091D0860091D0860091D0860091D086045
:10038000091D0860091D0860091D0860091D086035
:10039000091D0860091D0860091D0860091D086025
:1003A000091D0860091D0860091D0860091D086015
:1003B000091D0860091D0860091D0860091D086005
:1003C000091D0860091D0860091D0860091D0860F5
:1003D000091D0860091D0860091D0860091D0860E5
:1003E000091D0860091D08605E49E43108605D4927
:1003F00040390860091D0860091D086059493039F5
:100400000860584920390860564910390860091DAC
:100410000860091D08605449C1F87C0170472DE946
:10042000F04100BF00BF5148006840F400604F49F0
:10043000C439C1F8C40041F61F704D49086001205D
:100440004C49086000208860FFF75AFF4A4800685E
:100450004A49B0FBF1F74548C438D0F8000100B173
:100460007F084FF47A70B0FBF7F404F11300B0FB8F
:10047000F4F0404908630F2048630020886301209E
:10048000C86304F11300B0FBF4F0801C0864012081
:10049000486404F13E00B0FBF4F0886404F13E00CF
:1004A000B0FBF4F0C8640F20086504F13E00B0FB17
:1004B000F4F0486501208865886240F203303049D5
:1004C00008604FF48D402B49C1F800012C49091FE9
:1004D00008606421002000F0E5F940F2831025490E
:1004E0000862C821002000F0DDF940F20310214924
:1004F000086202204862002600E0761C802EFCD3B1
:1005000041F68465A5F1100085B22D1105FB07F0B9
:100510004FF47A71B0FBF1F085B216484562832042
:10052000144908621748D0F8008000200862144877
:10053000001F006840F40020C1F8000101210020E4
:1005400000F0B0F90121002000F0ACF90848006883
:1005500020F01F0848F011000449C439C1F8DC013B
:10056000BDE8F08180C1024000C00240C4C00F401D
:10057000DCC10F4000C009209800001040420F006D
:1005800004C10920004006A010B5002807DACA06F9
:10059000140EB44A00F00F031B1FD45403E0CA0624
:1005A000130EB14A135410BD10B5012213210020BF
:1005B0000AF0F4F920B3262000F01F020121914037
:1005C000AA4A430942F8231000BF6FF07F4400E0BD
:1005D000641E002CFCD1A648006830B10020A4495C
:1005E00008600F20A349086005E00120A0490860C9
:1005F0000220A04908604FF4002100200AF0F9F918
:1006000010BD1FB500200AF06EFB06460020984979
:1006100008604FF47A70B6FBF0F0451EB5F1807FAC
:1006200000D311E025F07F40401E4FF0E0214861EB
:100630001F214FF0FF30FFF7A7FF00204FF0E02110
:1006400088610720086100BF0122D10400200AF060
:1006500087F901212620FFF797FF262000F01F02CF
:10066000012191404209920002F1E022C2F80011FA
:1006700000BF642005F0CDFB0BF0D6FE05F0B6FC04
:100680000DF01AFF05F004FC05F02CFC05F063FBEF
:100690000BF0A4FA002076490860FFF7C0FE0020A6
:1006A00000F082FA74494869002100F0B6FA01208E
:1006B00000F07AFAFFF7FAFD002005F070FC05F073
:1006C000FCF905F0C3FF0F206A49086050E005F00F
:1006D00025FD0446FF2C03D100206849086004E092
:1006E00066480068401C6549086064480068022844
:1006F00014D10020614908604FF0501000F092FBC7
:1007000022465FA101A80DF083FF00206FF07F4318
:1007100001AA28210090782000F0C1FC554800680B
:100720000A2817D006DC02280BD005280FD006288F
:100730001CD109E00C2810D00F2811D0102815D199
:1007400011E006F008F812E006F0CCFA0FE007F02E
:10075000EFF80CE009F0AFFB09E008F058FE06E006
:1007600008F028FE03E008F0BFFD00E000BF00BF76
:10077000ADE770B5012143A00CF0D8FC0546002D73
:100780000EDD00BF4FF47A624148016828460CF044
:10079000ADFD0446002CF5D128460CF0A8FF00E082
:1007A00070BD00BFFCE72DE9F041012135A00CF040
:1007B000BDFC0746002F25DD4FF47A6234480168FE
:1007C00038460CF093FD022132A00CF0AFFC044639
:1007D000002C11DD002500BF4FF47A622C4801681F
:1007E00020460CF0EDFE064635442D488542F3D3F5
:1007F00020460CF07CFF01E0BDE8F08138460CF0AB
:1008000076FF00E0F8E700BFF6E770B501211DA014
:100810000CF08CFC0646002E20DD02211DA00CF001
:1008200085FC0446002C14DD00BF4FF47A621848A2
:10083000016830460CF05AFD05462A461448016806
:1008400020460CF0BDFE002DEFD120460CF04FFFEE
:1008500000E070BD30460CF04AFF00E0F9E700BF51
:10086000F7E7000018ED00E000E400E080E100E0C0
:1008700078000010880000101800001058000010C8
:10088000253264004D53524541442E5458540000C3
:10089000200100104A4B32353230422E5458540059
:1008A00080969800F8B902224FF040235A60002247
:1008B000DA60B44A12684FF47A73B2FBF3F2521E54
:1008C0004A434FF040239A61FF221A6004225A6182
:1008D00001225A6000BF4FF04022526802F001022C
:1008E000002AF8D15BE001281CD10222A64B5A60F5
:1008F0000022DA60A34A12684FF47A73B2FBF3F273
:10090000521E4A43A04B9A61FF221A6004225A6188
:1009100001225A6000BF9C4A526802F00102002A7C
:10092000F9D13CE002281CD10222984B5A600022E7
:10093000DA60944A12684FF47A73B2FBF3F2521EF3
:100940004A43924B9A61FF221A6004225A610122A3
:100950005A6000BF8D4A526802F00102002AF9D1A4
:100960001DE003281BD10222894B5A600022DA6065
:10097000844A12684FF47A73B2FBF3F2521E4A4370
:10098000834B9A61FF221A6004225A6101225A6045
:1009900000BF7F4A526802F00102002AF9D1704775
:1009A00001204FF0402108607A480068401C7949D6
:1009B0000860704701207449086077480068401C4F
:1009C00075490860704701207049086073480068E5
:1009D000401C72490860704701206D4908607048EA
:1009E0000068401C6E490860704720B901214FF033
:1009F0004022516010E0012803D10121624A516078
:100A00000AE0022803D10121604A516004E0032872
:100A100002D101215E4A5160704720B900214FF098
:100A20004022516010E0012803D10021564A516054
:100A30000AE0022803D10021544A516004E003284F
:100A400002D10021514A51607047014631B94FF03F
:100A50004022506840F00200506016E0012905D1A4
:100A6000494A506840F0020050600EE0022905D16A
:100A7000464A506840F00200506006E0032904D165
:100A8000434A506840F002005060704770B5054618
:100A90000C46F5B900203F4908604248006840F024
:100AA00002004049C439C1F8C4004FF040204068FA
:100AB00040F002004FF0402148604EF65F20C860D1
:100AC0000846846103204861012000F050F80120AD
:100AD00070BD012D1CD100202F49086031480068ED
:100AE00040F004002F49C439C1F8C40026484068CA
:100AF00040F00400244948604EF65F20C860084674
:100B0000846103204861022000F031F80120DFE712
:100B1000022D13D10020214908602248006840F4CA
:100B200080002049C439C1F8C400184884610320FA
:100B30001649486100F01BF80120C9E7032D14D1C4
:100B40000020174908601748006840F40000154964
:100B5000C439C1F8C4000E48846103200C494861BF
:100B6000042000F004F80120B2E70020B0E700F014
:100B70001F02012191404209920002F1E022C2F8D5
:100B8000001170479C0000100080004000000940E8
:100B90000040094000000010040000100800001090
:100BA0000C000010C4C00F4008B5B0B1FC49896901
:100BB00041F00101FA4A916142F21071009108E09E
:100BC000F749896941F40061F54A91610099491E2C
:100BD000009100990029F3D115E0F149896921F4C8
:100BE0000061EF4A916142F21071009102E00099B8
:100BF000491E009100990029F9D1E949896921F03C
:100C00000101E74A916108BDE64A002102E008C8F7
:100C100008C2491C8029FAD370472DE970438146E8
:100C20000D46DFF8848300BF2720E0490861486152
:100C3000DF490860DD49C1F87402DE490860091D1A
:100C40000860091D0860091D0860D8498861C861ED
:100C5000D84948390860091D0860091D0860091D48
:100C60000860091D0860091D0860D04908624862D3
:100C7000D04918310860091D0860CE493039086034
:100C8000091D0860091D0860091D0860C94910395F
:100C90000860C849091F0860C6490C390860091D69
:100CA0000860C249C1F80001C348006C40F002006E
:100CB000C14908640846806D40F00A008865BF4855
:100CC000D0F8C40040F00100BC49C1F8C400BC48E1
:100CD000006820F00100BA4908600020B04988612E
:100CE0000846806920F00E0088610846806940F05F
:100CF0000A0088610846806940F020008861084643
:100D0000806920F0800088610846806920F4807046
:100D100088610846806920F400708861084680690F
:100D200020F4806088610846806920F40060886152
:100D3000A4480068A449B0FBF1F0A049C1F8B8018B
:100D40009748806840F080609549886008468068D0
:100D500020F0200088600846806840F400608860C9
:100D60000846806840F4805088600846806820F417
:100D7000005088600846806820F4804088600846FB
:100D80008068924908408649886008468068904992
:100D9000084383498860002008600846006840F0E6
:100DA0001C5008600846006840F48020086008462F
:100DB000006840F4807008600846006840F07400E5
:100DC0000860002048600846406840F000604860C5
:100DD0000846406840F4002048600846406840F4F7
:100DE000806048600846406840F20F1108436C4933
:100DF000486040460861486115B12846FFF704FF86
:100E0000694E002403E04FF47F0001C6641CB4F572
:100E1000FF3FF8D342F2107400E0641E002CFCD1B6
:100E2000BDE87083604A002101E001C2491CB1F5B0
:100E3000FF3FFAD370472DE9F0411C46069FC1F5EC
:100E4000887CACF1010CCCEB0C1CDFF85C8108EB6E
:100E5000CC18C0F5F07CACF1010C08EB8C0300263B
:100E60000FE0002502E043F804796D1CA2EB000CB2
:100E7000AC45F8D8A2EB000CCCF5F07CA3EB8C03CE
:100E8000761CA4EB010CB445EBD8BDE8F08170B53D
:100E9000454BB0F5F07F02DAB1F5887F00DB70BD1D
:100EA000C0F5F0756D1EC1F58876761EC6EB061688
:100EB00005EB461403EB84031A6000BFEFE72DE94E
:100EC000F04F04460D4691469A46DDF824B04C4555
:100ED00003DD0FFA89F7A146BCB2554503DD0FFAD1
:100EE0008AF7AA46BDB2A9EB04000FFA80F8AAEB74
:100EF000050006B2B8F1000F0BD100BF5A462946D3
:100F00002046FFF7C4FF681C85B2AA45F6DABDE8A3
:100F1000F08F56B900BF5A4629462046FFF7B7FF63
:100F2000601C84B2A145F6DAF1E7B04521DDC8EBDB
:100F3000460007B215E05A4629462046FFF7A7FFAC
:100F4000601C84B2002F08DD681C85B2700002218D
:100F500001FB1800384407B203E0022000FB0670D2
:100F600007B24C45E7D15A4629462046FFF78FFF86
:100F70003BE0C6EB480007B230E05A46294620461F
:100F8000FFF785FF681C85B2002F23DD601C84B24B
:100F90007000022101FB1800384407B21EE0000077
:100FA0000080082000820820000001A000C002404C
:100FB00070C2024018C102400080092000C00F40EA
:100FC000008C08209C0000109C997400FFFF00FC1E
:100FD0000000DF01022000FB067007B25545CCD1AE
:100FE0005A4629462046FFF752FF00BF8FE72DE9FA
:100FF000FF5F06460F4690469946DDF838B04146F9
:101000006846FFF733F900241DE01DF804A0002511
:1010100016E0C5F107004AFA00F000F0010038B10F
:101020003A1991B2721990B24A46FFF730FF06E0C2
:101030003A1991B2721990B25A46FFF728FF6D1C07
:10104000082DE6D3641C102CDFD3BDE8FF9F2DE9EB
:10105000FE4F06460F4690469946DDF830B04146B1
:101060006846FFF710F9002415E01DF804A00025DC
:101070000EE0C5F107004AFA00F000F0010030B1BF
:101080003A1991B2721990B24A46FFF700FF6D1CEF
:10109000082DEED3641C0C2CE7D3BDE8FE8F2DE9A0
:1010A000F84305460E4614469846DDF8209000BFEA
:1010B00014F8017B43463A4631462846CDF8009065
:1010C000FFF795FFB5F5EC7F03DA05F1080085B26F
:1010D00008E0FF2E04DC002506F1100086B201E0D6
:1010E0000025002620780028E2D1BDE8F8832DE90C
:1010F000FF4F074688469B463C464546BA4646460D
:101100004FF0000915E0A4F1140188B22946029AB3
:10111000FFF7BDFE601C84B2A6F1140081B25046F8
:10112000029AFFF7B4FE701C86B209F101001FFAA3
:1011300080F9B9F1280FE6DB3C464546BA464646FB
:101140004FF000092BE0A5F1140291B2A4F11402B2
:1011500090B25A46FFF79BFE05F1140291B2A4F13A
:10116000140290B25A46FFF792FE601C84B2A6F1B8
:10117000140291B2AAF1140290B25A46FFF787FE08
:10118000A6F1140291B20AF1140290B25A46FFF786
:101190007EFE701C86B209F101001FFA80F9B9F1D8
:1011A0000A0FD0DB3C464546BA4646464FF000099A
:1011B0002BE0A5F1140291B204F10A0290B25A4652
:1011C000FFF765FE05F1140291B204F10A0290B234
:1011D0005A46FFF75CFE601C84B206F10A0291B227
:1011E000AAF1140290B25A46FFF751FE06F10A0224
:1011F00091B20AF1140290B25A46FFF748FE701CF1
:1012000086B209F101001FFA80F9B9F10A0FD0DBAB
:10121000BDE8FF8F10B50246002112E001EB8110FE
:10122000F74B185C1378984209D1507801EB811381
:10123000F34C23445B78984201D1084610BD481C0A
:1012400081B27729EAD30020F8E710B502460021E1
:1012500014E001EB0110EB4B13F8100013789842E7
:101260000AD1507801EB0113E64C04EB43035B78A1
:10127000984201D1084610BD481C81B2A729E8D385
:101280000020F8E72DE9F04F04460F461546984632
:10129000A3464FF0000900262DE0099810F80690AB
:1012A0004FF0000A21E009F0800030B1D6483946FD
:1012B00002682046FFF7EBFD05E0D3483946426857
:1012C0002046FFF7E4FD4FEA49604FEA1069601CD1
:1012D00084B2A4EB0B00A84203D15C46781C87B211
:1012E00006E00AF1010000F0FF0ABAF1080FDADBAC
:1012F00000BF701C86B205FB08F0C11700EB5171EE
:10130000B6EBE10FC9DBBDE8F08F2DE9F04F0546E4
:10131000894692469B46A8460026BBF1000F32D173
:1013200000242DE00AEB0A10B64901EB4000801CB6
:10133000065D00271FE006F0800030B1B248494644
:1013400002682846FFF7A3FD05E0AF48494642681A
:101350002846FFF79CFD7006060E681C85B2A5EBBB
:101360000800102805D1454609F101001FFA80F94F
:1013700003E0781CC7B2082FDDDB00BF601CC4B2DD
:10138000202CCFDB31E000242DE00AEB0A109D4930
:1013900001EB4000801C065D00271FE006F0800086
:1013A00030B19948494642682846FFF770FD05E08C
:1013B0009548494602682846FFF769FD7006060E03
:1013C000681C85B2A5EB0800102805D1454609F137
:1013D00001001FFA80F903E0781CC7B2082FDDDB9B
:1013E00000BF601CC4B2202CCFDBBDE8F08F2DE91C
:1013F000F04F0546894692469B46A8460026BBF11B
:10140000000F31D100242CE00AEB8A107C490844FB
:10141000801C065D00271FE006F0800030B17A488E
:10142000494602682846FFF732FD05E076484946FE
:1014300042682846FFF72BFD7006060E681C85B231
:10144000A5EB0800182805D1454609F101001FFA4F
:1014500080F903E0781CC7B2082FDDDB00BF601CF9
:10146000C4B23F2CD0DB30E000242CE00AEB8A1021
:1014700063490844801C065D00271FE006F08000D9
:1014800030B16148494642682846FFF700FD05E053
:101490005D48494602682846FFF7F9FC7006060ECB
:1014A000681C85B2A5EB0800182805D1454609F14E
:1014B00001001FFA80F903E0781CC7B2082FDDDBBA
:1014C00000BF601CC4B23F2CD0DBBDE8F08FF0B58C
:1014D00004460D4616461F463B46224631462846E0
:1014E000FFF785FF1820F0BDF0B504460D461646FF
:1014F0001F463B46224631462846FFF706FF12208C
:10150000F0BD2DE9F84306460D4614461F464FF040
:101510000008C14652E0207800B950E006EB09000F
:1015200086B2207880281ADD06F11800B0F5F07F29
:1015300007DD002605F1160085B2B5F5887F00DDD0
:1015400000252046FFF766FE1FFA80F83B462A4634
:1015500031464046FFF7BBFF8146A41C2DE02078B2
:101560000D280AD105F1160085B2B5F5887F00DD9A
:101570000025641C4FF0000920E020780A2804D1DF
:101580000026641C4FF0000918E006F10C00B0F5CD
:10159000F07F07DD002605F10C0085B2B5F5887FE8
:1015A00000DD002518484068009017482278294639
:1015B00003683046FFF71BFD641C00BFABE700BFAC
:1015C000BDE8F8832DE9F8470546884614464FF0F4
:1015D000000A00263AE0207800B938E02078302868
:1015E00007DB2078392804DC207830381FFA80F9AE
:1015F00014E020782E2809D14FF00A090EE00000EF
:10160000821C0100B93A01001000001020782D283A
:1016100002D14FF00B0901E04FF00C094FEA4917D6
:10162000F81707EB5070C01000EBC001C1EB801041
:10163000B6490844A919009088B2372320224146B0
:10164000FFF720FE641C06F1200086B2C3E700BF4E
:10165000BDE8F8872DE9F84306460D4614461F46B7
:101660004FF00008C14654E0207800B952E006EB84
:10167000090086B2207880281ADD06F11000B0F546
:10168000F07F07DD002605F1100085B2B5F5887FF3
:1016900000DD00252046FFF7D8FD1FFA80F83B4605
:1016A0002A4631464046FFF71FFF8146A41C2FE023
:1016B00020780D280AD105F1100085B2B5F5887F94
:1016C00000DD0025641C4FF0000922E020780A2884
:1016D00004D10026641C4FF000091AE006F108004E
:1016E000B0F5F07F07DD002605F1080085B2B5F5FD
:1016F000887F00DD00258648406800908448227875
:10170000294603683046FFF772FC641C4FF00A0953
:1017100000BFA9E700BFBDE8F8832DE9F8430646FE
:101720000D4614461F464FF00008C14654E020788D
:1017300000B952E006EB090086B2207880281ADD55
:1017400006F11000B0F5F07F07DD002605F110006E
:1017500085B2B5F5887F00DD00252046FFF775FDD1
:101760001FFA80F83B462A4631464046FFF7BCFE4A
:101770008146A41C2FE020780D280AD105F1100025
:1017800085B2B5F5887F00DD0025641C4FF00009A7
:1017900022E020780A2804D10026641C4FF00009BA
:1017A0001AE006F10800B0F5F07F07DD002605F12C
:1017B000080085B2B5F5887F00DD002554484068F3
:1017C000009053482278294603683046FFF73FFCD3
:1017D000641C4FF0080900BFA9E700BFBDE8F8830B
:1017E000F0B504461D46062A00DD0A2202B9012290
:1017F000052900DD0521914200DD1146002004E0AD
:101800002026444F3E54461CF0B20C28F8D3104614
:101810000FE00A26B4FBF6F706FB17463036471EE4
:10182000DFF8F0C00CF807600A26B4FBF6F4461E99
:10183000F0B20028EDDC89B11346084605E05E1ED3
:10184000344FBE5DFE545E1EF3B2061EA0F10107CA
:10185000F8B2F4D12E262F4FFE5402E020262D4F51
:10186000BE54A5B900200EE02A4E365C302E07D1BA
:10187000284F461CBE5D2E2E02D020263E5400E08E
:1018800004E0461CF0B2561E8642EDDC00BF561C3A
:10189000F2B2104604E000261E4F3E54461CF0B241
:1018A0000C28F8D3F0BD30B51B4A00210CE00478B9
:1018B0002404457844EA0524857844EA050308C2EF
:1018C000401C401C401C491CB1F5FF3FEFD330BD0C
:1018D00070B51149002214E000230CE005782D04B6
:1018E000467845EA0625867845EA060410C1401C7C
:1018F000401C401C5B1CB3F5B57FEFD301F5EC71C8
:10190000521CB2F5887FE7D370BD00002863010048
:101910001000001004460010000001A038B500249B
:1019200074E0FE48A10004EB440303EB041301EB55
:101930008301009088B204EB84014C2303EB011176
:101940008AB240F20F13E421FFF775FAF44804EB72
:1019500084014C2303EB01118AB204EB84010901D9
:10196000491C009088B2E3231946FFF7A8FAEC4817
:1019700004EB84014C2303EB01118AB204EB8401D4
:1019800003EB0111009088B240F20F13E321FFF73F
:1019900096FA002004EB84014C2303EB0111491C4F
:1019A0008AB204EB840103EB0111491C009088B258
:1019B00040F20F13E321FFF782FA002004EB8401C9
:1019C0004C2303EB0111891C8AB204EB840103EB65
:1019D0000111891C009088B240F20F13E321FFF738
:1019E0006EFA002004EB84014C2303EB0111C91CA7
:1019F0008AB204EB840103EB0111C91C009088B288
:101A000040F20F13E321FFF75AFA641C062C88D327
:101A100038BD10B5FFF782FFC048C24948606FF07B
:101A20007F4008600023C0A2F1215420FFF712FE7E
:101A30000023BFA2F121A420FFF70CFE10BD70B55A
:101A40000546FFF76BFFB548B64948606FF07F4029
:101A50000860A5B900240FE004EB4401B64B03EB8A
:101A6000410204EB8401542303EB01100023F12114
:101A7000FFF7F0FD601CC4B2052CEDDB14E0002480
:101A800010E0611D01EB4101AB4B03EB410204EBA4
:101A90008401542303EB01100023F121FFF7DAFD49
:101AA000601CC4B2052CECDB70BD10B5FFF736FF2F
:101AB0009A489C4948606FF07F40086000239FA2CD
:101AC000F1215420FFF7C6FD10BD10B5FFF726FF2A
:101AD0009248944948606FF07F400860002399A2C3
:101AE000F1215420FFF7B6FD10BD10B50446FFF7F5
:101AF00015FF002C38D16FF07F408A490860874875
:101B00004860002390A2E7215420FFF7A3FD0023A3
:101B10008FA2FB215420FFF79DFD00238AA2E7211D
:101B2000A420FFF797FD00238BA2FB21A420FFF741
:101B300091FD00238AA2E721F420FFF78BFD00230B
:101B400085A2FB21F420FFF785FD002384A2E72175
:101B50004FF4A270FFF77EFD002383A2FB214FF418
:101B6000A270FFF777FD40E0012C2CD16FF07F4091
:101B70006C4908606948486000237DA2E721542031
:101B8000FFF768FD00237CA2FB215420FFF762FDD4
:101B900000237BA2E721A420FFF75CFD00237AA2AB
:101BA000FB21A420FFF756FD002379A2E7214FF483
:101BB000CA70FFF74FFD002377A2FB214FF4CA70D4
:101BC000FFF748FD11E06FF07F4056490860534829
:101BD0004860002372A2F2215320FFF73BFD00234F
:101BE00071A2F221A320FFF735FD10BD10B5FFF75C
:101BF00095FE6FF07F404B490860484848600023DD
:101C00006BA2E7215420FFF725FD00236AA2FB21E8
:101C10005420FFF71FFD002369A2F1214FF4A270A9
:101C2000FFF718FD002368A2F1214FF4CA70FFF7F7
:101C300011FD10BD10B50446FFF770FE0CB1012C6C
:101C400032D16FF07F403749086034484860002344
:101C50005FA2F1215420FFF7FDFC00235EA2E721E3
:101C6000A420FFF7F7FC00235DA2FB21A420FFF7CF
:101C7000F1FC00235CA2E721F420FFF7EBFC00233A
:101C800057A2FB21F420FFF7E5FC00234CA2F12131
:101C90004FF4A270FFF7DEFC00234BA2F1214FF4BA
:101CA000CA70FFF7D7FC25E06FF07F401D49086040
:101CB0001A484860002346A2F1215420FFF7CAFCCD
:101CC000002347A2E721A420FFF7C4FC002348A279
:101CD000FB21A420FFF7BEFC002339A2F1214FF421
:101CE000A270FFF7B7FC002337A2F1214FF4CA70AE
:101CF000FFF7B0FC10BD10B50446FFF70FFE002C37
:101D00007AD16FF07F40074908600448486000239B
:101D10000DA2E7215420FFF79DFC6EE03800310052
:101D20006843690010000010206DA6B82020000054
:101D300020A6B8200000000012A1010020C8B7C8EA
:101D4000CF2000002A310000B2E2C1BF0000000035
:101D5000CFD4CABE00000000C9E8D6C3000000000E
:101D6000CFB5CDB300000000D0C5CFA20000000069
:101D7000CEC4BCFE00000000B9DCC0ED00000000D5
:101D8000B1A3B4E600000000CAFDBEDD0000000003
:101D9000B8FCB6E00000000020322F320000000046
:101DA0002020C8A1CFFB20002020C8B7C8CF20002A
:101DB000C7E5B3FD00000000B1EDB8F10000000080
:101DC000C9CFD2BBD2B30000CFC2D2BBD2B30000C6
:101DD000C9BEB3FDD0D00000CFDFD0D400000000DA
:101DE000D7D4B6AF00000000B6D4CAFD0000000092
:101DF000B8B4D6C60000000033E00023AFF2B00252
:101E0000FB215420FFF726FC0023AFF2C402E72198
:101E1000A420FFF71FFC0023AFF2C402FB21A42083
:101E2000FFF718FC0023AFF2C802E721F420FFF708
:101E300011FC0023AFF2E002FB21F420FFF70AFCC3
:101E40000023AFF2E402E7214FF4A270FFF702FC97
:101E50000023AFF2EC02FB214FF4A270FFF7FAFB74
:101E600039E0012C37D16FF07F40FE490860FE4811
:101E700048600023AFF20812E7215420FFF7EAFB85
:101E80000023AFF20C12FB215420FFF7E3FB0023E9
:101E9000AFF23412E721A420FFF7DCFB0023AFF2FE
:101EA0004812FB21A420FFF7D5FB0023EFA2F1216C
:101EB000F420FFF7CFFB0023AFF22C12E7214FF401
:101EC000CA70FFF7C7FB0023AFF23412FB214FF4B7
:101ED000CA70FFF7BFFB10BD10B56FF07F40E1493E
:101EE0000860E14848600023AFF2A412E7215420C3
:101EF000FFF7B0FB0023AFF2A812FB215420FFF73D
:101F0000A9FB0023AFF2C012E721A420FFF7A2FB38
:101F10000023AFF2BC12FB21A420FFF79BFB0023A0
:101F2000AFF2C412E721F420FFF794FB0023AFF2D5
:101F3000D812FB21F420FFF78DFB0023AFF2E01253
:101F4000E7214FF4A270FFF785FB0023AFF2E81200
:101F5000FB214FF4A270FFF77DFB10BD08B5C5480B
:101F60001623F022002100900846FEF764FF08BD0A
:101F700008B5C148CA2340F2DF125C21009000205E
:101F8000FEF759FF08BD10B5FFF7E8FFFFF7C6FCE5
:101F9000FFF7EEFF10BD10B5FFF7F5FF6FF07F40C4
:101FA000B0490860B34848600023B44A0421184689
:101FB000FFF750FB6FF07F40AA4908604FF05010C8
:101FC0004860002426E0032C11D204EB8400AC4BC3
:101FD00003EB400204EB440000EBC4001A2303EBC4
:101FE000400081B200231846FFF734FB11E004EBF8
:101FF0008400A34B03EB4002E01E00EB400303EB25
:10200000C0001A2303EB400081B20023FA20FFF73F
:1020100021FB641C062CD6D30020FFF766FD10BD03
:1020200008B59548BE2340F2DF12702100900020D1
:10203000FEF701FF08BD10B5FFF790FFFFF76EFC3C
:10204000FFF7EEFF10BD38B504464FF0501085493C
:1020500048608C4800EB84020123C8211420FFF75C
:10206000F9FA894800EB84020123C8214FF48C70EF
:10207000FFF7F0FA80487B494860844837232822DC
:102080007A2100905020FFF7FDF88148372328225D
:102090007A2100907820FFF7F5F87E483723282230
:1020A0007A2100908C20FFF7EDF838BD10B5FFF7CE
:1020B000C2FF6FF07F406B4908606E4848600023A4
:1020C0006E4A163204211846FFF7C4FA6FF07F40BB
:1020D000644908604FF050104860002422E0032C4F
:1020E0000FD26D4800EBC40204EB440000EBC400C7
:1020F0001A2303EB400081B200231846FFF7AAFA27
:102100000FE0654800EBC402E01E00EB400303EB68
:10211000C0001A2303EB400081B20023FA20FFF72E
:1021200099FA641C072CDAD35C4991F8B803FFF7DD
:102130008AFF0020FFF7D9FC10BD08B54E48A02348
:1021400040F2DF12562100900020FEF774FE4A484C
:10215000E32340F2DF12C12100900020FEF76BFE66
:1021600008BD10B5FFF7FAFEFFF7D8FBFFF7E5FF54
:1021700010BD2DE9F04104460D461646484B1B5D47
:1021800003EB4303474FDA19B1B2A8B20023FFF7BC
:1021900061FABDE8F08110B5FFF7E3FF6FF07F4013
:1021A00030490860334848600023344A2C32042107
:1021B0001846FFF74FFA6FF07F402A4908604FF04A
:1021C0005010486000240EE0C4EBC401364BCA181E
:1021D00004EB84014FF6FF7303EA411000231A2138
:1021E000FFF738FA641C032CEED32C48D0F8C00358
:1021F00000EB400101EBC0002C49421801231A21D9
:102200003C20FFF727FA254A92F80C110023D2F858
:1022100008010622FFF7E4FA0123254A1A21DC20EF
:10222000FFF718FA1D48D0F8100100EB40002149D3
:10223000421801231A214FF49170FFF70BFA174946
:102240001A22D1F8B8034FF49671FFF792FF0023DA
:1022500019A22E211846FFF760FA002317A22E219B
:1022600078202FE01000001038003100B9A4BEDF44
:1022700000000000F352030034346500359C010077
:10228000B18D010034910100909101002D76010083
:10229000708801008389010022990100D00200109A
:1022A00063A101007BA10100039E0100A092010037
:1022B000044600104EA1010042494E004C4F5720E9
:1022C0005B465D00FFF729FA0023FEA22E21F020D5
:1022D000FFF723FA0023FDA22E214FF4C870FFF769
:1022E0001CFA06243FE0A01F012801D9072802D3C9
:1022F000A01F082803D9F748F749486003E04FF0CA
:102300005010F5494860A01FC0EBC001F34800EB36
:10231000C1004068E0B1A21FC2EBC203EF4A02EB6A
:10232000C302117AA21FC2EBC203EC4A02EBC30242
:10233000012350680622FFF753FAA01FC0EB0010DC
:102340003A3081B20123E64A7820FFF7E6F909E046
:10235000A01FC0EB00103A3081B20123E1A2782027
:10236000FFF7DBF9641C0F2CBDD3DA48DA4948606B
:10237000DE48D0F8440378B1DC4A92F848130123D0
:10238000D2F844030622FFF72BFA0123D44AC421D2
:102390007820FFF7C2F905E00123D2A2C4217820FA
:1023A000FFF7BBF9102447E0A4F11000012801D980
:1023B000072803D3A4F11000082803D9C548C6494B
:1023C000486003E04FF05010C3494860A4F110008A
:1023D000C0EBC001C14800EBC100006A00B3A4F12A
:1023E0001002C2EBC203BD4A02EBC30292F82410F2
:1023F000A4F11002C2EBC203B84A02EBC3020123EC
:10240000106A0622FFF7ECF9A4F11000C0EB0010EF
:102410003A3081B20123B24AFA20FFF77EF90AE08E
:10242000A4F11000C0EB00103A3081B20123ADA23C
:10243000FA20FFF772F9641C192CB5D3A548A649F8
:102440004860AA48D0F8440378B1A84A92F82C13FF
:102450000123D2F828030622FFF7C2F90123A04A7C
:10246000C421FA20FFF759F905E001239DA2C421F8
:10247000FA20FFF752F9012419E0022C05D9082CA3
:1024800003D294489449486003E04FF050109249B9
:102490004860601E00EBC000954BC218C4EB0410EE
:1024A0002B3081B200230820FFF737F9641C0A2C77
:1024B000E3D388488849486000238EA2C421184687
:1024C000FFF72BF900238CA2D4211846FFF725F93A
:1024D00000238BA2D421F020FFF71FF90020FFF783
:1024E00004FB10BD08B57B48A02340F2DF12602139
:1024F00000900020FEF79FFC08BD10B5FFF72EFDF1
:10250000FFF70CFAFFF7EEFF10BD10B5FFF7F5FF70
:102510006FF07F40704908607B48486000237B4A29
:1025200004211846FFF796F86FF07F406A4908606B
:102530004FF050104860002375A21A211846FFF78B
:1025400089F8002374A230212820FFF783F80023A4
:1025500074A230218C20FFF77DF8002373A2302174
:10256000F020FFF777F8002372A230214FF4AA7011
:10257000FFF770F8002371A230214FF4DC70FFF7F1
:1025800069F80020FFF7B1FA10BD08B551489A2349
:1025900040F2DF125A2100900020FEF74CFC08BDEB
:1025A00010B5FFF7DBFCFFF7B9F9FFF7EEFF10BD41
:1025B00010B5FFF7F5FF6FF07F40474908605248BC
:1025C00048600023514A163204211846FFF742F8AA
:1025D0006FF07F40404908604FF050104860002481
:1025E0003AE0092C1AD2022C05D9062C03D239481C
:1025F0003949486003E04FF050103749486004EB18
:1026000084004F4B03EB4002162304FB03F01A3007
:1026100081B200231846FFF71DF81CE0A4F1090061
:10262000022805D9062803D22A482B49486003E02E
:102630004FF050102849486004EB8400404B03EBF6
:102640004002A4F10900162358431A3081B2002336
:10265000FA20FEF7FFFF641C122CC2D30020FFF704
:102660004AFB10BDF8B505464FF050101A494860B6
:102670001E48D0F8B80300EBC000324942180123CD
:102680001A215820FEF7E6FF1848D0F8C00300EBE7
:10269000400101EBC0002C49421801233021582091
:1026A000FEF7D8FF1148D0F8C40300EB400101EB5E
:1026B000C00026494218012346215820FEF7CAFFD0
:1026C0000A4845E0484947485B465D00434F554E40
:1026D000540000003434650010000010FC030010AA
:1026E000044600102D2D2D2D2D2D0000D0020010A0
:1026F000608D0100326E64004155583A00000000C0
:102700004F55543A00000000F3520300779C01003B
:10271000B7BDCABD203A0000C6B5C2CA5B487A5DE3
:1027200000000000B5E7C6BD5B565D0043705B4628
:102730005D000000445B205D00000000434D500040
:10274000929901005C900100A0920100A094010008
:10275000D0F8180400EB400101EBC000FE4942181C
:1027600000231A214FF4A970FEF774FFFB48D0F83C
:10277000200400EB400101EBC000F949421801239D
:1027800046214FF4A970FEF765FFF448D0F81C0409
:1027900000EB400101EBC000F24942180123302157
:1027A0004FF4A970FEF756FF2878012800D100E009
:1027B000002006461EB1FF20EB49486003E04FF0C1
:1027C0005010E9494860E84840686E234FF4DD72D4
:1027D0005A2100904FF4A970FEF72DFBDF48D0F886
:1027E000280100EB400101EBC000DE494218012343
:1027F0005C214FF4A970FEF72DFFFFF78FF82878C2
:1028000001281BD16FF07F40D7490860D748486046
:10281000002410E004EB440101EBC401D14BCA18C1
:1028200004EB8401542303EB011188B20023F1214E
:10283000FEF710FF641C022CECD302E00020FFF72F
:1028400054F9F8BDF8B505464FF05010C649486038
:102850002878012800D100E0002006461EB1FF20A4
:10286000C149486003E04FF05010BF494860BE487E
:1028700040682A234FF4D7721A2100904FF4BE709B
:10288000FEF7D9FAB548D0F85C0300EB400101EB44
:10289000C000B449421801231A214FF4BE70FEF75C
:1028A000D9FEFFF73BF8287801281BD16FF07F4055
:1028B000AD490860AD484860002410E004EB4401D5
:1028C00001EBC401A74BCA1804EB8401542303EBAA
:1028D000011188B20023F121FEF7BCFE641C022C1A
:1028E000ECD302E00020FFF700F9F8BD70B5054613
:1028F000012466E1022C05DD072C03DA9C489A4985
:10290000486003E04FF0501097494860601E9349BB
:1029100091F87D1401EB810100EB410000EB800197
:10292000944800EB81008068401C40B9332000EBE4
:102930000411002390A2F620FEF7EFFE27E0621EAE
:10294000864B93F87D3403EB830302EB430202EBE7
:102950008203884A02EB8302117B621E7F4B93F84D
:102960007D3403EB830302EB430202EB8203814AD3
:1029700002EB8302012390680522FEF731FF33202A
:1029800000EB041100237E4AF620FEF7C6FE601E0F
:10299000724991F87D1401EB810100EB410000EBDD
:1029A0008001784800EB81008068401C48B93320E2
:1029B00000EB0411002370A24FF4AD70FEF7ADFEE2
:1029C00028E0621E654B93F87D3403EB830302EB32
:1029D000430202EB82036B4A02EB8302117B621E0D
:1029E0005E4B93F87D3403EB830302EB430202EB6F
:1029F0008203644A02EB8302012390680522FEF7FA
:102A0000EFFE332000EB041100235D4A4FF4AD705C
:102A1000FEF783FE601E514991F87D1401EB8101A0
:102A200000EB41015848405CFF2809D1332000EBFE
:102A30000411002355A24FF4DF70FEF76EFE1DE077
:102A4000601E464991F87D1401EB810100EB4101C4
:102A50004D48405C48B1332000EB041100234CA2E8
:102A60004FF4DF70FEF759FE08E0332000EB04114D
:102A7000002348A24FF4DF70FEF74FFE022C05DD65
:102A8000072C03DA3A483849486003E04FF0501009
:102A900035494860601E314991F87D1401EB810190
:102AA00000EB41013C48405C1E2808DD332000EB70
:102AB0000411002330A22620FEF72FFE16E0601E30
:102AC000264B93F87D3403EB830300EB430332483A
:102AD000C05C00EB400303EBC000304BC218332056
:102AE00000EB041100232620FEF717FE601E1B4991
:102AF00091F87D1401EB810100EB41012648D230B1
:102B0000405C022808DD332000EB041100231AA2E8
:102B10009220FEF702FE17E0601E104B93F87D3402
:102B200003EB830300EB43031B48D230C05C00EB94
:102B3000400303EBC0001A4BC218332000EB041112
:102B400000239220FEF7E9FD044991F87D1401EB82
:102B5000810104EB410025E0E9940100D00200105E
:102B6000669501009F9501001000001038003100AB
:102B700034346500F40800102D2D2D2D00000000C8
:102B8000044600105C190010C42900102D0000003C
:102B900050000000460000004E070010A092010007
:102BA000A0940100012303220021FEF719FE332027
:102BB00000EB04110023FE4A0820FEF7AEFD601C66
:102BC000C4B20B2CFFF696AE70BDF8B5054628785A
:102BD000022802D1FFF70AF805E02878022802DD72
:102BE000A878FFF727F82878012805D1A87818B920
:102BF000FF20F049486003E04FF05010ED49486075
:102C0000EC4840682A235E221A2100903620FEF705
:102C100012F9E948D0F8840300EBC000E7494218F4
:102C200000231A213620FEF715FD2878022805D149
:102C3000A87818B9FF20DF49486003E04FF0501032
:102C4000DC494860DB48406842231E223221009064
:102C50000020FEF7F0F80023D9A232211846FEF733
:102C6000F9FC0324D2E12878A04206D1A8780228F2
:102C700003D1FF20CF49486003E04FF05010CD4909
:102C80004860CC4840680090A01E332202EB001040
:102C9000103083B2A01E02EB001081B24FF4997283
:102CA000FA20FEF7C8F8E01EE97801EB810100EB9D
:102CB000410000EB8001C34800EB81008068401CAC
:102CC00058B9A01E332202EB001081B20023AFF2EC
:102CD0005812FA20FEF721FD25E0E21EEB7803EB07
:102CE000830302EB430202EB8203B64A02EB830248
:102CF000117BE21EEB7803EB830302EB430202EB52
:102D00008203B04A02EB8302012390680522FEF79A
:102D100067FDA01E332202EB001081B20023A44AFB
:102D2000FA20FEF7FAFC2878A04206D1A8780328FA
:102D300003D1FF209F49486003E04FF050109D49A8
:102D400048609C4840680090A01E332202EB0010AF
:102D5000103083B2A01E02EB001081B24FF4C1729A
:102D60004FF4A570FEF767F8E01EE97801EB8101EA
:102D700000EB410000EB8001934800EB810080688C
:102D8000401C60B9A01E332202EB001081B2002368
:102D9000AFF21C224FF4A570FEF7BFFC26E0E21E46
:102DA000EB7803EB830302EB430202EB8203864AD8
:102DB00002EB8302117BE21EEB7803EB830302EB51
:102DC000430202EB8203804A02EB830201239068F4
:102DD0000522FEF705FDA01E332202EB001081B292
:102DE0000023734A4FF4A570FEF797FC2878A042A1
:102DF00006D1A878042803D1FF206E49486003E07B
:102E00004FF050106B4948606A4840680090A01E1F
:102E1000332202EB0010103083B2A01E02EB001030
:102E200081B240F2DF124FF4D270FEF704F8E01ED8
:102E3000E97801EB810100EB41016448405CFF2827
:102E40000CD1A01E332202EB001081B20023AFF29E
:102E5000D8224FF4D270FEF760FC0BE0A01E3322A4
:102E600002EB001081B20023AFF2DC224FF4D270EB
:102E7000FEF753FC2878A04205D1A87818B9FF20A6
:102E80004C49486003E04FF050104A4948604948B7
:102E900040680090A01E332202EB0010103083B275
:102EA000A01E02EB001081B27E222820FDF7C3FF96
:102EB000E01EE97801EB810100EB41014448405CF0
:102EC00030280BDDA01E332202EB001081B200235C
:102ED000AFF25C322820FEF720FC16E0E01EEB7813
:102EE00003EB830300EB43033948C05C00EB400372
:102EF00003EBC000374BC218A01E332303EB0010B6
:102F000081B200232820FEF708FC2878A04206D1D1
:102F1000A878012803D1FF202649486003E04FF03C
:102F2000501024494860234840680090A01E332276
:102F300002EB0010103083B2A01E02EB001081B231
:102F4000C4227E20FDF777FFE01EE97801EB8101C6
:102F500000EB41011E48D230405C02280BDDA01E70
:102F6000332202EB001081B20023AFF2F4327E2054
:102F7000FEF7D3FB17E0E01EEB7803EB830300EBD7
:102F800043031348D230C05C00EB400303EBC000A6
:102F9000114BC218A01E332303EB001081B2002393
:102FA0007E20FEF7BAFB4FF050100249486015E052
:102FB0000446001010000010D00200105C900100C8
:102FC0004E6F2E00F40800105C190010C429001088
:102FD0004E070010A0920100A09401004860E9781B
:102FE00001EB810104EB4101881E01230322002132
:102FF000FEF7F6FBA01E332202EB001081B2002385
:10300000FE4A0820FEF789FB601CC4B20D2CFFF6B7
:103010002AAEF8BDF8B505464FF05010F8494860A3
:103020002878012800D100E0002006461EB1FF20CC
:10303000F349486003E04FF05010F1494860F04810
:1030400040682A2358221A2100903020FDF7F3FE11
:10305000EC4890F87C0400EB8000EB494218012317
:103060001A213020FEF7F6FA2878022801D1012033
:1030700000E0002006461EB1FF20E149486003E061
:103080004FF05010DE494860DD48406840231E2262
:10309000302100900820FDF7CEFE0123AFF2E002C0
:1030A00030210820FEF7D6FAFEF738FC28780128F0
:1030B00019D16FF07F40D2490860D448486000249D
:1030C0000EE004EB8401D04BCA1804EB84015423B6
:1030D00003EB011188B20023F121FEF7BBFA641C57
:1030E000022CEED320E0287802281AD16FF07F401E
:1030F000C3490860C548486000240FE0C4EBC40120
:10310000C34BCA18E11C01EB8101542303EB0111ED
:1031100088B20023F121FEF79DFA641C022CEDD346
:1031200002E06878FEF7E1FCF8BDF8B504462078C7
:10313000012800D100E0002005461DB1FF20B04964
:10314000486003E04FF05010AD494860AC4840681B
:103150002C23C022182100905820FDF76CFEAD48AA
:103160000078C0EBC000AC49421800231A21582057
:10317000FEF770FA2078022801D1012000E000203B
:1031800005461DB1FF209E49486003E04FF05010F6
:103190009B4948609F4A92F868100023506E0422B1
:1031A000FEF71EFB0023954A30215820FEF752FA05
:1031B0009848C06E30B1002398A230218A20FEF7D3
:1031C00049FA05E0002396A230218A20FEF742FA50
:1031D0002078032801D1012000E0002005461DB120
:1031E000FF208749486003E04FF050108449486051
:1031F000884A117B002390680422FEF7F1FA00232D
:103200007E4A46215820FEF725FA8248006930B1EF
:10321000002382A246218A20FEF71CFA05E0002343
:103220007FA246218A20FEF715FA2078042801D1D2
:10323000012000E0002005461DB1FF2070494860D4
:1032400003E04FF050106E4948606D4840682C23F1
:103250004FF4DD72182100904FF4A970FDF7EBFDDB
:103260006C4890F8400000EB400101EBC0006D4954
:10327000421800231A214FF4A970FEF7EBF92078C9
:10328000052801D1012000E0002005461DB1FF20E6
:103290005B49486003E04FF05010594948605D4A6F
:1032A00092F8A0100023D2F89C000422FEF798FAAE
:1032B0000023524A30214FF4A970FEF7CBF90023C6
:1032C00059A230214FF4C170FEF7C4F920780628C6
:1032D00001D1012000E0002005461DB1FF20484932
:1032E000486003E04FF0501045494860494A92F861
:1032F0002C100023906A0422FEF772FA00233F4A42
:1033000046214FF4A970FEF7A5F9002346A24621F5
:103310004FF4C170FEF79EF9FEF700FB207810B164
:1033200001281ED103E00020FEF7DFFB1AE06FF05A
:103330007F40334908603548486000260EE0C6EB00
:10334000C601354BCA1806EB8601542303EB011165
:1033500088B20023F121FEF77DF9761C022EEED310
:1033600000E000BF00BFF8BDF8B505462878012889
:1033700000D100E0002006461EB1FF202049486031
:1033800003E04FF050101E4948601D4840682C2350
:10339000C022182100905820FDF74DFD1D480078EF
:1033A000C0EBC0001C49421800231A215820FEF728
:1033B00051F92878022801D1012000E000200646BA
:1033C0001EB1FF200E49486003E04FF050100C4939
:1033D00048600B4840684223C0222E2100905820AC
:1033E000FDF729FD0B484078C0EBC0000F4942189B
:1033F000002330215820FEF72DF919E00446001073
:1034000010000010D0020010B59501003800310006
:10341000BF950100D4010010ED8D010020A6B80079
:103420006DA6B800E994010020560000FB8D010054
:103430002878032801D1012000E0002006461EB1B3
:10344000FF20F849486002E0F748F6494860F5482F
:1034500040686E23C0225A2100905820FDF7EBFCF3
:10346000F2488078C0EBC000F149421800235C218B
:103470005820FEF7EFF82878042801D1012000E059
:10348000002006461EB1FF20E649486002E0E648FB
:10349000E4494860E54A117B002390680422FEF766
:1034A0009FF9E04840688423C02270210090582092
:1034B000FDF7C1FC0023DF4A72215820FEF7CAF84D
:1034C000DA48006938B10023AFF2B00272218A20D5
:1034D000FEF7C0F806E00023AFF2BC0272218A209A
:1034E000FEF7B8F82878052801D1012000E0002077
:1034F00006461EB1FF20CB49486003E04FF0501054
:10350000C8494860C7484068B023C0229C21009049
:103510005820FDF790FCC54890F82000C0EBC00093
:10352000C349421800239E215820FEF793F82878BB
:10353000062801D1012000E0002006461EB1FF2030
:10354000B849486003E04FF05010B6494860B74AA8
:1035500092F82C100023906A0422FEF741F9B1483A
:103560004068C623C022B22100905820FDF763FCBA
:103570000023B04AB4215820FEF76CF80023AFF2C4
:103580005812B4218820FEF765F82878072801D161
:10359000012000E0002006461EB1FF20A14948603E
:1035A00003E04FF050109F4948609E4840682C232C
:1035B0004FF4DD72182100904FF4A970FDF73BFC29
:1035C0009A4890F8400000EB400101EBC0009A4996
:1035D000421800231A214FF4A970FEF73BF828780F
:1035E000082801D1012000E0002006461EB1FF207E
:1035F0008C49486003E04FF050108A494860894880
:10360000406842234FF4DD722E2100904FF4A970E0
:10361000FDF711FC854890F84100C0EBC0008749D8
:103620004218002330214FF4A970FEF713F82878D0
:10363000092801D1012000E0002006461EB1FF202C
:103640007849486002E0784876494860774A92F8BD
:103650004C100023906C0422FEF7C2F871484068B9
:103660006E234FF4DD725A2100904FF4A970FDF7DC
:10367000E2FB00236F4A5C214FF4A970FDF7EAFFDB
:103680006A48006D40B10023AFF270225C214FF414
:10369000C270FDF7DFFF07E00023AFF27C225C2160
:1036A0004FF4C270FDF7D6FF28780A2801D1012017
:1036B00000E0002006461EB1FF205A49486002E0A3
:1036C000594858494860594A92F868100023506E8A
:1036D0000422FEF785F85348406884234FF4DD72D6
:1036E000702100904FF4A970FDF7A5FB0023514A0B
:1036F00072214FF4A970FDF7ADFF4C48C06E40B188
:103700000023AFF2E82272214FF4C270FDF7A2FF4E
:1037100007E00023AFF2F82272214FF4C270FDF7E8
:1037200099FF28780B2801D1012000E000200646EF
:103730001EB1FF203B49486003E04FF0501039496B
:1037400048603A4A92F884100023D2F8800004229C
:10375000FEF746F833484068B0234FF4DD729C21F1
:1037600000904FF4A970FDF766FB0023314A9E21BB
:103770004FF4A970FDF76EFF0023AFF254329E2183
:103780004FF4C170FDF766FF28780C2801D10120A5
:1037900000E0002006461EB1FF202249486003E0F9
:1037A0004FF050101F494860204A92F8A0100023A3
:1037B000D2F89C000422FEF713F81A484068C6238A
:1037C0004FF4DD72B22100904FF4A970FDF733FB86
:1037D0000023184AB4214FF4A970FDF73BFF0023E2
:1037E000AFF2BC32B4214FF4C170FDF733FFFEF7E6
:1037F00095F828780D2874D2DFE800F0070B3650D2
:103800006A6B8687A3BDBEBFC0000020FEF773FAB7
:10381000B6E06FF07F400349086009484860002423
:103820001FE000001000001034346500D4010010C7
:10383000098E010004460010E99401006394010020
:1038400038003100C4EBC401FD4BCA1804EB8401FD
:10385000542303EB011188B20023F121FDF7FAFE96
:10386000641C022CEED38BE06FF07F40F5490860BA
:10387000F548486000240EE0C4EBC401F34BCA18BD
:1038800004EB8401542303EB011188B20023F121DE
:10389000FDF7E0FE641C022CEED371E06FF07F4078
:1038A000E8490860E848486000240EE0C4EBC40121
:1038B000E74BCA1804EB8401542303EB011188B2CF
:1038C0000023F121FDF7C6FE641C022CEED357E065
:1038D00056E06FF07F40DB490860DB484860002419
:1038E0000FE04CE0C4EBC401D94BCA1804EB8401CF
:1038F000542303EB011188B20023F121FDF7AAFE46
:10390000641C022CEED33BE03AE06FF07F40CD49DF
:103910000860CD484860002410E004EB440101EB4E
:10392000C401CC4BCA1804EB8401542303EB0111EE
:1039300088B20023F121FDF78DFE641C052CECD329
:103940001EE06FF07F40BF490860BF484860002418
:103950000EE0C4EBC401C04BCA1804EB840154232D
:1039600003EB011188B20023F121FDF773FE641C03
:10397000032CEED304E003E002E001E000E000BF2E
:1039800000BFF8BD2DE9F04104460D46164604EB94
:103990004403B24FDA19B1B2A8B20123FDF7BDFE5C
:1039A000BDE8F081F8B505464FF05010A5494860D4
:1039B000AB48D0F8200178B9A9494122D1F8B80321
:1039C0004FF4B471FFF7DEFFA5494122D1F8B803E7
:1039D000C821FFF7D7FF0CE00023A2A241214FF43A
:1039E000B470FDF79AFE00239EA24121C820FDF786
:1039F00094FE2878012800D100E0002006461EB180
:103A0000FF209049486003E04FF050108D49486016
:103A10008C4840682C237022182100904620FDF726
:103A20000AFA8F48D0F8B80300EBC0008E4942185C
:103A300001231A214620FDF70DFE2878022801D126
:103A4000012000E0002006461EB1FF207D494860AD
:103A500003E04FF050107B494860814A92F80C1106
:103A60000023D2F808010522FDF7BAFE7548406828
:103A70002A234FF492721A210090E220FDF7DBF91D
:103A800001237A4A1A21E220FDF7E4FD7448D0F8B8
:103A9000100100EB40007649421801231A214FF42F
:103AA0008E70FDF7D7FD2878032801D1012000E0B2
:103AB000002006461EB1FF206249486003E04FF037
:103AC0005010604948605F4840682C234FF4E27210
:103AD000182100900801FDF7AEF96148D0F82001E7
:103AE000644901EB800201231A214FF4C070FDF7F5
:103AF000B1FD2878042801D1012000E0002006460D
:103B00001EB1FF204F49486003E04FF050104D496F
:103B100048604C484068422370222E210090462085
:103B2000FDF789F94E48D0F8000100EB80005249BA
:103B30004218002330214620FDF78CFD2878052807
:103B400001D1012000E0002006461EB1FF203D49C2
:103B5000486003E04FF050103A49486039484068E7
:103B600042234FF4AB722E210090FA20FDF763F947
:103B70003B48D0F8280100EB80003F494218012360
:103B80003021FA20FDF766FD06249DE02878A0424A
:103B900003D1FF202B4948600CE0A01F022805D963
:103BA000072803D235482749486003E04FF05010FA
:103BB00024494860234840680090A01FC0EB0010D3
:103BC0005B3083B2A01FC0EB00104C3081B2DC220E
:103BD0009820FDF730F9A01FC0EBC001284800EB8A
:103BE000C100406858B3A21FC2EBC203244A02EBD3
:103BF000C302117AA21FC2EBC203214A02EBC30225
:103C0000002350680522FDF7EBFDA01FC0EB00105C
:103C10004C3081B201231BA29820FDF77EFDA01F2E
:103C2000C0EB00104C3081B20123104AA020FDF7F8
:103C300074FD0B48D0F8200130BBA01F25E038E010
:103C4000ED8D01001000001038003100FB8D0100E7
:103C5000098E0100E9940100639401007BA1010039
:103C6000D0020010250000005C9001000446001006
:103C70004EA10100BC9F0100FE9501003434650097
:103C8000FC0300102D0000001DE0C0EBC003FD4848
:103C900000EBC300C06800EB4000FB4BC218A01F44
:103CA000C0EB00104C3081B20123D020FDF735FD70
:103CB00009E0A01FC0EB00104C3081B20123F34A91
:103CC000A020FDF72AFD641C102CFFF45FAF102428
:103CD0007DE02878A04203D1FF20ED4948600DE047
:103CE000A4F11000022805D9072803D2E948E849C1
:103CF000486003E04FF05010E5494860E4484068F0
:103D00000090A4F11000C0EB00105F3083B2A4F16A
:103D10001000C0EB00104C3081B24FF4BE724FF473
:103D2000A070FDF788F8A4F11000C0EBC001D548E1
:103D300000EBC100006AE0B3A4F11002C2EBC203C1
:103D4000D04A02EBC30292F82410A4F11002C2EB95
:103D5000C203CC4A02EBC3020023106A0522FDF71E
:103D60003FFDA4F11000C0EB00104C3081B20023E5
:103D7000C94A4FF4A070FDF7D0FCC848D0F8200124
:103D800020BBA4F11000C0EBC003BE4800EBC30091
:103D9000806A00EB4000BC4BC218A4F11000C0EBDD
:103DA00000104C3081B201234FF4B870FDF7B5FC20
:103DB0000CE0FFE7A4F11000C0EB00104C3081B222
:103DC0000123B24A4FF4A070FDF7A7FC641C1A2C23
:103DD000FFF47FAFFDF7A2FD2878062857D2DFE871
:103DE00000F003070809223C6878FDF784FF64E0CF
:103DF00063E062E06FF07F40A5490860A848486032
:103E000000240DE0A74901EB840204EB8401542354
:103E100003EB011188B20023F121FDF71BFC641CA8
:103E2000022CEFD349E06FF07F40994908609C482D
:103E3000486000240EE004EB84019B4BCA1804EB9D
:103E40008401542303EB011188B20023F121FDF713
:103E500001FC641C022CEED32FE06FF07F408C49F4
:103E600008608F48486000240EE004EB84018E4B0C
:103E7000CA1804EB8401542303EB011188B2002318
:103E8000F121FDF7E7FB641C022CEED315E00023C3
:103E900086A2F1215420FDF7DDFB0023854AE721AE
:103EA0004FF4CA70FDF7D6FB0023824A0832FB218B
:103EB0004FF4CA70FDF7CEFB00BF00BFF8BD2DE97F
:103EC000F04104460D461646207828B32078042891
:103ED00011DD28460DF04CFC074606F087FA2078E5
:103EE0001622504300F11A0101236B4A4FF4A070CF
:103EF000FDF7B0FB10E030460DF03AFC074602F04B
:103F0000C3FC20781622504300F11A010123624AB3
:103F10004FF4A070FDF79EFBBDE8F08138B5054673
:103F200000242FE02978601C814203D1FF205849EA
:103F3000486003E04FF050105549486054484068CD
:103F40000090A01C16225043163083B2601C5043D0
:103F5000183081B2E822A020FCF76DFF564A115DAF
:103F6000564A32F8240000230422FDF739FC601C75
:103F7000162250431A3081B20123474AA020FDF790
:103F800069FB641C062CCDD34FF0501040494860AB
:103F900038BDF8B505462878012800D100E000209A
:103FA00006461EB1FF203A49486003E04FF050102A
:103FB00037494860364840682C23C0221A210090B7
:103FC0005A20FCF738FF3D48B43890F8CC00C0EBDD
:103FD000C0003B49421800231C215A20FDF73AFB40
:103FE0002878022801D1012000E0002006461EB1F9
:103FF000FF202749486003E04FF0501024494860F3
:10400000234840684223C022302100905A20FCF708
:1040100012FF2A48B43890F8CD00C0EBC0002949FF
:104020004218002332215A20FDF714FB2878032878
:1040300001D1012000E0002006461EB1FF201449F6
:10404000486003E04FF05010114948601048406844
:104050005823C022462100905A20FCF7ECFE174856
:10406000B43890F8CE00C0EBC000154942180023C8
:1040700048215A20FDF7EEFA2878042824D101209F
:1040800023E00000FC0300104EA10100E426000024
:10409000100000103434650004460010D0020010F7
:1040A00038003100BC9F0100FE950100C7E5B3FD5B
:1040B000D0D00000B01D000080A2010088020010D6
:1040C000098E0100DAA00100002006461EB1FF2083
:1040D000F649486003E04FF05010F4494860F34857
:1040E00040686E23C0225C2100905A20FCF7A3FE9A
:1040F000EF4890F8CF00C0EBC000EE494218002313
:104100005E215A20FDF7A6FA2878052801D1012062
:1041100000E0002006461EB1FF20E449486003E0AD
:104120004FF05010E1494860E04840688423C022C5
:10413000722100905A20FCF77EFEDD4890F8D000F6
:10414000DD4901EBC002002374215A20FDF782FAF9
:104150002878062801D1012000E0002006461EB183
:10416000FF20D249486003E04FF05010CF4948602B
:10417000CE4840689A236C22882100905A20FCF790
:104180005AFECE4901230222C8690021FDF728FB0F
:104190000023CB4A8A215A20FDF75CFA4FF05010D9
:1041A000C24948600023AFF224528A216E20FDF7F5
:1041B00051FA2878072801D1012000E000200646A6
:1041C0001EB1FF20B949486003E04FF05010B749D5
:1041D0004860B64840689A238A2288210090782057
:1041E000FCF729FEB5490123022288690021FDF769
:1041F000F7FA0023B24A8A217820FDF72BFA4FF014
:104200005010AA4948600023AFF288528A218C20BE
:10421000FDF720FA2878082801D1012000E00020CD
:1042200006461EB1FF20A149486003E04FF0501040
:104230009E4948609D4840689A23AA2288210090A0
:104240009820FCF7F8FD9D4901230222C86800214F
:10425000FDF7C6FA00209A49887000230A468A2191
:104260009820FDF7F7F92878092801D1012000E00E
:10427000002006461EB1FF208C49486003E04FF045
:1042800050108A49486089484068B0236C229E21BA
:1042900000905A20FCF7CFFD88490123022288684C
:1042A0000021FDF79DFA0023854AA0215A20FDF741
:1042B000D1F94FF050107D494860002381A2A02120
:1042C0006E20FDF7C7F928780A2801D1012000E007
:1042D000002006461EB1FF207449486003E04FF0FD
:1042E00050107249486071484068B0238A229E216C
:1042F00000907820FCF79FFD704901230222486856
:104300000021FDF76DFA00236D4AA0217820FDF70A
:10431000A1F94FF0501065494860002369A2A0211F
:104320008C20FDF797F928780B2801D1012000E0B7
:10433000002006461EB1FF205C49486003E04FF0B4
:1043400050105A49486059484068B023AA229E211B
:1043500000909820FCF76FFD58490123022208685D
:104360000021FDF73DFA00205549887000230A46D8
:10437000A0219820FDF76EF928780C2801D10120A2
:1043800000E0002006461EB1FF204849486003E0D7
:104390004FF050104549486044484068C623C02249
:1043A000B42100905A20FCF746FD0023404AD13248
:1043B000B6215A20FDF74EF9FDF7B0FA6FF07F40B5
:1043C0003A4908604048486028780C286DD2DFE8F8
:1043D00000F006091D3145597F8081828384FDF7F5
:1043E0007BFD8EE000240EE0C4EBC401314BCA1803
:1043F00004EB8401542303EB011188B20023F12163
:10440000FDF728F9641C022CEED37AE000240EE0BC
:10441000C4EBC4012D4BCA1804EB8401542303EBF5
:10442000011188B20023F121FDF714F9641C052C59
:10443000EED366E000240EE0C4EBC4011D4BCA18A5
:1044400004EB8401542303EB011188B20023F12112
:10445000FDF700F9641C022CEED352E000240EE0BC
:10446000C4EBC401134BCA1804EB8401542303EBBF
:10447000011188B20023F121FDF7ECF8641C022C35
:10448000EED33EE000240DE00B4901EBC40204EB47
:104490008401542303EB011188B20023F121FDF7BD
:1044A000D9F8641C022CEFD32BE029E01000001097
:1044B000D4010010098E0100CAA00100B44500100B
:1044C000044600103A00000038003100DAA0010074
:1044D00000BF00BF00BF00BF00BF00240DE0FE49C9
:1044E00001EBC40204EB8401542303EB011188B2F5
:1044F0000023F121FDF7AEF8641C022CEFD300E09D
:1045000000BF00BFF8BD10B5FDF728FDFDF706FAA6
:1045100010BD10B5FFF7F7FF6FF07F40EF4908605F
:10452000EF4848600023EF4A04211846FDF792F84F
:104530006FF07F40E94908604FF050104860002458
:104540000EE004EB840101EBC401E74BCA1804EB55
:1045500084014905080C00231A21FDF77BF8641C2F
:10456000032CEED300240FE004EB840000EBC40026
:10457000DE4BC218601C162358431A3081B2002348
:104580001846FDF767F8641C062CEDD310BD08B57E
:10459000D748B62340F2DF127A2100900020FCF7C2
:1045A0004AFC08BD10B5FDF7D9FCFDF7B7F9FFF7D8
:1045B000EEFF10BD10B5FFF7F5FF6FF07F40C74964
:1045C0000860C74848600023C64A163204211846CE
:1045D000FDF740F86FF07F40C04908604FF0501081
:1045E000486000241CE0032C0CD2C24901EBC40239
:1045F00004EB8401002303EB411188B21A21FDF77B
:1046000029F80CE0BB4901EBC402E11E01EB81017A
:10461000002303EB411188B23021FDF71BF8641C25
:10462000062CE0D3002417E0032C05D9082C03D274
:10463000AF48AA49486003E04FF05010A7494860CE
:10464000AD4800EB8402C4EB0410413081B200237A
:104650001846FDF762F8641C0B2CE5D30023A7A2D3
:104660004121A020FDF759F80023A5A241214FF4D4
:10467000A070FDF752F8A4491A22D1F8B8034FF4FC
:104680009371FDF776FD0020FDF735FB10BD08B5F1
:104690009748B62340F2DF127A2100900020FCF701
:1046A000CAFB08BD10B5FDF759FCFDF737F910BD81
:1046B00010B5FFF7F7FF6FF07F4088490860884822
:1046C00048600023874A2C3204211846FCF7C2FFB9
:1046D0006FF07F40814908604FF050104860002320
:1046E0008A4A1A211846FCF7B5FF01240DE004EBB5
:1046F000C401864BCA18611E4D2359431E3188B22E
:1047000000233021FCF7A6FF641C072CEFD3002008
:10471000FDF7F1FA10BD38B500241BE06FF07F40C3
:104720000090601C00EB400202EBC0001A2202EB7A
:104730004000801E83B2601C00EB400202EBC00010
:104740001A2202EB4000801E81B2BE225A20FCF7E2
:10475000B6FB641C072CE1D338BD10B5FDF7FEFB9A
:10476000FDF7DCF810BD10B5FFF7F7FF6FF07F40E5
:104770005A4908605A48486000235A4A6E32042158
:104780001846FCF767FF6FF07F40544908604FF010
:104790005010486000240FE0C4EBC40000EB400060
:1047A0005B4BC218162304FB03F01A3081B20023BE
:1047B0001846FCF74FFF641C042CEDD30023554A28
:1047C0005C215A20FCF746FFFDF786FB10BD10B5B3
:1047D000FFF7C3FF6FF07F404049086040484860E2
:1047E0000023404A423204211846FCF733FF6FF0A1
:1047F0007F403A4908604FF05010486000240FE0B5
:1048000004EB440000EBC400434BC218162304FB26
:1048100003F01A3081B200231846FCF71BFF641C1A
:10482000082CEDD3FFF777FFFDF756FB10BD2DE900
:10483000F34F83B00C4642F20F716068884206D98C
:104840000A216068B0FBF1F060600420A060A068FD
:10485000C0F10400A06060680CF0DEFF8146E068F3
:1048600028B92E4948460DF01FF881460EE0E06851
:1048700001280BD148460CF01FFE07460022284BAA
:104880000CF00AFB05460CF02DF88146A0680CF0F0
:10489000B3FA07463A460B46002022490BF0E4FAE9
:1048A00005460E4648460CF007FE2A463346CDE93B
:1048B00000010CF005F982460CF014F881464846D8
:1048C0000CF0FAFD05460022174B0CF0E3FB37D243
:1048D000DFF858902CE00000569501001000001001
:1048E000F3520300A39C01002D9E0100549E010081
:1048F000343465008C9F0100F49F01004C4F570039
:104900004849474800000000D00200104CA00100B8
:10491000FA9A0100C50200104E9B010000007A4483
:1049200080842E4100002440389C7C41C0E1E44B4F
:1049300040F6B83060600220A0600120E06071E0C5
:1049400048460CF0B9FD05460022FE4B0CF0A2FBD8
:104950000CD8FD4948460CF049FE05460CF024FFF2
:1049600060600220A0600120E0605BE048460CF03F
:10497000A3FD05460022F54B0CF08CFB0CD8F44946
:1049800048460CF033FE05460CF00EFF6060032035
:10499000A0600120E06045E048460CF08DFD054632
:1049A0000022EC4B0CF076FB0CD8EB4948460CF09F
:1049B0001DFE05460CF0F8FE60600120A06000209E
:1049C000E0602FE048460CF077FD05460022E34BFF
:1049D0000CF060FB0CD8E24948460CF007FE054697
:1049E0000CF0E2FE60600220A0600020E06019E0B0
:1049F00048460CF061FD05460022DA4B0CF04AFBFC
:104A000008D848460CF0D0FE60600320A06000206B
:104A1000E06007E048460CF0C7FE60600320A0603D
:104A20000020E06048460CF0BFFEA0611C22214639
:104A3000039809F0A0FF05B0BDE8F08F0146888813
:104A400000B270472DE9F04105460C46E06870BBA6
:104A5000A068052829D2DFE800F00314151C220005
:104A600060680CF0C9F906460022BA4B0CF012FB44
:104A700004D2BD4860600020206101E00120206177
:104A800014E013E04FF47A716068B0FBF1F06060FD
:104A90000CE064216068B0FBF1F0606006E00A2180
:104AA0006068B0FBF1F0606000E000BF46E0FFE747
:104AB000A06806283ED2DFE800F00310181926325D
:104AC000A9496068884202D90846606004E04FF452
:104AD0007A716068484360602FE0606820B10A2105
:104AE0006068B0FBF1F0606027E026E042F21071F0
:104AF0006068884201D908466060606800EB800009
:104B00004000606019E06068B0F57A7F02D94FF428
:104B10007A70606064216068484360600DE060689E
:104B2000642801D9642060604FF47A71606848435A
:104B3000606002E08D48606000BF00BF1C2221461B
:104B4000284609F018FFBDE8F0812DE9F34F83B046
:104B50008A4642F20F71DAF80400884209D90A2124
:104B6000DAF80400B0FBF1F0CAF804000420CAF837
:104B700008004FF47A71DAF8040000FB01FBDAF860
:104B80000810C1F104000CF037F902460B46CDE9DC
:104B90000001002076490BF067F904460D4658469F
:104BA0000CF02AF9064622462B460BF089FF804678
:104BB0000CF0DEF883464EF66020834500D983462C
:104BC00042F21070834508D30220CAF808000A2078
:104BD000BBFBF0F0CAF8040004E00320CAF80800A8
:104BE000CAF804B0CAF818B01C225146039809F05C
:104BF000C2FE05B0BDE8F08F2DE9F05F82460C469D
:104C00000020E060A0680CF007FE83460CF054FC26
:104C100007463A460B46002055490BF025F9054654
:104C20000CF0A6F881466068B0FBF9F9B9F1640FA1
:104C300001D90220A0601C222146504609F09BFEAB
:104C4000BDE8F09F08B54B48372328225C2100902F
:104C50003C20FCF717FB4848372328225C210090B2
:104C60006420FCF70FFB454837232822932100904E
:104C70003C20FCF707FB4248372328229321009071
:104C80006420FCF7FFFA08BD08B53A48372328220C
:104C90005C2100903C20FCF7F5FA374837232822A6
:104CA0005C2100906420FCF7EDFA36483723282277
:104CB000932100903C20FCF7E5FA31483723282265
:104CC000932100906420FCF7DDFA08BD08B529485F
:104CD000372328225C2100903C20FCF7D3FA264899
:104CE000372328225C2100906420FCF7CBFA264869
:104CF00037232822932100903C20FCF7C3FA204858
:104D000037232822932100906420FCF7BBFA08BDCA
:104D100008B51848372328225C2100903C20FCF776
:104D2000B1FA1548372328225C2100906420FCF753
:104D3000A9FA164837232822932100903C20FCF73B
:104D4000A1FA25E0D012634100401C4680842E4128
:104D500000007A44006AF8400000C8420088C3405E
:104D60000000204100408F40A086010040420F001B
:104D700000002440F860010010620100407701004B
:104D80004A860100537801001A750100077401007A
:104D9000FE4837232822932100906420FCF772FA02
:104DA00008BD08B5FA48372328225C2100903C2032
:104DB000FCF768FAF748372328225C21009064202A
:104DC000FCF760FAF44837232822932100903C2016
:104DD000FCF758FAEF4837232822932100906420EB
:104DE000FCF750FA08BD08B5E948372328225C21B2
:104DF00000903C20FCF746FAE648372328225C2145
:104E000000906420FCF73EFAE448372328229321DF
:104E100000903C20FCF736FAE14837232822932102
:104E200000906420FCF72EFA08BD08B5D848372357
:104E300028225C2100903C20FCF724FAD548372337
:104E400028225C2100906420FCF71CFAD548372307
:104E50002822932100903C20FCF714FAD0483723F5
:104E60002822932100906420FCF70CFA08BD08B5B5
:104E7000CD48372328225C2100903C20FCF702FA21
:104E8000C248372328225C2100906420FCF7FAF9FD
:104E9000C44837232822932100903C20FCF7F2F9E4
:104EA000BF4837232822932100906420FCF7EAF9B9
:104EB00008BD08B5BC48372328225C2100903C205F
:104EC000FCF7E0F9B148372328225C2100906420E8
:104ED000FCF7D8F9B04837232822932100903C20D2
:104EE000FCF7D0F9A94837232822932100906420A9
:104EF000FCF7C8F908BD08B5AB48372328225C2168
:104F000000903C20FCF7BEF9A048372328225C2102
:104F100000906420FCF7B6F99F483723282293219C
:104F200000903C20FCF7AEF9A048372328229321BB
:104F300000906420FCF7A6F908BD08B59A4837230D
:104F400028225C2100903C20FCF79CF98F483723F5
:104F500028225C2100906420FCF794F98F483723C5
:104F60002822932100903C20FCF78CF98C483723B1
:104F70002822932100906420FCF784F908BD08B52D
:104F80008948372328225C2100903C20FCF77AF9DD
:104F90007E48372328225C2100906420FCF772F9B8
:104FA000834837232822932100903C20FCF76AF99C
:104FB0007B4837232822932100906420FCF762F974
:104FC00008BD08B57848372328225C2100903C2092
:104FD000FCF758F96F48372328225C2100906420A1
:104FE000FCF750F96D4837232822932100903C208C
:104FF000FCF748F96A48372328229321009064205F
:10500000FCF740F908BD08B56748372328225C2122
:1050100000903C20FCF736F95E48372328225C21BB
:1050200000906420FCF72EF95E4837232822932154
:1050300000903C20FCF726F9594837232822932179
:1050400000906420FCF71EF908BD08B556483723C8
:1050500028225C2100903C20FCF714F94D483723AE
:1050600028225C2100906420FCF70CF94A48372381
:105070002822932100903C20FCF704F9454837236F
:105080002822932100906420FCF7FCF808BD08B5A5
:105090004548372328225C2100903C20FCF7F2F899
:1050A0003C48372328225C2100906420FCF7EAF872
:1050B000394837232822932100903C20FCF7E2F85E
:1050C0003A4837232822932100906420FCF7DAF82D
:1050D00008BD08B53748372328225C2100903C20C2
:1050E000FCF7D0F82E48372328225C21009064205A
:1050F000FCF7C8F82D4837232822932100903C2044
:10510000FCF7C0F82648372328229321009064201A
:10511000FCF7B8F808BD08B52648372328225C21DB
:1051200000903C20FCF7AEF81D48372328225C2174
:1051300000906420FCF7A6F81F483723282293210B
:1051400000903C20FCF79EF8154837232822932135
:1051500000906420FCF796F808BD08B5174837237F
:1051600028225C2100903C20FCF78CF80C48372367
:1051700028225C2100906420FCF784F80B48372338
:105180002822932100903C201AE0000010620100C8
:10519000F8600100CE700100077401004077010043
:1051A0004A86010053780100BB6F01006679010057
:1051B0001A750100E1710100797A0100F4720100B1
:1051C000FCF760F8F64837232822932100906420EA
:1051D000FCF758F808BD08B5F248372328225C21AF
:1051E00000903C20FCF74EF8ED48372328225C2144
:1051F00000906420FCF746F8EB48372328229321DF
:1052000000903C20FCF73EF8E54837232822932104
:1052100000906420FCF736F808BD08B5E348372352
:1052200028225C2100903C20FCF72CF8E048372332
:1052300028225C2100904FF4AA70FCF723F8DD4887
:1052400037232822932100903C20FCF71BF8D948F3
:1052500037232822932100904FF4AA70FCF712F80C
:10526000D548007848B1CE48372328225C210090E9
:105270004FF49670FCF706F808E0D0483723282250
:105280005C2100904FF49670FBF7FCFF08BD08B559
:10529000CB4837232822932100903C20FBF7F2FFD4
:1052A000C248372328225C2100903C20FBF7EAFF0C
:1052B000C448372328225C2100906420FBF7E2FFDA
:1052C000B74837232822932100906420FBF7DAFFA8
:1052D00008BD08B5B548372328225C2100903C2042
:1052E000FBF7D0FFB848372328225C2100906420C8
:1052F000FBF7C8FFB24837232822932100903C20B7
:10530000FBF7C0FFA6483723282293210090642092
:10531000FBF7B8FF08BD08B5AC48372328225C214D
:1053200000903C20FBF7AEFFA948372328229321A9
:1053300000903C20FBF7A6FF08BD2DE9F84F8346FF
:1053400017461C464FF00109CA460020A07000BF56
:1053500000F0E4FE0646FF2EFAD19E4890F8B8030E
:10536000A070ECE0BAF1000F33D04FF0000A6FF0FC
:105370007F409949086099484860FCF7CFFAFF20C0
:1053800095494860084640682C23C02218210090A7
:105390005820FBF750FDA07800EBC0009049421860
:1053A00001231A215820FCF755F98C488A49486096
:1053B00000250CE007EBC50205EB8501542303EB48
:1053C00001100023F121FCF745F9681CC5B2052D39
:1053D000F0DB00F0A3FE0646FF2E02D14FF00008DE
:1053E00001E008F10108B8F1030FBAD14FF0010A4A
:1053F00000F0B8FE0B2E79D00CDC032E77D004DC45
:10540000012E59D0022E73D18DE0092E0FD00A2E15
:10541000F9D16FE0132E70D004DC112E18D0122EAB
:10542000F1D185E0192E2DD01B2EECD171E0E07862
:105430006C49085CFF2804D0E078085CA0704FF04D
:105440000009A0786349C1F8B803FF20A07075E097
:10545000E1786448C01D405CFF2806D0E1786148CF
:10546000C01D405CA0704FF00009A0785949C1F8F8
:10547000B803E1785B481530405CFF2801D0FF207D
:10548000A0705BE0E17857480E30405CFF2806D002
:10549000E17854480E30405CA0704FF00009A078CD
:1054A0004C49C1F8B803E1784E481530405CFF28FC
:1054B00001D0FF20A07041E0E1784A481530405CFF
:1054C000FF2806D0E17847481530405CA0704FF0C7
:1054D0000009A0783F49C1F8B803E1784148153088
:1054E000405CFF2801D0FF20A07027E00BE015E012
:1054F00023E002E04FF0000920E006203A4908606E
:105500004FF000091AE00520374908604FF0000904
:1055100014E04FF00009002020700FE04FF0000968
:105520000A2020700AE04FF000090220207005E0F8
:105530004FF000090020207000E000BF00BFB9F16B
:10554000000F7FF40FAFBDE8F88F70B504460D462D
:10555000012C02D00CB1042C02D1FF201E4908609E
:10556000224A5C218420FCF72DF8022C03D0032C66
:1055700001D0042C03D1FF201749086003E06FF02D
:105580007F4015490860284604F030FF0A488078BB
:1055900028B117A293216420FCF714F837E029E022
:1055A0004A860100F4720100797A01000774010053
:1055B00024840100A98B01006B000010EB80010026
:1055C00053780100CE700100106201001A750100CD
:1055D0002D760100D00200101000001038003100BC
:1055E0005C900100EC91010088000010044600105E
:1055F0002000000035B9AFF2080293216420FBF7C8
:10560000E1FF04E0FEA293216420FBF7DBFFFD4AEB
:1056100093218420FBF7D6FF6FF07F40FA490860A2
:105620004FF0501048600023F8A2D2211E20FCF752
:1056300011F870BD30B585B004460D46F5A003C81D
:10564000CDE90301F5A103C9CDE9010103A8005D7E
:1056500040F213114843F3490844372328225C21C0
:1056600000904FF4BE70FBF70DFE01A8405D40F2C4
:1056700013114843EB490844372328225C2100904A
:105680004FF4D270FBF7FEFD05B030BD30B585B0EC
:1056900004460D46DFA003C8CDE90301DFA103C91D
:1056A000CDE9010103A8005D40F213114843DD4933
:1056B000084437232822932100904FF4BE70FBF753
:1056C000E1FD01A8405D40F213114843D54908446B
:1056D00037232822932100904FF4D270FBF7D2FD9C
:1056E00005B030BD3EB50446CF4A07CA8DE8070075
:1056F000CE4890F840008DF80200BF208DF80300DE
:105700006946CB4805F076FF3EBD00B587B0142151
:1057100002A809F062F9C4480C30006801906020CA
:105720008DF80800C348D0F8B80300EB4000C24928
:10573000085C8DF8090070208DF80A00BD48D0F88B
:10574000B80300EB4000084440788DF80B0071204E
:105750008DF80C00B748D0F8B80300EB40000844BF
:1057600080788DF80D0080208DF80E00B14890F8FB
:10577000C0038DF80F0090208DF81000AD4890F810
:10578000C4038DF81100A0208DF81200A94890F8EC
:1057900020048DF81300B0208DF81400A54890F86F
:1057A00018048DF81500C0208DF81600A14890F857
:1057B00024048DF81700E0208DF818009D4890F81B
:1057C000D0038DF80F0080208DF81900BF208DF8D0
:1057D0001A0000208DF81B0001A9954805F00AFF6A
:1057E00007B000BD0EB5904A103207CA8DE8070019
:1057F00069468F4805F0FEFE0EBD3EB504468A4A56
:105800001C3207CA8DE8070021468C4805F0F2FEDD
:105810003EBD00B585B00020019002900390049039
:10582000814828300068009010208DF801000D207C
:105830008DF80200824800788DF8030002208DF870
:10584000040000208DF80400BF208DF80A0000201D
:105850008DF80B006946764805F0CCFE05B000BD1A
:1058600070B504460D4604EB440076494218012306
:10587000C8218020FBF7EEFE05EB45007249421877
:105880000123C8218820FBF7E5FE70BD70B50446F2
:105890000D4604EB44006B4942180023C8214FF425
:1058A000C270FBF7D7FE05EB45006749421800239D
:1058B000C8214FF4C670FBF7CDFE70BD00B58DB0AA
:1058C000182262A107A809F056F8182265A101A8BC
:1058D00009F051F84FF050104B4948600123674AD6
:1058E000C8213420FBF7B6FE0123644A0A32C821DE
:1058F0004FF49C70FBF7AEFE4E4AD2F8B82307ABCC
:10590000995C5E4A713A92F89D00FFF7A9FF494AF7
:10591000D2F8B82301AB995C584A713A92F89E00CC
:10592000FFF7B4FF0DB000BD10B5002421E0012C3D
:1059300001DD072C01DB082C03DD514832494860AA
:1059400003E04FF05010304948604E4951F82400B0
:10595000002306221946FBF743FFC4EB041000F1B5
:105960003A010123274A4FF4C370FBF7D6FE601CAF
:10597000C4B20B2CDBDB10BD70B504460D46A9B2DA
:10598000A0B2012340A2FBF765FE70BD70B50446CE
:105990000D46A9B2A0B201233CA2FBF75BFE70BD8D
:1059A00038B5244890F8B80339490870214890F870
:1059B000C00348701F4890F8C40388701D4890F8D1
:1059C000C803C8701B4890F8D0030871194890F8B4
:1059D00018044871174890F82004C871154890F8C9
:1059E00024040872134890F828044872114890F86B
:1059F000C40388700F4890F8740488720D4849E019
:105A00002D0000000446001010000010546573744F
:105A10002E2E2E000C0F1011160E0D001213140254
:105A20000B171600A86E01009CA20100D401001003
:105A300000C00040D00200101C9D070000C00940BB
:105A4000580000104EA101007BA1010000000000E1
:105A50000000000101010101010101020203030232
:105A600002020000060603020606020602020606FD
:105A7000060202050405040206060000A9440010FF
:105A800034346500D4450010560000006D4100001C
:105A90009441001090F87804C8724FF41872884945
:105AA000884808F068FF884CFC20002322461946ED
:105AB0000090184606F0EFFC38BD38B5824CFC204B
:105AC0000023224619460090184606F05BFD38BDBB
:105AD0007D490978012902DD00217B4A11707A494C
