:020000040000FA
:10000000304D001089A6000091A6000093A60000C4
:1000100095A6000097A6000099A600000000000029
:100020000000000000000000000000009BA600008F
:100030009DA60000000000009FA60000B55D000026
:10004000A3A60000A1090000B5090000C70900002F
:10005000D90900004DBF0000A3A60000A3A6000020
:10006000B5C00000A3A60000A3A60000A3A6000040
:10007000A3A60000A3A60000A3A60000A3A600005C
:10008000A3A60000F5E60000A3A60000A3A60000BA
:10009000A3A60000A3A60000A3A60000A3A600003C
:1000A000F9DB0000A3A60000A3A60000A3A60000A1
:1000B000A3A60000A3A60000A3A60000A3A600001C
:1000C000A3A60000A3A60000A3A60000A3A600000C
:1000D000A3A60000A3A60000A9050000A3A6000097
:1000E000A3A6000000F002F800F0B0F80AA090E823
:1000F000000C82448344AAF10107DA4501D100F0E3
:10010000A5F8AFF2090EBAE80F0013F0010F18BFFF
:10011000FB1A43F0010318474CA307006CA3070028
:100120000A444FF0000C10F8013B13F0070408BF1D
:1001300010F8014B1D1108BF10F8015B641E05D0BB
:1001400010F8016B641E01F8016BF9D113F0080F70
:100150001EBF10F8014BAD1C0C1B09D16D1E58BF02
:1001600001F801CBFAD505E014F8016B01F8016B39
:100170006D1EF9D59142D6D37047000000230024AC
:1001800000250026103A28BF78C1FBD8520728BFA7
:1001900030C148BF0B6070476E290EF0548670293D
:1001A0000EF09187662911F02286652911F01F86CD
:1001B000672911F01C866129AFF3008003681B0AD0
:1001C00028BF41F0800169290EF0908364290EF068
:1001D0008D8375290EF08A836F290EF01E8778298A
:1001E0000EF05D87E9290EF0B986E4290EF0B68697
:1001F000F5290EF0B386EF290EF01B87F8290EF0D3
:100200005C870368DB0928BF41F0800163290FF098
:10021000C78173290FF0CC81E3290FF0D781F3292F
:100220000FF0DC81002070471FB50FF02DFA04009D
:100230000020002110F070FC401C606000200021B4
:1002400010F054FCE0601FBD10B510BD0FF0EEF9CA
:100250001146FFF7E9FF00F0D4F90FF0CBFA03B431
:10026000FFF7F2FF03BC0FF0CFFA000070B50546B0
:100270000C46A4F120000B4A02EB00111022284684
:100280000EF064FC70BDA1F1200202EB4202064BAD
:1002900003EB8202136803605368436092688260D4
:1002A00070470000E8580100D85E01000D4843F691
:1002B000C46102E000220270401C0A1EA1F1010389
:1002C00099B2F7D1084843F6482102E0FF220270B4
:1002D000401C0A1EA1F1010399B2F7D1014B83F82A
:1002E0007C247047D80200105407001070477047F4
:1002F00070470A6802F8010B0A607047FFFFFFFFB2
:1003000040F20120974908609749C1F88401954956
:1003100008310860091D0860091D0860091D086092
:10032000091D0860091D0860091D0860091D086095
:10033000091D0860091D0860091D0860091D086085
:10034000091D0860091D0860091D0860091D086075
:10035000091D0860091D0860091D0860091D086065
:10036000091D0860091D0860091D0860091D086055
:10037000091D0860091D0860091D0860091D086045
:10038000091D0860091D0860091D0860091D086035
:10039000091D0860091D0860091D0860091D086025
:1003A000091D0860091D0860091D0860091D086015
:1003B000091D0860091D0860091D0860091D086005
:1003C000091D0860091D0860091D0860091D0860F5
:1003D000091D0860091D0860091D0860091D0860E5
:1003E000091D0860091D08605E49E43108605D4927
:1003F00040390860091D0860091D086059493039F5
:100400000860584920390860564910390860091DAC
:100410000860091D08605449C1F87C0170472DE946
:10042000F04100BF00BF5148006840F400604F49F0
:10043000C439C1F8C40041F61F704D49086001205D
:100440004C49086000208860FFF75AFF4A4800685E
:100450004A49B0FBF1F74548C438D0F8000100B173
:100460007F084FF47A70B0FBF7F404F11300B0FB8F
:10047000F4F0404908630F2048630020886301209E
:10048000C86304F11300B0FBF4F0801C0864012081
:10049000486404F13E00B0FBF4F0886404F13E00CF
:1004A000B0FBF4F0C8640F20086504F13E00B0FB17
:1004B000F4F0486501208865886240F203303049D5
:1004C00008604FF48D402B49C1F800012C49091FE9
:1004D00008606421002000F0E5F940F2831025490E
:1004E0000862C821002000F0DDF940F20310214924
:1004F000086202204862002600E0761C802EFCD3B1
:1005000041F68465A5F1100085B22D1105FB07F0B9
:100510004FF47A71B0FBF1F085B216484562832042
:10052000144908621748D0F8008000200862144877
:10053000001F006840F40020C1F8000101210020E4
:1005400000F0B0F90121002000F0ACF90848006883
:1005500020F01F0848F011000449C439C1F8DC013B
:10056000BDE8F08180C1024000C00240C4C00F401D
:10057000DCC10F4000C009209C00001040420F0069
:1005800004C10920004006A010B5002807DACA06F9
:10059000140EB44A00F00F031B1FD45403E0CA0624
:1005A000130EB14A135410BD10B5012213210020BF
:1005B0000AF0FEFA20B3262000F01F02012191402C
:1005C000AA4A430942F8231000BF6FF07F4400E0BD
:1005D000641E002CFCD1A648006830B10020A4495C
:1005E00008600F20A349086005E00120A0490860C9
:1005F0000220A04908604FF4002100200AF003FB0C
:1006000010BD1FB500200AF078FC0646002098496E
:1006100008604FF47A70B6FBF0F0451EB5F1807FAC
:1006200000D311E025F07F40401E4FF0E0214861EB
:100630001F214FF0FF30FFF7A7FF00204FF0E02110
:1006400088610720086100BF0122D10400200AF060
:1006500091FA01212620FFF797FF262000F01F02C4
:10066000012191404209920002F1E022C2F80011FA
:1006700000BF642005F04FFC0CF006F805F038FDD3
:100680000EF04AF805F086FC05F0AEFC05F0E5FB3F
:100690000BF0AEFB002076490860FFF7C0FE00209B
:1006A00000F082FA74494869002100F0B6FA01208E
:1006B00000F07AFAFFF7FAFD002005F0F2FC05F0F1
:1006C00060FA06F045F80F206A49086050E005F02E
:1006D000A7FD0446FF2C03D100206849086004E010
:1006E00066480068401C6549086064480068022844
:1006F00014D10020614908604FF0501000F092FBC7
:1007000022465FA101A80EF0B3F800206FF07F43EE
:1007100001AA28210090782000F0C1FC554800680B
:100720000A2817D006DC02280BD005280FD006288F
:100730001CD109E00C2810D00F2811D0102815D199
:1007400011E006F08AF812E006F075FB0FE007F002
:10075000DAF90CE009F0A4FC09E008F051FF06E02A
:1007600008F021FF03E008F0B1FE00E000BF00BF89
:10077000ADE770B5012143A00CF008FE0546002D41
:100780000EDD00BF4FF47A624148016828460CF044
:10079000DDFE0446002CF5D128460DF0D8F800E027
:1007A00070BD00BFFCE72DE9F041012135A00CF040
:1007B000EDFD0746002F25DD4FF47A6234480168CD
:1007C00038460CF0C3FE022132A00CF0DFFD0446D7
:1007D000002C11DD002500BF4FF47A622C4801681F
:1007E00020460DF01DF8064635442D488542F3D3CA
:1007F00020460DF0ACF801E0BDE8F08138460DF080
:10080000A6F800E0F8E700BFF6E770B501211DA0EB
:100810000CF0BCFD0646002E20DD02211DA00CF0D0
:10082000B5FD0446002C14DD00BF4FF47A62184871
:10083000016830460CF08AFE05462A4614480168D5
:1008400020460CF0EDFF002DEFD120460DF07FF893
:1008500000E070BD30460DF07AF800E0F9E700BF27
:10086000F7E7000018ED00E000E400E080E100E0C0
:100870007C0000108C000010180000105C000010BC
:10088000253264004D53524541442E5458540000C3
:10089000240100104A4B32353230422E5458540055
:1008A00080969800F8B902224FF040235A60002247
:1008B000DA60B44A12684FF47A73B2FBF3F2521E54
:1008C0004A434FF040239A61FF221A6004225A6182
:1008D00001225A6000BF4FF04022526802F001022C
:1008E000002AF8D15BE001281CD10222A64B5A60F5
:1008F0000022DA60A34A12684FF47A73B2FBF3F273
:10090000521E4A43A04B9A61FF221A6004225A6188
:1009100001225A6000BF9C4A526802F00102002A7C
:10092000F9D13CE002281CD10222984B5A600022E7
:10093000DA60944A12684FF47A73B2FBF3F2521EF3
:100940004A43924B9A61FF221A6004225A610122A3
:100950005A6000BF8D4A526802F00102002AF9D1A4
:100960001DE003281BD10222894B5A600022DA6065
:10097000844A12684FF47A73B2FBF3F2521E4A4370
:10098000834B9A61FF221A6004225A6101225A6045
:1009900000BF7F4A526802F00102002AF9D1704775
:1009A00001204FF0402108607A480068401C7949D6
:1009B0000860704701207449086077480068401C4F
:1009C00075490860704701207049086073480068E5
:1009D000401C72490860704701206D4908607048EA
:1009E0000068401C6E490860704720B901214FF033
:1009F0004022516010E0012803D10121624A516078
:100A00000AE0022803D10121604A516004E0032872
:100A100002D101215E4A5160704720B900214FF098
:100A20004022516010E0012803D10021564A516054
:100A30000AE0022803D10021544A516004E003284F
:100A400002D10021514A51607047014631B94FF03F
:100A50004022506840F00200506016E0012905D1A4
:100A6000494A506840F0020050600EE0022905D16A
:100A7000464A506840F00200506006E0032904D165
:100A8000434A506840F002005060704770B5054618
:100A90000C46F5B900203F4908604248006840F024
:100AA00002004049C439C1F8C4004FF040204068FA
:100AB00040F002004FF0402148604EF65F20C860D1
:100AC0000846846103204861012000F050F80120AD
:100AD00070BD012D1CD100202F49086031480068ED
:100AE00040F004002F49C439C1F8C40026484068CA
:100AF00040F00400244948604EF65F20C860084674
:100B0000846103204861022000F031F80120DFE712
:100B1000022D13D10020214908602248006840F4CA
:100B200080002049C439C1F8C400184884610320FA
:100B30001649486100F01BF80120C9E7032D14D1C4
:100B40000020174908601748006840F40000154964
:100B5000C439C1F8C4000E48846103200C494861BF
:100B6000042000F004F80120B2E70020B0E700F014
:100B70001F02012191404209920002F1E022C2F8D5
:100B800000117047A00000100080004000000940E4
:100B90000040094000000010040000100800001090
:100BA0000C000010C4C00F4008B5B0B1FC49896901
:100BB00041F00101FA4A916142F21071009108E09E
:100BC000F749896941F40061F54A91610099491E2C
:100BD000009100990029F3D115E0F149896921F4C8
:100BE0000061EF4A916142F21071009102E00099B8
:100BF000491E009100990029F9D1E949896921F03C
:100C00000101E74A916108BDE64A002102E008C8F7
:100C100008C2491C8029FAD370472DE970438146E8
:100C20000D46DFF8848300BF2720E0490861486152
:100C3000DF490860DD49C1F87402DE490860091D1A
:100C40000860091D0860091D0860D8498861C861ED
:100C5000D84948390860091D0860091D0860091D48
:100C60000860091D0860091D0860D04908624862D3
:100C7000D04918310860091D0860CE493039086034
:100C8000091D0860091D0860091D0860C94910395F
:100C90000860C849091F0860C6490C390860091D69
:100CA0000860C249C1F80001C348006C40F002006E
:100CB000C14908640846806D40F00A008865BF4855
:100CC000D0F8C40040F00100BC49C1F8C400BC48E1
:100CD000006820F00100BA4908600020B04988612E
:100CE0000846806920F00E0088610846806940F05F
:100CF0000A0088610846806940F020008861084643
:100D0000806920F0800088610846806920F4807046
:100D100088610846806920F400708861084680690F
:100D200020F4806088610846806920F40060886152
:100D3000A4480068A449B0FBF1F0A049C1F8B8018B
:100D40009748806840F080609549886008468068D0
:100D500020F0200088600846806840F400608860C9
:100D60000846806840F4805088600846806820F417
:100D7000005088600846806820F4804088600846FB
:100D80008068924908408649886008468068904992
:100D9000084383498860002008600846006840F0E6
:100DA0001C5008600846006840F48020086008462F
:100DB000006840F4807008600846006840F07400E5
:100DC0000860002048600846406840F000604860C5
:100DD0000846406840F4002048600846406840F4F7
:100DE000806048600846406840F20F1108436C4933
:100DF000486040460861486115B12846FFF704FF86
:100E0000694E002403E04FF47F0001C6641CB4F572
:100E1000FF3FF8D342F2107400E0641E002CFCD1B6
:100E2000BDE87083604A002101E001C2491CB1F5B0
:100E3000FF3FFAD370472DE9F0411C46069FC1F5EC
:100E4000887CACF1010CCCEB0C1CDFF85C8108EB6E
:100E5000CC18C0F5F07CACF1010C08EB8C0300263B
:100E60000FE0002502E043F804796D1CA2EB000CB2
:100E7000AC45F8D8A2EB000CCCF5F07CA3EB8C03CE
:100E8000761CA4EB010CB445EBD8BDE8F08170B53D
:100E9000454BB0F5F07F02DAB1F5887F00DB70BD1D
:100EA000C0F5F0756D1EC1F58876761EC6EB061688
:100EB00005EB461403EB84031A6000BFEFE72DE94E
:100EC000F04F04460D4691469A46DDF824B04C4555
:100ED00003DD0FFA89F7A146BCB2554503DD0FFAD1
:100EE0008AF7AA46BDB2A9EB04000FFA80F8AAEB74
:100EF000050006B2B8F1000F0BD100BF5A462946D3
:100F00002046FFF7C4FF681C85B2AA45F6DABDE8A3
:100F1000F08F56B900BF5A4629462046FFF7B7FF63
:100F2000601C84B2A145F6DAF1E7B04521DDC8EBDB
:100F3000460007B215E05A4629462046FFF7A7FFAC
:100F4000601C84B2002F08DD681C85B2700002218D
:100F500001FB1800384407B203E0022000FB0670D2
:100F600007B24C45E7D15A4629462046FFF78FFF86
:100F70003BE0C6EB480007B230E05A46294620461F
:100F8000FFF785FF681C85B2002F23DD601C84B24B
:100F90007000022101FB1800384407B21EE0000077
:100FA0000080082000820820000001A000C002404C
:100FB00070C2024018C102400080092000C00F40EA
:100FC000008C0820A00000109C997400FFFF00FC1A
:100FD0000000DF01022000FB067007B25545CCD1AE
:100FE0005A4629462046FFF752FF00BF8FE72DE9FA
:100FF000FF5F06460F4690469946DDF838B04146F9
:101000006846FFF733F900241DE01DF804A0002511
:1010100016E0C5F107004AFA00F000F0010038B10F
:101020003A1991B2721990B24A46FFF730FF06E0C2
:101030003A1991B2721990B25A46FFF728FF6D1C07
:10104000082DE6D3641C102CDFD3BDE8FF9F2DE9EB
:10105000FE4F06460F4690469946DDF830B04146B1
:101060006846FFF710F9002415E01DF804A00025DC
:101070000EE0C5F107004AFA00F000F0010030B1BF
:101080003A1991B2721990B24A46FFF700FF6D1CEF
:10109000082DEED3641C0C2CE7D3BDE8FE8F2DE9A0
:1010A000F84305460E4614469846DDF8209000BFEA
:1010B00014F8017B43463A4631462846CDF8009065
:1010C000FFF795FFB5F5EC7F03DA05F1080085B26F
:1010D00008E0FF2E04DC002506F1100086B201E0D6
:1010E0000025002620780028E2D1BDE8F8832DE90C
:1010F000FF4F074688469B463C464546BA4646460D
:101100004FF0000915E0A4F1140188B22946029AB3
:10111000FFF7BDFE601C84B2A6F1140081B25046F8
:10112000029AFFF7B4FE701C86B209F101001FFAA3
:1011300080F9B9F1280FE6DB3C464546BA464646FB
:101140004FF000092BE0A5F1140291B2A4F11402B2
:1011500090B25A46FFF79BFE05F1140291B2A4F13A
:10116000140290B25A46FFF792FE601C84B2A6F1B8
:10117000140291B2AAF1140290B25A46FFF787FE08
:10118000A6F1140291B20AF1140290B25A46FFF786
:101190007EFE701C86B209F101001FFA80F9B9F1D8
:1011A0000A0FD0DB3C464546BA4646464FF000099A
:1011B0002BE0A5F1140291B204F10A0290B25A4652
:1011C000FFF765FE05F1140291B204F10A0290B234
:1011D0005A46FFF75CFE601C84B206F10A0291B227
:1011E000AAF1140290B25A46FFF751FE06F10A0224
:1011F00091B20AF1140290B25A46FFF748FE701CF1
:1012000086B209F101001FFA80F9B9F10A0FD0DBAB
:10121000BDE8FF8F10B50246002112E001EB8110FE
:10122000F74B185C1378984209D1507801EB811381
:10123000F34C23445B78984201D1084610BD481C0A
:1012400081B27729EAD30020F8E710B502460021E1
:1012500014E001EB0110EB4B13F8100013789842E7
:101260000AD1507801EB0113E64C04EB43035B78A1
:10127000984201D1084610BD481C81B2A729E8D385
:101280000020F8E72DE9F04F04460F461546984632
:10129000A3464FF0000900262DE0099810F80690AB
:1012A0004FF0000A21E009F0800030B1D6483946FD
:1012B00002682046FFF7EBFD05E0D3483946426857
:1012C0002046FFF7E4FD4FEA49604FEA1069601CD1
:1012D00084B2A4EB0B00A84203D15C46781C87B211
:1012E00006E00AF1010000F0FF0ABAF1080FDADBAC
:1012F00000BF701C86B205FB08F0C11700EB5171EE
:10130000B6EBE10FC9DBBDE8F08F2DE9F04F0546E4
:10131000894692469B46A8460026BBF1000F32D173
:1013200000242DE00AEB0A10B64901EB4000801CB6
:10133000065D00271FE006F0800030B1B248494644
:1013400002682846FFF7A3FD05E0AF48494642681A
:101350002846FFF79CFD7006060E681C85B2A5EBBB
:101360000800102805D1454609F101001FFA80F94F
:1013700003E0781CC7B2082FDDDB00BF601CC4B2DD
:10138000202CCFDB31E000242DE00AEB0A109D4930
:1013900001EB4000801C065D00271FE006F0800086
:1013A00030B19948494642682846FFF770FD05E08C
:1013B0009548494602682846FFF769FD7006060E03
:1013C000681C85B2A5EB0800102805D1454609F137
:1013D00001001FFA80F903E0781CC7B2082FDDDB9B
:1013E00000BF601CC4B2202CCFDBBDE8F08F2DE91C
:1013F000F04F0546894692469B46A8460026BBF11B
:10140000000F31D100242CE00AEB8A107C490844FB
:10141000801C065D00271FE006F0800030B17A488E
:10142000494602682846FFF732FD05E076484946FE
:1014300042682846FFF72BFD7006060E681C85B231
:10144000A5EB0800182805D1454609F101001FFA4F
:1014500080F903E0781CC7B2082FDDDB00BF601CF9
:10146000C4B23F2CD0DB30E000242CE00AEB8A1021
:1014700063490844801C065D00271FE006F08000D9
:1014800030B16148494642682846FFF700FD05E053
:101490005D48494602682846FFF7F9FC7006060ECB
:1014A000681C85B2A5EB0800182805D1454609F14E
:1014B00001001FFA80F903E0781CC7B2082FDDDBBA
:1014C00000BF601CC4B23F2CD0DBBDE8F08FF0B58C
:1014D00004460D4616461F463B46224631462846E0
:1014E000FFF785FF1820F0BDF0B504460D461646FF
:1014F0001F463B46224631462846FFF706FF12208C
:10150000F0BD2DE9F84306460D4614461F464FF040
:101510000008C14652E0207800B950E006EB09000F
:1015200086B2207880281ADD06F11800B0F5F07F29
:1015300007DD002605F1160085B2B5F5887F00DDD0
:1015400000252046FFF766FE1FFA80F83B462A4634
:1015500031464046FFF7BBFF8146A41C2DE02078B2
:101560000D280AD105F1160085B2B5F5887F00DD9A
:101570000025641C4FF0000920E020780A2804D1DF
:101580000026641C4FF0000918E006F10C00B0F5CD
:10159000F07F07DD002605F10C0085B2B5F5887FE8
:1015A00000DD002518484068009017482278294639
:1015B00003683046FFF71BFD641C00BFABE700BFAC
:1015C000BDE8F8832DE9F8470546884614464FF0F4
:1015D000000A00263AE0207800B938E02078302868
:1015E00007DB2078392804DC207830381FFA80F9AE
:1015F00014E020782E2809D14FF00A090EE00000EF
:10160000E21E0100193D01001000001020782D2875
:1016100002D14FF00B0901E04FF00C094FEA4917D6
:10162000F81707EB5070C01000EBC001C1EB801041
:10163000B6490844A919009088B2372320224146B0
:10164000FFF720FE641C06F1200086B2C3E700BF4E
:10165000BDE8F8872DE9F84306460D4614461F46B7
:101660004FF00008C14654E0207800B952E006EB84
:10167000090086B2207880281ADD06F11000B0F546
:10168000F07F07DD002605F1100085B2B5F5887FF3
:1016900000DD00252046FFF7D8FD1FFA80F83B4605
:1016A0002A4631464046FFF71FFF8146A41C2FE023
:1016B00020780D280AD105F1100085B2B5F5887F94
:1016C00000DD0025641C4FF0000922E020780A2884
:1016D00004D10026641C4FF000091AE006F108004E
:1016E000B0F5F07F07DD002605F1080085B2B5F5FD
:1016F000887F00DD00258648406800908448227875
:10170000294603683046FFF772FC641C4FF00A0953
:1017100000BFA9E700BFBDE8F8832DE9F8430646FE
:101720000D4614461F464FF00008C14654E020788D
:1017300000B952E006EB090086B2207880281ADD55
:1017400006F11000B0F5F07F07DD002605F110006E
:1017500085B2B5F5887F00DD00252046FFF775FDD1
:101760001FFA80F83B462A4631464046FFF7BCFE4A
:101770008146A41C2FE020780D280AD105F1100025
:1017800085B2B5F5887F00DD0025641C4FF00009A7
:1017900022E020780A2804D10026641C4FF00009BA
:1017A0001AE006F10800B0F5F07F07DD002605F12C
:1017B000080085B2B5F5887F00DD002554484068F3
:1017C000009053482278294603683046FFF73FFCD3
:1017D000641C4FF0080900BFA9E700BFBDE8F8830B
:1017E000F0B504461D46062A00DD0A2202B9012290
:1017F000052900DD0521914200DD1146002004E0AD
:101800002026444F3E54461CF0B20C28F8D3104614
:101810000FE00A26B4FBF6F706FB17463036471EE4
:10182000DFF8F0C00CF807600A26B4FBF6F4461E99
:10183000F0B20028EDDC89B11346084605E05E1ED3
:10184000344FBE5DFE545E1EF3B2061EA0F10107CA
:10185000F8B2F4D12E262F4FFE5402E020262D4F51
:10186000BE54A5B900200EE02A4E365C302E07D1BA
:10187000284F461CBE5D2E2E02D020263E5400E08E
:1018800004E0461CF0B2561E8642EDDC00BF561C3A
:10189000F2B2104604E000261E4F3E54461CF0B241
:1018A0000C28F8D3F0BD30B51B4A00210CE00478B9
:1018B0002404457844EA0524857844EA050308C2EF
:1018C000401C401C401C491CB1F5FF3FEFD330BD0C
:1018D00070B51149002214E000230CE005782D04B6
:1018E000467845EA0625867845EA060410C1401C7C
:1018F000401C401C5B1CB3F5B57FEFD301F5EC71C8
:10190000521CB2F5887FE7D370BD000088650100E6
:10191000100000100C460010000001A038B5002493
:1019200074E0FE48A10004EB440303EB041301EB55
:101930008301009088B204EB84014C2303EB011176
:101940008AB240F20F13E421FFF775FAF44804EB72
:1019500084014C2303EB01118AB204EB84010901D9
:10196000491C009088B2E3231946FFF7A8FAEC4817
:1019700004EB84014C2303EB01118AB204EB8401D4
:1019800003EB0111009088B240F20F13E321FFF73F
:1019900096FA002004EB84014C2303EB0111491C4F
:1019A0008AB204EB840103EB0111491C009088B258
:1019B00040F20F13E321FFF782FA002004EB8401C9
:1019C0004C2303EB0111891C8AB204EB840103EB65
:1019D0000111891C009088B240F20F13E321FFF738
:1019E0006EFA002004EB84014C2303EB0111C91CA7
:1019F0008AB204EB840103EB0111C91C009088B288
:101A000040F20F13E321FFF75AFA641C062C88D327
:101A100038BD10B5FFF782FFC048C24948606FF07B
:101A20007F4008600023C0A2F1215420FFF712FE7E
:101A30000023BFA2F121A420FFF70CFE10BD70B55A
:101A40000546FFF76BFFB548B64948606FF07F4029
:101A50000860A5B900240FE004EB4401B64B03EB8A
:101A6000410204EB8401542303EB01100023F12114
:101A7000FFF7F0FD601CC4B2052CEDDB14E0002480
:101A800010E0611D01EB4101AB4B03EB410204EBA4
:101A90008401542303EB01100023F121FFF7DAFD49
:101AA000601CC4B2052CECDB70BD10B5FFF736FF2F
:101AB0009A489C4948606FF07F40086000239FA2CD
:101AC000F1215420FFF7C6FD10BD10B5FFF726FF2A
:101AD0009248944948606FF07F400860002399A2C3
:101AE000F1215420FFF7B6FD10BD10B50446FFF7F5
:101AF00015FF002C38D16FF07F408A490860874875
:101B00004860002390A2E7215420FFF7A3FD0023A3
:101B10008FA2FB215420FFF79DFD00238AA2E7211D
:101B2000A420FFF797FD00238BA2FB21A420FFF741
:101B300091FD00238AA2E721F420FFF78BFD00230B
:101B400085A2FB21F420FFF785FD002384A2E72175
:101B50004FF4A270FFF77EFD002383A2FB214FF418
:101B6000A270FFF777FD40E0012C2CD16FF07F4091
:101B70006C4908606948486000237DA2E721542031
:101B8000FFF768FD00237CA2FB215420FFF762FDD4
:101B900000237BA2E721A420FFF75CFD00237AA2AB
:101BA000FB21A420FFF756FD002379A2E7214FF483
:101BB000CA70FFF74FFD002377A2FB214FF4CA70D4
:101BC000FFF748FD11E06FF07F4056490860534829
:101BD0004860002372A2F2215320FFF73BFD00234F
:101BE00071A2F221A320FFF735FD10BD10B5FFF75C
:101BF00095FE6FF07F404B490860484848600023DD
:101C00006BA2E7215420FFF725FD00236AA2FB21E8
:101C10005420FFF71FFD002369A2F1214FF4A270A9
:101C2000FFF718FD002368A2F1214FF4CA70FFF7F7
:101C300011FD10BD10B50446FFF770FE0CB1012C6C
:101C400032D16FF07F403749086034484860002344
:101C50005FA2F1215420FFF7FDFC00235EA2E721E3
:101C6000A420FFF7F7FC00235DA2FB21A420FFF7CF
:101C7000F1FC00235CA2E721F420FFF7EBFC00233A
:101C800057A2FB21F420FFF7E5FC00234CA2F12131
:101C90004FF4A270FFF7DEFC00234BA2F1214FF4BA
:101CA000CA70FFF7D7FC25E06FF07F401D49086040
:101CB0001A484860002346A2F1215420FFF7CAFCCD
:101CC000002347A2E721A420FFF7C4FC002348A279
:101CD000FB21A420FFF7BEFC002339A2F1214FF421
:101CE000A270FFF7B7FC002337A2F1214FF4CA70AE
:101CF000FFF7B0FC10BD10B50446FFF70FFE002C37
:101D00007AD16FF07F40074908600448486000239B
:101D10000DA2E7215420FFF79DFC6EE03800310052
:101D20006843690010000010206DA6B82020000054
:101D300020A6B82000000000EDA3010020C8B7C80D
:101D4000CF2000002A310000B2E2C1BF0000000035
:101D5000CFD4CABE00000000C9E8D6C3000000000E
:101D6000CFB5CDB300000000D0C5CFA20000000069
:101D7000CEC4BCFE00000000B9DCC0ED00000000D5
:101D8000B1A3B4E600000000CAFDBEDD0000000003
:101D9000B8FCB6E00000000020322F320000000046
:101DA0002020C8A1CFFB20002020C8B7C8CF20002A
:101DB000C7E5B3FD00000000B1EDB8F10000000080
:101DC000C9CFD2BBD2B30000CFC2D2BBD2B30000C6
:101DD000C9BEB3FDD0D00000CFDFD0D400000000DA
:101DE000D7D4B6AF00000000B6D4CAFD0000000092
:101DF000B8B4D6C60000000033E00023AFF2B00252
:101E0000FB215420FFF726FC0023AFF2C402E72198
:101E1000A420FFF71FFC0023AFF2C402FB21A42083
:101E2000FFF718FC0023AFF2C802E721F420FFF708
:101E300011FC0023AFF2E002FB21F420FFF70AFCC3
:101E40000023AFF2E402E7214FF4A270FFF702FC97
:101E50000023AFF2EC02FB214FF4A270FFF7FAFB74
:101E600039E0012C37D16FF07F40FE490860FE4811
:101E700048600023AFF20812E7215420FFF7EAFB85
:101E80000023AFF20C12FB215420FFF7E3FB0023E9
:101E9000AFF23412E721A420FFF7DCFB0023AFF2FE
:101EA0004812FB21A420FFF7D5FB0023EFA2F1216C
:101EB000F420FFF7CFFB0023AFF22C12E7214FF401
:101EC000CA70FFF7C7FB0023AFF23412FB214FF4B7
:101ED000CA70FFF7BFFB10BD10B56FF07F40E1493E
:101EE0000860E14848600023AFF2A412E7215420C3
:101EF000FFF7B0FB0023AFF2A812FB215420FFF73D
:101F0000A9FB0023AFF2C012E721A420FFF7A2FB38
:101F10000023AFF2BC12FB21A420FFF79BFB0023A0
:101F2000AFF2C412E721F420FFF794FB0023AFF2D5
:101F3000D812FB21F420FFF78DFB0023AFF2E01253
:101F4000E7214FF4A270FFF785FB0023AFF2E81200
:101F5000FB214FF4A270FFF77DFB10BD08B5C5480B
:101F60001623F022002100900846FEF764FF08BD0A
:101F700008B5C148CA2340F2DF125C21009000205E
:101F8000FEF759FF08BD10B5FFF7E8FFFFF7C6FCE5
:101F9000FFF7EEFF10BD10B5FFF7F5FF6FF07F40C4
:101FA000B0490860B34848600023B44A0421184689
:101FB000FFF750FB6FF07F40AA4908604FF05010C8
:101FC0004860002426E0032C11D204EB8400AC4BC3
:101FD00003EB400204EB440000EBC4001A2303EBC4
:101FE000400081B200231846FFF734FB11E004EBF8
:101FF0008400A34B03EB4002E01E00EB400303EB25
:10200000C0001A2303EB400081B20023FA20FFF73F
:1020100021FB641C062CD6D30020FFF766FD10BD03
:1020200008B59548BE2340F2DF12702100900020D1
:10203000FEF701FF08BD10B5FFF790FFFFF76EFC3C
:10204000FFF7EEFF10BD38B504464FF0501085493C
:1020500048608C4800EB84020123C8211420FFF75C
:10206000F9FA894800EB84020123C8214FF48C70EF
:10207000FFF7F0FA80487B494860844837232822DC
:102080007A2100905020FFF7FDF88148372328225D
:102090007A2100907820FFF7F5F87E483723282230
:1020A0007A2100908C20FFF7EDF838BD10B5FFF7CE
:1020B000C2FF6FF07F406B4908606E4848600023A4
:1020C0006E4A163204211846FFF7C4FA6FF07F40BB
:1020D000644908604FF050104860002422E0032C4F
:1020E0000FD26D4800EBC40204EB440000EBC400C7
:1020F0001A2303EB400081B200231846FFF7AAFA27
:102100000FE0654800EBC402E01E00EB400303EB68
:10211000C0001A2303EB400081B20023FA20FFF72E
:1021200099FA641C072CDAD35C4991F8B803FFF7DD
:102130008AFF0020FFF7D9FC10BD08B54E48A02348
:1021400040F2DF12562100900020FEF774FE4A484C
:10215000E32340F2DF12C12100900020FEF76BFE66
:1021600008BD10B5FFF7FAFEFFF7D8FBFFF7E5FF54
:1021700010BD2DE9F04104460D461646484B1B5D47
:1021800003EB4303474FDA19B1B2A8B20023FFF7BC
:1021900061FABDE8F08110B5FFF7E3FF6FF07F4013
:1021A00030490860334848600023344A2C32042107
:1021B0001846FFF74FFA6FF07F402A4908604FF04A
:1021C0005010486000240EE0C4EBC401364BCA181E
:1021D00004EB84014FF6FF7303EA411000231A2138
:1021E000FFF738FA641C032CEED32C48D0F8C00358
:1021F00000EB400101EBC0002C49421801231A21D9
:102200003C20FFF727FA254A92F80C110023D2F858
:1022100008010622FFF7E4FA0123254A1A21DC20EF
:10222000FFF718FA1D48D0F8100100EB40002149D3
:10223000421801231A214FF49170FFF70BFA174946
:102240001A22D1F8B8034FF49671FFF792FF0023DA
:1022500019A22E211846FFF760FA002317A22E219B
:1022600078202FE01000001038003100B9A4BEDF44
:1022700000000000F352030034346500109F010099
:102280001190010094930100F09301008D780100FA
:10229000D08A0100E38B0100A99B0100D802001045
:1022A0003EA4010056A40100DEA00100009501003B
:1022B0000C46001029A4010042494E004C4F572003
:1022C0005B465D00FFF729FA0023FEA22E21F020D5
:1022D000FFF723FA0023FDA22E214FF4C870FFF769
:1022E0001CFA06243FE0A01F012801D9072802D3C9
:1022F000A01F082803D9F748F749486003E04FF0CA
:102300005010F5494860A01FC0EBC001F34800EB36
:10231000C1004068E0B1A21FC2EBC203EF4A02EB6A
:10232000C302117AA21FC2EBC203EC4A02EBC30242
:10233000012350680622FFF753FAA01FC0EB0010DC
:102340003A3081B20123E64A7820FFF7E6F909E046
:10235000A01FC0EB00103A3081B20123E1A2782027
:10236000FFF7DBF9641C0F2CBDD3DA48DA4948606B
:10237000DE48D0F8440378B1DC4A92F848130123D0
:10238000D2F844030622FFF72BFA0123D44AC421D2
:102390007820FFF7C2F905E00123D2A2C4217820FA
:1023A000FFF7BBF9102447E0A4F11000012801D980
:1023B000072803D3A4F11000082803D9C548C6494B
:1023C000486003E04FF05010C3494860A4F110008A
:1023D000C0EBC001C14800EBC100006A00B3A4F12A
:1023E0001002C2EBC203BD4A02EBC30292F82410F2
:1023F000A4F11002C2EBC203B84A02EBC3020123EC
:10240000106A0622FFF7ECF9A4F11000C0EB0010EF
:102410003A3081B20123B24AFA20FFF77EF90AE08E
:10242000A4F11000C0EB00103A3081B20123ADA23C
:10243000FA20FFF772F9641C192CB5D3A548A649F8
:102440004860AA48D0F8440378B1A84A92F82C13FF
:102450000123D2F828030622FFF7C2F90123A04A7C
:10246000C421FA20FFF759F905E001239DA2C421F8
:10247000FA20FFF752F9012419E0022C05D9082CA3
:1024800003D294489449486003E04FF050109249B9
:102490004860601E00EBC000954BC218C4EB0410EE
:1024A0002B3081B200230820FFF737F9641C0A2C77
:1024B000E3D388488849486000238EA2C421184687
:1024C000FFF72BF900238CA2D4211846FFF725F93A
:1024D00000238BA2D421F020FFF71FF90020FFF783
:1024E00004FB10BD08B57B48A02340F2DF12602139
:1024F00000900020FEF79FFC08BD10B5FFF72EFDF1
:10250000FFF70CFAFFF7EEFF10BD10B5FFF7F5FF70
:102510006FF07F40704908607B48486000237B4A29
:1025200004211846FFF796F86FF07F406A4908606B
:102530004FF050104860002375A21A211846FFF78B
:1025400089F8002374A230212820FFF783F80023A4
:1025500074A230218C20FFF77DF8002373A2302174
:10256000F020FFF777F8002372A230214FF4AA7011
:10257000FFF770F8002371A230214FF4DC70FFF7F1
:1025800069F80020FFF7B1FA10BD08B551489A2349
:1025900040F2DF125A2100900020FEF74CFC08BDEB
:1025A00010B5FFF7DBFCFFF7B9F9FFF7EEFF10BD41
:1025B00010B5FFF7F5FF6FF07F40474908605248BC
:1025C00048600023514A163204211846FFF742F8AA
:1025D0006FF07F40404908604FF050104860002481
:1025E0003AE0092C1AD2022C05D9062C03D239481C
:1025F0003949486003E04FF050103749486004EB18
:1026000084004F4B03EB4002162304FB03F01A3007
:1026100081B200231846FFF71DF81CE0A4F1090061
:10262000022805D9062803D22A482B49486003E02E
:102630004FF050102849486004EB8400404B03EBF6
:102640004002A4F10900162358431A3081B2002336
:10265000FA20FEF7FFFF641C122CC2D30020FFF704
:102660004AFB10BDF8B505464FF050101A494860B6
:102670001E48D0F8B80300EBC000324942180123CD
:102680001A215820FEF7E6FF1848D0F8C00300EBE7
:10269000400101EBC0002C49421801233021582091
:1026A000FEF7D8FF1148D0F8C40300EB400101EB5E
:1026B000C00026494218012346215820FEF7CAFFD0
:1026C0000A4845E0484947485B465D00434F554E40
:1026D00054000000343465001000001004040010A1
:1026E0000C4600102D2D2D2D2D2D0000D802001090
:1026F000C08F0100326E64004155583A000000005E
:102700004F55543A00000000F3520300529F01005D
:10271000B7BDCABD203A0000C6B5C2CA5B487A5DE3
:1027200000000000B5E7C6BD5B565D0043705B4628
:102730005D000000445B205D00000000434D500040
:10274000199C0100BC92010000950100279701002F
:10275000D0F8180400EB400101EBC000FE4942181C
:1027600000231A214FF4A970FEF774FFFB48D0F83C
:10277000200400EB400101EBC000F949421801239D
:1027800046214FF4A970FEF765FFF448D0F81C0409
:1027900000EB400101EBC000F24942180123302157
:1027A0004FF4A970FEF756FF2878012800D100E009
:1027B000002006461EB1FF20EB49486003E04FF0C1
:1027C0005010E9494860E84840686E234FF4DD72D4
:1027D0005A2100904FF4A970FEF72DFBDF48D0F886
:1027E000280100EB400101EBC000DE494218012343
:1027F0005C214FF4A970FEF72DFFFFF78FF82878C2
:1028000001281BD16FF07F40D7490860D748486046
:10281000002410E004EB440101EBC401D14BCA18C1
:1028200004EB8401542303EB011188B20023F1214E
:10283000FEF710FF641C022CECD302E00020FFF72F
:1028400054F9F8BDF8B505464FF05010C649486038
:102850002878012800D100E0002006461EB1FF20A4
:10286000C149486003E04FF05010BF494860BE487E
:1028700040682A234FF4D7721A2100904FF4BE709B
:10288000FEF7D9FAB548D0F85C0300EB400101EB44
:10289000C000B449421801231A214FF4BE70FEF75C
:1028A000D9FEFFF73BF8287801281BD16FF07F4055
:1028B000AD490860AD484860002410E004EB4401D5
:1028C00001EBC401A74BCA1804EB8401542303EBAA
:1028D000011188B20023F121FEF7BCFE641C022C1A
:1028E000ECD302E00020FFF700F9F8BD70B5054613
:1028F000012466E1022C05DD072C03DA9C489A4985
:10290000486003E04FF0501097494860601E9349BB
:1029100091F87D1401EB810100EB410000EB800197
:10292000944800EB81008068401C40B9332000EBE4
:102930000411002390A2F620FEF7EFFE27E0621EAE
:10294000864B93F87D3403EB830302EB430202EBE7
:102950008203884A02EB8302117B621E7F4B93F84D
:102960007D3403EB830302EB430202EB8203814AD3
:1029700002EB8302012390680522FEF731FF33202A
:1029800000EB041100237E4AF620FEF7C6FE601E0F
:10299000724991F87D1401EB810100EB410000EBDD
:1029A0008001784800EB81008068401C48B93320E2
:1029B00000EB0411002370A24FF4AD70FEF7ADFEE2
:1029C00028E0621E654B93F87D3403EB830302EB32
:1029D000430202EB82036B4A02EB8302117B621E0D
:1029E0005E4B93F87D3403EB830302EB430202EB6F
:1029F0008203644A02EB8302012390680522FEF7FA
:102A0000EFFE332000EB041100235D4A4FF4AD705C
:102A1000FEF783FE601E514991F87D1401EB8101A0
:102A200000EB41015848405CFF2809D1332000EBFE
:102A30000411002355A24FF4DF70FEF76EFE1DE077
:102A4000601E464991F87D1401EB810100EB4101C4
:102A50004D48405C48B1332000EB041100234CA2E8
:102A60004FF4DF70FEF759FE08E0332000EB04114D
:102A7000002348A24FF4DF70FEF74FFE022C05DD65
:102A8000072C03DA3A483849486003E04FF0501009
:102A900035494860601E314991F87D1401EB810190
:102AA00000EB41013C48405C1E2808DD332000EB70
:102AB0000411002330A22620FEF72FFE16E0601E30
:102AC000264B93F87D3403EB830300EB430332483A
:102AD000C05C00EB400303EBC000304BC218332056
:102AE00000EB041100232620FEF717FE601E1B4991
:102AF00091F87D1401EB810100EB41012648D230B1
:102B0000405C022808DD332000EB041100231AA2E8
:102B10009220FEF702FE17E0601E104B93F87D3402
:102B200003EB830300EB43031B48D230C05C00EB94
:102B3000400303EBC0001A4BC218332000EB041112
:102B400000239220FEF7E9FD044991F87D1401EB82
:102B5000810104EB410025E070970100D8020010CC
:102B6000ED97010026980100100000103800310098
:102B700034346500FC0800102D2D2D2D00000000C0
:102B80000C46001064190010CC2900102D00000024
:102B9000500000004600000056070010009501009C
:102BA00027970100012303220021FEF719FE33209D
:102BB00000EB04110023FE4A0820FEF7AEFD601C66
:102BC000C4B20B2CFFF696AE70BDF8B5054628785A
:102BD000022802D1FFF70AF805E02878022802DD72
:102BE000A878FFF727F82878012805D1A87818B920
:102BF000FF20F049486003E04FF05010ED49486075
:102C0000EC4840682A235E221A2100903620FEF705
:102C100012F9E948D0F8840300EBC000E7494218F4
:102C200000231A213620FEF715FD2878022805D149
:102C3000A87818B9FF20DF49486003E04FF0501032
:102C4000DC494860DB48406842231E223221009064
:102C50000020FEF7F0F80023D9A232211846FEF733
:102C6000F9FC0324D2E12878A04206D1A8780228F2
:102C700003D1FF20CF49486003E04FF05010CD4909
:102C80004860CC4840680090A01E332202EB001040
:102C9000103083B2A01E02EB001081B24FF4997283
:102CA000FA20FEF7C8F8E01EE97801EB810100EB9D
:102CB000410000EB8001C34800EB81008068401CAC
:102CC00058B9A01E332202EB001081B20023AFF2EC
:102CD0005812FA20FEF721FD25E0E21EEB7803EB07
:102CE000830302EB430202EB8203B64A02EB830248
:102CF000117BE21EEB7803EB830302EB430202EB52
:102D00008203B04A02EB8302012390680522FEF79A
:102D100067FDA01E332202EB001081B20023A44AFB
:102D2000FA20FEF7FAFC2878A04206D1A8780328FA
:102D300003D1FF209F49486003E04FF050109D49A8
:102D400048609C4840680090A01E332202EB0010AF
:102D5000103083B2A01E02EB001081B24FF4C1729A
:102D60004FF4A570FEF767F8E01EE97801EB8101EA
:102D700000EB410000EB8001934800EB810080688C
:102D8000401C60B9A01E332202EB001081B2002368
:102D9000AFF21C224FF4A570FEF7BFFC26E0E21E46
:102DA000EB7803EB830302EB430202EB8203864AD8
:102DB00002EB8302117BE21EEB7803EB830302EB51
:102DC000430202EB8203804A02EB830201239068F4
:102DD0000522FEF705FDA01E332202EB001081B292
:102DE0000023734A4FF4A570FEF797FC2878A042A1
:102DF00006D1A878042803D1FF206E49486003E07B
:102E00004FF050106B4948606A4840680090A01E1F
:102E1000332202EB0010103083B2A01E02EB001030
:102E200081B240F2DF124FF4D270FEF704F8E01ED8
:102E3000E97801EB810100EB41016448405CFF2827
:102E40000CD1A01E332202EB001081B20023AFF29E
:102E5000D8224FF4D270FEF760FC0BE0A01E3322A4
:102E600002EB001081B20023AFF2DC224FF4D270EB
:102E7000FEF753FC2878A04205D1A87818B9FF20A6
:102E80004C49486003E04FF050104A4948604948B7
:102E900040680090A01E332202EB0010103083B275
:102EA000A01E02EB001081B27E222820FDF7C3FF96
:102EB000E01EE97801EB810100EB41014448405CF0
:102EC00030280BDDA01E332202EB001081B200235C
:102ED000AFF25C322820FEF720FC16E0E01EEB7813
:102EE00003EB830300EB43033948C05C00EB400372
:102EF00003EBC000374BC218A01E332303EB0010B6
:102F000081B200232820FEF708FC2878A04206D1D1
:102F1000A878012803D1FF202649486003E04FF03C
:102F2000501024494860234840680090A01E332276
:102F300002EB0010103083B2A01E02EB001081B231
:102F4000C4227E20FDF777FFE01EE97801EB8101C6
:102F500000EB41011E48D230405C02280BDDA01E70
:102F6000332202EB001081B20023AFF2F4327E2054
:102F7000FEF7D3FB17E0E01EEB7803EB830300EBD7
:102F800043031348D230C05C00EB400303EBC000A6
:102F9000114BC218A01E332303EB001081B2002393
:102FA0007E20FEF7BAFB4FF050100249486015E052
:102FB0000C46001010000010D8020010BC92010056
:102FC0004E6F2E00FC08001064190010CC29001070
:102FD0005607001000950100279701004860E97826
:102FE00001EB810104EB4101881E01230322002132
:102FF000FEF7F6FBA01E332202EB001081B2002385
:10300000FE4A0820FEF789FB601CC4B20D2CFFF6B7
:103010002AAEF8BDF8B505464FF05010F8494860A3
:103020002878012800D100E0002006461EB1FF20CC
:10303000F349486003E04FF05010F1494860F04810
:1030400040682A2358221A2100903020FDF7F3FE11
:10305000EC4890F87C0400EB8000EB494218012317
:103060001A213020FEF7F6FA2878022801D1012033
:1030700000E0002006461EB1FF20E149486003E061
:103080004FF05010DE494860DD48406840231E2262
:10309000302100900820FDF7CEFE0123AFF2E002C0
:1030A00030210820FEF7D6FAFEF738FC28780128F0
:1030B00019D16FF07F40D2490860D448486000249D
:1030C0000EE004EB8401D04BCA1804EB84015423B6
:1030D00003EB011188B20023F121FEF7BBFA641C57
:1030E000022CEED320E0287802281AD16FF07F401E
:1030F000C3490860C548486000240FE0C4EBC40120
:10310000C34BCA18E11C01EB8101542303EB0111ED
:1031100088B20023F121FEF79DFA641C022CEDD346
:1031200002E06878FEF7E1FCF8BDF8B504462078C7
:10313000012800D100E0002005461DB1FF20B04964
:10314000486003E04FF05010AD494860AC4840681B
:103150002C23C022182100905820FDF76CFEAD48AA
:103160000078C0EBC000AC49421800231A21582057
:10317000FEF770FA2078022801D1012000E000203B
:1031800005461DB1FF209E49486003E04FF05010F6
:103190009B4948609F4A92F868100023506E0422B1
:1031A000FEF71EFB0023954A30215820FEF752FA05
:1031B0009848C06E30B1002398A230218A20FEF7D3
:1031C00049FA05E0002396A230218A20FEF742FA50
:1031D0002078032801D1012000E0002005461DB120
:1031E000FF208749486003E04FF050108449486051
:1031F000884A117B002390680422FEF7F1FA00232D
:103200007E4A46215820FEF725FA8248006930B1EF
:10321000002382A246218A20FEF71CFA05E0002343
:103220007FA246218A20FEF715FA2078042801D1D2
:10323000012000E0002005461DB1FF2070494860D4
:1032400003E04FF050106E4948606D4840682C23F1
:103250004FF4DD72182100904FF4A970FDF7EBFDDB
:103260006C4890F8400000EB400101EBC0006D4954
:10327000421800231A214FF4A970FEF7EBF92078C9
:10328000052801D1012000E0002005461DB1FF20E6
:103290005B49486003E04FF05010594948605D4A6F
:1032A00092F8A0100023D2F89C000422FEF798FAAE
:1032B0000023524A30214FF4A970FEF7CBF90023C6
:1032C00059A230214FF4C170FEF7C4F920780628C6
:1032D00001D1012000E0002005461DB1FF20484932
:1032E000486003E04FF0501045494860494A92F861
:1032F0002C100023906A0422FEF772FA00233F4A42
:1033000046214FF4A970FEF7A5F9002346A24621F5
:103310004FF4C170FEF79EF9FEF700FB207810B164
:1033200001281ED103E00020FEF7DFFB1AE06FF05A
:103330007F40334908603548486000260EE0C6EB00
:10334000C601354BCA1806EB8601542303EB011165
:1033500088B20023F121FEF77DF9761C022EEED310
:1033600000E000BF00BFF8BDF8B505462878012889
:1033700000D100E0002006461EB1FF202049486031
:1033800003E04FF050101E4948601D4840682C2350
:10339000C022182100905820FDF74DFD1D480078EF
:1033A000C0EBC0001C49421800231A215820FEF728
:1033B00051F92878022801D1012000E000200646BA
:1033C0001EB1FF200E49486003E04FF050100C4939
:1033D00048600B4840684223C0222E2100905820AC
:1033E000FDF729FD0B484078C0EBC0000F4942189B
:1033F000002330215820FEF72DF919E00C4600106B
:1034000010000010D80200103C9801003800310074
:1034100046980100D80100104D90010020A6B80088
:103420006DA6B80070970100205600005B90010067
:103430002878032801D1012000E0002006461EB1B3
:10344000FF20FE49486003E04FF05010FB49486000
:10345000FA4840686E23C022442100905820FDF7AE
:10346000EAFCF7488078C0EBC000F6494218002318
:1034700046215820FEF7EEF82878042801D10120D3
:1034800000E0002006461EB1FF20EC49486002E043
:10349000ED48EA494860E94840686E23C0225A2155
:1034A00000905820FDF7C7FCE5488078C0EBC000CD
:1034B000E449421800235C215820FEF7CBF8287815
:1034C000052801D1012000E0002006461EB1FF20A2
:1034D000DA49486002E0DC48D8494860D84A117BA4
:1034E000002390680422FEF77BF9D44840688423C7
:1034F000C022702100905820FDF79DFC0023D34A84
:1035000072215820FEF7A6F8CD48006938B1002393
:10351000AFF2F80272218A20FEF79CF806E0002341
:10352000AFF2041272218A20FEF794F82878062858
:1035300001D1012000E0002006461EB1FF20BF4956
:10354000486003E04FF05010BC494860BB484068F9
:10355000B023C0229C2100905820FDF76CFCB84895
:1035600090F82000C0EBC000B649421800239E210D
:103570005820FEF76FF82878072801D1012000E0D5
:10358000002006461EB1FF20AC49486003E04FF022
:103590005010AA494860AA4A92F82C100023906A59
:1035A0000422FEF71DF9A5484068C623C022B221B7
:1035B00000905820FDF73FFC0023A44AB421582076
:1035C000FEF748F80023AFF2A012B4218820FEF7DE
:1035D00041F82878082801D1012000E000200646A3
:1035E0001EB1FF209549486003E04FF05010934909
:1035F0004860924840682C234FF4DD7218210090F7
:103600004FF4A970FDF717FC8D4890F8400000EBCF
:10361000400101EBC0008E49421800231A214FF4EB
:10362000A970FEF717F82878092801D1012000E0D9
:10363000002006461EB1FF208049486003E04FF09D
:1036400050107E4948607D48406842234FF4DD7247
:103650002E2100904FF4A970FDF7EDFB784890F80B
:103660004100C0EBC0007B494218002330214FF4D9
:10367000A970FDF7EFFF28780A2801D1012000E0AA
:10368000002006461EB1FF206C49486002E06E48EB
:103690006A4948606A4A92F84C100023906C0422F0
:1036A000FEF79EF8654840686E234FF4DD725A219C
:1036B00000904FF4A970FDF7BEFB0023634A5C2124
:1036C0004FF4A970FDF7C6FF5D48006D40B10023BF
:1036D000AFF2B8225C214FF4C270FDF7BBFF07E0E8
:1036E0000023AFF2C4225C214FF4C270FDF7B2FF99
:1036F00028780B2801D1012000E0002006461EB1E9
:10370000FF204E49486002E04F484C4948604C4A0F
:1037100092F868100023506E0422FEF761F84748C3
:10372000406884234FF4DD72702100904FF4A9703B
:10373000FDF781FB0023454A72214FF4A970FDF784
:1037400089FF3F48C06E40B10023AFF23032722192
:103750004FF4C270FDF77EFF07E00023AFF2403266
:1037600072214FF4C270FDF775FF28780C2801D143
:10377000012000E0002006461EB1FF202F494860CE
:1037800003E04FF050102D4948602D4A92F8841004
:103790000023D2F880000422FEF722F82748406870
:1037A000B0234FF4DD729C2100904FF4A970FDF717
:1037B00042FB0023254A9E214FF4A970FDF74AFFE2
:1037C0000023AFF29C329E214FF4C170FDF742FFFF
:1037D00028780D2801D1012000E0002006461EB106
:1037E000FF201649486003E04FF05010134948602D
:1037F000134A92F8A0100023D2F89C000422FDF78F
:10380000EFFF0E484068C6234FF4DD72B2210090EE
:103810004FF4A970FDF70FFB00230C4AB4214FF4BD
:10382000A970FDF717FF0023AFF20442B4214FF453
:10383000C170FDF70FFFFEF771F80DE010000010EA
:10384000D801001069900100343465000C46001066
:1038500070970100C396010028780D2875D2DFE823
:1038600000F0070B253F595A757692BFC0C1C200C0
:103870000020FEF740FAB8E06FF07F40FE49086094
:10388000FE48486000240EE0C4EBC401FC4BCA189B
:1038900004EB8401542303EB011188B20023F121CE
:1038A000FDF7D8FE641C022CEED39EE06FF07F4043
:1038B000F1490860F148486000240EE0C4EBC401FF
:1038C000F04BCA1804EB8401542303EB011188B2B6
:1038D0000023F121FDF7BEFE641C022CEED384E030
:1038E0006FF07F40E4490860E448486000240EE03F
:1038F000C4EBC401E44BCA1804EB8401542303EB6A
:10390000011188B20023F121FDF7A4FE641C022CF2
:10391000EED36AE069E06FF07F40D7490860D7488E
:10392000486000240EE0C4EBC401D74BCA1804EB76
:103930008401542303EB011188B20023F121FDF728
:1039400089FE641C022CEED34FE04DE04DE06FF099
:103950007F40C9490860C9484860002410E004EB72
:10396000440101EBC401C94BCA1804EB8401542380
:1039700003EB011188B20023F121FDF76BFE641CFB
:10398000052CECD331E06FF07F40BB490860BB48A9
:103990004860002421E0BE4890F8B40001280ED110
:1039A000C4EBC401BB4BCA1804EB8401542303EBE2
:1039B000011188B20023F121FDF74CFE0CE0B6495D
:1039C00001EBC40204EB8401542303EB011188B220
:1039D0000023F121FDF73EFE641C042CDBD304E040
:1039E00003E002E001E000E000BF00BFF8BD2DE908
:1039F000F04104460D46164604EB4403A74FDA197E
:103A0000B1B2A8B20123FDF788FEBDE8F081F8B598
:103A100005464FF0501098494860A148D0F8200161
:103A200078B99F494122D1F8B8034FF4B471FFF738
:103A3000DEFF9B494122D1F8B803C821FFF7D7FF29
:103A40000CE0002397A241214FF4B470FDF765FE0E
:103A5000002394A24121C820FDF75FFE28780128A9
:103A600000D100E0002006461EB1FF2082494860D8
:103A700003E04FF05010804948607F4840682C2395
:103A80007022182100904620FDF7D5F98448D0F81F
:103A9000B80300EBC0008449421801231A214620D4
:103AA000FDF7D8FD2878022801D1012000E0002090
:103AB00006461EB1FF207049486003E04FF05010E9
:103AC0006D494860764A92F80C110023D2F808013B
:103AD0000522FDF785FE684840682A234FF492725C
:103AE0001A210090E220FDF7A6F901236F4A1A215E
:103AF000E220FDF7AFFD6A48D0F8100100EB40006E
:103B00006B49421801231A214FF48E70FDF7A2FD74
:103B10002878032801D1012000E0002006461EB1CC
:103B2000FF205549486003E04FF05010524948606B
:103B3000514840682C234FF4E2721821009008018C
:103B4000FDF779F95648D0F820015A4901EB800277
:103B500001231A214FF4C070FDF77CFD287804285A
:103B600001D1012000E0002006461EB1FF2042499D
:103B7000486003E04FF050103F4948603E484068BD
:103B8000422370222E2100904620FDF754F944482C
:103B9000D0F8000100EB8000474942180023302193
:103BA0004620FDF757FD2878052801D1012000E0C7
:103BB000002006461EB1FF202F49486003E04FF069
:103BC00050102D4948602C48406842234FF4AB7296
:103BD0002E210090FA20FDF72EF93148D0F8280167
:103BE00000EB80003449421801233021FA20FDF710
:103BF00031FD06249EE02878A04203D1FF201E4913
:103C000048600CE0A01F022805D9072803D22B48E2
:103C10001949486003E04FF05010174948601648B2
:103C200040680090A01FC0EB00105B3083B2A01F63
:103C3000C0EB00104C3081B2DC229820FDF7FBF87D
:103C4000A01FC0EBC0011E4800EBC1004068C8B314
:103C5000A21FC2EBC2031A4A02EBC302117AA21FCF
:103C6000C2EBC203164A02EBC302002350680522CE
:103C7000FDF7B6FDA01F26E010000010380031004F
:103C80004D9001005B900100699001007097010068
:103C9000D8010010C3960100DF96010056A4010070
:103CA000D802001025000000BC9201000C46001054
:103CB00029A4010097A20100859801003434650011
:103CC000040400102BE0C0EB00104C3081B2012343
:103CD000F7A29820FDF721FDA01FC0EB00104C308B
:103CE00081B20123F34AA020FDF717FDF248D0F876
:103CF0002001F0B9A01FC0EBC003F04800EBC300E7
:103D0000C06800EB4000EE4BC218A01FC0EB0010D3
:103D10004C3081B20123D020FDF7FFFC09E0A01F49
:103D2000C0EB00104C3081B20123E64AA020FDF721
:103D3000F4FC641C102CFFF45EAF10247DE02878A6
:103D4000A04203D1FF20E04948600DE0A4F110003B
:103D5000022805D9072803D2DC48DB49486003E084
:103D60004FF05010D8494860D74840680090A4F1FF
:103D70001000C0EB00105F3083B2A4F11000C0EB64
:103D800000104C3081B24FF4BE724FF4A070FDF7BA
:103D900052F8A4F11000C0EBC001C84800EBC1000C
:103DA000006AE0B3A4F11002C2EBC203C34A02EB03
:103DB000C30292F82410A4F11002C2EBC203BF4A5E
:103DC00002EBC3020023106A0522FDF709FDA4F1EE
:103DD0001000C0EB00104C3081B20023B54A4FF404
:103DE000A070FDF79AFCB448D0F8200120BBA4F1E4
:103DF0001000C0EBC003B14800EBC300806A00EBC9
:103E00004000AF4BC218A4F11000C0EB00104C30C2
:103E100081B201234FF4B870FDF77FFC0CE0FFE79F
:103E2000A4F11000C0EB00104C3081B20123A54A70
:103E30004FF4A070FDF771FC641C1A2CFFF47FAFE7
:103E4000FDF76CFD2878062857D2DFE800F003075D
:103E50000809223C6878FDF74EFF64E063E062E009
:103E60006FF07F40984908609948486000240DE051
:103E7000984901EB840204EB8401542303EB011104
:103E800088B20023F121FDF7E5FB641C022CEFD37F
:103E900049E06FF07F408C4908608D4848600024FD
:103EA0000EE004EB84018C4BCA1804EB840154230C
:103EB00003EB011188B20023F121FDF7CBFB641C59
:103EC000022CEED32FE06FF07F407F4908608048DE
:103ED000486000240EE004EB84017F4BCA1804EB19
:103EE0008401542303EB011188B20023F121FDF773
:103EF000B1FB641C022CEED315E0002377A2F12164
:103F00005420FDF7A7FB0023764AE7214FF4CA703F
:103F1000FDF7A0FB0023734A0832FB214FF4CA705F
:103F2000FDF798FB00BF00BFF8BD2DE9F041044646
:103F30000D461646207828B32078042811DD28463F
:103F40000DF046FD074606F05BFB20781622504335
:103F500000F11A010123574A4FF4A070FDF77AFBD4
:103F600010E030460DF034FD074602F015FD2078D4
:103F70001622504300F11A0101234E4A4FF4A0705B
:103F8000FDF768FBBDE8F08138B5054600242FE059
:103F90002978601C814203D1FF204B49486003E02F
:103FA0004FF0501048494860474840680090A01CB6
:103FB00016225043163083B2601C5043183081B231
:103FC000E822A020FCF737FF474A115D474A32F844
:103FD000240000230422FDF703FC601C162250433A
:103FE0001A3081B20123334AA020FDF733FB641C51
:103FF000062CCDD34FF050103349486038BDF8B58A
:1040000005462878012800D100E0002006461EB1B0
:10401000FF202D49486003E04FF050102A494860C6
:10402000294840682C23C0221A2100905A20FCF70E
:1040300002FF2E48B83890F8D000C0EBC0002C49E1
:10404000421800231C215A20FDF704FB287802287F
:1040500001D1012000E0002006461EB1FF201A49D0
:10406000486003E04FF05010174948601648406818
:104070004223C022302100905A20FCF7DCFE1B486E
:10408000B83890F8D100C0EBC0001A49421800239C
:1040900032215A20FDF7DEFA2878032801D10120C9
:1040A00000E0002006463EB3FF200749486028E0B4
:1040B0002D0000000C460010D8020010040400106F
:1040C00029A40100E426000010000010343465002B
:1040D0003800310097A2010085980100C7E5B3FDC3
:1040E000D0D00000B01D000058A5010090020010C3
:1040F00069900100B5A30100FFE74FF05010FD49A2
:104100004860FC4840685823C022462100905A204D
:10411000FCF791FEF84890F8D200C0EBC000F749D8
:104120004218002348215A20FDF794FA28780428E1
:1041300001D1012000E0002006461EB1FF20ED491C
:10414000486003E04FF05010EA494860E948406891
:104150006E23C0225C2100905A20FCF76CFEE648DA
:1041600090F8D300C0EBC000E449421800235E2160
:104170005A20FDF76FFA2878052801D1012000E0C8
:10418000002006461EB1FF20DA49486003E04FF0E8
:104190005010D8494860D74840688423C022722113
:1041A00000905A20FCF747FED34890F8D400D44939
:1041B00001EBC002002374215A20FDF74BFA287846
:1041C000062801D1012000E0002006461EB1FF2094
:1041D000C849486003E04FF05010C6494860C548E0
:1041E00040689A236C22882100905A20FCF723FE15
:1041F000C44901230222C8690021FDF7F1FA002316
:10420000C14A8A215A20FDF725FA4FF05010B949CA
:1042100048600023AFF268128A216E20FDF71AFA77
:104220002878072801D1012000E0002006461EB1B1
:10423000FF20B049486003E04FF05010AD4948609E
:10424000AC4840689A238A22882100907820FCF7A5
:10425000F2FDAC490123022288690021FDF7C0FA72
:104260000023A94A8A217820FDF7F4F94FF0501075
:10427000A04948600023AFF2C8128A218C20FDF7C4
:10428000E9F92878082801D1012000E0002006463D
:104290001EB1FF209749486003E04FF05010954948
:1042A0004860944840689A23AA2288210090982068
:1042B000FCF7C1FD934901230222C8680021FDF7E4
:1042C0008FFA00209049887000230A468A2198209E
:1042D000FDF7C0F92878092801D1012000E000206D
:1042E00006461EB1FF208349486003E04FF050109E
:1042F000804948607F484068B0236C229E2100902E
:104300005A20FCF798FD7F4901230222886800218A
:10431000FDF766FA00237C4AA0215A20FDF79AF99E
:104320004FF0501073494860002378A2A0216E20FE
:10433000FDF790F928780A2801D1012000E000203B
:1043400006461EB1FF206B49486003E04FF0501055
:104350006849486067484068B0238A229E210090DF
:104360007820FCF768FD6749012302224868002194
:10437000FDF736FA0023644AA0217820FDF76AF998
:104380004FF050105B494860002360A2A0218C20B0
:10439000FDF760F928780B2801D1012000E000200A
:1043A00006461EB1FF205349486003E04FF050100D
:1043B000504948604F484068B023AA229E2100908F
:1043C0009820FCF738FD4F4901230222086800219C
:1043D000FDF706FA00204C49887000230A46A02108
:1043E0009820FDF737F928780C2801D1012000E04A
:1043F000002006461EB1FF203E49486003E04FF012
:1044000050103C4948603B484068C623C022B42154
:1044100000905A20FCF70FFD0023374AD532B62111
:104420005A20FDF717F9FDF779FA6FF07F4031490F
:1044300008603748486028780C285AD2DFE800F036
:1044400006091D31456C7F8081828384FDF744FD20
:104450008EE000240EE0C4EBC401284BCA1804EB24
:104460008401542303EB011188B20023F121FDF7ED
:10447000F1F8641C022CEED37AE000240EE0C4EBC9
:10448000C401244BCA1804EB8401542303EB01112B
:1044900088B20023F121FDF7DDF8641C052CEED372
:1044A00066E000240EE0C4EBC401144BCA1804EB10
:1044B0008401542303EB011188B20023F121FDF79D
:1044C000C9F8641C022CEED352E000240EE0C4EBC9
:1044D000C4010A4BCA1804EB8401542303EB0111F5
:1044E00088B20023F121FDF7B5F8641C022CEED34D
:1044F0003EE03CE010000010D8010010699001007F
:10450000A5A30100BC4500100C4600103A000000B5
:1045100038003100B5A3010000240DE0FD4901EB96
:10452000C40204EB8401542303EB011188B200237D
:10453000F121FDF78FF8641C022CEFD318E000BFC7
:1045400000BF00BF00BF00BF00240DE0F24901EB37
:10455000C40204EB8401542303EB011188B200234D
:10456000F121FDF777F8641C022CEFD300E000BFC7
:1045700000BFF8BD10B5FDF7F1FCFDF7CFF910BD98
:1045800010B5FFF7F7FF6FF07F40E4490860E4489B
:1045900048600023E34A04211846FDF75BF86FF0FA
:1045A0007F40DE4908604FF05010486000240EE064
:1045B00004EB840101EBC401DB4BCA1804EB84015A
:1045C0004905080C00231A21FDF744F8641C032C4C
:1045D000EED300240FE004EB840000EBC400D34BC7
:1045E000C218601C162358431A3081B200231846A3
:1045F000FDF730F8641C062CEDD310BD08B5CC488F
:10460000B62340F2DF127A2100900020FCF713FC61
:1046100008BD10B5FDF7A2FCFDF780F9FFF7EEFF2E
:1046200010BD10B5FFF7F5FF6FF07F40BB49086084
:10463000BB4848600023BB4A163204211846FDF7E8
:1046400009F86FF07F40B54908604FF0501048609E
:1046500000241CE0032C0CD2B64901EBC40204EB8D
:104660008401002303EB411188B21A21FCF7F2FF09
:104670000CE0B04901EBC402E11E01EB8101002313
:1046800003EB411188B23021FCF7E4FF641C062CD7
:10469000E0D3002417E0032C05D9082C03D2A4484A
:1046A0009E49486003E04FF050109C494860A24882
:1046B00000EB8402C4EB0410413081B200231846A1
:1046C000FDF72BF8641C0B2CE5D300239BA24121A2
:1046D000A020FDF722F8002399A241214FF4A070F9
:1046E000FDF71BF898491A22D1F8B8034FF49371DB
:1046F000FDF73FFD0020FDF7FEFA10BD08B58C4820
:10470000B62340F2DF127A2100900020FCF793FBE1
:1047100008BD10B5FDF722FCFDF700F910BD10B57E
:10472000FFF7F7FF6FF07F407C4908607C484860E6
:1047300000237C4A2C3204211846FCF78BFF6FF0D3
:104740007F40764908604FF05010486000237F4A50
:104750001A211846FCF77EFF01240DE004EBC4018A
:104760007A4BCA18611E4D2359431E3188B200236B
:104770003021FCF76FFF641C072CEFD30020FDF7FE
:10478000BAFA10BD38B500241BE06FF07F400090EE
:10479000601C00EB400202EBC0001A2202EB40005A
:1047A000801E83B2601C00EB400202EBC0001A22A4
:1047B00002EB4000801E81B2BE225A20FCF77FFB34
:1047C000641C072CE1D338BD10B5FDF7C7FBFDF71E
:1047D000A5F810BD10B5FFF7F7FF6FF07F404F4908
:1047E00008604F48486000234E4A6E320421184644
:1047F000FCF730FF6FF07F40484908604FF05010E1
:104800004860534890F8FF00012814D100240FE0BD
:10481000C4EBC40000EB40004E4BC218162304FB4F
:1048200003F01A3081B200231846FCF713FF641C12
:10483000042CEDD313E000240FE0C4EBC40000EB24
:104840004000454BC218162304FB03F01A3081B216
:1048500000231846FCF7FEFE641C042CEDD3002355
:104860003B4AF5325C215A20FCF7F4FEFDF734FB9D
:1048700010BD10B5FFF7A8FF6FF07F402749086013
:10488000274848600023274A423204211846FCF793
:10489000E1FE6FF07F40214908604FF05010486002
:1048A00000240FE004EB440000EBC4002B4BC218C3
:1048B000162304FB03F01A3081B200231846FCF7DC
:1048C000C9FE641C082CEDD3FFF75CFFFDF704FB69
:1048D00010BD2DE9F34F83B00C4642F20F716068B2
:1048E000884206D90A216068B0FBF1F060600420BC
:1048F000A060A068C0F10400A06060680DF0BCF882
:104900008146E06828B9164948460DF0FDF8814611
:1049100037E027E0A5A30100DD970100100000109B
:10492000F35203007E9F010008A101002FA10100A6
:104930003434650067A20100CFA201004C4F57003C
:104940004849474800000000D802001027A3010092
:10495000D8010010819D0100D59D0100299E010014
:1049600000007A44E06801280BD148460CF0D4FEE0
:1049700007460022FB4B0CF0BFFB05460CF0E2F8AB
:104980008146A0680CF068FB07463A460B460020BB
:10499000F5490BF099FB05460E4648460CF0BCFE67
:1049A0002A463346CDE900010CF0BAF982460CF0F4
:1049B000C9F8814648460CF0AFFE05460022EB4B95
:1049C0000CF098FC09D2DFF8A89340F6B83060608C
:1049D0000220A0600120E06071E048460CF09CFEDF
:1049E00005460022E34B0CF085FC0CD8E249484612
:1049F0000CF02CFF05460DF007F860600220A06067
:104A00000120E0605BE048460CF086FE054600228F
:104A1000D44B0CF06FFC0CD8D84948460CF016FF6C
:104A200005460CF0F1FF60600320A0600120E0600B
:104A300045E048460CF070FE05460022D04B0CF0D5
:104A400059FC0CD8CF4948460CF000FF05460CF045
:104A5000DBFF60600120A0600020E0602FE048469E
:104A60000CF05AFE05460022C74B0CF043FC0CD854
:104A7000C64948460CF0EAFE05460CF0C5FF6060EA
:104A80000220A0600020E06019E048460CF044FEDF
:104A900005460022BE4B0CF02DFC08D848460CF011
:104AA000B3FF60600320A0600020E06007E048469C
:104AB0000CF0AAFF60600320A0600020E060484680
:104AC0000CF0A2FFA0611C22214603980AF083F893
:104AD00005B0BDE8F08F0146888800B270472DE927
:104AE000F04105460C46E06870BBA068052829D255
:104AF000DFE800F00314151C220060680CF0ACFA2B
:104B0000064600229E4B0CF0F5FB04D2A1486060E3
:104B10000020206101E00120206114E013E04FF447
:104B20007A716068B0FBF1F060600CE0642160684D
:104B3000B0FBF1F0606006E00A216068B0FBF1F0C4
:104B4000606000E000BF45E0A06806283ED2DFE8D4
:104B500000F00310181926328E496068884202D985
:104B60000846606004E04FF47A7160684843606012
:104B70002FE0606820B10A216068B0FBF1F060604E
:104B800027E026E042F210716068884201D90846A9
:104B90006060606800EB80004000606019E0606861
:104BA000B0F57A7F02D94FF47A7060606421606852
:104BB000484360600DE06068642801D9642060604B
:104BC0004FF47A7160684843606002E07248606048
:104BD00000BF00BF1C222146284609F0FCFFBDE8AB
:104BE000F0812DE9F34F83B08A4642F20F71DAF873
:104BF0000400884209D90A21DAF80400B0FBF1F078
:104C0000CAF804000420CAF808004FF47A71DAF8F0
:104C1000040000FB01FBDAF80810C1F104000CF0FD
:104C20001BFA02460B46CDE9000100204E490BF06D
:104C30004BFA04460D4658460CF00EFA064622463C
:104C40002B460CF06DF880460CF0C2F983464EF608
:104C50006020834500D9834642F21070834508D313
:104C60000220CAF808000A20BBFBF0F0CAF80400D2
:104C700004E00320CAF80800CAF804B0CAF818B063
:104C80001C225146039809F0A6FF05B0BDE8F08F3D
:104C90002DE9F05F82460C460020E060A0680CF031
:104CA000EBFE83460CF038FD07463A460B460020E3
:104CB0002D490BF009FA05460CF08AF98146606827
:104CC000B0FBF9F9B9F1640F01D90220A0601C22F0
:104CD0002146504609F07FFFBDE8F09F08B52F48F8
:104CE000372328225C2100903C20FCF7CBFA2C488B
:104CF000372328225C2100906420FCF7C3FA29485E
:104D000037232822932100903C20FCF7BBFA264849
:104D100037232822932100906420FCF7B3FA08BDC2
:104D200008B51E48372328225C2100903C20FCF760
:104D3000A9FA1B48372328225C2100906420FCF745
:104D4000A1FA1A4837232822932100903C20FCF72F
:104D500099FA154837232822932100906420FCF704
:104D600091FA08BD80842E4100002440389C7C418B
:104D7000C0E1E44BD012634100401C4600007A447D
:104D8000006AF8400000C8420088C340000020418B
:104D900000408F40A086010040420F005863010090
:104DA00070640100A0790100AA880100B37A0100B3
:104DB00008B5FE48372328225C2100903C20FCF7F0
:104DC00061FAFB48372328225C2100906420FCF71D
:104DD00059FAF84837232822932100903C20FCF709
:104DE00051FAF54837232822932100906420FCF7DC
:104DF00049FA08BD08B5ED48372328225C21009008
:104E00003C20FCF73FFAEA48372328225C21009037
:104E10006420FCF737FAE9483723282293210090D1
:104E20003C20FCF72FFAE2483723282293210090F8
:104E30006420FCF727FA08BD08B5DC483723282290
:104E40005C2100903C20FCF71DFADD483723282226
:104E50005C2100906420FCF715FAD84837232822FB
:104E6000932100903C20FCF70DFAD54837232822E7
:104E7000932100906420FCF705FA08BD08B5CB48E3
:104E8000372328225C2100903C20FCF7FBF9CC481A
:104E9000372328225C2100906420FCF7F3F9C948ED
:104EA00037232822932100903C20FCF7EBF9C248DD
:104EB00037232822932100906420FCF7E3F908BDF2
:104EC00008B5BA48372328225C2100903C20FCF723
:104ED000D9F9BB48372328225C2100906420FCF7D5
:104EE000D1F9B94837232822932100903C20FCF7C0
:104EF000C9F9B14837232822932100906420FCF798
:104F0000C1F908BD08B5B148372328225C210090BB
:104F10003C20FCF7B7F9A648372328225C210090F3
:104F20006420FCF7AFF9A84837232822932100908A
:104F30003C20FCF7A7F9A0483723282293210090B2
:104F40006420FCF79FF908BD08B5A0483723282244
:104F50005C2100903C20FCF795F9954837232822E6
:104F60005C2100906420FCF78DF9944837232822B7
:104F7000932100903C20FCF785F98D4837232822A7
:104F8000932100906420FCF77DF908BD08B58F4897
:104F9000372328225C2100903C20FCF773F98448D9
:104FA000372328225C2100906420FCF76BF98348AA
:104FB00037232822932100903C20FCF763F9844892
:104FC00037232822932100906420FCF75BF908BD69
:104FD00008B57E48372328225C2100903C20FCF74E
:104FE00051F97348372328225C2100906420FCF794
:104FF00049F9744837232822932100903C20FCF77C
:1050000041F96D4837232822932100906420FCF752
:1050100039F908BD08B56D48372328225C21009076
:105020003C20FCF72FF96248372328225C210090AE
:105030006420FCF727F95F4837232822932100904A
:105040003C20FCF71FF95C4837232822932100906D
:105050006420FCF717F908BD08B55C4837232822FF
:105060005C2100903C20FCF70DF95548372328229D
:105070005C2100906420FCF705F952483723282270
:10508000932100903C20FCF7FDF84B483723282261
:10509000932100906420FCF7F5F808BD08B54B4853
:1050A000372328225C2100903C20FCF7EBF8444891
:1050B000372328225C2100906420FCF7E3F8424863
:1050C00037232822932100903C20FCF7DBF83A4854
:1050D00037232822932100906420FCF7D3F808BDE1
:1050E00008B53A48372328225C2100903C20FCF781
:1050F000C9F83348372328225C2100906420FCF74C
:10510000C1F82E4837232822932100903C20FCF739
:10511000B9F82B4837232822932100906420FCF70C
:10512000B1F808BD08B52948372328225C21009032
:105130003C20FCF7A7F82248372328225C21009066
:105140006420FCF79FF81D48372328229321009004
:105150003C20FCF797F81E48372328229321009023
:105160006420FCF78FF808BD08B51A4837232822B9
:105170005C2100903C20FCF785F80F48372328225B
:105180005C2100906420FCF77DF811483723282229
:10519000932100903C20FCF775F80748372328221C
:1051A000932100906420FCF76DF808BD586301005E
:1051B000706401007A770100AA8801006776010017
:1051C0002E730100A0790100B37A01001B72010067
:1051D000C67B01004174010008B5F8483723282236
:1051E0005C2100903C20FCF74DF8F548372328223D
:1051F0005C2100906420FCF745F8F2483723282210
:10520000932100903C20FCF73DF8ED4837232822FD
:10521000932100906420FCF735F808BD08B5EA48F2
:10522000372328225C2100903C20FCF72BF8E4482F
:10523000372328225C2100906420FCF723F8E34800
:1052400037232822932100903C20FCF71BF8DC48F0
:1052500037232822932100906420FCF713F808BD1F
:1052600008B5D948372328225C2100903C20FCF760
:1052700009F8D348372328225C2100906420FCF7EA
:1052800001F8D04837232822932100903C20FBF7D7
:10529000F9FFCB4837232822932100906420FBF7A5
:1052A000F1FF08BD08B5CA48372328225C210090C9
:1052B0003C20FBF7E7FFC748372328225C210090FA
:1052C0004FF4AA70FBF7DEFFC3483723282293214F
:1052D00000903C20FBF7D6FFBF48372328229321BC
:1052E00000904FF4AA70FBF7CDFFBC48007848B19E
:1052F000B348372328225C2100904FF49670FBF7C7
:10530000C1FF08E0B648372328225C2100904FF403
:105310009670FBF7B7FF08BD08B5B24837232822BF
:10532000932100903C20FBF7ADFFA94837232822AA
:105330005C2100903C20FBF7A5FFAB4837232822D7
:105340005C2100906420FBF79DFF9D4837232822B5
:10535000932100906420FBF795FF08BD08B59C4899
:10536000372328225C2100903C20FBF78BFF9F48CD
:10537000372328225C2100906420FBF783FF9948A3
:1053800037232822932100903C20FBF77BFF8C4899
:1053900037232822932100906420FBF773FF08BD78
:1053A00008B59348372328225C2100903C20FBF766
:1053B00069FF904837232822932100903C20FBF777
:1053C00061FF08BD2DE9F84F834617461C464FF094
:1053D0000109CA460020A07000BF00F021FF064668
:1053E000FF2EFAD1844890F8B803A07017E1BAF103
:1053F000000F33D04FF0000A6FF07F407F49086004
:105400007F484860FCF78AFAFF207C4948600846DC
:1054100040682C23C022182100905820FBF70BFD78
:10542000A07800EBC0007749421801231A215820C8
:10543000FCF710F972487149486000250CE007EB51
:10544000C50205EB8501542303EB01100023F12174
:10545000FCF700F9681CC5B2052DF0DB00F0E0FE9A
:105460000646FF2E02D14FF0000801E008F10108C6
:10547000B8F1030FBAD14FF0010A00F0F5FE0B2E80
:1054800079D00CDC032E77D004DC012E59D0022E0B
:1054900073D18DE0092E0FD00A2EF9D16FE0132EB3
:1054A00070D004DC112E18D0122EF1D1B0E0192EDC
:1054B0002DD01B2EECD171E0E0785349085CFF2819
:1054C00004D0E078085CA0704FF00009A0784A4949
:1054D000C1F8B803FF20A070A0E0E1784A48C01DE1
:1054E000405CFF2806D0E1784748C01D405CA070B2
:1054F0004FF00009A0784049C1F8B803E17842486C
:105500001530405CFF2801D0FF20A07086E0E178D4
:105510003D480E30405CFF2806D0E1783A480E3016
:10552000405CA0704FF00009A0783349C1F8B8037F
:10553000E17835481530405CFF2801D0FF20A0708D
:105540006CE0E17830481530405CFF2806D0E17807
:105550002D481530405CA0704FF00009A078264916
:10556000C1F8B803E17828481530405CFF2801D025
:10557000FF20A07052E00BE015E04EE002E04FF09B
:1055800000094BE00620214908604FF0000945E082
:1055900005201E4908604FF000093FE04FF0000968
:1055A000002020703AE04FF000090A20207035E01A
:1055B0004FF000090220207030E00000417401002B
:1055C000AA880100D97C010054750100C67B010046
:1055D0006776010084860100098E01006F000010CB
:1055E0004B830100B37A01002E7301007064010047
:1055F0007A7701008D780100D802001010000010A9
:1056000038003100BC9201004C9401008C00001065
:105610004FF000090020207000E000BF00BFB9F18A
:10562000000F7FF4E4AEBDE8F88F70B504460D4678
:10563000FE48007801280DD1FD4890F8B40048B923
:105640006FF07F40FB490860FB4A5C218420FBF738
:10565000B9FF1AE0012C02D00CB1042C02D1FF20BA
:10566000F4490860F44A5C218420FBF7ABFF022C6C
:1056700003D0032C01D0042C03D1FF20ED49086096
:1056800003E06FF07F40EB490860284604F0B8FF64
:10569000EA48807838B1EAA293216420FBF792FFB0
:1056A00000F0B7FB15E02DB9E5A293216420FBF7CC
:1056B00089FF04E0E3A293216420FBF783FF002D20
:1056C00005DC15F1C80F02DD00F0A3FB01E000F0DE
:1056D00094FBD94A93218420FBF774FF6FF07F403D
:1056E000D44908604FF0501048600023D6A2D22160
:1056F0001E20FBF7AFFF70BD30B585B004460D46E8
:10570000D3A003C8CDE90301D3A103C9CDE90101A9
:1057100003A8005D40F213114843D14908443723E0
:1057200028225C2100904FF4BE70FBF7ABFD01A86E
:10573000405D40F213114843C949084437232822E9
:105740005C2100904FF4D270FBF79CFD05B030BD9A
:1057500030B585B004460D46BDA003C8CDE90301B0
:10576000BDA103C9CDE9010103A8005D40F21311F9
:105770004843BB49084437232822932100904FF423
:10578000BE70FBF77FFD01A8405D40F21311484356
:10579000B349084437232822932100904FF4D27054
:1057A000FBF770FD05B030BD3EB50446AD4A07CAF3
:1057B0008DE807009E4890F840008DF80200BF2059
:1057C0008DF803006946A84806F01EF83EBD00B5F6
:1057D00087B0142102A809F030FAA2480C30006802
:1057E000019060208DF80800A048D0F8B80300EBC5
:1057F00040009F49085C8DF8090070208DF80A0070
:105800009A48D0F8B80300EB4000084440788DF87F
:105810000B0071208DF80C009448D0F8B80300EB11
:105820004000084480788DF80D0080208DF80E002F
:105830008E4890F8C0038DF80F0090208DF810006E
:105840008A4890F8C4038DF81100A0208DF812004A
:10585000864890F820048DF81300B0208DF81400CD
:10586000824890F818048DF81500C0208DF81600B5
:105870007E4890F824048DF81700E0208DF8180079
:105880007A4890F8D0038DF80F0080208DF8190029
:10589000BF208DF81A0000208DF81B0001A9724866
:1058A00005F0B2FF07B000BD0EB56E4A103207CA50
:1058B0008DE8070069466C4805F0A6FF0EBD3EB5B1
:1058C0000446684A1C3207CA8DE807002146694829
:1058D00005F09AFF3EBD00B585B000200190029012
:1058E000039004905F4828300068009010208DF8E5
:1058F00001000D208DF802005F4800788DF803004C
:1059000002208DF8040000208DF80400BF208DF8DF
:105910000A0000208DF80B006946534805F074FF1B
:1059200005B000BD70B504460D4604EB4400534974
:1059300042180123C8218020FBF78CFE05EB4500AF
:105940004F4942180123C8218820FBF783FE70BD10
:1059500070B504460D4604EB440048494218002344
:10596000C8214FF4C270FBF775FE05EB45004449B2
:1059700042180023C8214FF4C670FBF76BFE70BDC0
:1059800000B58DB018223FA107A809F024F918220C
:1059900042A101A809F01FF94FF0501025494860B5
:1059A0000123444AC8213420FBF754FE0123414A15
:1059B0000A32C8214FF49C70FBF74CFE2B4AD2F8F8
:1059C000B82307AB995C3B4A713A92F89D00FFF708
:1059D000A9FF264AD2F8B82301AB995C354A713A3F
:1059E00092F89E00FFF7B4FF0DB000BD10B5002483
:1059F0006CE0012C01DD072C01DB082C03DD2E48B7
:105A00000C49486003E04FF050100A4948602B49A8
:105A100051F82400002306221946FBF7E1FEC4EBEF
:105A2000041000F13A010123034A49E0400000104C
:105A3000D8010010100000100C4600106F0000107C
:105A4000200000002D000000546573742E2E2E00DF
:105A50000C0F1011160E0D00121314020B17160066
:105A60000871010074A5010000C00040D8020010B8
:105A7000F49F070000C009405C00001029A4010049
:105A800056A4010000000000000000010101010116
:105A900001010102020303020202000006060302E2
:105AA00006060206020206060602020504050402B4
:105AB00006060000B144001034346500DC450010D7
:105AC0004FF4C370FBF729FE601CC4B20B2C90DBB3
:105AD00010BD70B504460D46A9B2A0B20123AAA21A
